{
  "_format": "hh-sol-artifact-1",
  "contractName": "Lootery",
  "sourceName": "contracts/Lootery.sol",
  "abi": [
    {
      "inputs": [],
      "stateMutability": "nonpayable",
      "type": "constructor"
    },
    {
      "inputs": [
        {
          "internalType": "address",
          "name": "target",
          "type": "address"
        }
      ],
      "name": "AddressEmptyCode",
      "type": "error"
    },
    {
      "inputs": [
        {
          "internalType": "address",
          "name": "account",
          "type": "address"
        }
      ],
      "name": "AddressInsufficientBalance",
      "type": "error"
    },
    {
      "inputs": [
        {
          "internalType": "address",
          "name": "caller",
          "type": "address"
        }
      ],
      "name": "CallerNotRandomiser",
      "type": "error"
    },
    {
      "inputs": [
        {
          "internalType": "uint256",
          "name": "tokenId",
          "type": "uint256"
        }
      ],
      "name": "ClaimWindowMissed",
      "type": "error"
    },
    {
      "inputs": [
        {
          "internalType": "address",
          "name": "sender",
          "type": "address"
        },
        {
          "internalType": "uint256",
          "name": "tokenId",
          "type": "uint256"
        },
        {
          "internalType": "address",
          "name": "owner",
          "type": "address"
        }
      ],
      "name": "ERC721IncorrectOwner",
      "type": "error"
    },
    {
      "inputs": [
        {
          "internalType": "address",
          "name": "operator",
          "type": "address"
        },
        {
          "internalType": "uint256",
          "name": "tokenId",
          "type": "uint256"
        }
      ],
      "name": "ERC721InsufficientApproval",
      "type": "error"
    },
    {
      "inputs": [
        {
          "internalType": "address",
          "name": "approver",
          "type": "address"
        }
      ],
      "name": "ERC721InvalidApprover",
      "type": "error"
    },
    {
      "inputs": [
        {
          "internalType": "address",
          "name": "operator",
          "type": "address"
        }
      ],
      "name": "ERC721InvalidOperator",
      "type": "error"
    },
    {
      "inputs": [
        {
          "internalType": "address",
          "name": "owner",
          "type": "address"
        }
      ],
      "name": "ERC721InvalidOwner",
      "type": "error"
    },
    {
      "inputs": [
        {
          "internalType": "address",
          "name": "receiver",
          "type": "address"
        }
      ],
      "name": "ERC721InvalidReceiver",
      "type": "error"
    },
    {
      "inputs": [
        {
          "internalType": "address",
          "name": "sender",
          "type": "address"
        }
      ],
      "name": "ERC721InvalidSender",
      "type": "error"
    },
    {
      "inputs": [
        {
          "internalType": "uint256",
          "name": "tokenId",
          "type": "uint256"
        }
      ],
      "name": "ERC721NonexistentToken",
      "type": "error"
    },
    {
      "inputs": [],
      "name": "FailedInnerCall",
      "type": "error"
    },
    {
      "inputs": [],
      "name": "GameAlreadyDrawn",
      "type": "error"
    },
    {
      "inputs": [],
      "name": "GameInactive",
      "type": "error"
    },
    {
      "inputs": [
        {
          "internalType": "uint256",
          "name": "paid",
          "type": "uint256"
        },
        {
          "internalType": "uint256",
          "name": "expected",
          "type": "uint256"
        }
      ],
      "name": "IncorrectPaymentAmount",
      "type": "error"
    },
    {
      "inputs": [
        {
          "internalType": "uint256",
          "name": "value",
          "type": "uint256"
        }
      ],
      "name": "InsufficientJackpotSeed",
      "type": "error"
    },
    {
      "inputs": [
        {
          "internalType": "uint256",
          "name": "have",
          "type": "uint256"
        },
        {
          "internalType": "uint256",
          "name": "want",
          "type": "uint256"
        }
      ],
      "name": "InsufficientOperationalFunds",
      "type": "error"
    },
    {
      "inputs": [],
      "name": "InsufficientRandomWords",
      "type": "error"
    },
    {
      "inputs": [
        {
          "internalType": "uint256",
          "name": "ballValue",
          "type": "uint256"
        }
      ],
      "name": "InvalidBallValue",
      "type": "error"
    },
    {
      "inputs": [
        {
          "internalType": "uint256",
          "name": "gamePeriod",
          "type": "uint256"
        }
      ],
      "name": "InvalidGamePeriod",
      "type": "error"
    },
    {
      "inputs": [],
      "name": "InvalidInitialization",
      "type": "error"
    },
    {
      "inputs": [],
      "name": "InvalidInputs",
      "type": "error"
    },
    {
      "inputs": [
        {
          "internalType": "uint256",
          "name": "numPicks",
          "type": "uint256"
        }
      ],
      "name": "InvalidNumPicks",
      "type": "error"
    },
    {
      "inputs": [
        {
          "internalType": "address",
          "name": "prizeToken",
          "type": "address"
        }
      ],
      "name": "InvalidPrizeToken",
      "type": "error"
    },
    {
      "inputs": [
        {
          "internalType": "address",
          "name": "randomiser",
          "type": "address"
        }
      ],
      "name": "InvalidRandomiser",
      "type": "error"
    },
    {
      "inputs": [
        {
          "internalType": "uint256",
          "name": "delay",
          "type": "uint256"
        },
        {
          "internalType": "uint256",
          "name": "minValue",
          "type": "uint256"
        }
      ],
      "name": "InvalidSeedJackpotConfig",
      "type": "error"
    },
    {
      "inputs": [
        {
          "internalType": "uint256",
          "name": "ticketPrice",
          "type": "uint256"
        }
      ],
      "name": "InvalidTicketPrice",
      "type": "error"
    },
    {
      "inputs": [
        {
          "internalType": "address",
          "name": "renderer",
          "type": "address"
        }
      ],
      "name": "InvalidTicketSVGRenderer",
      "type": "error"
    },
    {
      "inputs": [
        {
          "internalType": "uint256",
          "name": "pickId",
          "type": "uint256"
        },
        {
          "internalType": "uint256",
          "name": "winningPickId",
          "type": "uint256"
        }
      ],
      "name": "NoWin",
      "type": "error"
    },
    {
      "inputs": [],
      "name": "NotInitializing",
      "type": "error"
    },
    {
      "inputs": [
        {
          "internalType": "address",
          "name": "owner",
          "type": "address"
        }
      ],
      "name": "OwnableInvalidOwner",
      "type": "error"
    },
    {
      "inputs": [
        {
          "internalType": "address",
          "name": "account",
          "type": "address"
        }
      ],
      "name": "OwnableUnauthorizedAccount",
      "type": "error"
    },
    {
      "inputs": [
        {
          "internalType": "uint256",
          "name": "secondsToWait",
          "type": "uint256"
        }
      ],
      "name": "RateLimited",
      "type": "error"
    },
    {
      "inputs": [
        {
          "internalType": "uint256",
          "name": "requestId",
          "type": "uint256"
        },
        {
          "internalType": "uint256",
          "name": "timestamp",
          "type": "uint256"
        }
      ],
      "name": "RequestAlreadyInFlight",
      "type": "error"
    },
    {
      "inputs": [
        {
          "internalType": "uint256",
          "name": "actual",
          "type": "uint256"
        },
        {
          "internalType": "uint208",
          "name": "expected",
          "type": "uint208"
        }
      ],
      "name": "RequestIdMismatch",
      "type": "error"
    },
    {
      "inputs": [
        {
          "internalType": "uint256",
          "name": "requestId",
          "type": "uint256"
        }
      ],
      "name": "RequestIdOverflow",
      "type": "error"
    },
    {
      "inputs": [
        {
          "internalType": "address",
          "name": "token",
          "type": "address"
        }
      ],
      "name": "SafeERC20FailedOperation",
      "type": "error"
    },
    {
      "inputs": [
        {
          "internalType": "uint256",
          "name": "value",
          "type": "uint256"
        }
      ],
      "name": "TicketsSoldOverflow",
      "type": "error"
    },
    {
      "inputs": [
        {
          "internalType": "address",
          "name": "to",
          "type": "address"
        },
        {
          "internalType": "uint256",
          "name": "value",
          "type": "uint256"
        },
        {
          "internalType": "bytes",
          "name": "reason",
          "type": "bytes"
        }
      ],
      "name": "TransferFailure",
      "type": "error"
    },
    {
      "inputs": [
        {
          "internalType": "enum ILootery.GameState",
          "name": "actual",
          "type": "uint8"
        },
        {
          "internalType": "enum ILootery.GameState",
          "name": "expected",
          "type": "uint8"
        }
      ],
      "name": "UnexpectedState",
      "type": "error"
    },
    {
      "inputs": [
        {
          "internalType": "uint8[]",
          "name": "picks",
          "type": "uint8[]"
        }
      ],
      "name": "UnsortedPicks",
      "type": "error"
    },
    {
      "inputs": [
        {
          "internalType": "uint256",
          "name": "deadline",
          "type": "uint256"
        }
      ],
      "name": "WaitLonger",
      "type": "error"
    },
    {
      "anonymous": false,
      "inputs": [
        {
          "indexed": true,
          "internalType": "address",
          "name": "owner",
          "type": "address"
        },
        {
          "indexed": true,
          "internalType": "address",
          "name": "approved",
          "type": "address"
        },
        {
          "indexed": true,
          "internalType": "uint256",
          "name": "tokenId",
          "type": "uint256"
        }
      ],
      "name": "Approval",
      "type": "event"
    },
    {
      "anonymous": false,
      "inputs": [
        {
          "indexed": true,
          "internalType": "address",
          "name": "owner",
          "type": "address"
        },
        {
          "indexed": true,
          "internalType": "address",
          "name": "operator",
          "type": "address"
        },
        {
          "indexed": false,
          "internalType": "bool",
          "name": "approved",
          "type": "bool"
        }
      ],
      "name": "ApprovalForAll",
      "type": "event"
    },
    {
      "anonymous": false,
      "inputs": [
        {
          "indexed": true,
          "internalType": "uint256",
          "name": "gameId",
          "type": "uint256"
        },
        {
          "indexed": true,
          "internalType": "address",
          "name": "beneficiary",
          "type": "address"
        },
        {
          "indexed": false,
          "internalType": "uint256",
          "name": "value",
          "type": "uint256"
        }
      ],
      "name": "BeneficiaryPaid",
      "type": "event"
    },
    {
      "anonymous": false,
      "inputs": [
        {
          "indexed": true,
          "internalType": "uint256",
          "name": "tokenId",
          "type": "uint256"
        },
        {
          "indexed": true,
          "internalType": "uint256",
          "name": "gameId",
          "type": "uint256"
        },
        {
          "indexed": false,
          "internalType": "address",
          "name": "whomst",
          "type": "address"
        },
        {
          "indexed": false,
          "internalType": "uint256",
          "name": "value",
          "type": "uint256"
        }
      ],
      "name": "ConsolationClaimed",
      "type": "event"
    },
    {
      "anonymous": false,
      "inputs": [
        {
          "indexed": true,
          "internalType": "uint256",
          "name": "gameId",
          "type": "uint256"
        }
      ],
      "name": "DrawSkipped",
      "type": "event"
    },
    {
      "anonymous": false,
      "inputs": [
        {
          "indexed": false,
          "internalType": "uint256",
          "name": "gameId",
          "type": "uint256"
        },
        {
          "indexed": false,
          "internalType": "uint8[]",
          "name": "winningPicks",
          "type": "uint8[]"
        }
      ],
      "name": "GameFinalised",
      "type": "event"
    },
    {
      "anonymous": false,
      "inputs": [
        {
          "indexed": true,
          "internalType": "address",
          "name": "to",
          "type": "address"
        },
        {
          "indexed": false,
          "internalType": "uint256",
          "name": "value",
          "type": "uint256"
        },
        {
          "indexed": false,
          "internalType": "uint256",
          "name": "gasUsed",
          "type": "uint256"
        },
        {
          "indexed": false,
          "internalType": "uint256",
          "name": "gasPrice",
          "type": "uint256"
        },
        {
          "indexed": false,
          "internalType": "bool",
          "name": "success",
          "type": "bool"
        }
      ],
      "name": "GasRefundAttempted",
      "type": "event"
    },
    {
      "anonymous": false,
      "inputs": [
        {
          "indexed": false,
          "internalType": "uint64",
          "name": "version",
          "type": "uint64"
        }
      ],
      "name": "Initialized",
      "type": "event"
    },
    {
      "anonymous": false,
      "inputs": [
        {
          "indexed": true,
          "internalType": "uint256",
          "name": "gameId",
          "type": "uint256"
        },
        {
          "indexed": false,
          "internalType": "uint256",
          "name": "unclaimedPayouts",
          "type": "uint256"
        },
        {
          "indexed": false,
          "internalType": "uint256",
          "name": "currentJackpot",
          "type": "uint256"
        },
        {
          "indexed": false,
          "internalType": "uint256",
          "name": "nextUnclaimedPayouts",
          "type": "uint256"
        },
        {
          "indexed": false,
          "internalType": "uint256",
          "name": "nextJackpot",
          "type": "uint256"
        }
      ],
      "name": "JackpotRollover",
      "type": "event"
    },
    {
      "anonymous": false,
      "inputs": [
        {
          "indexed": true,
          "internalType": "address",
          "name": "whomst",
          "type": "address"
        },
        {
          "indexed": false,
          "internalType": "uint256",
          "name": "amount",
          "type": "uint256"
        }
      ],
      "name": "JackpotSeeded",
      "type": "event"
    },
    {
      "anonymous": false,
      "inputs": [
        {
          "indexed": true,
          "internalType": "address",
          "name": "previousOwner",
          "type": "address"
        },
        {
          "indexed": true,
          "internalType": "address",
          "name": "newOwner",
          "type": "address"
        }
      ],
      "name": "OwnershipTransferred",
      "type": "event"
    },
    {
      "anonymous": false,
      "inputs": [
        {
          "indexed": false,
          "internalType": "address",
          "name": "sender",
          "type": "address"
        },
        {
          "indexed": false,
          "internalType": "uint256",
          "name": "amount",
          "type": "uint256"
        }
      ],
      "name": "Received",
      "type": "event"
    },
    {
      "anonymous": false,
      "inputs": [
        {
          "indexed": true,
          "internalType": "uint256",
          "name": "gameId",
          "type": "uint256"
        },
        {
          "indexed": true,
          "internalType": "address",
          "name": "whomst",
          "type": "address"
        },
        {
          "indexed": true,
          "internalType": "uint256",
          "name": "tokenId",
          "type": "uint256"
        },
        {
          "indexed": false,
          "internalType": "uint8[]",
          "name": "picks",
          "type": "uint8[]"
        }
      ],
      "name": "TicketPurchased",
      "type": "event"
    },
    {
      "anonymous": false,
      "inputs": [
        {
          "indexed": true,
          "internalType": "address",
          "name": "from",
          "type": "address"
        },
        {
          "indexed": true,
          "internalType": "address",
          "name": "to",
          "type": "address"
        },
        {
          "indexed": true,
          "internalType": "uint256",
          "name": "tokenId",
          "type": "uint256"
        }
      ],
      "name": "Transfer",
      "type": "event"
    },
    {
      "anonymous": false,
      "inputs": [
        {
          "indexed": false,
          "internalType": "address",
          "name": "to",
          "type": "address"
        },
        {
          "indexed": false,
          "internalType": "uint256",
          "name": "value",
          "type": "uint256"
        }
      ],
      "name": "Transferred",
      "type": "event"
    },
    {
      "anonymous": false,
      "inputs": [
        {
          "indexed": true,
          "internalType": "uint256",
          "name": "tokenId",
          "type": "uint256"
        },
        {
          "indexed": true,
          "internalType": "uint256",
          "name": "gameId",
          "type": "uint256"
        },
        {
          "indexed": false,
          "internalType": "address",
          "name": "whomst",
          "type": "address"
        },
        {
          "indexed": false,
          "internalType": "uint256",
          "name": "value",
          "type": "uint256"
        }
      ],
      "name": "WinningsClaimed",
      "type": "event"
    },
    {
      "inputs": [],
      "name": "accruedCommunityFees",
      "outputs": [
        {
          "internalType": "uint256",
          "name": "",
          "type": "uint256"
        }
      ],
      "stateMutability": "view",
      "type": "function"
    },
    {
      "inputs": [],
      "name": "apocalypseGameId",
      "outputs": [
        {
          "internalType": "uint256",
          "name": "",
          "type": "uint256"
        }
      ],
      "stateMutability": "view",
      "type": "function"
    },
    {
      "inputs": [
        {
          "internalType": "address",
          "name": "to",
          "type": "address"
        },
        {
          "internalType": "uint256",
          "name": "tokenId",
          "type": "uint256"
        }
      ],
      "name": "approve",
      "outputs": [],
      "stateMutability": "nonpayable",
      "type": "function"
    },
    {
      "inputs": [
        {
          "internalType": "address",
          "name": "owner",
          "type": "address"
        }
      ],
      "name": "balanceOf",
      "outputs": [
        {
          "internalType": "uint256",
          "name": "",
          "type": "uint256"
        }
      ],
      "stateMutability": "view",
      "type": "function"
    },
    {
      "inputs": [
        {
          "internalType": "uint256",
          "name": "tokenId",
          "type": "uint256"
        }
      ],
      "name": "claimWinnings",
      "outputs": [],
      "stateMutability": "nonpayable",
      "type": "function"
    },
    {
      "inputs": [
        {
          "internalType": "uint256",
          "name": "gameId",
          "type": "uint256"
        },
        {
          "internalType": "uint256",
          "name": "",
          "type": "uint256"
        }
      ],
      "name": "claimedWinningTickets",
      "outputs": [
        {
          "internalType": "uint256",
          "name": "",
          "type": "uint256"
        }
      ],
      "stateMutability": "view",
      "type": "function"
    },
    {
      "inputs": [],
      "name": "communityFeeBps",
      "outputs": [
        {
          "internalType": "uint256",
          "name": "",
          "type": "uint256"
        }
      ],
      "stateMutability": "view",
      "type": "function"
    },
    {
      "inputs": [
        {
          "internalType": "uint256",
          "name": "pickId",
          "type": "uint256"
        }
      ],
      "name": "computePicks",
      "outputs": [
        {
          "internalType": "uint8[]",
          "name": "picks",
          "type": "uint8[]"
        }
      ],
      "stateMutability": "view",
      "type": "function"
    },
    {
      "inputs": [
        {
          "internalType": "uint256",
          "name": "randomSeed",
          "type": "uint256"
        }
      ],
      "name": "computeWinningBalls",
      "outputs": [
        {
          "internalType": "uint8[]",
          "name": "balls",
          "type": "uint8[]"
        }
      ],
      "stateMutability": "view",
      "type": "function"
    },
    {
      "inputs": [],
      "name": "currentGame",
      "outputs": [
        {
          "internalType": "enum ILootery.GameState",
          "name": "state",
          "type": "uint8"
        },
        {
          "internalType": "uint248",
          "name": "id",
          "type": "uint248"
        }
      ],
      "stateMutability": "view",
      "type": "function"
    },
    {
      "inputs": [],
      "name": "draw",
      "outputs": [],
      "stateMutability": "nonpayable",
      "type": "function"
    },
    {
      "inputs": [
        {
          "internalType": "uint256",
          "name": "gameId",
          "type": "uint256"
        }
      ],
      "name": "gameData",
      "outputs": [
        {
          "internalType": "uint64",
          "name": "ticketsSold",
          "type": "uint64"
        },
        {
          "internalType": "uint64",
          "name": "startedAt",
          "type": "uint64"
        },
        {
          "internalType": "uint256",
          "name": "winningPickId",
          "type": "uint256"
        }
      ],
      "stateMutability": "view",
      "type": "function"
    },
    {
      "inputs": [],
      "name": "gamePeriod",
      "outputs": [
        {
          "internalType": "uint256",
          "name": "",
          "type": "uint256"
        }
      ],
      "stateMutability": "view",
      "type": "function"
    },
    {
      "inputs": [
        {
          "internalType": "uint256",
          "name": "tokenId",
          "type": "uint256"
        }
      ],
      "name": "getApproved",
      "outputs": [
        {
          "internalType": "address",
          "name": "",
          "type": "address"
        }
      ],
      "stateMutability": "view",
      "type": "function"
    },
    {
      "inputs": [
        {
          "components": [
            {
              "internalType": "address",
              "name": "owner",
              "type": "address"
            },
            {
              "internalType": "string",
              "name": "name",
              "type": "string"
            },
            {
              "internalType": "string",
              "name": "symbol",
              "type": "string"
            },
            {
              "internalType": "uint8",
              "name": "numPicks",
              "type": "uint8"
            },
            {
              "internalType": "uint8",
              "name": "maxBallValue",
              "type": "uint8"
            },
            {
              "internalType": "uint256",
              "name": "gamePeriod",
              "type": "uint256"
            },
            {
              "internalType": "uint256",
              "name": "ticketPrice",
              "type": "uint256"
            },
            {
              "internalType": "uint256",
              "name": "communityFeeBps",
              "type": "uint256"
            },
            {
              "internalType": "address",
              "name": "randomiser",
              "type": "address"
            },
            {
              "internalType": "address",
              "name": "prizeToken",
              "type": "address"
            },
            {
              "internalType": "uint256",
              "name": "seedJackpotDelay",
              "type": "uint256"
            },
            {
              "internalType": "uint256",
              "name": "seedJackpotMinValue",
              "type": "uint256"
            },
            {
              "internalType": "address",
              "name": "ticketSVGRenderer",
              "type": "address"
            }
          ],
          "internalType": "struct ILootery.InitConfig",
          "name": "initConfig",
          "type": "tuple"
        }
      ],
      "name": "init",
      "outputs": [],
      "stateMutability": "nonpayable",
      "type": "function"
    },
    {
      "inputs": [
        {
          "internalType": "address",
          "name": "owner",
          "type": "address"
        },
        {
          "internalType": "address",
          "name": "operator",
          "type": "address"
        }
      ],
      "name": "isApprovedForAll",
      "outputs": [
        {
          "internalType": "bool",
          "name": "",
          "type": "bool"
        }
      ],
      "stateMutability": "view",
      "type": "function"
    },
    {
      "inputs": [],
      "name": "isGameActive",
      "outputs": [
        {
          "internalType": "bool",
          "name": "",
          "type": "bool"
        }
      ],
      "stateMutability": "view",
      "type": "function"
    },
    {
      "inputs": [],
      "name": "jackpot",
      "outputs": [
        {
          "internalType": "uint256",
          "name": "",
          "type": "uint256"
        }
      ],
      "stateMutability": "view",
      "type": "function"
    },
    {
      "inputs": [],
      "name": "jackpotLastSeededAt",
      "outputs": [
        {
          "internalType": "uint256",
          "name": "",
          "type": "uint256"
        }
      ],
      "stateMutability": "view",
      "type": "function"
    },
    {
      "inputs": [],
      "name": "kill",
      "outputs": [],
      "stateMutability": "nonpayable",
      "type": "function"
    },
    {
      "inputs": [],
      "name": "maxBallValue",
      "outputs": [
        {
          "internalType": "uint8",
          "name": "",
          "type": "uint8"
        }
      ],
      "stateMutability": "view",
      "type": "function"
    },
    {
      "inputs": [],
      "name": "name",
      "outputs": [
        {
          "internalType": "string",
          "name": "",
          "type": "string"
        }
      ],
      "stateMutability": "view",
      "type": "function"
    },
    {
      "inputs": [],
      "name": "numPicks",
      "outputs": [
        {
          "internalType": "uint8",
          "name": "",
          "type": "uint8"
        }
      ],
      "stateMutability": "view",
      "type": "function"
    },
    {
      "inputs": [],
      "name": "owner",
      "outputs": [
        {
          "internalType": "address",
          "name": "",
          "type": "address"
        }
      ],
      "stateMutability": "view",
      "type": "function"
    },
    {
      "inputs": [
        {
          "internalType": "uint256",
          "name": "tokenId",
          "type": "uint256"
        }
      ],
      "name": "ownerOf",
      "outputs": [
        {
          "internalType": "address",
          "name": "",
          "type": "address"
        }
      ],
      "stateMutability": "view",
      "type": "function"
    },
    {
      "inputs": [
        {
          "components": [
            {
              "internalType": "address",
              "name": "whomst",
              "type": "address"
            },
            {
              "internalType": "uint8[]",
              "name": "picks",
              "type": "uint8[]"
            }
          ],
          "internalType": "struct ILootery.Ticket[]",
          "name": "tickets",
          "type": "tuple[]"
        }
      ],
      "name": "ownerPick",
      "outputs": [],
      "stateMutability": "nonpayable",
      "type": "function"
    },
    {
      "inputs": [],
      "name": "prizeToken",
      "outputs": [
        {
          "internalType": "address",
          "name": "",
          "type": "address"
        }
      ],
      "stateMutability": "view",
      "type": "function"
    },
    {
      "inputs": [
        {
          "components": [
            {
              "internalType": "address",
              "name": "whomst",
              "type": "address"
            },
            {
              "internalType": "uint8[]",
              "name": "picks",
              "type": "uint8[]"
            }
          ],
          "internalType": "struct ILootery.Ticket[]",
          "name": "tickets",
          "type": "tuple[]"
        },
        {
          "internalType": "address",
          "name": "beneficiary",
          "type": "address"
        }
      ],
      "name": "purchase",
      "outputs": [],
      "stateMutability": "nonpayable",
      "type": "function"
    },
    {
      "inputs": [
        {
          "internalType": "uint256",
          "name": "tokenId",
          "type": "uint256"
        }
      ],
      "name": "purchasedTickets",
      "outputs": [
        {
          "internalType": "uint256",
          "name": "gameId",
          "type": "uint256"
        },
        {
          "internalType": "uint256",
          "name": "pickId",
          "type": "uint256"
        }
      ],
      "stateMutability": "view",
      "type": "function"
    },
    {
      "inputs": [],
      "name": "randomiser",
      "outputs": [
        {
          "internalType": "address",
          "name": "",
          "type": "address"
        }
      ],
      "stateMutability": "view",
      "type": "function"
    },
    {
      "inputs": [],
      "name": "randomnessRequest",
      "outputs": [
        {
          "internalType": "uint208",
          "name": "requestId",
          "type": "uint208"
        },
        {
          "internalType": "uint48",
          "name": "timestamp",
          "type": "uint48"
        }
      ],
      "stateMutability": "view",
      "type": "function"
    },
    {
      "inputs": [
        {
          "internalType": "uint256",
          "name": "requestId",
          "type": "uint256"
        },
        {
          "internalType": "uint256[]",
          "name": "randomWords",
          "type": "uint256[]"
        }
      ],
      "name": "receiveRandomWords",
      "outputs": [],
      "stateMutability": "nonpayable",
      "type": "function"
    },
    {
      "inputs": [],
      "name": "renounceOwnership",
      "outputs": [],
      "stateMutability": "nonpayable",
      "type": "function"
    },
    {
      "inputs": [],
      "name": "rescueETH",
      "outputs": [],
      "stateMutability": "nonpayable",
      "type": "function"
    },
    {
      "inputs": [
        {
          "internalType": "address",
          "name": "tokenAddress",
          "type": "address"
        }
      ],
      "name": "rescueTokens",
      "outputs": [],
      "stateMutability": "nonpayable",
      "type": "function"
    },
    {
      "inputs": [
        {
          "internalType": "address",
          "name": "from",
          "type": "address"
        },
        {
          "internalType": "address",
          "name": "to",
          "type": "address"
        },
        {
          "internalType": "uint256",
          "name": "tokenId",
          "type": "uint256"
        }
      ],
      "name": "safeTransferFrom",
      "outputs": [],
      "stateMutability": "nonpayable",
      "type": "function"
    },
    {
      "inputs": [
        {
          "internalType": "address",
          "name": "from",
          "type": "address"
        },
        {
          "internalType": "address",
          "name": "to",
          "type": "address"
        },
        {
          "internalType": "uint256",
          "name": "tokenId",
          "type": "uint256"
        },
        {
          "internalType": "bytes",
          "name": "data",
          "type": "bytes"
        }
      ],
      "name": "safeTransferFrom",
      "outputs": [],
      "stateMutability": "nonpayable",
      "type": "function"
    },
    {
      "inputs": [
        {
          "internalType": "uint256",
          "name": "value",
          "type": "uint256"
        }
      ],
      "name": "seedJackpot",
      "outputs": [],
      "stateMutability": "nonpayable",
      "type": "function"
    },
    {
      "inputs": [],
      "name": "seedJackpotDelay",
      "outputs": [
        {
          "internalType": "uint256",
          "name": "",
          "type": "uint256"
        }
      ],
      "stateMutability": "view",
      "type": "function"
    },
    {
      "inputs": [],
      "name": "seedJackpotMinValue",
      "outputs": [
        {
          "internalType": "uint256",
          "name": "",
          "type": "uint256"
        }
      ],
      "stateMutability": "view",
      "type": "function"
    },
    {
      "inputs": [
        {
          "internalType": "address",
          "name": "operator",
          "type": "address"
        },
        {
          "internalType": "bool",
          "name": "approved",
          "type": "bool"
        }
      ],
      "name": "setApprovalForAll",
      "outputs": [],
      "stateMutability": "nonpayable",
      "type": "function"
    },
    {
      "inputs": [
        {
          "internalType": "address",
          "name": "renderer",
          "type": "address"
        }
      ],
      "name": "setTicketSVGRenderer",
      "outputs": [],
      "stateMutability": "nonpayable",
      "type": "function"
    },
    {
      "inputs": [
        {
          "internalType": "bytes4",
          "name": "interfaceId",
          "type": "bytes4"
        }
      ],
      "name": "supportsInterface",
      "outputs": [
        {
          "internalType": "bool",
          "name": "",
          "type": "bool"
        }
      ],
      "stateMutability": "view",
      "type": "function"
    },
    {
      "inputs": [],
      "name": "symbol",
      "outputs": [
        {
          "internalType": "string",
          "name": "",
          "type": "string"
        }
      ],
      "stateMutability": "view",
      "type": "function"
    },
    {
      "inputs": [],
      "name": "ticketPrice",
      "outputs": [
        {
          "internalType": "uint256",
          "name": "",
          "type": "uint256"
        }
      ],
      "stateMutability": "view",
      "type": "function"
    },
    {
      "inputs": [],
      "name": "ticketSVGRenderer",
      "outputs": [
        {
          "internalType": "address",
          "name": "",
          "type": "address"
        }
      ],
      "stateMutability": "view",
      "type": "function"
    },
    {
      "inputs": [
        {
          "internalType": "uint256",
          "name": "gameId",
          "type": "uint256"
        },
        {
          "internalType": "uint256",
          "name": "id",
          "type": "uint256"
        },
        {
          "internalType": "uint256",
          "name": "",
          "type": "uint256"
        }
      ],
      "name": "tokenByPickIdentity",
      "outputs": [
        {
          "internalType": "uint256",
          "name": "",
          "type": "uint256"
        }
      ],
      "stateMutability": "view",
      "type": "function"
    },
    {
      "inputs": [
        {
          "internalType": "uint256",
          "name": "tokenId",
          "type": "uint256"
        }
      ],
      "name": "tokenURI",
      "outputs": [
        {
          "internalType": "string",
          "name": "",
          "type": "string"
        }
      ],
      "stateMutability": "view",
      "type": "function"
    },
    {
      "inputs": [
        {
          "internalType": "address",
          "name": "from",
          "type": "address"
        },
        {
          "internalType": "address",
          "name": "to",
          "type": "address"
        },
        {
          "internalType": "uint256",
          "name": "tokenId",
          "type": "uint256"
        }
      ],
      "name": "transferFrom",
      "outputs": [],
      "stateMutability": "nonpayable",
      "type": "function"
    },
    {
      "inputs": [
        {
          "internalType": "address",
          "name": "newOwner",
          "type": "address"
        }
      ],
      "name": "transferOwnership",
      "outputs": [],
      "stateMutability": "nonpayable",
      "type": "function"
    },
    {
      "inputs": [],
      "name": "unclaimedPayouts",
      "outputs": [
        {
          "internalType": "uint256",
          "name": "",
          "type": "uint256"
        }
      ],
      "stateMutability": "view",
      "type": "function"
    },
    {
      "inputs": [],
      "name": "withdrawAccruedFees",
      "outputs": [],
      "stateMutability": "nonpayable",
      "type": "function"
    },
    {
      "stateMutability": "payable",
      "type": "receive"
    }
  ],
  "bytecode": "0x60808060405234620000bd577ff0c57e16840df040f15088dc2f81fe391c3923bec73e23a9662efc9c229c6a009081549060ff8260401c16620000ae57506001600160401b036002600160401b03198282160162000068575b6040516148819081620000c38239f35b6001600160401b031990911681179091556040519081527fc7f505b2f371ae2175ee4913f4499e1f2633a7b5936321eed1cdaeb6115181d290602090a138808062000058565b63f92ee8a960e01b8152600490fd5b600080fdfe60806040526004361015610023575b361561001957600080fd5b6100216133bb565b005b60003560e01c8062ae3bf8146103625780630171984b1461035d57806301ffc9a71461035857806302950fb91461035357806306fdde031461034e578063081812fc14610349578063095ea7b3146103445780630c0ef2b01461033f5780630eecae211461033a5780631209b1f61461033557806318575c0c1461033057806320800a001461032b57806323b872dd146103265780632efb2d4114610321578063336f528a1461031c57806338aeb836146103175780633b47492d1461031257806341c0e1b51461030d57806342842e0e1461030857806354dd386c146103035780635f2bdd25146102fe57806360b663bb146102f957806362ff220f146102f45780636352211e146102ef578063677bd9ff146102ea5780636b31ee01146102e557806370a08231146102e0578063715018a6146102db57806382250a43146102d65780638bba0174146102d15780638da5cb5b146102cc57806395d89b41146102c75780639ab6e297146102c2578063a0c4615c146102bd578063a14916d9146102b8578063a22cb465146102b3578063ab69dd08146102ae578063acef672b146102a9578063ada82c7d146102a4578063ae4663131461029f578063b13042511461029a578063b88d4fde14610295578063c097f54e14610290578063c87b56dd1461028b578063ccaf237f14610286578063d0ef024a14610281578063d20831af1461027c578063e02ae8ce14610277578063e0a4ddc914610272578063e985e9c51461026d578063efe2f0eb146102685763f2fde38b0361000e57612358565b612313565b61229b565b61227c565b61224d565b61222f565b612208565b6121ba565b6120d8565b61209f565b611fe9565b611fc8565b611faa565b611f74565b611e4f565b61192a565b611840565b611818565b611637565b611619565b611517565b6114d1565b6114b3565b611486565b61140a565b611366565b611348565b61132c565b6112fd565b6111e3565b611182565b611137565b611119565b6110e6565b61103d565b611004565b610fb0565b610f56565b610f2f565b610f18565b610e6f565b610e4b565b610e2d565b610946565b610921565b6107b9565b61075b565b610727565b610569565b6104c8565b610498565b61038a565b6001600160a01b0381160361037857565b600080fd5b359061038882610367565b565b34610378576020366003190112610378576001600160a01b036004356103af81610367565b6103b76133f3565b6040517f70a082310000000000000000000000000000000000000000000000000000000081523060048201529116602082602481845afa9081156104935761002192600092610462575b50816104246104186003546001600160a01b031690565b6001600160a01b031690565b8214610433575b503390613456565b61045b91925061044961045291601254906123ca565b600c54906123ca565b600b54906123ca565b903861042b565b61048591925060203d60201161048c575b61047d8183611d63565b810190612385565b9038610401565b503d610473565b612394565b34610378576000366003190112610378576020600554604051908152f35b6001600160e01b031981160361037857565b346103785760203660031901126103785760206001600160e01b03196004356104f0816104b6565b167f80ac58cd00000000000000000000000000000000000000000000000000000000811490811561053f575b811561052e575b506040519015158152f35b6301ffc9a760e01b91501438610523565b7f5b5e139f000000000000000000000000000000000000000000000000000000008114915061051c565b34610378576020366003190112610378576004356105856134b0565b600a5460ff1661059481611155565b806106ae5750600754811061067b576014546006546105b38183612440565b421061062957826105c342601455565b6105d76105d282600b54612440565b600b55565b6105f9816105f06104186003546001600160a01b031690565b309033906134bf565b60405190815233907f0a45ec0e27527fa1519b691bab30b4fedbc1da4b3d04ba9d3663f1696be5410490602090a2005b6106779161063b610640924292612440565b6123ca565b6040519182917ff015865e000000000000000000000000000000000000000000000000000000008352600483019190602083019252565b0390fd5b6040517f7b4763210000000000000000000000000000000000000000000000000000000081526004810191909152602490fd5b6106779060405191829163cbdafbe760e01b8352600483016123d7565b60005b8381106106de5750506000910152565b81810151838201526020016106ce565b90602091610707815180928185528580860191016106cb565b601f01601f1916010190565b9060206107249281815201906106ee565b90565b3461037857600036600319011261037857610757610743612487565b6040519182916020835260208301906106ee565b0390f35b34610378576020366003190112610378576004356107788161352e565b506000527f80bb2b638cc20bc4d0a60d66940f3ab4a00c1d7b313497ca82fb0b4ab007930460205260206001600160a01b0360406000205416604051908152f35b34610378576040366003190112610378576004356107d681610367565b602435906107e38261352e565b3315158061090e575b806108ab575b61087b578261002193610860926001600160a01b0380861691167f8c5be1e5ebec7d5bd14f71427d1e84f3dd0314c0f7b2291e5b200ac8c7c3b925600080a46000527f80bb2b638cc20bc4d0a60d66940f3ab4a00c1d7b313497ca82fb0b4ab0079304602052604060002090565b906001600160a01b03166001600160a01b0319825416179055565b60246040517fa9fbf51f000000000000000000000000000000000000000000000000000000008152336004820152fd5b5060ff610906336108ee846001600160a01b03166000527f80bb2b638cc20bc4d0a60d66940f3ab4a00c1d7b313497ca82fb0b4ab0079305602052604060002090565b906001600160a01b0316600052602052604060002090565b5416156107f2565b50336001600160a01b03821614156107ec565b3461037857600036600319011261037857602061093c61256f565b6040519015158152f35b3461037857600080600319360112610e2a575a6109616134b0565b61096961258c565b805161097481611155565b61097d81611155565b610e03576020809101906109bc6109b761099e84516001600160f81b031690565b6001600160f81b0316600052600f602052604060002090565b6125b8565b8082015167ffffffffffffffff16906109e260015467ffffffffffffffff809416612440565b804210610dd057505167ffffffffffffffff1616610b0f5750610a5a91610a22610a16610a5593516001600160f81b031690565b6001600160f81b031690565b7ff6ca837b06142a107fde1fb0f9c3379c6d079aa7fa4de4437961f3eb618222148580a2610a4e6135aa565b5a906123ca565b612415565b620249f09081811115610b0857505b610a86610a7e610a793a8461264a565b612633565b612710900490565b804710610ae85780838080807fe3eefb52e4bcc62ccd48dee30da27e3e0e5e7b9396fe60e8adc034def8cc000995335af190610ac061267d565b506040805191825260208201949094523a93810193909352151560608301523391608090a280f35b6040516396fbe4dd60e01b81524760048201526024810191909152604490fd5b9050610a69565b9050610b23600160ff19600a541617600a55565b610b2b6125f5565b906001600160d01b039182610b4782516001600160d01b031690565b16151580610d9f575b610d335750610b6d6104186104186002546001600160a01b031690565b6040517f10b0d1d20000000000000000000000000000000000000000000000000000000081526207a120600482015292908284602481845afa938415610493578694610d14575b50834710610cf557610c0f8391610bca42612407565b6040519687809481937f1f53cf040000000000000000000000000000000000000000000000000000000083526004830160206207a12091939293604081019481520152565b03925af1928315610493578593610cd6575b50808311610ca457610a5592610c64610a5a9593610c55610c9f94610c44611d85565b941684906001600160d01b03169052565b4265ffffffffffff1690830152565b7fffffffffffff000000000000000000000000000000000000000000000000000060206001600160d01b0383511692015160d01b1617600d55565b610a4e565b6040517fa6110e8400000000000000000000000000000000000000000000000000000000815260048101849052602490fd5b610cee919350823d841161048c5761047d8183611d63565b9138610c21565b6040516396fbe4dd60e01b815247600482015260248101859052604490fd5b610d2c919450833d851161048c5761047d8183611d63565b9238610bb4565b610d5682610d4883516001600160d01b031690565b92015165ffffffffffff1690565b6040517f56753a960000000000000000000000000000000000000000000000000000000081526001600160d01b0392909216600483015265ffffffffffff166024820152604490fd5b50610dc8610dbd610db88484015165ffffffffffff1690565b61261b565b65ffffffffffff1690565b421115610b50565b6040517f3fa5f83f0000000000000000000000000000000000000000000000000000000081526004810191909152602490fd5b6106779051610e1181611155565b60405191829163cbdafbe760e01b8352600483016123d7565b80fd5b34610378576000366003190112610378576020600454604051908152f35b3461037857600036600319011261037857602060ff60005460081c16604051908152f35b3461037857600080600319360112610e2a57610e896133f3565b8080808047335af1610e9961267d565b9015610ea3575080f35b476106776040519283927f59ed55cf00000000000000000000000000000000000000000000000000000000845233600485015260248401526060604484015260648301906106ee565b606090600319011261037857600435610f0481610367565b90602435610f1181610367565b9060443590565b3461037857610021610f2936610eec565b916126ad565b346103785760003660031901126103785760206001600160a01b0360085416604051908152f35b346103785760003660031901126103785760206001600160a01b0360025416604051908152f35b634e487b7160e01b600052603260045260246000fd5b8054821015610fab5760005260206000200190600090565b610f7d565b346103785760603660031901126103785760443560006004358152601060205260408120602435825260205260408120908154831015610e2a576020610ff68484610f93565b90546040519160031b1c8152f35b346103785760403660031901126103785760243560043560005260116020526040600020805482101561037857602091610ff691610f93565b3461037857600080600319360112610e2a576110576133f3565b6013546110bc5761106661258c565b805160028110156110a85761107a81611155565b610e03576110a0610a1661109b60206110a59401516001600160f81b031690565b61295f565b601355565b80f35b602483634e487b7160e01b81526021600452fd5b60046040517fe76abfdd000000000000000000000000000000000000000000000000000000008152fd5b34610378576100216110f736610eec565b906040519261110584611d47565b600084526111148383836126ad565b61403f565b34610378576000366003190112610378576020600754604051908152f35b34610378576000366003190112610378576020601354604051908152f35b6002111561115f57565b634e487b7160e01b600052602160045260246000fd5b90600282101561115f5752565b34610378576000366003190112610378576040600a548151906111a88260ff8316611175565b60081c6020820152f35b9181601f840112156103785782359167ffffffffffffffff8311610378576020808501948460051b01011161037857565b346103785760403660031901126103785760043567ffffffffffffffff8111610378576112176100219136906004016111b2565b6024359161122483610367565b6112308260045461264a565b611249816105f06104186003546001600160a01b031690565b61126261125b610a7e6005548461264a565b80926123ca565b937f1efc214ec14d081e74ac22debc8d48a010f4f1f30ad4733c94e7c38ff90038e2611293610a16600a5460081c90565b916001600160a01b03908181161580156112d9576112bb6112b687601254612440565b601255565b156112d45750305b6040519485521692602090a361387d565b6112c3565b6112f886836112f36104186003546001600160a01b031690565b613456565b6112bb565b3461037857602036600319011261037857602061131b60043561352e565b6001600160a01b0360405191168152f35b34610378576020366003190112610378576100216004356129cf565b34610378576000366003190112610378576020600b54604051908152f35b346103785760203660031901126103785760043561138381610367565b6001600160a01b038116156113d9576113d06020916001600160a01b03166000527f80bb2b638cc20bc4d0a60d66940f3ab4a00c1d7b313497ca82fb0b4ab0079303602052604060002090565b54604051908152f35b60246040517f89c62b6400000000000000000000000000000000000000000000000000000000815260006004820152fd5b3461037857600080600319360112610e2a576114246133f3565b806001600160a01b037f9016d09d72d40fdae2fd8ceac6b6234c7706214fd39c1cd1e609a0528c1993008054906001600160a01b031982169055167f8be0079c531659141344cd1fd0a4f28419497f9722a3daafe3b4186f6b6457e08280a380f35b34610378576020366003190112610378576100216004356114a681610367565b6114ae6133f3565b613c72565b34610378576000366003190112610378576020600654604051908152f35b346103785760003660031901126103785760206001600160a01b037f9016d09d72d40fdae2fd8ceac6b6234c7706214fd39c1cd1e609a0528c1993005416604051908152f35b3461037857600080600319360112610e2a5760405190807f80bb2b638cc20bc4d0a60d66940f3ab4a00c1d7b313497ca82fb0b4ab0079301805461155a8161244d565b808652926020926001928084169081156115ea5750600114611593575b6107578761158781890382611d63565b60405191829182610713565b815293507ff4bad0a69248f59680a4f2b3000328cec71a413447c96781cfe5996daa8c456e5b8385106115d757505050508101602001611587826107573880611577565b80548686018401529382019381016115b9565b9150508695506107579693506020925061158794915060ff191682840152151560051b82010192933880611577565b34610378576000366003190112610378576020600c54604051908152f35b3461037857604080600319360112610378576004803560243567ffffffffffffffff81116103785761166c90369084016111b2565b9290916116846104186002546001600160a01b031690565b33036117e357600a5460ff1661169981611155565b600181036117c95750600d546001600160d01b03168181036117845750506116d46116c2611d85565b60008082526020909101819052600d55565b821561175d57506117396116f66116f060019461175394612c6e565b356131a8565b7f4a2c5dc61d8caf543cef0b699bd08678003186170a4fff91cb694c4d9c1bdcad611723600a5460081c90565b955180611731848983612c77565b0390a1613d4e565b926001600160f81b0316600052600f602052604060002090565b01556100216135aa565b83517fbfa32be3000000000000000000000000000000000000000000000000000000008152fd5b85517faae75cf60000000000000000000000000000000000000000000000000000000081528084019283526001600160d01b0390911660208301529081906040010390fd5b82610677875192839263cbdafbe760e01b845283016123f1565b84517f01c096800000000000000000000000000000000000000000000000000000000081523381840190815281906020010390fd5b34610378576000366003190112610378576020601254604051908152f35b8015150361037857565b346103785760403660031901126103785760043561185d81610367565b60243561186981611836565b6001600160a01b0382169182156118f9576118ba906108ee336001600160a01b03166000527f80bb2b638cc20bc4d0a60d66940f3ab4a00c1d7b313497ca82fb0b4ab0079305602052604060002090565b9015159060ff1981541660ff83161790556040519081527f17307eab39ab6107e8899845ad3d59bd9653f200f220920489ca2b5937696c3160203392a3005b602483604051907f5b08ba180000000000000000000000000000000000000000000000000000000082526004820152fd5b34610378576020806003193601126103785767ffffffffffffffff90600480358381116103785761195e90369083016111b2565b90926119686133f3565b611985610a168261197761258c565b01516001600160f81b031690565b61198d6134b0565b6119a46109b782600052600f602052604060002090565b95806119d1856119cc6119bf8b5167ffffffffffffffff1690565b67ffffffffffffffff1690565b612440565b11611cda57611abb906119f490885167ffffffffffffffff165b9086169061377d565b8784015167ffffffffffffffff16611a376040809a015191611a27611a17611db3565b67ffffffffffffffff9095168552565b67ffffffffffffffff1683870152565b88820152611a4f83600052600f602052604060002090565b90604060019167ffffffffffffffff8151168454908067ffffffffffffffff1983161786557fffffffffffffffffffffffffffffffff000000000000000000000000000000006fffffffffffffffff00000000000000006020850151861b169216171784550151910155565b60009586549260ff808086169560081c169460095497611aec611ae789611ae18c612432565b9b612440565b600955565b8a5b888110611b35578b8b8b8b835b818110611b06578480f35b80611b2f611b1f611b1a6001948689613799565b6137bb565b611b298387612440565b90614241565b01611afb565b8a611b65611b5e611b55848d611b4f611b1a838389613799565b95613799565b888101906137c5565b3691613813565b908151858103611cbe57508890878f808f915b898210611c475750506001600160a01b03869593611c2e611c299694611bc160019a7f38f7010e1714c2785562f89e75c8d417cb1908bd47a9e84cf5db470ad60c44cf96612440565b978891611c06611bd08a613d4e565b9182611bda611d85565b918b8352820152611bf585600052600e602052604060002090565b906020600191805184550151910155565b611c1a886000526010602052604060002090565b90600052602052604060002090565b612995565b611c3e8d5192839216958261208e565b0390a401611aee565b925092935050611c61611c5a8386613869565b5160ff1690565b90888083169116811115611ca5578c10611c855760019091018d89918c9493611b78565b8951639fb72f1760e01b815260ff90911681870190815281906020010390fd5b8a51634663ee2b60e01b81528061067787828b0161208e565b88516367982af760e01b81528086019182529081906020010390fd5b84611cf4856119cc6119bf8b5167ffffffffffffffff1690565b60405163300a29bf60e01b815291820190815281906020010390fd5b634e487b7160e01b600052604160045260246000fd5b6040810190811067ffffffffffffffff821117611d4257604052565b611d10565b6020810190811067ffffffffffffffff821117611d4257604052565b90601f8019910116810190811067ffffffffffffffff821117611d4257604052565b6040519061038882611d26565b604051906101a0820182811067ffffffffffffffff821117611d4257604052565b604051906060820182811067ffffffffffffffff821117611d4257604052565b67ffffffffffffffff8111611d4257601f01601f191660200190565b929192611dfb82611dd3565b91611e096040519384611d63565b829481845281830111610378578281602093846000960137010152565b9080601f830112156103785781602061072493359101611def565b359060ff8216820361037857565b34610378576003196020368201126103785760043567ffffffffffffffff91828211610378576101a090823603011261037857611e8a611d92565b90611e978160040161037d565b8252602481013583811161037857611eb59060043691840101611e26565b6020830152604481013592831161037857610184611f6991611ee06100219560043691840101611e26565b6040850152611ef160648201611e41565b6060850152611f0260848201611e41565b608085015260a481013560a085015260c481013560c085015260e481013560e0850152611f32610104820161037d565b610100850152611f45610124820161037d565b6101208501526101448101356101408501526101648101356101608501520161037d565b610180820152612c97565b3461037857600080600319360112610e2a57611f8e6133f3565b6110a560125482601255336001600160a01b0360035416613456565b34610378576000366003190112610378576020600154604051908152f35b3461037857600036600319011261037857602060ff60005416604051908152f35b346103785760803660031901126103785760043561200681610367565b6024359061201382610367565b6044356064359267ffffffffffffffff841161037857366023850112156103785761204b610021943690602481600401359101611def565b926111148383836126ad565b90815180825260208080930193019160005b828110612077575050505090565b835160ff1685529381019392810192600101612069565b906020610724928181520190612057565b34610378576020366003190112610378576107576120c460043560ff60005416614108565b604051918291602083526020830190612057565b34610378576020366003190112610378576004356120f58161352e565b506008546000906001600160a01b03169161210e612487565b9260ff8354612174612139600161212f87600052600e602052604060002090565b0154848416614108565b604051978896879586957f6de3197400000000000000000000000000000000000000000000000000000000875260081c169160048601613174565b03915afa80156104935761075791600091612197575b5060405191829182610713565b6121b491503d806000833e6121ac8183611d63565b810190613115565b3861218a565b3461037857602036600319011261037857600435600052600f60205260606040600020805490600167ffffffffffffffff9101549060405192818116845260401c1660208301526040820152f35b346103785760003660031901126103785760206001600160a01b0360035416604051908152f35b34610378576000366003190112610378576020601454604051908152f35b34610378576000366003190112610378576040600d548151906001600160d01b038116825260d01c6020820152f35b34610378576020366003190112610378576107576120c46004356131a8565b3461037857604036600319011261037857602060ff6123076004356122bf81610367565b6108ee602435916122cf83610367565b6001600160a01b03166000527f80bb2b638cc20bc4d0a60d66940f3ab4a00c1d7b313497ca82fb0b4ab0079305602052604060002090565b54166040519015158152f35b3461037857602036600319011261037857600435600052600e602052604060002060018154910154906107576040519283928360209093929193604081019481520152565b346103785760203660031901126103785761002160043561237881610367565b6123806133f3565b61331d565b90816020910312610378575190565b6040513d6000823e3d90fd5b634e487b7160e01b600052601160045260246000fd5b6000198101919082116123c557565b6123a0565b919082039182116123c557565b60206000919392936123ed816040810196611175565b0152565b60206001919392936123ed816040810196611175565b90601e82018092116123c557565b9061753082018092116123c557565b60010190816001116123c557565b90600182018092116123c557565b919082018092116123c557565b90600182811c9216801561247d575b602083101461246757565b634e487b7160e01b600052602260045260246000fd5b91607f169161245c565b604051906000827f80bb2b638cc20bc4d0a60d66940f3ab4a00c1d7b313497ca82fb0b4ab0079300918254926124bc8461244d565b8084529360209160019182811690811561254957506001146124e8575b50505061038892500383611d63565b60009081527f37c58c799b6609234b945e882912ee9ad34948a1dfaa20a97485e1a7752bbf819590935091905b82841061253157506103889450505081016020013880806124d9565b85548885018301529485019487945092810192612515565b925050506020925061038894915060ff191682840152151560051b8201013880806124d9565b601354801515908161258057501590565b600a5460081c10919050565b6040519061259982611d26565b81600a5460ff811690600282101561115f57602091835260081c910152565b60405167ffffffffffffffff92916060820184811183821017611d42576040916001918352839581548181168652841c1660208501520154910152565b6040519061260282611d26565b600d546001600160d01b038116835260d01c6020830152565b90610e1065ffffffffffff809316019182116123c557565b90612af8918281029281840414901517156123c557565b818102929181159184041417156123c557565b8115612667570490565b634e487b7160e01b600052601260045260246000fd5b3d156126a8573d9061268e82611dd3565b9161269c6040519384611d63565b82523d6000602084013e565b606090565b6001600160a01b03908183168015612947578490836126f5836000527f80bb2b638cc20bc4d0a60d66940f3ab4a00c1d7b313497ca82fb0b4ab0079302602052604060002090565b54169433151580612844575b5061278290866127f2575b612748816001600160a01b03166000527f80bb2b638cc20bc4d0a60d66940f3ab4a00c1d7b313497ca82fb0b4ab0079303602052604060002090565b60018154019055610860846000527f80bb2b638cc20bc4d0a60d66940f3ab4a00c1d7b313497ca82fb0b4ab0079302602052604060002090565b847fddf252ad1be2c89b69c2b068fc378daa952ba7f163c4a11628f55a4df523b3ef600080a416918282036127b657505050565b60649350604051927f64283d7b000000000000000000000000000000000000000000000000000000008452600484015260248301526044820152fd5b6127fb846141fe565b612837876001600160a01b03166000527f80bb2b638cc20bc4d0a60d66940f3ab4a00c1d7b313497ca82fb0b4ab0079303602052604060002090565b805460001901905561270c565b91925090806128b5575b1561285c5790859138612701565b858561287c57604051637e27328960e01b81526004810191909152602490fd5b6040517f177e802f0000000000000000000000000000000000000000000000000000000081523360048201526024810191909152604490fd5b5033851480156128fd575b8061284e5750856000527f80bb2b638cc20bc4d0a60d66940f3ab4a00c1d7b313497ca82fb0b4ab00793046020523384604060002054161461284e565b5060ff612940336108ee886001600160a01b03166000527f80bb2b638cc20bc4d0a60d66940f3ab4a00c1d7b313497ca82fb0b4ab0079305602052604060002090565b54166128c0565b6024604051633250574960e11b815260006004820152fd5b9060016001600160f81b03809316019182116123c557565b9060405161298481611d26565b602060018294805484520154910152565b805468010000000000000000811015611d42576129b791600182018155610f93565b819291549060031b91821b91600019901b1916179055565b600a5460ff166129de81611155565b806106ae5750612a27612a1a826000527f80bb2b638cc20bc4d0a60d66940f3ab4a00c1d7b313497ca82fb0b4ab0079302602052604060002090565b546001600160a01b031690565b916001600160a01b03831615612c5557612a4082613b08565b612a5c612a5783600052600e602052604060002090565b612977565b92612a6c610a16600a5460081c90565b612a778551916123b6565b03612c2357612a946109b78551600052600f602052604060002090565b92604084015194612ab486611c1a83516000526010602052604060002090565b5490612acb81516000526011602052604060002090565b5495821580612c0e575b612bb75750602081019586518814612b235786516040517f6ddaa595000000000000000000000000000000000000000000000000000000008152600481019190915260248101899052604490fd5b612b759192939597507f38eb4599d8dccd3edd335a3f80fea5dbaae4b6cb0db2866060f333f6796db323949650612b69612b63612b7092600c54966123ca565b8561265d565b80946123ca565b600c55565b612b8e84611c2983516000526011602052604060002090565b612b988286613c47565b51604080516001600160a01b03969096168652602086019290925293a3565b90929496507f1526f29dc67f9d8967789be9aa23179c7826c4a1c063c5834b5c4c495aaa07cb939550612c039150612bfd6119bf600c54925167ffffffffffffffff1690565b9061265d565b90612b988286613c47565b50612c1e612c1a61256f565b1590565b612ad5565b6040517f2506adb500000000000000000000000000000000000000000000000000000000815260048101849052602490fd5b604051637e27328960e01b815260048101839052602490fd5b9015610fab5790565b6040906001600160f81b0361072494931681528160208201520190612057565b7ff0c57e16840df040f15088dc2f81fe391c3923bec73e23a9662efc9c229c6a0080549160ff8360401c16159267ffffffffffffffff811680159081612df7575b6001149081612ded575b159081612de4575b50612dba5767ffffffffffffffff1916600117909155612d0e9082612d7957612dff565b612d1457565b7ff0c57e16840df040f15088dc2f81fe391c3923bec73e23a9662efc9c229c6a00805468ff000000000000000019169055604051600181527fc7f505b2f371ae2175ee4913f4499e1f2633a7b5936321eed1cdaeb6115181d29080602081015b0390a1565b7ff0c57e16840df040f15088dc2f81fe391c3923bec73e23a9662efc9c229c6a00805468ff0000000000000000191668010000000000000000179055612dff565b60046040517ff92ee8a9000000000000000000000000000000000000000000000000000000008152fd5b90501538612cea565b303b159150612ce2565b859150612cd8565b612e18612e1382516001600160a01b031690565b613d7d565b602081015190612e2e6040928383015190613d91565b60608101805160ff1680156130f9575051612e569060ff1660ff1660ff196000541617600055565b612e7e612e67608083015160ff1690565b61ff006000549160081b169061ff00191617600055565b60a08101805161025881106130c757505160015560c0810180518015613095575051600455612eb060e0820151600555565b610100810180516001600160a01b0391908216801561305a575051612ef4906001600160a01b03166001600160a01b03166001600160a01b03196002541617600255565b610120820190612f0b82516001600160a01b031690565b9081161561301f575051612f3e906001600160a01b03166001600160a01b03166001600160a01b03196003541617600355565b612f4c610140820151600655565b612f5a610160820151600755565b60065480158015613015575b612fd7575090612f876114ae6101806103889401516001600160a01b031690565b6000612f91611db3565b8181524267ffffffffffffffff1660208201529182015260008052600f6020527ff4803e074bd026baaf6ed2e288c9515f68c72fb7216eebdd7cae1718a53ec375611a4f565b60075492517f0758bd770000000000000000000000000000000000000000000000000000000081526004810191909152602481019290925250604490fd5b5060075415612f66565b83517f4d05c0480000000000000000000000000000000000000000000000000000000081526001600160a01b03919091166004820152602490fd5b84517f5e280fa50000000000000000000000000000000000000000000000000000000081526001600160a01b03919091166004820152602490fd5b83517fb05276a50000000000000000000000000000000000000000000000000000000081526004810191909152602490fd5b83517faf0b9fe10000000000000000000000000000000000000000000000000000000081526004810191909152602490fd5b83516367982af760e01b815260ff919091166004820152602490fd5b6020818303126103785780519067ffffffffffffffff8211610378570181601f8201121561037857805161314881611dd3565b926131566040519485611d63565b818452602082840101116103785761072491602080850191016106cb565b9061072494929361318f60ff926080855260808501906106ee565b9460208401521660408201526060818403910152612057565b60009081549060ff8083169260081c16906131c2836140d6565b93809383158015935b8287106131e2575050505050505061072490614709565b869798929394959692868390613313575b801561330c575b6132e25761320788614676565b6002908982820a146001146132d7576001016fffffffffffffffffffffffffffffffff81116132d3579061323b910a614676565b946040938451938060809687870181528601528a606086015260208501965b8880820691048a5b8a600c82106132bc57905002018b81101561325a5761329f929998506132999197506132b1939b9a9650600195509c9b939c612424565b60ff1690565b6132a9838c613869565b9060ff169052565b0195919390936131cb565b8293600192938a52838c528a8a2001069101613262565b8780fd5b505061323b88614676565b60046040517ff34cfab6000000000000000000000000000000000000000000000000000000008152fd5b50856131fa565b50878910156131f3565b6001600160a01b0380911690811561338a577f9016d09d72d40fdae2fd8ceac6b6234c7706214fd39c1cd1e609a0528c199300805490836001600160a01b03198316179055167f8be0079c531659141344cd1fd0a4f28419497f9722a3daafe3b4186f6b6457e0600080a3565b60246040517f1e4fbdf700000000000000000000000000000000000000000000000000000000815260006004820152fd5b604080513381523460208201527f88a5966d370b9919b20f3e2c13ff65706f196a4e32cc2c12bf57088f885258749181908101612d74565b6001600160a01b037f9016d09d72d40fdae2fd8ceac6b6234c7706214fd39c1cd1e609a0528c1993005416330361342657565b60246040517f118cdaa7000000000000000000000000000000000000000000000000000000008152336004820152fd5b6040517fa9059cbb0000000000000000000000000000000000000000000000000000000060208201526001600160a01b03929092166024830152604480830193909352918152610388916134ab606483611d63565b614172565b6134b861256f565b156110bc57565b9290604051927f23b872dd0000000000000000000000000000000000000000000000000000000060208501526001600160a01b03809216602485015216604483015260648201526064815260a081019181831067ffffffffffffffff841117611d425761038892604052614172565b806000527f80bb2b638cc20bc4d0a60d66940f3ab4a00c1d7b313497ca82fb0b4ab00793026020526001600160a01b0360406000205416908115613570575090565b60249060405190637e27328960e01b82526004820152fd5b805190600282101561115f5760ff906020821991015160081b16911617600a55565b600a5460081c6135e26135bc8261295f565b6135dd6135c7611d85565b600081526001600160f81b039092166020830152565b613588565b6136146135ed611db3565b600081524267ffffffffffffffff16602082015260006040820152611a4f61099e8461295f565b7f59a23cf10d003eab0c59d7c706e3b4b20aeddabe02c2ae924bd12cfb8c3e4b646001600160f81b0361367e600161365f856001600160f81b0316600052600f602052604060002090565b0154611c1a856001600160f81b03166000526010602052604060002090565b54600c54600b5490949115808061376c575b156136e35750806136a46136de9287612440565b906136af6000600b55565b6136b882600c55565b604051948594169684606091949360009360808301968352602083015260408201520152565b0390a2565b1561373057806136f66136de9287612440565b9061370082600b55565b61370a6000600c55565b604051948594169684606091949392608082019582526020820152600060408201520152565b8061373d6136de92600c55565b6137476000600b55565b6040805196875260208701829052860152600060608601529116929081906080820190565b50613778612c1a61256f565b613690565b91909167ffffffffffffffff808094169116019182116123c557565b9190811015610fab5760051b81013590603e1981360301821215610378570190565b3561072481610367565b903590601e1981360301821215610378570180359067ffffffffffffffff821161037857602001918160051b3603831361037857565b67ffffffffffffffff8111611d425760051b60200190565b929161381e826137fb565b9161382c6040519384611d63565b829481845260208094019160051b810192831161037857905b8282106138525750505050565b83809161385e84611e41565b815201910190613845565b8051821015610fab5760209160051b010190565b91906020613891610a16602061197761258c565b6138996134b0565b6138b06109b782600052600f602052604060002090565b9367ffffffffffffffff90816138d5866119cc6119bf8a5167ffffffffffffffff1690565b11613ace5761394e916138f06105d261390193600b54612440565b865167ffffffffffffffff166119eb565b602086015167ffffffffffffffff1661393660408098015191613925611a17611db3565b67ffffffffffffffff166020840152565b86820152611a4f83600052600f602052604060002090565b600080549160ff9560ff8085169460081c169360095497613975611ae789611ae18c612432565b60005b8881106139b157505050505050505060005b8181106139975750505050565b806139ab611b1f611b1a6001948689613799565b0161398a565b8a6139d4611b5e6139cb848d611b4f611b1a838389613799565b8b8101906137c5565b908151858103613ab5575086908a8d8a805b898210613a485750506001600160a01b03869593613a2f611c299694611bc160019a7f38f7010e1714c2785562f89e75c8d417cb1908bd47a9e84cf5db470ad60c44cf96612440565b613a3f8b5192839216958261208e565b0390a401613978565b925092935050613a5b611c5a8386613869565b90868083169116811115613a9b578b10613a7f5760019091018d8c918a94936139e6565b8751639fb72f1760e01b815260ff919091166004820152602490fd5b8851634663ee2b60e01b815280610677876004830161208e565b86516367982af760e01b81526004810191909152602490fd5b610677613aea866119cc6119bf8a5167ffffffffffffffff1690565b60405191829163300a29bf60e01b8352600483019190602083019252565b6001600160a01b03613b43826000527f80bb2b638cc20bc4d0a60d66940f3ab4a00c1d7b313497ca82fb0b4ab0079302602052604060002090565b54168160008215928315613bbe575b613b85836000527f80bb2b638cc20bc4d0a60d66940f3ab4a00c1d7b313497ca82fb0b4ab0079302602052604060002090565b6001600160a01b031981541690557fddf252ad1be2c89b69c2b068fc378daa952ba7f163c4a11628f55a4df523b3ef8280a46135705750565b613bf1836000527f80bb2b638cc20bc4d0a60d66940f3ab4a00c1d7b313497ca82fb0b4ab0079304602052604060002090565b6001600160a01b03198154169055613c3b816001600160a01b03166000527f80bb2b638cc20bc4d0a60d66940f3ab4a00c1d7b313497ca82fb0b4ab0079303602052604060002090565b82198154019055613b52565b90610388916001600160a01b0360035416613456565b90816020910312610378575161072481611836565b6001600160a01b031680158015613ccc575b613c9b576001600160a01b03196008541617600855565b602490604051907f64fd73040000000000000000000000000000000000000000000000000000000082526004820152fd5b506040516301ffc9a760e01b81527f86ff1054000000000000000000000000000000000000000000000000000000006004820152602081602481855afa90811561049357600091613d1f575b5015613c84565b613d41915060203d602011613d47575b613d398183611d63565b810190613c5d565b38613d18565b503d613d2f565b906000805b8351821015613d78576001908160ff613d6c8588613869565b51161b17910190613d53565b925050565b61038890613d896143d6565b6123806143d6565b9190613d9b6143d6565b613da36143d6565b825167ffffffffffffffff8111611d42577f80bb2b638cc20bc4d0a60d66940f3ab4a00c1d7b313497ca82fb0b4ab007930090613de981613de4845461244d565b61442f565b602080601f8311600114613e3257509080613e20926103889697600092613e27575b50508160011b916000199060031b1c19161790565b9055614551565b015190503880613e0b565b90601f19831696613e847f80bb2b638cc20bc4d0a60d66940f3ab4a00c1d7b313497ca82fb0b4ab00793006000527f37c58c799b6609234b945e882912ee9ad34948a1dfaa20a97485e1a7752bbf8190565b926000905b898210613eca57505090839291600194610388989910613eb1575b505050811b019055614551565b015160001960f88460031b161c19169055388080613ea4565b80600185968294968601518155019501930190613e89565b908160209103126103785751610724816104b6565b61072493926001600160a01b0360809316825260006020830152604082015281606082015201906106ee565b909261072494936080936001600160a01b038092168452166020830152604082015281606082015201906106ee565b91823b613f5e57505050565b6020613f819160405180938192630a85bd0160e11b968784523360048501613ef7565b038160006001600160a01b0388165af16000918161400e575b50613fd95782613fa861267d565b8051919082613fd257604051633250574960e11b81526001600160a01b0383166004820152602490fd5b9050602001fd5b6001600160e01b03191603613feb5750565b604051633250574960e11b81526001600160a01b03919091166004820152602490fd5b61403191925060203d602011614038575b6140298183611d63565b810190613ee2565b9038613f9a565b503d61401f565b91929092833b614050575b50505050565b614075916020916040519384928392630a85bd0160e11b978885523360048601613f23565b038160006001600160a01b0388165af1600091816140b5575b5061409c5782613fa861267d565b6001600160e01b03191603613feb57503880808061404a565b6140cf91925060203d602011614038576140298183611d63565b903861408e565b906140e0826137fb565b6140ed6040519182611d63565b82815280926140fe601f19916137fb565b0190602036910137565b9160ff809316614117816140d6565b93600090815b610100811061412f575b505050509050565b6001808088841c1614614152575b5083831461414d5760010161411d565b614127565b8360001981146123c557019261416b8383169189613869565b523861413d565b6000806001600160a01b0361419c93169360208151910182865af161419561267d565b90836147b8565b80519081151591826141e3575b50506141b25750565b602490604051907f5274afe70000000000000000000000000000000000000000000000000000000082526004820152fd5b6141f69250602080918301019101613c5d565b1538806141a9565b614231906000527f80bb2b638cc20bc4d0a60d66940f3ab4a00c1d7b313497ca82fb0b4ab0079304602052604060002090565b6001600160a01b03198154169055565b906040519061424f82611d47565b600082526001600160a01b0380841690811561294757829061429a826000527f80bb2b638cc20bc4d0a60d66940f3ab4a00c1d7b313497ca82fb0b4ab0079302602052604060002090565b5416918215159283614384575b6142e3876001600160a01b03166000527f80bb2b638cc20bc4d0a60d66940f3ab4a00c1d7b313497ca82fb0b4ab0079303602052604060002090565b6001815401905561432187610860856000527f80bb2b638cc20bc4d0a60d66940f3ab4a00c1d7b313497ca82fb0b4ab0079302602052604060002090565b7fddf252ad1be2c89b69c2b068fc378daa952ba7f163c4a11628f55a4df523b3ef600080a46143535761038892613f52565b60246040517f73c6ac6e00000000000000000000000000000000000000000000000000000000815260006004820152fd5b61438d836141fe565b6143c9816001600160a01b03166000527f80bb2b638cc20bc4d0a60d66940f3ab4a00c1d7b313497ca82fb0b4ab0079303602052604060002090565b80546000190190556142a7565b60ff7ff0c57e16840df040f15088dc2f81fe391c3923bec73e23a9662efc9c229c6a005460401c161561440557565b60046040517fd7e6bcf8000000000000000000000000000000000000000000000000000000008152fd5b601f811161443b575050565b6000907f80bb2b638cc20bc4d0a60d66940f3ab4a00c1d7b313497ca82fb0b4ab00793006000527f37c58c799b6609234b945e882912ee9ad34948a1dfaa20a97485e1a7752bbf81906020601f850160051c830194106144b6575b601f0160051c01915b8281106144ab57505050565b81815560010161449f565b9092508290614496565b601f81116144cc575050565b6000907f80bb2b638cc20bc4d0a60d66940f3ab4a00c1d7b313497ca82fb0b4ab00793016000527ff4bad0a69248f59680a4f2b3000328cec71a413447c96781cfe5996daa8c456e906020601f850160051c83019410614547575b601f0160051c01915b82811061453c57505050565b818155600101614530565b9092508290614527565b90815167ffffffffffffffff8111611d42577f80bb2b638cc20bc4d0a60d66940f3ab4a00c1d7b313497ca82fb0b4ab00793019061459881614593845461244d565b6144c0565b602080601f83116001146145cf575081906145cb939495600092613e275750508160011b916000199060031b1c19161790565b9055565b90601f198316956146217f80bb2b638cc20bc4d0a60d66940f3ab4a00c1d7b313497ca82fb0b4ab00793016000527ff4bad0a69248f59680a4f2b3000328cec71a413447c96781cfe5996daa8c456e90565b926000905b88821061465e57505083600195969710614645575b505050811b019055565b015160001960f88460031b161c1916905538808061463b565b80600185968294968601518155019501930190614626565b906000916003811160011461469657151960011661469057565b60019150565b9150600182811c810190835b8483106146ae57505050565b9193508382048401811c916146a2565b7f800000000000000000000000000000000000000000000000000000000000000081146123c5576000190190565b90600182019160006001841291129080158216911516176123c557565b9081516001905b80821061471b575050565b60ff6147278386613869565b51169260001983016001848213166123c5575b6000811215806147a0575b1561477a578061477061475e611c5a614775948a613869565b6132a961476a846146ec565b8a613869565b6146be565b61473a565b600192939195946132a9614790614796936146ec565b87613869565b0190929192614710565b506147b1613299611c5a8389613869565b8510614745565b906147f757508051156147cd57805190602001fd5b60046040517f1425ea42000000000000000000000000000000000000000000000000000000008152fd5b81511580614842575b614808575090565b6024906001600160a01b03604051917f9996b315000000000000000000000000000000000000000000000000000000008352166004820152fd5b50803b1561480056fea264697066735822122034468086dc97a35636e25bcecc80500d0f07b47dab5681ea7b51fa83fbcce31d64736f6c63430008170033",
  "linkReferences": {},
  "deployedLinkReferences": {}
}