{
  "_format": "hh-sol-artifact-1",
  "contractName": "Lootery",
  "sourceName": "contracts/Lootery.sol",
  "abi": [
    {
      "inputs": [],
      "stateMutability": "nonpayable",
      "type": "constructor"
    },
    {
      "inputs": [
        {
          "internalType": "address",
          "name": "target",
          "type": "address"
        }
      ],
      "name": "AddressEmptyCode",
      "type": "error"
    },
    {
      "inputs": [
        {
          "internalType": "address",
          "name": "account",
          "type": "address"
        }
      ],
      "name": "AddressInsufficientBalance",
      "type": "error"
    },
    {
      "inputs": [
        {
          "internalType": "address",
          "name": "caller",
          "type": "address"
        }
      ],
      "name": "CallerNotRandomiser",
      "type": "error"
    },
    {
      "inputs": [
        {
          "internalType": "uint256",
          "name": "tokenId",
          "type": "uint256"
        }
      ],
      "name": "ClaimWindowMissed",
      "type": "error"
    },
    {
      "inputs": [
        {
          "internalType": "address",
          "name": "sender",
          "type": "address"
        },
        {
          "internalType": "uint256",
          "name": "tokenId",
          "type": "uint256"
        },
        {
          "internalType": "address",
          "name": "owner",
          "type": "address"
        }
      ],
      "name": "ERC721IncorrectOwner",
      "type": "error"
    },
    {
      "inputs": [
        {
          "internalType": "address",
          "name": "operator",
          "type": "address"
        },
        {
          "internalType": "uint256",
          "name": "tokenId",
          "type": "uint256"
        }
      ],
      "name": "ERC721InsufficientApproval",
      "type": "error"
    },
    {
      "inputs": [
        {
          "internalType": "address",
          "name": "approver",
          "type": "address"
        }
      ],
      "name": "ERC721InvalidApprover",
      "type": "error"
    },
    {
      "inputs": [
        {
          "internalType": "address",
          "name": "operator",
          "type": "address"
        }
      ],
      "name": "ERC721InvalidOperator",
      "type": "error"
    },
    {
      "inputs": [
        {
          "internalType": "address",
          "name": "owner",
          "type": "address"
        }
      ],
      "name": "ERC721InvalidOwner",
      "type": "error"
    },
    {
      "inputs": [
        {
          "internalType": "address",
          "name": "receiver",
          "type": "address"
        }
      ],
      "name": "ERC721InvalidReceiver",
      "type": "error"
    },
    {
      "inputs": [
        {
          "internalType": "address",
          "name": "sender",
          "type": "address"
        }
      ],
      "name": "ERC721InvalidSender",
      "type": "error"
    },
    {
      "inputs": [
        {
          "internalType": "uint256",
          "name": "tokenId",
          "type": "uint256"
        }
      ],
      "name": "ERC721NonexistentToken",
      "type": "error"
    },
    {
      "inputs": [],
      "name": "EmptyDisplayName",
      "type": "error"
    },
    {
      "inputs": [],
      "name": "FailedInnerCall",
      "type": "error"
    },
    {
      "inputs": [],
      "name": "GameAlreadyDrawn",
      "type": "error"
    },
    {
      "inputs": [],
      "name": "GameInactive",
      "type": "error"
    },
    {
      "inputs": [
        {
          "internalType": "uint256",
          "name": "paid",
          "type": "uint256"
        },
        {
          "internalType": "uint256",
          "name": "expected",
          "type": "uint256"
        }
      ],
      "name": "IncorrectPaymentAmount",
      "type": "error"
    },
    {
      "inputs": [
        {
          "internalType": "uint256",
          "name": "value",
          "type": "uint256"
        }
      ],
      "name": "InsufficientJackpotSeed",
      "type": "error"
    },
    {
      "inputs": [
        {
          "internalType": "uint256",
          "name": "have",
          "type": "uint256"
        },
        {
          "internalType": "uint256",
          "name": "want",
          "type": "uint256"
        }
      ],
      "name": "InsufficientOperationalFunds",
      "type": "error"
    },
    {
      "inputs": [],
      "name": "InsufficientRandomWords",
      "type": "error"
    },
    {
      "inputs": [
        {
          "internalType": "uint256",
          "name": "ballValue",
          "type": "uint256"
        }
      ],
      "name": "InvalidBallValue",
      "type": "error"
    },
    {
      "inputs": [],
      "name": "InvalidFeeShares",
      "type": "error"
    },
    {
      "inputs": [
        {
          "internalType": "uint256",
          "name": "gamePeriod",
          "type": "uint256"
        }
      ],
      "name": "InvalidGamePeriod",
      "type": "error"
    },
    {
      "inputs": [],
      "name": "InvalidInitialization",
      "type": "error"
    },
    {
      "inputs": [],
      "name": "InvalidInputs",
      "type": "error"
    },
    {
      "inputs": [
        {
          "internalType": "uint256",
          "name": "maxBallValue",
          "type": "uint256"
        }
      ],
      "name": "InvalidMaxBallValue",
      "type": "error"
    },
    {
      "inputs": [
        {
          "internalType": "uint256",
          "name": "pickLength",
          "type": "uint256"
        }
      ],
      "name": "InvalidPickLength",
      "type": "error"
    },
    {
      "inputs": [
        {
          "internalType": "address",
          "name": "prizeToken",
          "type": "address"
        }
      ],
      "name": "InvalidPrizeToken",
      "type": "error"
    },
    {
      "inputs": [
        {
          "internalType": "address",
          "name": "randomiser",
          "type": "address"
        }
      ],
      "name": "InvalidRandomiser",
      "type": "error"
    },
    {
      "inputs": [
        {
          "internalType": "uint256",
          "name": "delay",
          "type": "uint256"
        },
        {
          "internalType": "uint256",
          "name": "minValue",
          "type": "uint256"
        }
      ],
      "name": "InvalidSeedJackpotConfig",
      "type": "error"
    },
    {
      "inputs": [
        {
          "internalType": "uint256",
          "name": "ticketPrice",
          "type": "uint256"
        }
      ],
      "name": "InvalidTicketPrice",
      "type": "error"
    },
    {
      "inputs": [
        {
          "internalType": "address",
          "name": "renderer",
          "type": "address"
        }
      ],
      "name": "InvalidTicketSVGRenderer",
      "type": "error"
    },
    {
      "inputs": [],
      "name": "NoTicketsSpecified",
      "type": "error"
    },
    {
      "inputs": [],
      "name": "NotInitializing",
      "type": "error"
    },
    {
      "inputs": [
        {
          "internalType": "address",
          "name": "owner",
          "type": "address"
        }
      ],
      "name": "OwnableInvalidOwner",
      "type": "error"
    },
    {
      "inputs": [
        {
          "internalType": "address",
          "name": "account",
          "type": "address"
        }
      ],
      "name": "OwnableUnauthorizedAccount",
      "type": "error"
    },
    {
      "inputs": [
        {
          "internalType": "uint256",
          "name": "secondsToWait",
          "type": "uint256"
        }
      ],
      "name": "RateLimited",
      "type": "error"
    },
    {
      "inputs": [
        {
          "internalType": "uint256",
          "name": "actual",
          "type": "uint256"
        },
        {
          "internalType": "uint208",
          "name": "expected",
          "type": "uint208"
        }
      ],
      "name": "RequestIdMismatch",
      "type": "error"
    },
    {
      "inputs": [
        {
          "internalType": "uint256",
          "name": "requestId",
          "type": "uint256"
        }
      ],
      "name": "RequestIdOverflow",
      "type": "error"
    },
    {
      "inputs": [
        {
          "internalType": "address",
          "name": "token",
          "type": "address"
        }
      ],
      "name": "SafeERC20FailedOperation",
      "type": "error"
    },
    {
      "inputs": [
        {
          "internalType": "address",
          "name": "to",
          "type": "address"
        },
        {
          "internalType": "uint256",
          "name": "value",
          "type": "uint256"
        },
        {
          "internalType": "bytes",
          "name": "reason",
          "type": "bytes"
        }
      ],
      "name": "TransferFailure",
      "type": "error"
    },
    {
      "inputs": [
        {
          "internalType": "enum ILootery.GameState",
          "name": "actual",
          "type": "uint8"
        }
      ],
      "name": "UnexpectedState",
      "type": "error"
    },
    {
      "inputs": [
        {
          "internalType": "address",
          "name": "beneficiary",
          "type": "address"
        }
      ],
      "name": "UnknownBeneficiary",
      "type": "error"
    },
    {
      "inputs": [
        {
          "internalType": "uint8[]",
          "name": "pick",
          "type": "uint8[]"
        }
      ],
      "name": "UnsortedPick",
      "type": "error"
    },
    {
      "inputs": [
        {
          "internalType": "uint256",
          "name": "deadline",
          "type": "uint256"
        }
      ],
      "name": "WaitLonger",
      "type": "error"
    },
    {
      "anonymous": false,
      "inputs": [
        {
          "indexed": true,
          "internalType": "address",
          "name": "to",
          "type": "address"
        },
        {
          "indexed": false,
          "internalType": "uint256",
          "name": "amount",
          "type": "uint256"
        }
      ],
      "name": "AccruedCommunityFeesWithdrawn",
      "type": "event"
    },
    {
      "anonymous": false,
      "inputs": [
        {
          "indexed": true,
          "internalType": "address",
          "name": "owner",
          "type": "address"
        },
        {
          "indexed": true,
          "internalType": "address",
          "name": "approved",
          "type": "address"
        },
        {
          "indexed": true,
          "internalType": "uint256",
          "name": "tokenId",
          "type": "uint256"
        }
      ],
      "name": "Approval",
      "type": "event"
    },
    {
      "anonymous": false,
      "inputs": [
        {
          "indexed": true,
          "internalType": "address",
          "name": "owner",
          "type": "address"
        },
        {
          "indexed": true,
          "internalType": "address",
          "name": "operator",
          "type": "address"
        },
        {
          "indexed": false,
          "internalType": "bool",
          "name": "approved",
          "type": "bool"
        }
      ],
      "name": "ApprovalForAll",
      "type": "event"
    },
    {
      "anonymous": false,
      "inputs": [
        {
          "indexed": true,
          "internalType": "address",
          "name": "beneficiary",
          "type": "address"
        },
        {
          "indexed": false,
          "internalType": "string",
          "name": "displayName",
          "type": "string"
        }
      ],
      "name": "BeneficiaryAdded",
      "type": "event"
    },
    {
      "anonymous": false,
      "inputs": [
        {
          "indexed": true,
          "internalType": "uint256",
          "name": "gameId",
          "type": "uint256"
        },
        {
          "indexed": true,
          "internalType": "address",
          "name": "beneficiary",
          "type": "address"
        },
        {
          "indexed": false,
          "internalType": "uint256",
          "name": "value",
          "type": "uint256"
        }
      ],
      "name": "BeneficiaryPaid",
      "type": "event"
    },
    {
      "anonymous": false,
      "inputs": [
        {
          "indexed": true,
          "internalType": "address",
          "name": "beneficiary",
          "type": "address"
        }
      ],
      "name": "BeneficiaryRemoved",
      "type": "event"
    },
    {
      "anonymous": false,
      "inputs": [
        {
          "indexed": false,
          "internalType": "uint256",
          "name": "newCallbackGasLimit",
          "type": "uint256"
        }
      ],
      "name": "CallbackGasLimitSet",
      "type": "event"
    },
    {
      "anonymous": false,
      "inputs": [
        {
          "indexed": true,
          "internalType": "uint256",
          "name": "tokenId",
          "type": "uint256"
        },
        {
          "indexed": true,
          "internalType": "uint256",
          "name": "gameId",
          "type": "uint256"
        },
        {
          "indexed": false,
          "internalType": "address",
          "name": "whomst",
          "type": "address"
        },
        {
          "indexed": false,
          "internalType": "uint256",
          "name": "value",
          "type": "uint256"
        }
      ],
      "name": "ConsolationClaimed",
      "type": "event"
    },
    {
      "anonymous": false,
      "inputs": [
        {
          "indexed": true,
          "internalType": "uint256",
          "name": "gameId",
          "type": "uint256"
        }
      ],
      "name": "DrawSkipped",
      "type": "event"
    },
    {
      "anonymous": false,
      "inputs": [
        {
          "indexed": true,
          "internalType": "address",
          "name": "to",
          "type": "address"
        },
        {
          "indexed": false,
          "internalType": "uint256",
          "name": "value",
          "type": "uint256"
        }
      ],
      "name": "ExcessRefunded",
      "type": "event"
    },
    {
      "anonymous": false,
      "inputs": [
        {
          "indexed": false,
          "internalType": "uint256",
          "name": "gameId",
          "type": "uint256"
        },
        {
          "indexed": false,
          "internalType": "uint8[]",
          "name": "winningPick",
          "type": "uint8[]"
        }
      ],
      "name": "GameFinalised",
      "type": "event"
    },
    {
      "anonymous": false,
      "inputs": [
        {
          "indexed": false,
          "internalType": "uint64",
          "name": "version",
          "type": "uint64"
        }
      ],
      "name": "Initialized",
      "type": "event"
    },
    {
      "anonymous": false,
      "inputs": [
        {
          "indexed": true,
          "internalType": "uint256",
          "name": "gameId",
          "type": "uint256"
        },
        {
          "indexed": false,
          "internalType": "uint256",
          "name": "unclaimedPayouts",
          "type": "uint256"
        },
        {
          "indexed": false,
          "internalType": "uint256",
          "name": "currentJackpot",
          "type": "uint256"
        },
        {
          "indexed": false,
          "internalType": "uint256",
          "name": "nextUnclaimedPayouts",
          "type": "uint256"
        },
        {
          "indexed": false,
          "internalType": "uint256",
          "name": "nextJackpot",
          "type": "uint256"
        }
      ],
      "name": "JackpotRollover",
      "type": "event"
    },
    {
      "anonymous": false,
      "inputs": [
        {
          "indexed": true,
          "internalType": "address",
          "name": "whomst",
          "type": "address"
        },
        {
          "indexed": false,
          "internalType": "uint256",
          "name": "amount",
          "type": "uint256"
        }
      ],
      "name": "JackpotSeeded",
      "type": "event"
    },
    {
      "anonymous": false,
      "inputs": [
        {
          "indexed": false,
          "internalType": "uint256",
          "name": "pickId",
          "type": "uint256"
        },
        {
          "indexed": false,
          "internalType": "uint256",
          "name": "winningPickId",
          "type": "uint256"
        }
      ],
      "name": "NoWin",
      "type": "event"
    },
    {
      "anonymous": false,
      "inputs": [
        {
          "indexed": true,
          "internalType": "address",
          "name": "to",
          "type": "address"
        },
        {
          "indexed": false,
          "internalType": "uint256",
          "name": "amount",
          "type": "uint256"
        }
      ],
      "name": "OperationalFundsWithdrawn",
      "type": "event"
    },
    {
      "anonymous": false,
      "inputs": [
        {
          "indexed": true,
          "internalType": "address",
          "name": "previousOwner",
          "type": "address"
        },
        {
          "indexed": true,
          "internalType": "address",
          "name": "newOwner",
          "type": "address"
        }
      ],
      "name": "OwnershipTransferred",
      "type": "event"
    },
    {
      "anonymous": false,
      "inputs": [
        {
          "indexed": true,
          "internalType": "address",
          "name": "to",
          "type": "address"
        },
        {
          "indexed": false,
          "internalType": "uint256",
          "name": "value",
          "type": "uint256"
        }
      ],
      "name": "ProtocolFeePaid",
      "type": "event"
    },
    {
      "anonymous": false,
      "inputs": [
        {
          "indexed": false,
          "internalType": "uint208",
          "name": "requestId",
          "type": "uint208"
        },
        {
          "indexed": false,
          "internalType": "uint48",
          "name": "timestamp",
          "type": "uint48"
        }
      ],
      "name": "RandomnessRequested",
      "type": "event"
    },
    {
      "anonymous": false,
      "inputs": [
        {
          "indexed": false,
          "internalType": "address",
          "name": "sender",
          "type": "address"
        },
        {
          "indexed": false,
          "internalType": "uint256",
          "name": "amount",
          "type": "uint256"
        }
      ],
      "name": "Received",
      "type": "event"
    },
    {
      "anonymous": false,
      "inputs": [
        {
          "indexed": true,
          "internalType": "uint256",
          "name": "gameId",
          "type": "uint256"
        },
        {
          "indexed": true,
          "internalType": "address",
          "name": "whomst",
          "type": "address"
        },
        {
          "indexed": true,
          "internalType": "uint256",
          "name": "tokenId",
          "type": "uint256"
        },
        {
          "indexed": false,
          "internalType": "uint8[]",
          "name": "pick",
          "type": "uint8[]"
        }
      ],
      "name": "TicketPurchased",
      "type": "event"
    },
    {
      "anonymous": false,
      "inputs": [
        {
          "indexed": true,
          "internalType": "address",
          "name": "from",
          "type": "address"
        },
        {
          "indexed": true,
          "internalType": "address",
          "name": "to",
          "type": "address"
        },
        {
          "indexed": true,
          "internalType": "uint256",
          "name": "tokenId",
          "type": "uint256"
        }
      ],
      "name": "Transfer",
      "type": "event"
    },
    {
      "anonymous": false,
      "inputs": [
        {
          "indexed": false,
          "internalType": "address",
          "name": "to",
          "type": "address"
        },
        {
          "indexed": false,
          "internalType": "uint256",
          "name": "value",
          "type": "uint256"
        }
      ],
      "name": "Transferred",
      "type": "event"
    },
    {
      "anonymous": false,
      "inputs": [
        {
          "indexed": true,
          "internalType": "uint256",
          "name": "tokenId",
          "type": "uint256"
        },
        {
          "indexed": true,
          "internalType": "uint256",
          "name": "gameId",
          "type": "uint256"
        },
        {
          "indexed": false,
          "internalType": "address",
          "name": "whomst",
          "type": "address"
        },
        {
          "indexed": false,
          "internalType": "uint256",
          "name": "value",
          "type": "uint256"
        }
      ],
      "name": "WinningsClaimed",
      "type": "event"
    },
    {
      "inputs": [],
      "name": "PROTOCOL_FEE_BPS",
      "outputs": [
        {
          "internalType": "uint256",
          "name": "",
          "type": "uint256"
        }
      ],
      "stateMutability": "view",
      "type": "function"
    },
    {
      "inputs": [],
      "name": "accruedCommunityFees",
      "outputs": [
        {
          "internalType": "uint256",
          "name": "",
          "type": "uint256"
        }
      ],
      "stateMutability": "view",
      "type": "function"
    },
    {
      "inputs": [
        {
          "internalType": "address",
          "name": "to",
          "type": "address"
        },
        {
          "internalType": "uint256",
          "name": "tokenId",
          "type": "uint256"
        }
      ],
      "name": "approve",
      "outputs": [],
      "stateMutability": "nonpayable",
      "type": "function"
    },
    {
      "inputs": [
        {
          "internalType": "address",
          "name": "owner",
          "type": "address"
        }
      ],
      "name": "balanceOf",
      "outputs": [
        {
          "internalType": "uint256",
          "name": "",
          "type": "uint256"
        }
      ],
      "stateMutability": "view",
      "type": "function"
    },
    {
      "inputs": [],
      "name": "beneficiaries",
      "outputs": [
        {
          "internalType": "address[]",
          "name": "addresses",
          "type": "address[]"
        },
        {
          "internalType": "string[]",
          "name": "names",
          "type": "string[]"
        }
      ],
      "stateMutability": "view",
      "type": "function"
    },
    {
      "inputs": [
        {
          "internalType": "address",
          "name": "beneficiary",
          "type": "address"
        }
      ],
      "name": "beneficiaryDisplayNames",
      "outputs": [
        {
          "internalType": "string",
          "name": "name",
          "type": "string"
        }
      ],
      "stateMutability": "view",
      "type": "function"
    },
    {
      "inputs": [],
      "name": "callbackGasLimit",
      "outputs": [
        {
          "internalType": "uint256",
          "name": "",
          "type": "uint256"
        }
      ],
      "stateMutability": "view",
      "type": "function"
    },
    {
      "inputs": [
        {
          "internalType": "uint256",
          "name": "tokenId",
          "type": "uint256"
        }
      ],
      "name": "claimWinnings",
      "outputs": [
        {
          "internalType": "uint256",
          "name": "prizeShare",
          "type": "uint256"
        }
      ],
      "stateMutability": "nonpayable",
      "type": "function"
    },
    {
      "inputs": [
        {
          "internalType": "uint256",
          "name": "gameId",
          "type": "uint256"
        },
        {
          "internalType": "uint256",
          "name": "",
          "type": "uint256"
        }
      ],
      "name": "claimedWinningTickets",
      "outputs": [
        {
          "internalType": "uint256",
          "name": "",
          "type": "uint256"
        }
      ],
      "stateMutability": "view",
      "type": "function"
    },
    {
      "inputs": [],
      "name": "communityFeeBps",
      "outputs": [
        {
          "internalType": "uint256",
          "name": "",
          "type": "uint256"
        }
      ],
      "stateMutability": "view",
      "type": "function"
    },
    {
      "inputs": [
        {
          "internalType": "uint256",
          "name": "pickId",
          "type": "uint256"
        }
      ],
      "name": "computePick",
      "outputs": [
        {
          "internalType": "uint8[]",
          "name": "pick",
          "type": "uint8[]"
        }
      ],
      "stateMutability": "view",
      "type": "function"
    },
    {
      "inputs": [
        {
          "internalType": "uint256",
          "name": "randomSeed",
          "type": "uint256"
        }
      ],
      "name": "computeWinningPick",
      "outputs": [
        {
          "internalType": "uint8[]",
          "name": "balls",
          "type": "uint8[]"
        }
      ],
      "stateMutability": "view",
      "type": "function"
    },
    {
      "inputs": [],
      "name": "currentGame",
      "outputs": [
        {
          "internalType": "enum ILootery.GameState",
          "name": "state",
          "type": "uint8"
        },
        {
          "internalType": "uint248",
          "name": "id",
          "type": "uint248"
        }
      ],
      "stateMutability": "view",
      "type": "function"
    },
    {
      "inputs": [],
      "name": "draw",
      "outputs": [],
      "stateMutability": "payable",
      "type": "function"
    },
    {
      "inputs": [],
      "name": "factory",
      "outputs": [
        {
          "internalType": "address",
          "name": "",
          "type": "address"
        }
      ],
      "stateMutability": "view",
      "type": "function"
    },
    {
      "inputs": [
        {
          "internalType": "uint256",
          "name": "gameId",
          "type": "uint256"
        }
      ],
      "name": "gameData",
      "outputs": [
        {
          "internalType": "uint64",
          "name": "ticketsSold",
          "type": "uint64"
        },
        {
          "internalType": "uint64",
          "name": "startedAt",
          "type": "uint64"
        },
        {
          "internalType": "uint256",
          "name": "winningPickId",
          "type": "uint256"
        }
      ],
      "stateMutability": "view",
      "type": "function"
    },
    {
      "inputs": [],
      "name": "gamePeriod",
      "outputs": [
        {
          "internalType": "uint256",
          "name": "",
          "type": "uint256"
        }
      ],
      "stateMutability": "view",
      "type": "function"
    },
    {
      "inputs": [
        {
          "internalType": "uint256",
          "name": "tokenId",
          "type": "uint256"
        }
      ],
      "name": "getApproved",
      "outputs": [
        {
          "internalType": "address",
          "name": "",
          "type": "address"
        }
      ],
      "stateMutability": "view",
      "type": "function"
    },
    {
      "inputs": [
        {
          "components": [
            {
              "internalType": "address",
              "name": "owner",
              "type": "address"
            },
            {
              "internalType": "string",
              "name": "name",
              "type": "string"
            },
            {
              "internalType": "string",
              "name": "symbol",
              "type": "string"
            },
            {
              "internalType": "uint8",
              "name": "pickLength",
              "type": "uint8"
            },
            {
              "internalType": "uint8",
              "name": "maxBallValue",
              "type": "uint8"
            },
            {
              "internalType": "uint256",
              "name": "gamePeriod",
              "type": "uint256"
            },
            {
              "internalType": "uint256",
              "name": "ticketPrice",
              "type": "uint256"
            },
            {
              "internalType": "uint256",
              "name": "communityFeeBps",
              "type": "uint256"
            },
            {
              "internalType": "address",
              "name": "randomiser",
              "type": "address"
            },
            {
              "internalType": "address",
              "name": "prizeToken",
              "type": "address"
            },
            {
              "internalType": "uint256",
              "name": "seedJackpotDelay",
              "type": "uint256"
            },
            {
              "internalType": "uint256",
              "name": "seedJackpotMinValue",
              "type": "uint256"
            },
            {
              "internalType": "address",
              "name": "ticketSVGRenderer",
              "type": "address"
            }
          ],
          "internalType": "struct ILootery.InitConfig",
          "name": "initConfig",
          "type": "tuple"
        }
      ],
      "name": "init",
      "outputs": [],
      "stateMutability": "nonpayable",
      "type": "function"
    },
    {
      "inputs": [],
      "name": "isApocalypseMode",
      "outputs": [
        {
          "internalType": "bool",
          "name": "",
          "type": "bool"
        }
      ],
      "stateMutability": "view",
      "type": "function"
    },
    {
      "inputs": [
        {
          "internalType": "address",
          "name": "owner",
          "type": "address"
        },
        {
          "internalType": "address",
          "name": "operator",
          "type": "address"
        }
      ],
      "name": "isApprovedForAll",
      "outputs": [
        {
          "internalType": "bool",
          "name": "",
          "type": "bool"
        }
      ],
      "stateMutability": "view",
      "type": "function"
    },
    {
      "inputs": [],
      "name": "isGameActive",
      "outputs": [
        {
          "internalType": "bool",
          "name": "",
          "type": "bool"
        }
      ],
      "stateMutability": "view",
      "type": "function"
    },
    {
      "inputs": [],
      "name": "jackpot",
      "outputs": [
        {
          "internalType": "uint256",
          "name": "",
          "type": "uint256"
        }
      ],
      "stateMutability": "view",
      "type": "function"
    },
    {
      "inputs": [],
      "name": "jackpotLastSeededAt",
      "outputs": [
        {
          "internalType": "uint256",
          "name": "",
          "type": "uint256"
        }
      ],
      "stateMutability": "view",
      "type": "function"
    },
    {
      "inputs": [],
      "name": "kill",
      "outputs": [],
      "stateMutability": "nonpayable",
      "type": "function"
    },
    {
      "inputs": [],
      "name": "maxBallValue",
      "outputs": [
        {
          "internalType": "uint8",
          "name": "",
          "type": "uint8"
        }
      ],
      "stateMutability": "view",
      "type": "function"
    },
    {
      "inputs": [],
      "name": "name",
      "outputs": [
        {
          "internalType": "string",
          "name": "",
          "type": "string"
        }
      ],
      "stateMutability": "view",
      "type": "function"
    },
    {
      "inputs": [
        {
          "internalType": "uint256",
          "name": "gameId",
          "type": "uint256"
        },
        {
          "internalType": "uint256",
          "name": "pickId",
          "type": "uint256"
        }
      ],
      "name": "numWinnersInGame",
      "outputs": [
        {
          "internalType": "uint256",
          "name": "",
          "type": "uint256"
        }
      ],
      "stateMutability": "view",
      "type": "function"
    },
    {
      "inputs": [],
      "name": "owner",
      "outputs": [
        {
          "internalType": "address",
          "name": "",
          "type": "address"
        }
      ],
      "stateMutability": "view",
      "type": "function"
    },
    {
      "inputs": [
        {
          "internalType": "uint256",
          "name": "tokenId",
          "type": "uint256"
        }
      ],
      "name": "ownerOf",
      "outputs": [
        {
          "internalType": "address",
          "name": "",
          "type": "address"
        }
      ],
      "stateMutability": "view",
      "type": "function"
    },
    {
      "inputs": [
        {
          "components": [
            {
              "internalType": "address",
              "name": "whomst",
              "type": "address"
            },
            {
              "internalType": "uint8[]",
              "name": "pick",
              "type": "uint8[]"
            }
          ],
          "internalType": "struct ILootery.Ticket[]",
          "name": "tickets",
          "type": "tuple[]"
        }
      ],
      "name": "ownerPick",
      "outputs": [],
      "stateMutability": "nonpayable",
      "type": "function"
    },
    {
      "inputs": [],
      "name": "pickLength",
      "outputs": [
        {
          "internalType": "uint8",
          "name": "",
          "type": "uint8"
        }
      ],
      "stateMutability": "view",
      "type": "function"
    },
    {
      "inputs": [],
      "name": "prizeToken",
      "outputs": [
        {
          "internalType": "address",
          "name": "",
          "type": "address"
        }
      ],
      "stateMutability": "view",
      "type": "function"
    },
    {
      "inputs": [
        {
          "components": [
            {
              "internalType": "address",
              "name": "whomst",
              "type": "address"
            },
            {
              "internalType": "uint8[]",
              "name": "pick",
              "type": "uint8[]"
            }
          ],
          "internalType": "struct ILootery.Ticket[]",
          "name": "tickets",
          "type": "tuple[]"
        },
        {
          "internalType": "address",
          "name": "beneficiary",
          "type": "address"
        }
      ],
      "name": "purchase",
      "outputs": [],
      "stateMutability": "nonpayable",
      "type": "function"
    },
    {
      "inputs": [
        {
          "internalType": "uint256",
          "name": "tokenId",
          "type": "uint256"
        }
      ],
      "name": "purchasedTickets",
      "outputs": [
        {
          "internalType": "uint256",
          "name": "gameId",
          "type": "uint256"
        },
        {
          "internalType": "uint256",
          "name": "pickId",
          "type": "uint256"
        }
      ],
      "stateMutability": "view",
      "type": "function"
    },
    {
      "inputs": [],
      "name": "randomiser",
      "outputs": [
        {
          "internalType": "address",
          "name": "",
          "type": "address"
        }
      ],
      "stateMutability": "view",
      "type": "function"
    },
    {
      "inputs": [],
      "name": "randomnessRequest",
      "outputs": [
        {
          "internalType": "uint208",
          "name": "requestId",
          "type": "uint208"
        },
        {
          "internalType": "uint48",
          "name": "timestamp",
          "type": "uint48"
        }
      ],
      "stateMutability": "view",
      "type": "function"
    },
    {
      "inputs": [
        {
          "internalType": "uint256",
          "name": "requestId",
          "type": "uint256"
        },
        {
          "internalType": "uint256[]",
          "name": "randomWords",
          "type": "uint256[]"
        }
      ],
      "name": "receiveRandomWords",
      "outputs": [],
      "stateMutability": "nonpayable",
      "type": "function"
    },
    {
      "inputs": [],
      "name": "renounceOwnership",
      "outputs": [],
      "stateMutability": "nonpayable",
      "type": "function"
    },
    {
      "inputs": [],
      "name": "rescueETH",
      "outputs": [],
      "stateMutability": "nonpayable",
      "type": "function"
    },
    {
      "inputs": [
        {
          "internalType": "address",
          "name": "tokenAddress",
          "type": "address"
        }
      ],
      "name": "rescueTokens",
      "outputs": [],
      "stateMutability": "nonpayable",
      "type": "function"
    },
    {
      "inputs": [
        {
          "internalType": "address",
          "name": "from",
          "type": "address"
        },
        {
          "internalType": "address",
          "name": "to",
          "type": "address"
        },
        {
          "internalType": "uint256",
          "name": "tokenId",
          "type": "uint256"
        }
      ],
      "name": "safeTransferFrom",
      "outputs": [],
      "stateMutability": "nonpayable",
      "type": "function"
    },
    {
      "inputs": [
        {
          "internalType": "address",
          "name": "from",
          "type": "address"
        },
        {
          "internalType": "address",
          "name": "to",
          "type": "address"
        },
        {
          "internalType": "uint256",
          "name": "tokenId",
          "type": "uint256"
        },
        {
          "internalType": "bytes",
          "name": "data",
          "type": "bytes"
        }
      ],
      "name": "safeTransferFrom",
      "outputs": [],
      "stateMutability": "nonpayable",
      "type": "function"
    },
    {
      "inputs": [
        {
          "internalType": "uint256",
          "name": "value",
          "type": "uint256"
        }
      ],
      "name": "seedJackpot",
      "outputs": [],
      "stateMutability": "nonpayable",
      "type": "function"
    },
    {
      "inputs": [],
      "name": "seedJackpotDelay",
      "outputs": [
        {
          "internalType": "uint256",
          "name": "",
          "type": "uint256"
        }
      ],
      "stateMutability": "view",
      "type": "function"
    },
    {
      "inputs": [],
      "name": "seedJackpotMinValue",
      "outputs": [
        {
          "internalType": "uint256",
          "name": "",
          "type": "uint256"
        }
      ],
      "stateMutability": "view",
      "type": "function"
    },
    {
      "inputs": [
        {
          "internalType": "address",
          "name": "operator",
          "type": "address"
        },
        {
          "internalType": "bool",
          "name": "approved",
          "type": "bool"
        }
      ],
      "name": "setApprovalForAll",
      "outputs": [],
      "stateMutability": "nonpayable",
      "type": "function"
    },
    {
      "inputs": [
        {
          "internalType": "address",
          "name": "beneficiary",
          "type": "address"
        },
        {
          "internalType": "string",
          "name": "displayName",
          "type": "string"
        },
        {
          "internalType": "bool",
          "name": "isBeneficiary",
          "type": "bool"
        }
      ],
      "name": "setBeneficiary",
      "outputs": [
        {
          "internalType": "bool",
          "name": "didMutate",
          "type": "bool"
        }
      ],
      "stateMutability": "nonpayable",
      "type": "function"
    },
    {
      "inputs": [
        {
          "internalType": "uint256",
          "name": "newCallbackGasLimit",
          "type": "uint256"
        }
      ],
      "name": "setCallbackGasLimit",
      "outputs": [],
      "stateMutability": "nonpayable",
      "type": "function"
    },
    {
      "inputs": [
        {
          "internalType": "address",
          "name": "renderer",
          "type": "address"
        }
      ],
      "name": "setTicketSVGRenderer",
      "outputs": [],
      "stateMutability": "nonpayable",
      "type": "function"
    },
    {
      "inputs": [
        {
          "internalType": "bytes4",
          "name": "interfaceId",
          "type": "bytes4"
        }
      ],
      "name": "supportsInterface",
      "outputs": [
        {
          "internalType": "bool",
          "name": "",
          "type": "bool"
        }
      ],
      "stateMutability": "view",
      "type": "function"
    },
    {
      "inputs": [],
      "name": "symbol",
      "outputs": [
        {
          "internalType": "string",
          "name": "",
          "type": "string"
        }
      ],
      "stateMutability": "view",
      "type": "function"
    },
    {
      "inputs": [],
      "name": "ticketPrice",
      "outputs": [
        {
          "internalType": "uint256",
          "name": "",
          "type": "uint256"
        }
      ],
      "stateMutability": "view",
      "type": "function"
    },
    {
      "inputs": [],
      "name": "ticketSVGRenderer",
      "outputs": [
        {
          "internalType": "address",
          "name": "",
          "type": "address"
        }
      ],
      "stateMutability": "view",
      "type": "function"
    },
    {
      "inputs": [
        {
          "internalType": "uint256",
          "name": "gameId",
          "type": "uint256"
        },
        {
          "internalType": "uint256",
          "name": "id",
          "type": "uint256"
        },
        {
          "internalType": "uint256",
          "name": "",
          "type": "uint256"
        }
      ],
      "name": "tokenByPickIdentity",
      "outputs": [
        {
          "internalType": "uint256",
          "name": "",
          "type": "uint256"
        }
      ],
      "stateMutability": "view",
      "type": "function"
    },
    {
      "inputs": [
        {
          "internalType": "uint256",
          "name": "tokenId",
          "type": "uint256"
        }
      ],
      "name": "tokenURI",
      "outputs": [
        {
          "internalType": "string",
          "name": "",
          "type": "string"
        }
      ],
      "stateMutability": "view",
      "type": "function"
    },
    {
      "inputs": [],
      "name": "totalSupply",
      "outputs": [
        {
          "internalType": "uint256",
          "name": "",
          "type": "uint256"
        }
      ],
      "stateMutability": "view",
      "type": "function"
    },
    {
      "inputs": [
        {
          "internalType": "address",
          "name": "from",
          "type": "address"
        },
        {
          "internalType": "address",
          "name": "to",
          "type": "address"
        },
        {
          "internalType": "uint256",
          "name": "tokenId",
          "type": "uint256"
        }
      ],
      "name": "transferFrom",
      "outputs": [],
      "stateMutability": "nonpayable",
      "type": "function"
    },
    {
      "inputs": [
        {
          "internalType": "address",
          "name": "newOwner",
          "type": "address"
        }
      ],
      "name": "transferOwnership",
      "outputs": [],
      "stateMutability": "nonpayable",
      "type": "function"
    },
    {
      "inputs": [],
      "name": "unclaimedPayouts",
      "outputs": [
        {
          "internalType": "uint256",
          "name": "",
          "type": "uint256"
        }
      ],
      "stateMutability": "view",
      "type": "function"
    },
    {
      "inputs": [],
      "name": "withdrawAccruedFees",
      "outputs": [],
      "stateMutability": "nonpayable",
      "type": "function"
    },
    {
      "stateMutability": "payable",
      "type": "receive"
    }
  ],
  "bytecode": "0x60806040526207a120600955348015601657600080fd5b50601d6021565b60d1565b7ff0c57e16840df040f15088dc2f81fe391c3923bec73e23a9662efc9c229c6a00805468010000000000000000900460ff161560705760405163f92ee8a960e01b815260040160405180910390fd5b80546001600160401b039081161460ce5780546001600160401b0319166001600160401b0390811782556040519081527fc7f505b2f371ae2175ee4913f4499e1f2633a7b5936321eed1cdaeb6115181d29060200160405180910390a15b50565b6154a1806100e06000396000f3fe6080604052600436106103a55760003560e01c8063677bd9ff116101e7578063ab69dd081161010d578063ccaf237f116100a0578063e02ae8ce1161006f578063e02ae8ce14610b32578063e985e9c514610b89578063efe2f0eb14610bf1578063f2fde38b14610c3a57600080fd5b8063ccaf237f14610a6b578063ccb46bd714610adc578063d0ef024a14610afc578063d20831af14610b1c57600080fd5b8063b88d4fde116100dc578063b88d4fde146109f5578063be37822814610a15578063c45a015514610a2b578063c87b56dd14610a4b57600080fd5b8063ab69dd081461098a578063acef672b146109aa578063ada82c7d146109ca578063ae466313146109df57600080fd5b80638bba0174116101855780639ab6e297116101545780639ab6e2971461091e578063a0c4615c14610934578063a14916d914610954578063a22cb4651461096a57600080fd5b80638bba0174146108965780638da5cb5b146108ac5780638e84f4b6146108e957806395d89b411461090957600080fd5b8063715018a6116101c1578063715018a61461082057806382250a431461083557806384bc6a24146108555780638a54942f1461087657600080fd5b8063677bd9ff146107ca5780636b31ee01146107ea57806370a082311461080057600080fd5b806324f74697116102cc57806342842e0e1161026a57806360b663bb1161023957806360b663bb146107385780636160c00c1461077057806362ff220f1461078a5780636352211e146107aa57600080fd5b806342842e0e146106b5578063463d7b1a146106d557806354dd386c14610702578063586a19d91461071857600080fd5b806338aeb836116102a657806338aeb836146106285780633af37a55146106485780633b47492d1461068057806341c0e1b5146106a057600080fd5b806324f74697146105d25780632efb2d41146105e8578063336f528a1461060857600080fd5b80630c0ef2b01161034457806318575c0c1161031357806318575c0c146105475780631d29bd5a1461057a57806320800a001461059d57806323b872dd146105b257600080fd5b80630c0ef2b0146104fe5780630eecae21146105135780631209b1f61461051b57806318160ddd1461053157600080fd5b806302950fb91161038057806302950fb91461046457806306fdde0314610484578063081812fc146104a6578063095ea7b3146104de57600080fd5b8062ae3bf8146103e95780630171984b1461040b57806301ffc9a71461043457600080fd5b366103e457604080513381523460208201527f88a5966d370b9919b20f3e2c13ff65706f196a4e32cc2c12bf57088f88525874910160405180910390a1005b600080fd5b3480156103f557600080fd5b50610409610404366004614684565b610c5a565b005b34801561041757600080fd5b5061042160055481565b6040519081526020015b60405180910390f35b34801561044057600080fd5b5061045461044f3660046146b7565b610df8565b604051901515815260200161042b565b34801561047057600080fd5b5061040961047f3660046146d4565b610e7c565b34801561049057600080fd5b50610499610fd9565b60405161042b919061473d565b3480156104b257600080fd5b506104c66104c13660046146d4565b61108f565b6040516001600160a01b03909116815260200161042b565b3480156104ea57600080fd5b506104096104f9366004614750565b6110d7565b34801561050a57600080fd5b506104546110e6565b610409611108565b34801561052757600080fd5b5061042160045481565b34801561053d57600080fd5b50610421600a5481565b34801561055357600080fd5b5060005461056890600160a81b900460ff1681565b60405160ff909116815260200161042b565b34801561058657600080fd5b5061058f61152b565b60405161042b92919061477c565b3480156105a957600080fd5b50610409611687565b3480156105be57600080fd5b506104096105cd366004614827565b61173d565b3480156105de57600080fd5b5061042160095481565b3480156105f457600080fd5b506008546104c6906001600160a01b031681565b34801561061457600080fd5b506002546104c6906001600160a01b031681565b34801561063457600080fd5b50610421610643366004614868565b6117e1565b34801561065457600080fd5b50610421610663366004614894565b600091825260116020908152604080842092845291905290205490565b34801561068c57600080fd5b5061042161069b366004614894565b61181f565b3480156106ac57600080fd5b50610409611850565b3480156106c157600080fd5b506104096106d0366004614827565b6118e4565b3480156106e157600080fd5b506106f56106f03660046146d4565b6118ff565b60405161042b91906148f5565b34801561070e57600080fd5b5061042160075481565b34801561072457600080fd5b506106f56107333660046146d4565b611923565b34801561074457600080fd5b50600b546107629060ff81169061010090046001600160f81b031682565b60405161042b929190614940565b34801561077c57600080fd5b506014546104549060ff1681565b34801561079657600080fd5b506104096107a53660046149b0565b61193d565b3480156107b657600080fd5b506104c66107c53660046146d4565b611c2c565b3480156107d657600080fd5b506104216107e53660046146d4565b611c37565b3480156107f657600080fd5b50610421600c5481565b34801561080c57600080fd5b5061042161081b366004614684565b611fe8565b34801561082c57600080fd5b5061040961206f565b34801561084157600080fd5b50610409610850366004614684565b612083565b34801561086157600080fd5b5060005461056890600160a01b900460ff1681565b34801561088257600080fd5b506104096108913660046146d4565b612097565b3480156108a257600080fd5b5061042160065481565b3480156108b857600080fd5b507f9016d09d72d40fdae2fd8ceac6b6234c7706214fd39c1cd1e609a0528c199300546001600160a01b03166104c6565b3480156108f557600080fd5b50610499610904366004614684565b6120da565b34801561091557600080fd5b50610499612174565b34801561092a57600080fd5b50610421600d5481565b34801561094057600080fd5b5061040961094f366004614a07565b6121c5565b34801561096057600080fd5b5061042160135481565b34801561097657600080fd5b50610409610985366004614a61565b6123a5565b34801561099657600080fd5b506104096109a5366004614a9a565b6123b0565b3480156109b657600080fd5b506104096109c5366004614be4565b6123c2565b3480156109d657600080fd5b50610409612910565b3480156109eb57600080fd5b5061042160015481565b348015610a0157600080fd5b50610409610a10366004614d22565b612970565b348015610a2157600080fd5b506104216101f481565b348015610a3757600080fd5b506000546104c6906001600160a01b031681565b348015610a5757600080fd5b50610499610a663660046146d4565b612987565b348015610a7757600080fd5b50610ab5610a863660046146d4565b6010602052600090815260409020805460019091015467ffffffffffffffff80831692600160401b9004169083565b6040805167ffffffffffffffff94851681529390921660208401529082015260600161042b565b348015610ae857600080fd5b50610454610af7366004614da2565b612a47565b348015610b0857600080fd5b506003546104c6906001600160a01b031681565b348015610b2857600080fd5b5061042160155481565b348015610b3e57600080fd5b50600e54610b63906001600160d01b03811690600160d01b900465ffffffffffff1682565b604080516001600160d01b03909316835265ffffffffffff90911660208301520161042b565b348015610b9557600080fd5b50610454610ba4366004614e3c565b6001600160a01b0391821660009081527f80bb2b638cc20bc4d0a60d66940f3ab4a00c1d7b313497ca82fb0b4ab00793056020908152604080832093909416825291909152205460ff1690565b348015610bfd57600080fd5b50610c25610c0c3660046146d4565b600f602052600090815260409020805460019091015482565b6040805192835260208301919091520161042b565b348015610c4657600080fd5b50610409610c55366004614684565b612b83565b610c62612bd7565b6040517f70a082310000000000000000000000000000000000000000000000000000000081523060048201526000906001600160a01b038316906370a0823190602401602060405180830381865afa158015610cc2573d6000803e3d6000fd5b505050506040513d601f19601f82011682018060405250810190610ce69190614e6a565b600b5460035491925061010090046001600160f81b0316906001600160a01b0390811690841603610ddf57600081118015610d655750600b54601090600090610d3f9060019061010090046001600160f81b0316614e99565b6001600160f81b0316815260208101919091526040016000205467ffffffffffffffff16155b8015610d8757506003600b5460ff166003811115610d8557610d85614908565b145b15610da05760006013819055600d819055600c55610ddf565b6000600c54600d54601354610db59190614eb8565b610dbf9190614eb8565b905080831015610dd157610dd1614ecb565b610ddb8184614ee1565b9250505b610df36001600160a01b0384163384612c4b565b505050565b60006001600160e01b031982167f80ac58cd000000000000000000000000000000000000000000000000000000001480610e5b57506001600160e01b031982167f5b5e139f00000000000000000000000000000000000000000000000000000000145b80610e7657506301ffc9a760e01b6001600160e01b03198316145b92915050565b600180600b5460ff166003811115610e9657610e96614908565b14610ec457600b54604051632812aa8760e01b8152610ebb9160ff1690600401614ef4565b60405180910390fd5b600754821015610f03576040517f7b47632100000000000000000000000000000000000000000000000000000000815260048101839052602401610ebb565b600654601554610f139190614eb8565b421015610f6a5742600654601554610f2b9190614eb8565b610f359190614ee1565b6040517ff015865e000000000000000000000000000000000000000000000000000000008152600401610ebb91815260200190565b4260158190555081600c6000828254610f839190614eb8565b9091555050600354610fa0906001600160a01b0316333085612cbf565b60405182815233907f0a45ec0e27527fa1519b691bab30b4fedbc1da4b3d04ba9d3663f1696be541049060200160405180910390a25050565b7f80bb2b638cc20bc4d0a60d66940f3ab4a00c1d7b313497ca82fb0b4ab0079300805460609190819061100b90614f02565b80601f016020809104026020016040519081016040528092919081815260200182805461103790614f02565b80156110845780601f1061105957610100808354040283529160200191611084565b820191906000526020600020905b81548152906001019060200180831161106757829003601f168201915b505050505091505090565b600061109a82612cf8565b5060008281527f80bb2b638cc20bc4d0a60d66940f3ab4a00c1d7b313497ca82fb0b4ab007930460205260409020546001600160a01b0316610e76565b6110e2828233612d50565b5050565b60006003600b5460ff16600381111561110157611101614908565b1415905090565b600180600b5460ff16600381111561112257611122614908565b1461114757600b54604051632812aa8760e01b8152610ebb9160ff1690600401614ef4565b600b5461010090046001600160f81b031660009081526010602090815260408083208151606081018352815467ffffffffffffffff8082168352600160401b9091041693810184905260019182015492810192909252549092916111ab9190614eb8565b9050804210156111ea576040517f3fa5f83f00000000000000000000000000000000000000000000000000000000815260048101829052602401610ebb565b815167ffffffffffffffff1660000361124157600b546040516101009091046001600160f81b0316907ff6ca837b06142a107fde1fb0f9c3379c6d079aa7fa4de4437961f3eb6182221490600090a2610df3612d5d565b600b805460ff19166002908117909155546009546040517f10b0d1d200000000000000000000000000000000000000000000000000000000815260048101919091526000916001600160a01b0316906310b0d1d290602401602060405180830381865afa1580156112b6573d6000803e3d6000fd5b505050506040513d601f19601f820116820180604052508101906112da9190614e6a565b9050803411156113a75760006112f08234614ee1565b9050600080336001600160a01b03168360405160006040518083038185875af1925050503d8060008114611340576040519150601f19603f3d011682016040523d82523d6000602084013e611345565b606091505b50915091508161136e573383826040516359ed55cf60e01b8152600401610ebb93929190614f36565b60405183815233907f2c003babc9bab745cd44b6d4ba45ddf77bdbda4a59d52e1fc805dfb0d8895c7e9060200160405180910390a25050505b804710156113ea576040517f96fbe4dd00000000000000000000000000000000000000000000000000000000815247600482015260248101829052604401610ebb565b6002546000906001600160a01b0316631f53cf048361140a42601e614eb8565b6009546040516001600160e01b031960e086901b1681526004810192909252602482015260440160206040518083038185885af115801561144f573d6000803e3d6000fd5b50505050506040513d601f19601f820116820180604052508101906114749190614e6a565b90506001600160d01b038111156114ba576040517fa6110e8400000000000000000000000000000000000000000000000000000000815260048101829052602401610ebb565b6040805180820182526001600160d01b0383168082524265ffffffffffff166020928301819052600160d01b81028217600e558351918252918101919091527f71c56b2f279c00b585c2a62bd64c9206bd1c7f032649b2e863edd255d9ab621f910160405180910390a15050505050565b606080611538601661306a565b9150815167ffffffffffffffff81111561155457611554614adc565b60405190808252806020026020018201604052801561158757816020015b60608152602001906001900390816115725790505b50905060005b825181101561168257601860008483815181106115ac576115ac614f67565b60200260200101516001600160a01b03166001600160a01b0316815260200190815260200160002080546115df90614f02565b80601f016020809104026020016040519081016040528092919081815260200182805461160b90614f02565b80156116585780601f1061162d57610100808354040283529160200191611658565b820191906000526020600020905b81548152906001019060200180831161163b57829003601f168201915b505050505082828151811061166f5761166f614f67565b602090810291909101015260010161158d565b509091565b61168f612bd7565b60405147906000908190339084908381818185875af1925050503d80600081146116d5576040519150601f19603f3d011682016040523d82523d6000602084013e6116da565b606091505b509150915081611703573383826040516359ed55cf60e01b8152600401610ebb93929190614f36565b60405183815233907f9c3cc23d5256459e240b53f903b58777839d0f7784189d876864a2fecd9415a29060200160405180910390a2505050565b6001600160a01b03821661176757604051633250574960e11b815260006004820152602401610ebb565b600061177483833361307e565b9050836001600160a01b0316816001600160a01b0316146117db576040517f64283d7b0000000000000000000000000000000000000000000000000000000081526001600160a01b0380861660048301526024820184905282166044820152606401610ebb565b50505050565b6011602052826000526040600020602052816000526040600020818154811061180957600080fd5b9060005260206000200160009250925050505481565b6012602052816000526040600020818154811061183b57600080fd5b90600052602060002001600091509150505481565b611858612bd7565b600180600b5460ff16600381111561187257611872614908565b1461189757600b54604051632812aa8760e01b8152610ebb9160ff1690600401614ef4565b60145460ff16156118d4576040517fe76abfdd00000000000000000000000000000000000000000000000000000000815260040160405180910390fd5b506014805460ff19166001179055565b610df383838360405180602001604052806000815250612970565b600054606090610e769060ff600160a01b8204811691600160a81b900416846131bf565b600054606090610e7690600160a01b900460ff1683613268565b6000829003611978576040517fc01b5d3b00000000000000000000000000000000000000000000000000000000815260040160405180910390fd5b600454829060009061198b908390614f7d565b6003549091506119a6906001600160a01b0316333084612cbf565b6000612710600554836119b99190614f7d565b6119c39190614f94565b905060008060009054906101000a90046001600160a01b03166001600160a01b0316634ccb20c06040518163ffffffff1660e01b8152600401602060405180830381865afa158015611a19573d6000803e3d6000fd5b505050506040513d601f19601f82011682018060405250810190611a3d9190614fb6565b905060006001600160a01b03821615611a6e57612710611a5f6101f486614f7d565b611a699190614f94565b611a71565b60005b9050600081611a808587614ee1565b611a8a9190614ee1565b600b5490915061010090046001600160f81b03166001600160a01b038816611ac9578460136000828254611abe9190614eb8565b90915550611b2c9050565b611ad4601689613322565b611b15576040517ffce398aa0000000000000000000000000000000000000000000000000000000081526001600160a01b0389166004820152602401610ebb565b600354611b2c906001600160a01b03168987612c4b565b6001600160a01b03881615611b415787611b43565b305b6001600160a01b0316817f1efc214ec14d081e74ac22debc8d48a010f4f1f30ad4733c94e7c38ff90038e287604051611b7e91815260200190565b60405180910390a36001600160a01b03841615801590611b9e5750600083115b15611bfe57600354611bba906001600160a01b03168585612c4b565b836001600160a01b03167fb87e607f6030a23ed9b7dac1a717610f3a3b07325269f18808ba763bdcefe7ae84604051611bf591815260200190565b60405180910390a25b81600c6000828254611c109190614eb8565b90915550611c2090508a8a613344565b50505050505050505050565b6000610e7682612cf8565b60006001600b5460ff166003811115611c5257611c52614908565b14158015611c7757506003600b5460ff166003811115611c7457611c74614908565b14155b15611c9c57600b54604051632812aa8760e01b8152610ebb9160ff1690600401614ef4565b60008281527f80bb2b638cc20bc4d0a60d66940f3ab4a00c1d7b313497ca82fb0b4ab007930260205260409020546001600160a01b031680611cf457604051637e27328960e01b815260048101849052602401610ebb565b611cfd836137b0565b6000838152600f602090815260409182902082518084019093528054835260019081015491830191909152600b5461010090046001600160f81b031690611d449082614ee1565b825114611d80576040517f2506adb500000000000000000000000000000000000000000000000000000000815260048101869052602401610ebb565b815160009081526010602090815260408083208151606081018352815467ffffffffffffffff8082168352600160401b90910416818501526001909101548183018190528651855260118452828520818652845282852054875186526012909452919093205490919081158015611e0d57506003600b5460ff166003811115611e0b57611e0b614908565b145b15611ed5578351611e2990829067ffffffffffffffff16614ee1565b600d54611e369190614f94565b975087600d6000828254611e4a9190614ee1565b90915550508551600090815260126020908152604082208054600181018255908352912001899055600354611e89906001600160a01b0316888a612c4b565b8551604080516001600160a01b038a168152602081018b90528b917f1526f29dc67f9d8967789be9aa23179c7826c4a1c063c5834b5c4c495aaa07cb91015b60405180910390a3611fdc565b85602001518303611f9d5760008211611ef057611ef0614ecb565b611efa8183614ee1565b600d54611f079190614f94565b975087600d6000828254611f1b9190614ee1565b90915550508551600090815260126020908152604082208054600181018255908352912001899055600354611f5a906001600160a01b0316888a612c4b565b8551604080516001600160a01b038a168152602081018b90528b917f38eb4599d8dccd3edd335a3f80fea5dbaae4b6cb0db2866060f333f6796db3239101611ec8565b602080870151604080519182529181018590527f6ddaa595bb3e06c0ff457cddbaa35f1efddea1202d86286c56b6af33f6a8cc22910160405180910390a15b50505050505050919050565b60007f80bb2b638cc20bc4d0a60d66940f3ab4a00c1d7b313497ca82fb0b4ab00793006001600160a01b03831661204e576040517f89c62b6400000000000000000000000000000000000000000000000000000000815260006004820152602401610ebb565b6001600160a01b039092166000908152600390920160205250604090205490565b612077612bd7565b61208160006137eb565b565b61208b612bd7565b6120948161385c565b50565b61209f612bd7565b60098190556040518181527fea0306c7b92bfad18ad155350fb250f350724d4e5c843eeb51997be9f937c3509060200160405180910390a150565b601860205260009081526040902080546120f390614f02565b80601f016020809104026020016040519081016040528092919081815260200182805461211f90614f02565b801561216c5780601f106121415761010080835404028352916020019161216c565b820191906000526020600020905b81548152906001019060200180831161214f57829003601f168201915b505050505081565b7f80bb2b638cc20bc4d0a60d66940f3ab4a00c1d7b313497ca82fb0b4ab007930180546060917f80bb2b638cc20bc4d0a60d66940f3ab4a00c1d7b313497ca82fb0b4ab00793009161100b90614f02565b600280600b5460ff1660038111156121df576121df614908565b1461220457600b54604051632812aa8760e01b8152610ebb9160ff1690600401614ef4565b6002546001600160a01b0316331461224a576040517f01c09680000000000000000000000000000000000000000000000000000000008152336004820152602401610ebb565b6000829003612285576040517fbfa32be300000000000000000000000000000000000000000000000000000000815260040160405180910390fd5b600e546001600160d01b031684146122df57600e546040517faae75cf6000000000000000000000000000000000000000000000000000000008152600481018690526001600160d01b039091166024820152604401610ebb565b6040805180820190915260008082526020909101819052600e81905561231a8484838161230e5761230e614f67565b905060200201356118ff565b600b5460405191925061010090046001600160f81b0316907f4a2c5dc61d8caf543cef0b699bd08678003186170a4fff91cb694c4d9c1bdcad906123619083908590614fd3565b60405180910390a1600061237483613960565b6001600160f81b0383166000908152601060205260409020600101819055905061239c612d5d565b50505050505050565b6110e23383836139a6565b6123b8612bd7565b6110e28282613344565b7ff0c57e16840df040f15088dc2f81fe391c3923bec73e23a9662efc9c229c6a008054600160401b810460ff16159067ffffffffffffffff166000811580156124085750825b905060008267ffffffffffffffff1660011480156124255750303b155b905081158015612433575080155b1561246a576040517ff92ee8a900000000000000000000000000000000000000000000000000000000815260040160405180910390fd5b845467ffffffffffffffff19166001178555831561249957845468ff00000000000000001916600160401b1785555b85516124a490613a82565b6124b686602001518760400151613a93565b600080546001600160a01b03191633179055606086015160ff1615806124e357506020866060015160ff16115b1561250c57606086015160405163114e92d560e01b815260ff9091166004820152602401610ebb565b6060860151600080547fffffffffffffffffffffff00ffffffffffffffffffffffffffffffffffffffff16600160a01b60ff93841690810291909117909155608088015190911610156125965760808601516040517f6973f43c00000000000000000000000000000000000000000000000000000000815260ff9091166004820152602401610ebb565b8560800151600060156101000a81548160ff021916908360ff1602179055506102588660a0015110156125fd578560a001516040517faf0b9fe1000000000000000000000000000000000000000000000000000000008152600401610ebb91815260200190565b60a086015160015560c086015160000361264b578560c001516040517fb05276a5000000000000000000000000000000000000000000000000000000008152600401610ebb91815260200190565b60c086015160045560e086015161271090612669906101f490614eb8565b11156126a1576040517f64e1115400000000000000000000000000000000000000000000000000000000815260040160405180910390fd5b60e08601516005556101008601516001600160a01b0316612700576101008601516040517f5e280fa50000000000000000000000000000000000000000000000000000000081526001600160a01b039091166004820152602401610ebb565b610100860151600280546001600160a01b0319166001600160a01b0392831617905561012087015116612771576101208601516040517f4d05c0480000000000000000000000000000000000000000000000000000000081526001600160a01b039091166004820152602401610ebb565b610120860151600380546001600160a01b0319166001600160a01b03909216919091179055610140860151600681905561016087015160075515806127b65750600754155b156127fc576006546007546040517f0758bd7700000000000000000000000000000000000000000000000000000000815260048101929092526024820152604401610ebb565b61280a86610180015161385c565b600b8054600160ff199091161790556040805160608101825260008082524267ffffffffffffffff9081166020808501918252948401838152928052601090945291517f6e0956cda88cad152e89927e53611735b61a5c762d1428573c6931b0a5efcb01805494518416600160401b026fffffffffffffffffffffffffffffffff199095169190931617929092179055517f6e0956cda88cad152e89927e53611735b61a5c762d1428573c6931b0a5efcb0255831561290857845468ff000000000000000019168555604051600181527fc7f505b2f371ae2175ee4913f4499e1f2633a7b5936321eed1cdaeb6115181d29060200160405180910390a15b505050505050565b612918612bd7565b601380546000909155600354612938906001600160a01b03163383612c4b565b60405181815233907f3f9a693150e48179f93c02c3ec37f52f8280a293b6096e6f5496c22f315b77c29060200160405180910390a250565b61297b84848461173d565b6117db84848484613aa5565b606061299282612cf8565b506008546001600160a01b0316636de319746129ac610fd9565b60008054868252600f602052604090912060010154869160ff600160a81b82048116926129e392600160a01b900490911690613268565b6040518563ffffffff1660e01b8152600401612a029493929190614ff5565b600060405180830381865afa158015612a1f573d6000803e3d6000fd5b505050506040513d6000823e601f3d908101601f19168201604052610e769190810190615034565b6000612a51612bd7565b8115612b12576000839003612a92576040517f7f643eca00000000000000000000000000000000000000000000000000000000815260040160405180910390fd5b6001600160a01b0385166000908152601860205260409020612ab58486836150e9565b50612ac1601686613bce565b90508015612b0d57846001600160a01b03167fbd793e14f2ef74a7a875db560b865f09db4c686288570de877a4c9c33e6dae478585604051612b049291906151a9565b60405180910390a25b612b7b565b612b1d601686613be3565b90508015612b7b576001600160a01b0385166000908152601860205260408120612b4691614611565b6040516001600160a01b038616907f72977dad29432f655f11c2f0e72ef5124bb9ade7a512fb7a43a9f504df22342890600090a25b949350505050565b612b8b612bd7565b6001600160a01b038116612bce576040517f1e4fbdf700000000000000000000000000000000000000000000000000000000815260006004820152602401610ebb565b612094816137eb565b33612c097f9016d09d72d40fdae2fd8ceac6b6234c7706214fd39c1cd1e609a0528c199300546001600160a01b031690565b6001600160a01b031614612081576040517f118cdaa7000000000000000000000000000000000000000000000000000000008152336004820152602401610ebb565b6040516001600160a01b03838116602483015260448201839052610df391859182169063a9059cbb906064015b604051602081830303815290604052915060e01b6020820180517bffffffffffffffffffffffffffffffffffffffffffffffffffffffff8381831617835250505050613bf8565b6040516001600160a01b0384811660248301528381166044830152606482018390526117db9186918216906323b872dd90608401612c78565b60008181527f80bb2b638cc20bc4d0a60d66940f3ab4a00c1d7b313497ca82fb0b4ab007930260205260408120546001600160a01b031680610e7657604051637e27328960e01b815260048101849052602401610ebb565b610df38383836001613c74565b6003600b5460ff166003811115612d7657612d76614908565b03612d8357612d83614ecb565b600b546014546101009091046001600160f81b03169060009060ff1615612dac57506003612db0565b5060015b6040518060400160405280826003811115612dcd57612dcd614908565b8152602001612ddd8460016151d8565b6001600160f81b031690528051600b8054909190829060ff19166001836003811115612e0b57612e0b614908565b021790555060209182015181546001600160f81b039091166101000260ff9091161790556040805160608101825260008082524267ffffffffffffffff169382019390935290810182905290601090612e658560016151d8565b6001600160f81b03908116825260208083019390935260409182016000908120855181548787015167ffffffffffffffff908116600160401b026fffffffffffffffffffffffffffffffff19909216921691909117178155948301516001958601559086168152601083528181209093015460118352818420818552909252822054600d54600c54929391929091839003612ff4576003856003811115612f0e57612f0e614908565b03612f8857600080612f208385614eb8565b6000600c55600d8190556040805186815260208101869052908101829052606081018490529091506001600160f81b038916907f59a23cf10d003eab0c59d7c706e3b4b20aeddabe02c2ae924bd12cfb8c3e4b64906080015b60405180910390a25050612908565b6000612f948284614eb8565b600c8190556000600d819055604080518681526020810186905290810182905260608101839052919250906001600160f81b038916907f59a23cf10d003eab0c59d7c706e3b4b20aeddabe02c2ae924bd12cfb8c3e4b6490608001612f79565b60006130008383614eb8565b600d8190556000600c81905560408051868152602081018690528082018490526060810192909252519192506001600160f81b038916917f59a23cf10d003eab0c59d7c706e3b4b20aeddabe02c2ae924bd12cfb8c3e4b649181900360800190a250505050505050565b6060600061307783613df3565b9392505050565b60008281527f80bb2b638cc20bc4d0a60d66940f3ab4a00c1d7b313497ca82fb0b4ab007930260205260408120547f80bb2b638cc20bc4d0a60d66940f3ab4a00c1d7b313497ca82fb0b4ab0079300906001600160a01b03908116908416156130ec576130ec818587613e4f565b6001600160a01b0381161561312c57613109600086600080613c74565b6001600160a01b0381166000908152600383016020526040902080546000190190555b6001600160a01b0386161561315d576001600160a01b03861660009081526003830160205260409020805460010190555b600085815260028301602052604080822080546001600160a01b0319166001600160a01b038a811691821790925591518893918516917fddf252ad1be2c89b69c2b068fc378daa952ba7f163c4a11628f55a4df523b3ef91a495945050505050565b60608360ff1667ffffffffffffffff8111156131dd576131dd614adc565b604051908082528060200260200182016040528015613206578160200160208202803683370190505b50905060005b8460ff1681101561325e57613227818560ff1685600c613ecc565b613232906001614eb8565b82828151811061324457613244614f67565b60ff9092166020928302919091019091015260010161320c565b50612b7b81614028565b60608260ff1667ffffffffffffffff81111561328657613286614adc565b6040519080825280602002602001820160405280156132af578160200160208202803683370190505b5090506000805b61010081101561331a57600184821c8116148015613301578184846132da816151f7565b9550815181106132ec576132ec614f67565b602002602001019060ff16908160ff16815250505b8560ff168303613311575061331a565b506001016132b6565b505092915050565b6001600160a01b03811660009081526001830160205260408120541515613077565b600180600b5460ff16600381111561335e5761335e614908565b1461338357600b54604051632812aa8760e01b8152610ebb9160ff1690600401614ef4565b60408051808201909152600b80546000929190829060ff1660038111156133ac576133ac614908565b60038111156133bd576133bd614908565b8152905461010090046001600160f81b039081166020928301528282015116600081815260108352604090819020815160608082018452825467ffffffffffffffff8082168452600160401b909104169582019590955260019091015481830152815193840190915280519394509092869290819061343d908590615210565b67ffffffffffffffff90811682526020848101518216818401526040808601519381019390935260008781526010825283812085518154938701518516600160401b026fffffffffffffffffffffffffffffffff1990941694169390931791909117825592909101516001918201558154600a5460ff600160a01b8304811694600160a81b90930416926134d19190614eb8565b905084600a60008282546134e59190614eb8565b90915550600090505b858110156137455760008b8b8381811061350a5761350a614f67565b905060200281019061351c9190615230565b61352a906020810190614684565b905060008c8c8481811061354057613540614f67565b90506020028101906135529190615230565b613560906020810190615250565b80806020026020016040519081016040528093929190818152602001838360200280828437600092019190915250508251929350505086148015906135a55750805115155b156135c857805160405163114e92d560e01b8152600401610ebb91815260200190565b805115613689576000805b878110156136865760008382815181106135ef576135ef614f67565b602002602001015190508260ff168160ff161161363a57836040517f5f863765000000000000000000000000000000000000000000000000000000008152600401610ebb91906148f5565b878160ff16111561367c576040517f9fb72f1700000000000000000000000000000000000000000000000000000000815260ff82166004820152602401610ebb565b91506001016135d3565b50505b60006136958486614eb8565b905060006136a283613960565b6040805180820182528d815260208082018481526000878152600f83528481209351845590516001938401558f815260118252838120858252825283812080549384018155815220018490555190915082906001600160a01b038616908d907f38f7010e1714c2785562f89e75c8d417cb1908bd47a9e84cf5db470ad60c44cf9061372e9088906148f5565b60405180910390a4505050508060010190506134ee565b5060005b858110156137a35760008b8b8381811061376557613765614f67565b90506020028101906137779190615230565b613785906020810190614684565b905061379a816137958486614eb8565b614137565b50600101613749565b5050505050505050505050565b60006137bf600083600061307e565b90506001600160a01b0381166110e257604051637e27328960e01b815260048101839052602401610ebb565b7f9016d09d72d40fdae2fd8ceac6b6234c7706214fd39c1cd1e609a0528c19930080546001600160a01b031981166001600160a01b03848116918217845560405192169182907f8be0079c531659141344cd1fd0a4f28419497f9722a3daafe3b4186f6b6457e090600090a3505050565b60006001600160a01b038216158015906138f957506040516301ffc9a760e01b81527f86ff10540000000000000000000000000000000000000000000000000000000060048201526001600160a01b038316906301ffc9a790602401602060405180830381865afa1580156138d5573d6000803e3d6000fd5b505050506040513d601f19601f820116820180604052508101906138f9919061529a565b90508061393d576040517f64fd73040000000000000000000000000000000000000000000000000000000081526001600160a01b0383166004820152602401610ebb565b50600880546001600160a01b0319166001600160a01b0392909216919091179055565b60008060005b835181101561399f5783818151811061398157613981614f67565b602002602001015160ff166001901b82179150806001019050613966565b5092915050565b7f80bb2b638cc20bc4d0a60d66940f3ab4a00c1d7b313497ca82fb0b4ab00793006001600160a01b038316613a12576040517f5b08ba180000000000000000000000000000000000000000000000000000000081526001600160a01b0384166004820152602401610ebb565b6001600160a01b038481166000818152600584016020908152604080832094881680845294825291829020805460ff191687151590811790915591519182527f17307eab39ab6107e8899845ad3d59bd9653f200f220920489ca2b5937696c31910160405180910390a350505050565b613a8a614151565b612094816141b3565b613a9b614151565b6110e282826141bb565b6001600160a01b0383163b156117db57604051630a85bd0160e11b81526001600160a01b0384169063150b7a0290613ae79033908890879087906004016152b7565b6020604051808303816000875af1925050508015613b22575060408051601f3d908101601f19168201909252613b1f918101906152ee565b60015b613b8b573d808015613b50576040519150601f19603f3d011682016040523d82523d6000602084013e613b55565b606091505b508051600003613b8357604051633250574960e11b81526001600160a01b0385166004820152602401610ebb565b805181602001fd5b6001600160e01b03198116630a85bd0160e11b14613bc757604051633250574960e11b81526001600160a01b0385166004820152602401610ebb565b5050505050565b6000613077836001600160a01b0384166141fe565b6000613077836001600160a01b03841661424d565b6000613c0d6001600160a01b03841683614340565b90508051600014158015613c32575080806020019051810190613c30919061529a565b155b15610df3576040517f5274afe70000000000000000000000000000000000000000000000000000000081526001600160a01b0384166004820152602401610ebb565b7f80bb2b638cc20bc4d0a60d66940f3ab4a00c1d7b313497ca82fb0b4ab00793008180613ca957506001600160a01b03831615155b15613dc2576000613cb985612cf8565b90506001600160a01b03841615801590613ce55750836001600160a01b0316816001600160a01b031614155b8015613d3657506001600160a01b0380821660009081527f80bb2b638cc20bc4d0a60d66940f3ab4a00c1d7b313497ca82fb0b4ab0079305602090815260408083209388168352929052205460ff16155b15613d78576040517fa9fbf51f0000000000000000000000000000000000000000000000000000000081526001600160a01b0385166004820152602401610ebb565b8215613dc05784866001600160a01b0316826001600160a01b03167f8c5be1e5ebec7d5bd14f71427d1e84f3dd0314c0f7b2291e5b200ac8c7c3b92560405160405180910390a45b505b600093845260040160205250506040902080546001600160a01b0319166001600160a01b0392909216919091179055565b606081600001805480602002602001604051908101604052809291908181526020018280548015613e4357602002820191906000526020600020905b815481526020019060010190808311613e2f575b50505050509050919050565b613e5a83838361434e565b610df3576001600160a01b038316613e8857604051637e27328960e01b815260048101829052602401610ebb565b6040517f177e802f0000000000000000000000000000000000000000000000000000000081526001600160a01b038316600482015260248101829052604401610ebb565b6000831580613edb5750838510155b80613ee95750816001166001145b15613f20576040517ff34cfab600000000000000000000000000000000000000000000000000000000815260040160405180910390fd5b613f72565b60006003821160018114613f485760018315191615613f4357600191505b613f6c565b829150600160028404015b82811015613f6a5791506002828404830104613f53565b505b50919050565b613f7b84613f25565b6000856002830a1460018114613fb757600183016fffffffffffffffffffffffffffffffff811115613fac57600080fd5b6002900a9150613fbb565b8691505b50613fc581613f25565b915050604051608081016040528460408201528560608201525b81870682880460005b8681101561400f578184526020840181905260808420919290910184900690600101613fe8565b50830201965085871015613fdf57509495945050505050565b805160609060015b8181101561412f57600084828151811061404c5761404c614f67565b602002602001015190506000600183614065919061530b565b90505b60008112158015614097575085818151811061408657614086614f67565b602002602001015160ff168260ff16105b156140f6578581815181106140ae576140ae614f67565b6020026020010151868260016140c4919061532b565b815181106140d4576140d4614f67565b60ff909216602092830291909101909101526140ef8161534b565b9050614068565b818661410383600161532b565b8151811061411357614113614f67565b60ff909216602092830291909101909101525050600101614030565b509192915050565b6110e282826040518060200160405280600081525061440f565b7ff0c57e16840df040f15088dc2f81fe391c3923bec73e23a9662efc9c229c6a0054600160401b900460ff16612081576040517fd7e6bcf800000000000000000000000000000000000000000000000000000000815260040160405180910390fd5b612b8b614151565b6141c3614151565b7f80bb2b638cc20bc4d0a60d66940f3ab4a00c1d7b313497ca82fb0b4ab0079300806141ef8482615384565b50600181016117db8382615384565b600081815260018301602052604081205461424557508154600181810184556000848152602080822090930184905584548482528286019093526040902091909155610e76565b506000610e76565b60008181526001830160205260408120548015614336576000614271600183614ee1565b855490915060009061428590600190614ee1565b90508082146142ea5760008660000182815481106142a5576142a5614f67565b90600052602060002001549050808760000184815481106142c8576142c8614f67565b6000918252602080832090910192909255918252600188019052604090208390555b85548690806142fb576142fb615443565b600190038181906000526020600020016000905590558560010160008681526020019081526020016000206000905560019350505050610e76565b6000915050610e76565b606061307783836000614426565b60006001600160a01b03831615801590612b7b5750826001600160a01b0316846001600160a01b031614806143c757506001600160a01b0380851660009081527f80bb2b638cc20bc4d0a60d66940f3ab4a00c1d7b313497ca82fb0b4ab0079305602090815260408083209387168352929052205460ff165b80612b7b57505060009081527f80bb2b638cc20bc4d0a60d66940f3ab4a00c1d7b313497ca82fb0b4ab007930460205260409020546001600160a01b03908116911614919050565b61441983836144dc565b610df36000848484613aa5565b606081471015614464576040517fcd786059000000000000000000000000000000000000000000000000000000008152306004820152602401610ebb565b600080856001600160a01b031684866040516144809190615459565b60006040518083038185875af1925050503d80600081146144bd576040519150601f19603f3d011682016040523d82523d6000602084013e6144c2565b606091505b50915091506144d286838361455a565b9695505050505050565b6001600160a01b03821661450657604051633250574960e11b815260006004820152602401610ebb565b60006145148383600061307e565b90506001600160a01b03811615610df3576040517f73c6ac6e00000000000000000000000000000000000000000000000000000000815260006004820152602401610ebb565b60608261456f5761456a826145cf565b613077565b815115801561458657506001600160a01b0384163b155b156145c8576040517f9996b3150000000000000000000000000000000000000000000000000000000081526001600160a01b0385166004820152602401610ebb565b5080613077565b8051156145df5780518082602001fd5b6040517f1425ea4200000000000000000000000000000000000000000000000000000000815260040160405180910390fd5b50805461461d90614f02565b6000825580601f1061462d575050565b601f01602090049060005260206000209081019061209491905b8082111561465b5760008155600101614647565b5090565b6001600160a01b038116811461209457600080fd5b803561467f8161465f565b919050565b60006020828403121561469657600080fd5b81356130778161465f565b6001600160e01b03198116811461209457600080fd5b6000602082840312156146c957600080fd5b8135613077816146a1565b6000602082840312156146e657600080fd5b5035919050565b60005b838110156147085781810151838201526020016146f0565b50506000910152565b600081518084526147298160208601602086016146ed565b601f01601f19169290920160200192915050565b6020815260006130776020830184614711565b6000806040838503121561476357600080fd5b823561476e8161465f565b946020939093013593505050565b6040808252835190820181905260009060208501906060840190835b818110156147bf5783516001600160a01b0316835260209384019390920191600101614798565b50508381036020850152809150845180825260208201925060208160051b8301016020870160005b8381101561481957601f19858403018652614803838351614711565b60209687019690935091909101906001016147e7565b509098975050505050505050565b60008060006060848603121561483c57600080fd5b83356148478161465f565b925060208401356148578161465f565b929592945050506040919091013590565b60008060006060848603121561487d57600080fd5b505081359360208301359350604090920135919050565b600080604083850312156148a757600080fd5b50508035926020909101359150565b600081518084526020840193506020830160005b828110156148eb57815160ff168652602095860195909101906001016148ca565b5093949350505050565b60208152600061307760208301846148b6565b634e487b7160e01b600052602160045260246000fd5b6004811061493c57634e487b7160e01b600052602160045260246000fd5b9052565b6040810161494e828561491e565b6001600160f81b03831660208301529392505050565b60008083601f84011261497657600080fd5b50813567ffffffffffffffff81111561498e57600080fd5b6020830191508360208260051b85010111156149a957600080fd5b9250929050565b6000806000604084860312156149c557600080fd5b833567ffffffffffffffff8111156149dc57600080fd5b6149e886828701614964565b90945092505060208401356149fc8161465f565b809150509250925092565b600080600060408486031215614a1c57600080fd5b83359250602084013567ffffffffffffffff811115614a3a57600080fd5b614a4686828701614964565b9497909650939450505050565b801515811461209457600080fd5b60008060408385031215614a7457600080fd5b8235614a7f8161465f565b91506020830135614a8f81614a53565b809150509250929050565b60008060208385031215614aad57600080fd5b823567ffffffffffffffff811115614ac457600080fd5b614ad085828601614964565b90969095509350505050565b634e487b7160e01b600052604160045260246000fd5b6040516101a0810167ffffffffffffffff81118282101715614b1657614b16614adc565b60405290565b604051601f8201601f1916810167ffffffffffffffff81118282101715614b4557614b45614adc565b604052919050565b600067ffffffffffffffff821115614b6757614b67614adc565b50601f01601f191660200190565b6000614b88614b8384614b4d565b614b1c565b9050828152838383011115614b9c57600080fd5b828260208301376000602084830101529392505050565b600082601f830112614bc457600080fd5b61307783833560208501614b75565b803560ff8116811461467f57600080fd5b600060208284031215614bf657600080fd5b813567ffffffffffffffff811115614c0d57600080fd5b82016101a08185031215614c2057600080fd5b614c28614af2565b614c3182614674565b8152602082013567ffffffffffffffff811115614c4d57600080fd5b614c5986828501614bb3565b602083015250604082013567ffffffffffffffff811115614c7957600080fd5b614c8586828501614bb3565b604083015250614c9760608301614bd3565b6060820152614ca860808301614bd3565b608082015260a0828101359082015260c0808301359082015260e08083013590820152614cd86101008301614674565b610100820152614ceb6101208301614674565b61012082015261014082810135908201526101608083013590820152614d146101808301614674565b610180820152949350505050565b60008060008060808587031215614d3857600080fd5b8435614d438161465f565b93506020850135614d538161465f565b925060408501359150606085013567ffffffffffffffff811115614d7657600080fd5b8501601f81018713614d8757600080fd5b614d9687823560208401614b75565b91505092959194509250565b60008060008060608587031215614db857600080fd5b8435614dc38161465f565b9350602085013567ffffffffffffffff811115614ddf57600080fd5b8501601f81018713614df057600080fd5b803567ffffffffffffffff811115614e0757600080fd5b876020828401011115614e1957600080fd5b602091909101935091506040850135614e3181614a53565b939692955090935050565b60008060408385031215614e4f57600080fd5b8235614e5a8161465f565b91506020830135614a8f8161465f565b600060208284031215614e7c57600080fd5b5051919050565b634e487b7160e01b600052601160045260246000fd5b6001600160f81b038281168282160390811115610e7657610e76614e83565b80820180821115610e7657610e76614e83565b634e487b7160e01b600052600160045260246000fd5b81810381811115610e7657610e76614e83565b60208101610e76828461491e565b600181811c90821680614f1657607f821691505b602082108103613f6c57634e487b7160e01b600052602260045260246000fd5b6001600160a01b0384168152826020820152606060408201526000614f5e6060830184614711565b95945050505050565b634e487b7160e01b600052603260045260246000fd5b8082028115828204841417610e7657610e76614e83565b600082614fb157634e487b7160e01b600052601260045260246000fd5b500490565b600060208284031215614fc857600080fd5b81516130778161465f565b6001600160f81b0383168152604060208201526000612b7b60408301846148b6565b6080815260006150086080830187614711565b85602084015260ff85166040840152828103606084015261502981856148b6565b979650505050505050565b60006020828403121561504657600080fd5b815167ffffffffffffffff81111561505d57600080fd5b8201601f8101841361506e57600080fd5b805161507c614b8382614b4d565b81815285602083850101111561509157600080fd5b614f5e8260208301602086016146ed565b601f821115610df357806000526020600020601f840160051c810160208510156150c95750805b601f840160051c820191505b81811015613bc757600081556001016150d5565b67ffffffffffffffff83111561510157615101614adc565b6151158361510f8354614f02565b836150a2565b6000601f84116001811461514957600085156151315750838201355b600019600387901b1c1916600186901b178355613bc7565b600083815260209020601f19861690835b8281101561517a578685013582556020948501946001909201910161515a565b50868210156151975760001960f88860031b161c19848701351681555b505060018560011b0183555050505050565b60208152816020820152818360408301376000818301604090810191909152601f909201601f19160101919050565b6001600160f81b038181168382160190811115610e7657610e76614e83565b60006001820161520957615209614e83565b5060010190565b67ffffffffffffffff8181168382160190811115610e7657610e76614e83565b60008235603e1983360301811261524657600080fd5b9190910192915050565b6000808335601e1984360301811261526757600080fd5b83018035915067ffffffffffffffff82111561528257600080fd5b6020019150600581901b36038213156149a957600080fd5b6000602082840312156152ac57600080fd5b815161307781614a53565b6001600160a01b03851681526001600160a01b03841660208201528260408201526080606082015260006144d26080830184614711565b60006020828403121561530057600080fd5b8151613077816146a1565b818103600083128015838313168383128216171561399f5761399f614e83565b808201828112600083128015821682158216171561331a5761331a614e83565b60007f8000000000000000000000000000000000000000000000000000000000000000820361537c5761537c614e83565b506000190190565b815167ffffffffffffffff81111561539e5761539e614adc565b6153b2816153ac8454614f02565b846150a2565b6020601f8211600181146153e657600083156153ce5750848201515b600019600385901b1c1916600184901b178455613bc7565b600084815260208120601f198516915b8281101561541657878501518255602094850194600190920191016153f6565b50848210156154345786840151600019600387901b60f8161c191681555b50505050600190811b01905550565b634e487b7160e01b600052603160045260246000fd5b600082516152468184602087016146ed56fea264697066735822122072768e8b6f5cc82dd9c5feeb8b0a56d713bf8fbc616e5f661c3b4adf136318e564736f6c634300081b0033",
  "linkReferences": {},
  "deployedLinkReferences": {}
}