{
  "_format": "hh-sol-artifact-1",
  "contractName": "LooteryFactory",
  "sourceName": "contracts/LooteryFactory.sol",
  "abi": [
    {
      "inputs": [],
      "stateMutability": "nonpayable",
      "type": "constructor"
    },
    {
      "inputs": [],
      "name": "AccessControlBadConfirmation",
      "type": "error"
    },
    {
      "inputs": [
        {
          "internalType": "address",
          "name": "account",
          "type": "address"
        },
        {
          "internalType": "bytes32",
          "name": "neededRole",
          "type": "bytes32"
        }
      ],
      "name": "AccessControlUnauthorizedAccount",
      "type": "error"
    },
    {
      "inputs": [
        {
          "internalType": "address",
          "name": "target",
          "type": "address"
        }
      ],
      "name": "AddressEmptyCode",
      "type": "error"
    },
    {
      "inputs": [],
      "name": "ERC1167FailedCreateClone",
      "type": "error"
    },
    {
      "inputs": [
        {
          "internalType": "address",
          "name": "implementation",
          "type": "address"
        }
      ],
      "name": "ERC1967InvalidImplementation",
      "type": "error"
    },
    {
      "inputs": [],
      "name": "ERC1967NonPayable",
      "type": "error"
    },
    {
      "inputs": [],
      "name": "FailedInnerCall",
      "type": "error"
    },
    {
      "inputs": [],
      "name": "InvalidInitialization",
      "type": "error"
    },
    {
      "inputs": [],
      "name": "NotInitializing",
      "type": "error"
    },
    {
      "inputs": [],
      "name": "UUPSUnauthorizedCallContext",
      "type": "error"
    },
    {
      "inputs": [
        {
          "internalType": "bytes32",
          "name": "slot",
          "type": "bytes32"
        }
      ],
      "name": "UUPSUnsupportedProxiableUUID",
      "type": "error"
    },
    {
      "anonymous": false,
      "inputs": [
        {
          "indexed": false,
          "internalType": "uint64",
          "name": "version",
          "type": "uint64"
        }
      ],
      "name": "Initialized",
      "type": "event"
    },
    {
      "anonymous": false,
      "inputs": [
        {
          "indexed": true,
          "internalType": "address",
          "name": "looteryProxy",
          "type": "address"
        },
        {
          "indexed": true,
          "internalType": "address",
          "name": "looteryImplementation",
          "type": "address"
        },
        {
          "indexed": true,
          "internalType": "address",
          "name": "deployer",
          "type": "address"
        },
        {
          "indexed": false,
          "internalType": "string",
          "name": "name",
          "type": "string"
        }
      ],
      "name": "LooteryLaunched",
      "type": "event"
    },
    {
      "anonymous": false,
      "inputs": [
        {
          "indexed": false,
          "internalType": "address",
          "name": "oldLooteryMasterCopy",
          "type": "address"
        },
        {
          "indexed": false,
          "internalType": "address",
          "name": "newLooteryMasterCopy",
          "type": "address"
        }
      ],
      "name": "LooteryMasterCopyUpdated",
      "type": "event"
    },
    {
      "anonymous": false,
      "inputs": [
        {
          "indexed": false,
          "internalType": "address",
          "name": "oldRandomiser",
          "type": "address"
        },
        {
          "indexed": false,
          "internalType": "address",
          "name": "newRandomiser",
          "type": "address"
        }
      ],
      "name": "RandomiserUpdated",
      "type": "event"
    },
    {
      "anonymous": false,
      "inputs": [
        {
          "indexed": true,
          "internalType": "bytes32",
          "name": "role",
          "type": "bytes32"
        },
        {
          "indexed": true,
          "internalType": "bytes32",
          "name": "previousAdminRole",
          "type": "bytes32"
        },
        {
          "indexed": true,
          "internalType": "bytes32",
          "name": "newAdminRole",
          "type": "bytes32"
        }
      ],
      "name": "RoleAdminChanged",
      "type": "event"
    },
    {
      "anonymous": false,
      "inputs": [
        {
          "indexed": true,
          "internalType": "bytes32",
          "name": "role",
          "type": "bytes32"
        },
        {
          "indexed": true,
          "internalType": "address",
          "name": "account",
          "type": "address"
        },
        {
          "indexed": true,
          "internalType": "address",
          "name": "sender",
          "type": "address"
        }
      ],
      "name": "RoleGranted",
      "type": "event"
    },
    {
      "anonymous": false,
      "inputs": [
        {
          "indexed": true,
          "internalType": "bytes32",
          "name": "role",
          "type": "bytes32"
        },
        {
          "indexed": true,
          "internalType": "address",
          "name": "account",
          "type": "address"
        },
        {
          "indexed": true,
          "internalType": "address",
          "name": "sender",
          "type": "address"
        }
      ],
      "name": "RoleRevoked",
      "type": "event"
    },
    {
      "anonymous": false,
      "inputs": [
        {
          "indexed": false,
          "internalType": "address",
          "name": "oldTicketSVGRenderer",
          "type": "address"
        },
        {
          "indexed": false,
          "internalType": "address",
          "name": "newTicketSVGRenderer",
          "type": "address"
        }
      ],
      "name": "TicketSVGRendererUpdated",
      "type": "event"
    },
    {
      "anonymous": false,
      "inputs": [
        {
          "indexed": true,
          "internalType": "address",
          "name": "implementation",
          "type": "address"
        }
      ],
      "name": "Upgraded",
      "type": "event"
    },
    {
      "inputs": [],
      "name": "DEFAULT_ADMIN_ROLE",
      "outputs": [
        {
          "internalType": "bytes32",
          "name": "",
          "type": "bytes32"
        }
      ],
      "stateMutability": "view",
      "type": "function"
    },
    {
      "inputs": [],
      "name": "UPGRADE_INTERFACE_VERSION",
      "outputs": [
        {
          "internalType": "string",
          "name": "",
          "type": "string"
        }
      ],
      "stateMutability": "view",
      "type": "function"
    },
    {
      "inputs": [],
      "name": "computeNextAddress",
      "outputs": [
        {
          "internalType": "address",
          "name": "",
          "type": "address"
        }
      ],
      "stateMutability": "view",
      "type": "function"
    },
    {
      "inputs": [
        {
          "internalType": "string",
          "name": "name",
          "type": "string"
        },
        {
          "internalType": "string",
          "name": "symbol",
          "type": "string"
        },
        {
          "internalType": "uint8",
          "name": "pickLength",
          "type": "uint8"
        },
        {
          "internalType": "uint8",
          "name": "maxBallValue",
          "type": "uint8"
        },
        {
          "internalType": "uint256",
          "name": "gamePeriod",
          "type": "uint256"
        },
        {
          "internalType": "uint256",
          "name": "ticketPrice",
          "type": "uint256"
        },
        {
          "internalType": "uint256",
          "name": "communityFeeBps",
          "type": "uint256"
        },
        {
          "internalType": "address",
          "name": "prizeToken",
          "type": "address"
        },
        {
          "internalType": "uint256",
          "name": "seedJackpotDelay",
          "type": "uint256"
        },
        {
          "internalType": "uint256",
          "name": "seedJackpotMinValue",
          "type": "uint256"
        }
      ],
      "name": "create",
      "outputs": [
        {
          "internalType": "address",
          "name": "",
          "type": "address"
        }
      ],
      "stateMutability": "nonpayable",
      "type": "function"
    },
    {
      "inputs": [],
      "name": "getFeeRecipient",
      "outputs": [
        {
          "internalType": "address",
          "name": "",
          "type": "address"
        }
      ],
      "stateMutability": "view",
      "type": "function"
    },
    {
      "inputs": [],
      "name": "getLooteryMasterCopy",
      "outputs": [
        {
          "internalType": "address",
          "name": "",
          "type": "address"
        }
      ],
      "stateMutability": "view",
      "type": "function"
    },
    {
      "inputs": [],
      "name": "getRandomiser",
      "outputs": [
        {
          "internalType": "address",
          "name": "",
          "type": "address"
        }
      ],
      "stateMutability": "view",
      "type": "function"
    },
    {
      "inputs": [
        {
          "internalType": "bytes32",
          "name": "role",
          "type": "bytes32"
        }
      ],
      "name": "getRoleAdmin",
      "outputs": [
        {
          "internalType": "bytes32",
          "name": "",
          "type": "bytes32"
        }
      ],
      "stateMutability": "view",
      "type": "function"
    },
    {
      "inputs": [],
      "name": "getTicketSVGRenderer",
      "outputs": [
        {
          "internalType": "address",
          "name": "",
          "type": "address"
        }
      ],
      "stateMutability": "view",
      "type": "function"
    },
    {
      "inputs": [
        {
          "internalType": "bytes32",
          "name": "role",
          "type": "bytes32"
        },
        {
          "internalType": "address",
          "name": "account",
          "type": "address"
        }
      ],
      "name": "grantRole",
      "outputs": [],
      "stateMutability": "nonpayable",
      "type": "function"
    },
    {
      "inputs": [
        {
          "internalType": "bytes32",
          "name": "role",
          "type": "bytes32"
        },
        {
          "internalType": "address",
          "name": "account",
          "type": "address"
        }
      ],
      "name": "hasRole",
      "outputs": [
        {
          "internalType": "bool",
          "name": "",
          "type": "bool"
        }
      ],
      "stateMutability": "view",
      "type": "function"
    },
    {
      "inputs": [
        {
          "internalType": "address",
          "name": "looteryMasterCopy",
          "type": "address"
        },
        {
          "internalType": "address",
          "name": "randomiser",
          "type": "address"
        },
        {
          "internalType": "address",
          "name": "ticketSVGRenderer",
          "type": "address"
        }
      ],
      "name": "init",
      "outputs": [],
      "stateMutability": "nonpayable",
      "type": "function"
    },
    {
      "inputs": [],
      "name": "proxiableUUID",
      "outputs": [
        {
          "internalType": "bytes32",
          "name": "",
          "type": "bytes32"
        }
      ],
      "stateMutability": "view",
      "type": "function"
    },
    {
      "inputs": [
        {
          "internalType": "bytes32",
          "name": "role",
          "type": "bytes32"
        },
        {
          "internalType": "address",
          "name": "callerConfirmation",
          "type": "address"
        }
      ],
      "name": "renounceRole",
      "outputs": [],
      "stateMutability": "nonpayable",
      "type": "function"
    },
    {
      "inputs": [
        {
          "internalType": "bytes32",
          "name": "role",
          "type": "bytes32"
        },
        {
          "internalType": "address",
          "name": "account",
          "type": "address"
        }
      ],
      "name": "revokeRole",
      "outputs": [],
      "stateMutability": "nonpayable",
      "type": "function"
    },
    {
      "inputs": [
        {
          "internalType": "address",
          "name": "feeRecipient",
          "type": "address"
        }
      ],
      "name": "setFeeRecipient",
      "outputs": [],
      "stateMutability": "nonpayable",
      "type": "function"
    },
    {
      "inputs": [
        {
          "internalType": "address",
          "name": "looteryMasterCopy",
          "type": "address"
        }
      ],
      "name": "setLooteryMasterCopy",
      "outputs": [],
      "stateMutability": "nonpayable",
      "type": "function"
    },
    {
      "inputs": [
        {
          "internalType": "address",
          "name": "randomiser",
          "type": "address"
        }
      ],
      "name": "setRandomiser",
      "outputs": [],
      "stateMutability": "nonpayable",
      "type": "function"
    },
    {
      "inputs": [
        {
          "internalType": "address",
          "name": "ticketSVGRenderer",
          "type": "address"
        }
      ],
      "name": "setTicketSVGRenderer",
      "outputs": [],
      "stateMutability": "nonpayable",
      "type": "function"
    },
    {
      "inputs": [
        {
          "internalType": "bytes4",
          "name": "interfaceId",
          "type": "bytes4"
        }
      ],
      "name": "supportsInterface",
      "outputs": [
        {
          "internalType": "bool",
          "name": "",
          "type": "bool"
        }
      ],
      "stateMutability": "view",
      "type": "function"
    },
    {
      "inputs": [
        {
          "internalType": "address",
          "name": "newImplementation",
          "type": "address"
        },
        {
          "internalType": "bytes",
          "name": "data",
          "type": "bytes"
        }
      ],
      "name": "upgradeToAndCall",
      "outputs": [],
      "stateMutability": "payable",
      "type": "function"
    }
  ],
  "bytecode": "0x60a06040523060805234801561001457600080fd5b5061001d610022565b6100d4565b7ff0c57e16840df040f15088dc2f81fe391c3923bec73e23a9662efc9c229c6a00805468010000000000000000900460ff16156100725760405163f92ee8a960e01b815260040160405180910390fd5b80546001600160401b03908116146100d15780546001600160401b0319166001600160401b0390811782556040519081527fc7f505b2f371ae2175ee4913f4499e1f2633a7b5936321eed1cdaeb6115181d29060200160405180910390a15b50565b608051611a626100fd60003960008181610f0c01528181610f3501526110920152611a626000f3fe6080604052600436106101695760003560e01c806375fea724116100cb578063ad3cb1cc1161007f578063d3984d8311610059578063d3984d8314610446578063d547741f1461045b578063e74b981b1461047b57600080fd5b8063ad3cb1cc146103bb578063bd12bc2414610411578063d1e3e04e1461042657600080fd5b806382250a43116100b057806382250a431461032157806391d1485414610341578063a217fddf146103a657600080fd5b806375fea724146102ec5780638190ca021461030157600080fd5b806336568abe116101225780634ccb20c0116101075780634ccb20c0146102af5780634f1ef286146102c457806352d1902d146102d757600080fd5b806336568abe1461026f57806338e56e731461028f57600080fd5b8063184b955911610153578063184b9559146101d0578063248a9ca3146101f25780632f2ff15d1461024f57600080fd5b80626195871461016e57806301ffc9a7146101a0575b600080fd5b34801561017a57600080fd5b5061018361049b565b6040516001600160a01b0390911681526020015b60405180910390f35b3480156101ac57600080fd5b506101c06101bb36600461156f565b6104ce565b6040519015158152602001610197565b3480156101dc57600080fd5b506101f06101eb3660046115cd565b610567565b005b3480156101fe57600080fd5b5061024161020d366004611610565b60009081527f02dd7bc7dec4dceedda775e58dd541e08a116c6c53815c0bd028192f7b626800602052604090206001015490565b604051908152602001610197565b34801561025b57600080fd5b506101f061026a366004611629565b610753565b34801561027b57600080fd5b506101f061028a366004611629565b61079d565b34801561029b57600080fd5b506101f06102aa366004611655565b6107ee565b3480156102bb57600080fd5b5061018361087b565b6101f06102d2366004611700565b6108a3565b3480156102e357600080fd5b506102416108c2565b3480156102f857600080fd5b506101836108f1565b34801561030d57600080fd5b5061018361031c366004611793565b610919565b34801561032d57600080fd5b506101f061033c366004611655565b610b48565b34801561034d57600080fd5b506101c061035c366004611629565b60009182527f02dd7bc7dec4dceedda775e58dd541e08a116c6c53815c0bd028192f7b626800602090815260408084206001600160a01b0393909316845291905290205460ff1690565b3480156103b257600080fd5b50610241600081565b3480156103c757600080fd5b506104046040518060400160405280600581526020017f352e302e3000000000000000000000000000000000000000000000000000000081525081565b60405161019791906118b3565b34801561041d57600080fd5b50610183610bcc565b34801561043257600080fd5b506101f0610441366004611655565b610bf4565b34801561045257600080fd5b50610183610c78565b34801561046757600080fd5b506101f0610476366004611629565b610ce4565b34801561048757600080fd5b506101f0610496366004611655565b610d28565b60007fd1c597752146589dde9c96027a1c6cda673d6fe5b448036a3b51eb9c108a913c5b546001600160a01b0316919050565b60007fffffffff0000000000000000000000000000000000000000000000000000000082167f7965db0b00000000000000000000000000000000000000000000000000000000148061056157507f01ffc9a7000000000000000000000000000000000000000000000000000000007fffffffff000000000000000000000000000000000000000000000000000000008316145b92915050565b7ff0c57e16840df040f15088dc2f81fe391c3923bec73e23a9662efc9c229c6a00805468010000000000000000810460ff16159067ffffffffffffffff166000811580156105b25750825b905060008267ffffffffffffffff1660011480156105cf5750303b155b9050811580156105dd575080155b15610614576040517ff92ee8a900000000000000000000000000000000000000000000000000000000815260040160405180910390fd5b845467ffffffffffffffff19166001178555831561064857845468ff00000000000000001916680100000000000000001785555b610650610d75565b610658610d75565b7f15244694a038682b3dfdfc9a7b4d57f194bac87a538c298bbb15836f93f3d08e80546001600160a01b03808b166001600160a01b0319928316179092557f7fd620ff951c5553351af243f95586d6c40fbde77386fa401565df721194304b80548a84169083161790557fd1c597752146589dde9c96027a1c6cda673d6fe5b448036a3b51eb9c108a913c8054928916929091169190911790556106fd600033610d7f565b50831561074957845468ff000000000000000019168555604051600181527fc7f505b2f371ae2175ee4913f4499e1f2633a7b5936321eed1cdaeb6115181d29060200160405180910390a15b5050505050505050565b60008281527f02dd7bc7dec4dceedda775e58dd541e08a116c6c53815c0bd028192f7b626800602052604090206001015461078d81610e4e565b6107978383610d7f565b50505050565b6001600160a01b03811633146107df576040517f6697b23200000000000000000000000000000000000000000000000000000000815260040160405180910390fd5b6107e98282610e5b565b505050565b60006107f981610e4e565b7f15244694a038682b3dfdfc9a7b4d57f194bac87a538c298bbb15836f93f3d08e80546001600160a01b038481166001600160a01b031983168117909355604080519190921680825260208201939093527f6a193348e7282d848a81bda03da86488d12215ae2b212ff975fd1e3e954522ab91015b60405180910390a1505050565b60007f42ca05c9d33288b41ba8de79367abafbc42de97cbc0b0b65f9ad198e935fb6b76104bf565b6108ab610f01565b6108b482610f8f565b6108be8282610f9a565b5050565b60006108cc611087565b507f360894a13ba1a3210667c828492db98dca3e2076cc3735a920a3ca505d382bbc90565b60007f7fd620ff951c5553351af243f95586d6c40fbde77386fa401565df721194304b6104bf565b600080604051806101a00160405280336001600160a01b031681526020018d81526020018c81526020018b60ff1681526020018a60ff1681526020018981526020018881526020018781526020016109917f7fd620ff951c5553351af243f95586d6c40fbde77386fa401565df721194304b60001b90565b546001600160a01b0390811682528716602082015260408101869052606081018590526080017fd1c597752146589dde9c96027a1c6cda673d6fe5b448036a3b51eb9c108a913c546001600160a01b03169052905060007fb673313ff65da5deee919e9043f9d191abd6721ce5d457fcf870135fe1bceb998054906000610a17836118c6565b9190505590506000610a28826110d0565b7f15244694a038682b3dfdfc9a7b4d57f194bac87a538c298bbb15836f93f3d08e549091506001600160a01b03166000610a628284611137565b6040517facef672b0000000000000000000000000000000000000000000000000000000081529091506001600160a01b0382169063acef672b90610aaa9088906004016118ed565b600060405180830381600087803b158015610ac457600080fd5b505af1158015610ad8573d6000803e3d6000fd5b50505050336001600160a01b0316826001600160a01b0316826001600160a01b03167fd22adf12af1045715ab78a4d25c7ac99005301d0fc1895274a7172d018715de88860200151604051610b2d91906118b3565b60405180910390a49f9e505050505050505050505050505050565b6000610b5381610e4e565b7fd1c597752146589dde9c96027a1c6cda673d6fe5b448036a3b51eb9c108a913c80546001600160a01b038481166001600160a01b031983168117909355604080519190921680825260208201939093527f537abe8749664ed38251a8e0a613c8fce90a30cd2bf1004241325ba7ec2bf11d910161086e565b60007f15244694a038682b3dfdfc9a7b4d57f194bac87a538c298bbb15836f93f3d08e6104bf565b6000610bff81610e4e565b7f7fd620ff951c5553351af243f95586d6c40fbde77386fa401565df721194304b80546001600160a01b038481166001600160a01b031983168117909355604080519190921680825260208201939093527ff115e1bf2769958fce47eddffee49c3a3332b6f314038f9ab1e4463f6f6d3248910161086e565b7fb673313ff65da5deee919e9043f9d191abd6721ce5d457fcf870135fe1bceb995460009081610ca7826110d0565b9050610cdd7f15244694a038682b3dfdfc9a7b4d57f194bac87a538c298bbb15836f93f3d08e546001600160a01b0316826111be565b9250505090565b60008281527f02dd7bc7dec4dceedda775e58dd541e08a116c6c53815c0bd028192f7b6268006020526040902060010154610d1e81610e4e565b6107978383610e5b565b6000610d3381610e4e565b507f42ca05c9d33288b41ba8de79367abafbc42de97cbc0b0b65f9ad198e935fb6b780546001600160a01b0319166001600160a01b0392909216919091179055565b610d7d611221565b565b60008281527f02dd7bc7dec4dceedda775e58dd541e08a116c6c53815c0bd028192f7b626800602081815260408084206001600160a01b038616855290915282205460ff16610e44576000848152602082815260408083206001600160a01b03871684529091529020805460ff19166001179055610dfa3390565b6001600160a01b0316836001600160a01b0316857f2f8788117e7eff1d82e926ec794901d17c78024a50270940304540a733656f0d60405160405180910390a46001915050610561565b6000915050610561565b610e588133611288565b50565b60008281527f02dd7bc7dec4dceedda775e58dd541e08a116c6c53815c0bd028192f7b626800602081815260408084206001600160a01b038616855290915282205460ff1615610e44576000848152602082815260408083206001600160a01b0387168085529252808320805460ff1916905551339287917ff6391f5c32d9c69d2a47ea670b442974b53935d1edc7fd64eb21e047a839171b9190a46001915050610561565b306001600160a01b037f0000000000000000000000000000000000000000000000000000000000000000161480610f7157507f00000000000000000000000000000000000000000000000000000000000000006001600160a01b0316610f65611315565b6001600160a01b031614155b15610d7d5760405163703e46dd60e11b815260040160405180910390fd5b60006108be81610e4e565b816001600160a01b03166352d1902d6040518163ffffffff1660e01b8152600401602060405180830381865afa925050508015610ff4575060408051601f3d908101601f19168201909252610ff1918101906119f7565b60015b61102157604051634c9c8ce360e01b81526001600160a01b03831660048201526024015b60405180910390fd5b7f360894a13ba1a3210667c828492db98dca3e2076cc3735a920a3ca505d382bbc811461107d576040517faa1d49a400000000000000000000000000000000000000000000000000000000815260048101829052602401611018565b6107e9838361133d565b306001600160a01b037f00000000000000000000000000000000000000000000000000000000000000001614610d7d5760405163703e46dd60e11b815260040160405180910390fd5b60008160405160200161111a9181526040602082018190526007908201527f6c6f6f7465727900000000000000000000000000000000000000000000000000606082015260800190565b604051602081830303815290604052805190602001209050919050565b6000763d602d80600a3d3981f3363d3d373d3d3d363d730000008360601b60e81c176000526e5af43d82803e903d91602b57fd5bf38360781b1760205281603760096000f590506001600160a01b038116610561576040517fc2f868f400000000000000000000000000000000000000000000000000000000815260040160405180910390fd5b6040513060388201526f5af43d82803e903d91602b57fd5bf3ff602482015260148101839052733d602d80600a3d3981f3363d3d373d3d3d363d738152605881018290526037600c820120607882015260556043909101206000905b9392505050565b7ff0c57e16840df040f15088dc2f81fe391c3923bec73e23a9662efc9c229c6a005468010000000000000000900460ff16610d7d576040517fd7e6bcf800000000000000000000000000000000000000000000000000000000815260040160405180910390fd5b60008281527f02dd7bc7dec4dceedda775e58dd541e08a116c6c53815c0bd028192f7b626800602090815260408083206001600160a01b038516845290915290205460ff166108be576040517fe2517d3f0000000000000000000000000000000000000000000000000000000081526001600160a01b038216600482015260248101839052604401611018565b60007f360894a13ba1a3210667c828492db98dca3e2076cc3735a920a3ca505d382bbc6104bf565b61134682611393565b6040516001600160a01b038316907fbc7cd75a20ee27fd9adebab32041f755214dbc6bffa90cc0225b39da2e5c2d3b90600090a280511561138b576107e9828261140a565b6108be611480565b806001600160a01b03163b6000036113c957604051634c9c8ce360e01b81526001600160a01b0382166004820152602401611018565b7f360894a13ba1a3210667c828492db98dca3e2076cc3735a920a3ca505d382bbc80546001600160a01b0319166001600160a01b0392909216919091179055565b6060600080846001600160a01b0316846040516114279190611a10565b600060405180830381855af49150503d8060008114611462576040519150601f19603f3d011682016040523d82523d6000602084013e611467565b606091505b50915091506114778583836114b8565b95945050505050565b3415610d7d576040517fb398979f00000000000000000000000000000000000000000000000000000000815260040160405180910390fd5b6060826114cd576114c88261152d565b61121a565b81511580156114e457506001600160a01b0384163b155b15611526576040517f9996b3150000000000000000000000000000000000000000000000000000000081526001600160a01b0385166004820152602401611018565b5092915050565b80511561153d5780518082602001fd5b6040517f1425ea4200000000000000000000000000000000000000000000000000000000815260040160405180910390fd5b60006020828403121561158157600080fd5b81357fffffffff000000000000000000000000000000000000000000000000000000008116811461121a57600080fd5b80356001600160a01b03811681146115c857600080fd5b919050565b6000806000606084860312156115e257600080fd5b6115eb846115b1565b92506115f9602085016115b1565b9150611607604085016115b1565b90509250925092565b60006020828403121561162257600080fd5b5035919050565b6000806040838503121561163c57600080fd5b8235915061164c602084016115b1565b90509250929050565b60006020828403121561166757600080fd5b61121a826115b1565b634e487b7160e01b600052604160045260246000fd5b60008067ffffffffffffffff8411156116a1576116a1611670565b50604051601f19601f85018116603f0116810181811067ffffffffffffffff821117156116d0576116d0611670565b6040528381529050808284018510156116e857600080fd5b83836020830137600060208583010152509392505050565b6000806040838503121561171357600080fd5b61171c836115b1565b9150602083013567ffffffffffffffff81111561173857600080fd5b8301601f8101851361174957600080fd5b61175885823560208401611686565b9150509250929050565b600082601f83011261177357600080fd5b61121a83833560208501611686565b803560ff811681146115c857600080fd5b6000806000806000806000806000806101408b8d0312156117b357600080fd5b8a3567ffffffffffffffff8111156117ca57600080fd5b6117d68d828e01611762565b9a505060208b013567ffffffffffffffff8111156117f357600080fd5b6117ff8d828e01611762565b99505061180e60408c01611782565b975061181c60608c01611782565b965060808b0135955060a08b0135945060c08b0135935061183f60e08c016115b1565b999c989b509699959894979396509194610100810135936101209091013592509050565b60005b8381101561187e578181015183820152602001611866565b50506000910152565b6000815180845261189f816020860160208601611863565b601f01601f19169290920160200192915050565b60208152600061121a6020830184611887565b6000600182016118e657634e487b7160e01b600052601160045260246000fd5b5060010190565b602081526119076020820183516001600160a01b03169052565b600060208301516101a060408401526119246101c0840182611887565b90506040840151601f198483030160608501526119418282611887565b9150506060840151611958608085018260ff169052565b50608084015160ff811660a08501525060a084015160c084015260c084015160e084015260e08401516101008401526101008401516119a36101208501826001600160a01b03169052565b506101208401516001600160a01b038116610140850152506101408401516101608401526101608401516101808401526101808401516119ef6101a08501826001600160a01b03169052565b509392505050565b600060208284031215611a0957600080fd5b5051919050565b60008251611a22818460208701611863565b919091019291505056fea264697066735822122047759f6e1f8e77310f978a0edf5df3e8d211585439186baeb4156aceed218f7f64736f6c634300081b0033",
  "linkReferences": {},
  "deployedLinkReferences": {}
}