{
  "_format": "hh-sol-artifact-1",
  "contractName": "Lootery",
  "sourceName": "contracts/Lootery.sol",
  "abi": [
    {
      "inputs": [],
      "stateMutability": "nonpayable",
      "type": "constructor"
    },
    {
      "inputs": [
        {
          "internalType": "address",
          "name": "target",
          "type": "address"
        }
      ],
      "name": "AddressEmptyCode",
      "type": "error"
    },
    {
      "inputs": [
        {
          "internalType": "address",
          "name": "account",
          "type": "address"
        }
      ],
      "name": "AddressInsufficientBalance",
      "type": "error"
    },
    {
      "inputs": [
        {
          "internalType": "address",
          "name": "caller",
          "type": "address"
        }
      ],
      "name": "CallerNotRandomiser",
      "type": "error"
    },
    {
      "inputs": [
        {
          "internalType": "uint256",
          "name": "tokenId",
          "type": "uint256"
        }
      ],
      "name": "ClaimWindowMissed",
      "type": "error"
    },
    {
      "inputs": [
        {
          "internalType": "address",
          "name": "sender",
          "type": "address"
        },
        {
          "internalType": "uint256",
          "name": "tokenId",
          "type": "uint256"
        },
        {
          "internalType": "address",
          "name": "owner",
          "type": "address"
        }
      ],
      "name": "ERC721IncorrectOwner",
      "type": "error"
    },
    {
      "inputs": [
        {
          "internalType": "address",
          "name": "operator",
          "type": "address"
        },
        {
          "internalType": "uint256",
          "name": "tokenId",
          "type": "uint256"
        }
      ],
      "name": "ERC721InsufficientApproval",
      "type": "error"
    },
    {
      "inputs": [
        {
          "internalType": "address",
          "name": "approver",
          "type": "address"
        }
      ],
      "name": "ERC721InvalidApprover",
      "type": "error"
    },
    {
      "inputs": [
        {
          "internalType": "address",
          "name": "operator",
          "type": "address"
        }
      ],
      "name": "ERC721InvalidOperator",
      "type": "error"
    },
    {
      "inputs": [
        {
          "internalType": "address",
          "name": "owner",
          "type": "address"
        }
      ],
      "name": "ERC721InvalidOwner",
      "type": "error"
    },
    {
      "inputs": [
        {
          "internalType": "address",
          "name": "receiver",
          "type": "address"
        }
      ],
      "name": "ERC721InvalidReceiver",
      "type": "error"
    },
    {
      "inputs": [
        {
          "internalType": "address",
          "name": "sender",
          "type": "address"
        }
      ],
      "name": "ERC721InvalidSender",
      "type": "error"
    },
    {
      "inputs": [
        {
          "internalType": "uint256",
          "name": "tokenId",
          "type": "uint256"
        }
      ],
      "name": "ERC721NonexistentToken",
      "type": "error"
    },
    {
      "inputs": [],
      "name": "EmptyDisplayName",
      "type": "error"
    },
    {
      "inputs": [],
      "name": "FailedInnerCall",
      "type": "error"
    },
    {
      "inputs": [],
      "name": "GameAlreadyDrawn",
      "type": "error"
    },
    {
      "inputs": [],
      "name": "GameInactive",
      "type": "error"
    },
    {
      "inputs": [
        {
          "internalType": "uint256",
          "name": "paid",
          "type": "uint256"
        },
        {
          "internalType": "uint256",
          "name": "expected",
          "type": "uint256"
        }
      ],
      "name": "IncorrectPaymentAmount",
      "type": "error"
    },
    {
      "inputs": [
        {
          "internalType": "uint256",
          "name": "value",
          "type": "uint256"
        }
      ],
      "name": "InsufficientJackpotSeed",
      "type": "error"
    },
    {
      "inputs": [
        {
          "internalType": "uint256",
          "name": "have",
          "type": "uint256"
        },
        {
          "internalType": "uint256",
          "name": "want",
          "type": "uint256"
        }
      ],
      "name": "InsufficientOperationalFunds",
      "type": "error"
    },
    {
      "inputs": [],
      "name": "InsufficientRandomWords",
      "type": "error"
    },
    {
      "inputs": [
        {
          "internalType": "uint256",
          "name": "ballValue",
          "type": "uint256"
        }
      ],
      "name": "InvalidBallValue",
      "type": "error"
    },
    {
      "inputs": [],
      "name": "InvalidFeeShares",
      "type": "error"
    },
    {
      "inputs": [
        {
          "internalType": "uint256",
          "name": "gamePeriod",
          "type": "uint256"
        }
      ],
      "name": "InvalidGamePeriod",
      "type": "error"
    },
    {
      "inputs": [],
      "name": "InvalidInitialization",
      "type": "error"
    },
    {
      "inputs": [],
      "name": "InvalidInputs",
      "type": "error"
    },
    {
      "inputs": [
        {
          "internalType": "uint256",
          "name": "maxBallValue",
          "type": "uint256"
        }
      ],
      "name": "InvalidMaxBallValue",
      "type": "error"
    },
    {
      "inputs": [
        {
          "internalType": "uint256",
          "name": "pickLength",
          "type": "uint256"
        }
      ],
      "name": "InvalidPickLength",
      "type": "error"
    },
    {
      "inputs": [
        {
          "internalType": "address",
          "name": "prizeToken",
          "type": "address"
        }
      ],
      "name": "InvalidPrizeToken",
      "type": "error"
    },
    {
      "inputs": [
        {
          "internalType": "address",
          "name": "randomiser",
          "type": "address"
        }
      ],
      "name": "InvalidRandomiser",
      "type": "error"
    },
    {
      "inputs": [
        {
          "internalType": "uint256",
          "name": "delay",
          "type": "uint256"
        },
        {
          "internalType": "uint256",
          "name": "minValue",
          "type": "uint256"
        }
      ],
      "name": "InvalidSeedJackpotConfig",
      "type": "error"
    },
    {
      "inputs": [
        {
          "internalType": "uint256",
          "name": "ticketPrice",
          "type": "uint256"
        }
      ],
      "name": "InvalidTicketPrice",
      "type": "error"
    },
    {
      "inputs": [
        {
          "internalType": "address",
          "name": "renderer",
          "type": "address"
        }
      ],
      "name": "InvalidTicketSVGRenderer",
      "type": "error"
    },
    {
      "inputs": [],
      "name": "NoRandomnessRequestInFlight",
      "type": "error"
    },
    {
      "inputs": [],
      "name": "NoTicketsSpecified",
      "type": "error"
    },
    {
      "inputs": [],
      "name": "NotInitializing",
      "type": "error"
    },
    {
      "inputs": [
        {
          "internalType": "address",
          "name": "owner",
          "type": "address"
        }
      ],
      "name": "OwnableInvalidOwner",
      "type": "error"
    },
    {
      "inputs": [
        {
          "internalType": "address",
          "name": "account",
          "type": "address"
        }
      ],
      "name": "OwnableUnauthorizedAccount",
      "type": "error"
    },
    {
      "inputs": [
        {
          "internalType": "uint256",
          "name": "secondsToWait",
          "type": "uint256"
        }
      ],
      "name": "RateLimited",
      "type": "error"
    },
    {
      "inputs": [
        {
          "internalType": "uint256",
          "name": "actual",
          "type": "uint256"
        },
        {
          "internalType": "uint208",
          "name": "expected",
          "type": "uint208"
        }
      ],
      "name": "RequestIdMismatch",
      "type": "error"
    },
    {
      "inputs": [
        {
          "internalType": "uint256",
          "name": "requestId",
          "type": "uint256"
        }
      ],
      "name": "RequestIdOverflow",
      "type": "error"
    },
    {
      "inputs": [
        {
          "internalType": "address",
          "name": "token",
          "type": "address"
        }
      ],
      "name": "SafeERC20FailedOperation",
      "type": "error"
    },
    {
      "inputs": [
        {
          "internalType": "address",
          "name": "to",
          "type": "address"
        },
        {
          "internalType": "uint256",
          "name": "value",
          "type": "uint256"
        },
        {
          "internalType": "bytes",
          "name": "reason",
          "type": "bytes"
        }
      ],
      "name": "TransferFailure",
      "type": "error"
    },
    {
      "inputs": [
        {
          "internalType": "enum ILootery.GameState",
          "name": "actual",
          "type": "uint8"
        }
      ],
      "name": "UnexpectedState",
      "type": "error"
    },
    {
      "inputs": [
        {
          "internalType": "address",
          "name": "beneficiary",
          "type": "address"
        }
      ],
      "name": "UnknownBeneficiary",
      "type": "error"
    },
    {
      "inputs": [
        {
          "internalType": "uint8[]",
          "name": "pick",
          "type": "uint8[]"
        }
      ],
      "name": "UnsortedPick",
      "type": "error"
    },
    {
      "inputs": [
        {
          "internalType": "uint256",
          "name": "deadline",
          "type": "uint256"
        }
      ],
      "name": "WaitLonger",
      "type": "error"
    },
    {
      "anonymous": false,
      "inputs": [
        {
          "indexed": true,
          "internalType": "address",
          "name": "to",
          "type": "address"
        },
        {
          "indexed": false,
          "internalType": "uint256",
          "name": "amount",
          "type": "uint256"
        }
      ],
      "name": "AccruedCommunityFeesWithdrawn",
      "type": "event"
    },
    {
      "anonymous": false,
      "inputs": [
        {
          "indexed": true,
          "internalType": "address",
          "name": "owner",
          "type": "address"
        },
        {
          "indexed": true,
          "internalType": "address",
          "name": "approved",
          "type": "address"
        },
        {
          "indexed": true,
          "internalType": "uint256",
          "name": "tokenId",
          "type": "uint256"
        }
      ],
      "name": "Approval",
      "type": "event"
    },
    {
      "anonymous": false,
      "inputs": [
        {
          "indexed": true,
          "internalType": "address",
          "name": "owner",
          "type": "address"
        },
        {
          "indexed": true,
          "internalType": "address",
          "name": "operator",
          "type": "address"
        },
        {
          "indexed": false,
          "internalType": "bool",
          "name": "approved",
          "type": "bool"
        }
      ],
      "name": "ApprovalForAll",
      "type": "event"
    },
    {
      "anonymous": false,
      "inputs": [
        {
          "indexed": true,
          "internalType": "address",
          "name": "beneficiary",
          "type": "address"
        },
        {
          "indexed": false,
          "internalType": "string",
          "name": "displayName",
          "type": "string"
        }
      ],
      "name": "BeneficiaryAdded",
      "type": "event"
    },
    {
      "anonymous": false,
      "inputs": [
        {
          "indexed": true,
          "internalType": "uint256",
          "name": "gameId",
          "type": "uint256"
        },
        {
          "indexed": true,
          "internalType": "address",
          "name": "beneficiary",
          "type": "address"
        },
        {
          "indexed": false,
          "internalType": "uint256",
          "name": "value",
          "type": "uint256"
        }
      ],
      "name": "BeneficiaryPaid",
      "type": "event"
    },
    {
      "anonymous": false,
      "inputs": [
        {
          "indexed": true,
          "internalType": "address",
          "name": "beneficiary",
          "type": "address"
        }
      ],
      "name": "BeneficiaryRemoved",
      "type": "event"
    },
    {
      "anonymous": false,
      "inputs": [
        {
          "indexed": false,
          "internalType": "uint256",
          "name": "newCallbackGasLimit",
          "type": "uint256"
        }
      ],
      "name": "CallbackGasLimitSet",
      "type": "event"
    },
    {
      "anonymous": false,
      "inputs": [
        {
          "indexed": true,
          "internalType": "uint256",
          "name": "tokenId",
          "type": "uint256"
        },
        {
          "indexed": true,
          "internalType": "uint256",
          "name": "gameId",
          "type": "uint256"
        },
        {
          "indexed": false,
          "internalType": "address",
          "name": "whomst",
          "type": "address"
        },
        {
          "indexed": false,
          "internalType": "uint256",
          "name": "value",
          "type": "uint256"
        }
      ],
      "name": "ConsolationClaimed",
      "type": "event"
    },
    {
      "anonymous": false,
      "inputs": [
        {
          "indexed": true,
          "internalType": "uint256",
          "name": "gameId",
          "type": "uint256"
        }
      ],
      "name": "DrawSkipped",
      "type": "event"
    },
    {
      "anonymous": false,
      "inputs": [
        {
          "indexed": true,
          "internalType": "address",
          "name": "to",
          "type": "address"
        },
        {
          "indexed": false,
          "internalType": "uint256",
          "name": "value",
          "type": "uint256"
        }
      ],
      "name": "ExcessRefunded",
      "type": "event"
    },
    {
      "anonymous": false,
      "inputs": [
        {
          "indexed": false,
          "internalType": "uint256",
          "name": "gameId",
          "type": "uint256"
        },
        {
          "indexed": false,
          "internalType": "uint8[]",
          "name": "winningPick",
          "type": "uint8[]"
        }
      ],
      "name": "GameFinalised",
      "type": "event"
    },
    {
      "anonymous": false,
      "inputs": [
        {
          "indexed": false,
          "internalType": "uint64",
          "name": "version",
          "type": "uint64"
        }
      ],
      "name": "Initialized",
      "type": "event"
    },
    {
      "anonymous": false,
      "inputs": [
        {
          "indexed": true,
          "internalType": "uint256",
          "name": "gameId",
          "type": "uint256"
        },
        {
          "indexed": false,
          "internalType": "uint256",
          "name": "unclaimedPayouts",
          "type": "uint256"
        },
        {
          "indexed": false,
          "internalType": "uint256",
          "name": "currentJackpot",
          "type": "uint256"
        },
        {
          "indexed": false,
          "internalType": "uint256",
          "name": "nextUnclaimedPayouts",
          "type": "uint256"
        },
        {
          "indexed": false,
          "internalType": "uint256",
          "name": "nextJackpot",
          "type": "uint256"
        }
      ],
      "name": "JackpotRollover",
      "type": "event"
    },
    {
      "anonymous": false,
      "inputs": [
        {
          "indexed": true,
          "internalType": "address",
          "name": "whomst",
          "type": "address"
        },
        {
          "indexed": false,
          "internalType": "uint256",
          "name": "amount",
          "type": "uint256"
        }
      ],
      "name": "JackpotSeeded",
      "type": "event"
    },
    {
      "anonymous": false,
      "inputs": [
        {
          "indexed": false,
          "internalType": "uint256",
          "name": "pickId",
          "type": "uint256"
        },
        {
          "indexed": false,
          "internalType": "uint256",
          "name": "winningPickId",
          "type": "uint256"
        }
      ],
      "name": "NoWin",
      "type": "event"
    },
    {
      "anonymous": false,
      "inputs": [
        {
          "indexed": true,
          "internalType": "address",
          "name": "to",
          "type": "address"
        },
        {
          "indexed": false,
          "internalType": "uint256",
          "name": "amount",
          "type": "uint256"
        }
      ],
      "name": "OperationalFundsWithdrawn",
      "type": "event"
    },
    {
      "anonymous": false,
      "inputs": [
        {
          "indexed": true,
          "internalType": "address",
          "name": "previousOwner",
          "type": "address"
        },
        {
          "indexed": true,
          "internalType": "address",
          "name": "newOwner",
          "type": "address"
        }
      ],
      "name": "OwnershipTransferred",
      "type": "event"
    },
    {
      "anonymous": false,
      "inputs": [
        {
          "indexed": true,
          "internalType": "address",
          "name": "to",
          "type": "address"
        },
        {
          "indexed": false,
          "internalType": "uint256",
          "name": "value",
          "type": "uint256"
        }
      ],
      "name": "ProtocolFeePaid",
      "type": "event"
    },
    {
      "anonymous": false,
      "inputs": [
        {
          "indexed": false,
          "internalType": "uint208",
          "name": "requestId",
          "type": "uint208"
        },
        {
          "indexed": false,
          "internalType": "uint48",
          "name": "timestamp",
          "type": "uint48"
        }
      ],
      "name": "RandomnessRequested",
      "type": "event"
    },
    {
      "anonymous": false,
      "inputs": [
        {
          "indexed": false,
          "internalType": "address",
          "name": "sender",
          "type": "address"
        },
        {
          "indexed": false,
          "internalType": "uint256",
          "name": "amount",
          "type": "uint256"
        }
      ],
      "name": "Received",
      "type": "event"
    },
    {
      "anonymous": false,
      "inputs": [
        {
          "indexed": true,
          "internalType": "uint256",
          "name": "gameId",
          "type": "uint256"
        },
        {
          "indexed": true,
          "internalType": "address",
          "name": "whomst",
          "type": "address"
        },
        {
          "indexed": true,
          "internalType": "uint256",
          "name": "tokenId",
          "type": "uint256"
        },
        {
          "indexed": false,
          "internalType": "uint8[]",
          "name": "pick",
          "type": "uint8[]"
        }
      ],
      "name": "TicketPurchased",
      "type": "event"
    },
    {
      "anonymous": false,
      "inputs": [
        {
          "indexed": true,
          "internalType": "address",
          "name": "from",
          "type": "address"
        },
        {
          "indexed": true,
          "internalType": "address",
          "name": "to",
          "type": "address"
        },
        {
          "indexed": true,
          "internalType": "uint256",
          "name": "tokenId",
          "type": "uint256"
        }
      ],
      "name": "Transfer",
      "type": "event"
    },
    {
      "anonymous": false,
      "inputs": [
        {
          "indexed": false,
          "internalType": "address",
          "name": "to",
          "type": "address"
        },
        {
          "indexed": false,
          "internalType": "uint256",
          "name": "value",
          "type": "uint256"
        }
      ],
      "name": "Transferred",
      "type": "event"
    },
    {
      "anonymous": false,
      "inputs": [
        {
          "indexed": true,
          "internalType": "uint256",
          "name": "tokenId",
          "type": "uint256"
        },
        {
          "indexed": true,
          "internalType": "uint256",
          "name": "gameId",
          "type": "uint256"
        },
        {
          "indexed": false,
          "internalType": "address",
          "name": "whomst",
          "type": "address"
        },
        {
          "indexed": false,
          "internalType": "uint256",
          "name": "value",
          "type": "uint256"
        }
      ],
      "name": "WinningsClaimed",
      "type": "event"
    },
    {
      "inputs": [],
      "name": "PROTOCOL_FEE_BPS",
      "outputs": [
        {
          "internalType": "uint256",
          "name": "",
          "type": "uint256"
        }
      ],
      "stateMutability": "view",
      "type": "function"
    },
    {
      "inputs": [],
      "name": "accruedCommunityFees",
      "outputs": [
        {
          "internalType": "uint256",
          "name": "",
          "type": "uint256"
        }
      ],
      "stateMutability": "view",
      "type": "function"
    },
    {
      "inputs": [
        {
          "internalType": "address",
          "name": "to",
          "type": "address"
        },
        {
          "internalType": "uint256",
          "name": "tokenId",
          "type": "uint256"
        }
      ],
      "name": "approve",
      "outputs": [],
      "stateMutability": "nonpayable",
      "type": "function"
    },
    {
      "inputs": [
        {
          "internalType": "address",
          "name": "owner",
          "type": "address"
        }
      ],
      "name": "balanceOf",
      "outputs": [
        {
          "internalType": "uint256",
          "name": "",
          "type": "uint256"
        }
      ],
      "stateMutability": "view",
      "type": "function"
    },
    {
      "inputs": [],
      "name": "beneficiaries",
      "outputs": [
        {
          "internalType": "address[]",
          "name": "addresses",
          "type": "address[]"
        },
        {
          "internalType": "string[]",
          "name": "names",
          "type": "string[]"
        }
      ],
      "stateMutability": "view",
      "type": "function"
    },
    {
      "inputs": [
        {
          "internalType": "address",
          "name": "beneficiary",
          "type": "address"
        }
      ],
      "name": "beneficiaryDisplayNames",
      "outputs": [
        {
          "internalType": "string",
          "name": "name",
          "type": "string"
        }
      ],
      "stateMutability": "view",
      "type": "function"
    },
    {
      "inputs": [],
      "name": "callbackGasLimit",
      "outputs": [
        {
          "internalType": "uint256",
          "name": "",
          "type": "uint256"
        }
      ],
      "stateMutability": "view",
      "type": "function"
    },
    {
      "inputs": [
        {
          "internalType": "uint256",
          "name": "tokenId",
          "type": "uint256"
        }
      ],
      "name": "claimWinnings",
      "outputs": [
        {
          "internalType": "uint256",
          "name": "prizeShare",
          "type": "uint256"
        }
      ],
      "stateMutability": "nonpayable",
      "type": "function"
    },
    {
      "inputs": [
        {
          "internalType": "uint256",
          "name": "gameId",
          "type": "uint256"
        },
        {
          "internalType": "uint256",
          "name": "",
          "type": "uint256"
        }
      ],
      "name": "claimedWinningTickets",
      "outputs": [
        {
          "internalType": "uint256",
          "name": "",
          "type": "uint256"
        }
      ],
      "stateMutability": "view",
      "type": "function"
    },
    {
      "inputs": [],
      "name": "communityFeeBps",
      "outputs": [
        {
          "internalType": "uint256",
          "name": "",
          "type": "uint256"
        }
      ],
      "stateMutability": "view",
      "type": "function"
    },
    {
      "inputs": [
        {
          "internalType": "uint256",
          "name": "pickId",
          "type": "uint256"
        }
      ],
      "name": "computePick",
      "outputs": [
        {
          "internalType": "uint8[]",
          "name": "pick",
          "type": "uint8[]"
        }
      ],
      "stateMutability": "view",
      "type": "function"
    },
    {
      "inputs": [
        {
          "internalType": "uint256",
          "name": "randomSeed",
          "type": "uint256"
        }
      ],
      "name": "computeWinningPick",
      "outputs": [
        {
          "internalType": "uint8[]",
          "name": "balls",
          "type": "uint8[]"
        }
      ],
      "stateMutability": "view",
      "type": "function"
    },
    {
      "inputs": [],
      "name": "currentGame",
      "outputs": [
        {
          "internalType": "enum ILootery.GameState",
          "name": "state",
          "type": "uint8"
        },
        {
          "internalType": "uint248",
          "name": "id",
          "type": "uint248"
        }
      ],
      "stateMutability": "view",
      "type": "function"
    },
    {
      "inputs": [],
      "name": "draw",
      "outputs": [],
      "stateMutability": "payable",
      "type": "function"
    },
    {
      "inputs": [],
      "name": "factory",
      "outputs": [
        {
          "internalType": "address",
          "name": "",
          "type": "address"
        }
      ],
      "stateMutability": "view",
      "type": "function"
    },
    {
      "inputs": [],
      "name": "forceRedraw",
      "outputs": [],
      "stateMutability": "payable",
      "type": "function"
    },
    {
      "inputs": [
        {
          "internalType": "uint256",
          "name": "gameId",
          "type": "uint256"
        }
      ],
      "name": "gameData",
      "outputs": [
        {
          "internalType": "uint64",
          "name": "ticketsSold",
          "type": "uint64"
        },
        {
          "internalType": "uint64",
          "name": "startedAt",
          "type": "uint64"
        },
        {
          "internalType": "uint256",
          "name": "winningPickId",
          "type": "uint256"
        }
      ],
      "stateMutability": "view",
      "type": "function"
    },
    {
      "inputs": [],
      "name": "gamePeriod",
      "outputs": [
        {
          "internalType": "uint256",
          "name": "",
          "type": "uint256"
        }
      ],
      "stateMutability": "view",
      "type": "function"
    },
    {
      "inputs": [
        {
          "internalType": "uint256",
          "name": "tokenId",
          "type": "uint256"
        }
      ],
      "name": "getApproved",
      "outputs": [
        {
          "internalType": "address",
          "name": "",
          "type": "address"
        }
      ],
      "stateMutability": "view",
      "type": "function"
    },
    {
      "inputs": [],
      "name": "getRequestPrice",
      "outputs": [
        {
          "internalType": "uint256",
          "name": "",
          "type": "uint256"
        }
      ],
      "stateMutability": "view",
      "type": "function"
    },
    {
      "inputs": [
        {
          "components": [
            {
              "internalType": "address",
              "name": "owner",
              "type": "address"
            },
            {
              "internalType": "string",
              "name": "name",
              "type": "string"
            },
            {
              "internalType": "string",
              "name": "symbol",
              "type": "string"
            },
            {
              "internalType": "uint8",
              "name": "pickLength",
              "type": "uint8"
            },
            {
              "internalType": "uint8",
              "name": "maxBallValue",
              "type": "uint8"
            },
            {
              "internalType": "uint256",
              "name": "gamePeriod",
              "type": "uint256"
            },
            {
              "internalType": "uint256",
              "name": "ticketPrice",
              "type": "uint256"
            },
            {
              "internalType": "uint256",
              "name": "communityFeeBps",
              "type": "uint256"
            },
            {
              "internalType": "address",
              "name": "randomiser",
              "type": "address"
            },
            {
              "internalType": "address",
              "name": "prizeToken",
              "type": "address"
            },
            {
              "internalType": "uint256",
              "name": "seedJackpotDelay",
              "type": "uint256"
            },
            {
              "internalType": "uint256",
              "name": "seedJackpotMinValue",
              "type": "uint256"
            },
            {
              "internalType": "address",
              "name": "ticketSVGRenderer",
              "type": "address"
            }
          ],
          "internalType": "struct ILootery.InitConfig",
          "name": "initConfig",
          "type": "tuple"
        }
      ],
      "name": "init",
      "outputs": [],
      "stateMutability": "nonpayable",
      "type": "function"
    },
    {
      "inputs": [],
      "name": "isApocalypseMode",
      "outputs": [
        {
          "internalType": "bool",
          "name": "",
          "type": "bool"
        }
      ],
      "stateMutability": "view",
      "type": "function"
    },
    {
      "inputs": [
        {
          "internalType": "address",
          "name": "owner",
          "type": "address"
        },
        {
          "internalType": "address",
          "name": "operator",
          "type": "address"
        }
      ],
      "name": "isApprovedForAll",
      "outputs": [
        {
          "internalType": "bool",
          "name": "",
          "type": "bool"
        }
      ],
      "stateMutability": "view",
      "type": "function"
    },
    {
      "inputs": [],
      "name": "isGameActive",
      "outputs": [
        {
          "internalType": "bool",
          "name": "",
          "type": "bool"
        }
      ],
      "stateMutability": "view",
      "type": "function"
    },
    {
      "inputs": [],
      "name": "jackpot",
      "outputs": [
        {
          "internalType": "uint256",
          "name": "",
          "type": "uint256"
        }
      ],
      "stateMutability": "view",
      "type": "function"
    },
    {
      "inputs": [],
      "name": "jackpotLastSeededAt",
      "outputs": [
        {
          "internalType": "uint256",
          "name": "",
          "type": "uint256"
        }
      ],
      "stateMutability": "view",
      "type": "function"
    },
    {
      "inputs": [],
      "name": "kill",
      "outputs": [],
      "stateMutability": "nonpayable",
      "type": "function"
    },
    {
      "inputs": [],
      "name": "maxBallValue",
      "outputs": [
        {
          "internalType": "uint8",
          "name": "",
          "type": "uint8"
        }
      ],
      "stateMutability": "view",
      "type": "function"
    },
    {
      "inputs": [],
      "name": "name",
      "outputs": [
        {
          "internalType": "string",
          "name": "",
          "type": "string"
        }
      ],
      "stateMutability": "view",
      "type": "function"
    },
    {
      "inputs": [
        {
          "internalType": "uint256",
          "name": "gameId",
          "type": "uint256"
        },
        {
          "internalType": "uint256",
          "name": "pickId",
          "type": "uint256"
        }
      ],
      "name": "numWinnersInGame",
      "outputs": [
        {
          "internalType": "uint256",
          "name": "",
          "type": "uint256"
        }
      ],
      "stateMutability": "view",
      "type": "function"
    },
    {
      "inputs": [],
      "name": "owner",
      "outputs": [
        {
          "internalType": "address",
          "name": "",
          "type": "address"
        }
      ],
      "stateMutability": "view",
      "type": "function"
    },
    {
      "inputs": [
        {
          "internalType": "uint256",
          "name": "tokenId",
          "type": "uint256"
        }
      ],
      "name": "ownerOf",
      "outputs": [
        {
          "internalType": "address",
          "name": "",
          "type": "address"
        }
      ],
      "stateMutability": "view",
      "type": "function"
    },
    {
      "inputs": [
        {
          "components": [
            {
              "internalType": "address",
              "name": "whomst",
              "type": "address"
            },
            {
              "internalType": "uint8[]",
              "name": "pick",
              "type": "uint8[]"
            }
          ],
          "internalType": "struct ILootery.Ticket[]",
          "name": "tickets",
          "type": "tuple[]"
        }
      ],
      "name": "ownerPick",
      "outputs": [],
      "stateMutability": "nonpayable",
      "type": "function"
    },
    {
      "inputs": [],
      "name": "pickLength",
      "outputs": [
        {
          "internalType": "uint8",
          "name": "",
          "type": "uint8"
        }
      ],
      "stateMutability": "view",
      "type": "function"
    },
    {
      "inputs": [],
      "name": "prizeToken",
      "outputs": [
        {
          "internalType": "address",
          "name": "",
          "type": "address"
        }
      ],
      "stateMutability": "view",
      "type": "function"
    },
    {
      "inputs": [
        {
          "components": [
            {
              "internalType": "address",
              "name": "whomst",
              "type": "address"
            },
            {
              "internalType": "uint8[]",
              "name": "pick",
              "type": "uint8[]"
            }
          ],
          "internalType": "struct ILootery.Ticket[]",
          "name": "tickets",
          "type": "tuple[]"
        },
        {
          "internalType": "address",
          "name": "beneficiary",
          "type": "address"
        }
      ],
      "name": "purchase",
      "outputs": [],
      "stateMutability": "nonpayable",
      "type": "function"
    },
    {
      "inputs": [
        {
          "internalType": "uint256",
          "name": "tokenId",
          "type": "uint256"
        }
      ],
      "name": "purchasedTickets",
      "outputs": [
        {
          "internalType": "uint256",
          "name": "gameId",
          "type": "uint256"
        },
        {
          "internalType": "uint256",
          "name": "pickId",
          "type": "uint256"
        }
      ],
      "stateMutability": "view",
      "type": "function"
    },
    {
      "inputs": [],
      "name": "randomiser",
      "outputs": [
        {
          "internalType": "address",
          "name": "",
          "type": "address"
        }
      ],
      "stateMutability": "view",
      "type": "function"
    },
    {
      "inputs": [],
      "name": "randomnessRequest",
      "outputs": [
        {
          "internalType": "uint208",
          "name": "requestId",
          "type": "uint208"
        },
        {
          "internalType": "uint48",
          "name": "timestamp",
          "type": "uint48"
        }
      ],
      "stateMutability": "view",
      "type": "function"
    },
    {
      "inputs": [
        {
          "internalType": "uint256",
          "name": "requestId",
          "type": "uint256"
        },
        {
          "internalType": "uint256[]",
          "name": "randomWords",
          "type": "uint256[]"
        }
      ],
      "name": "receiveRandomWords",
      "outputs": [],
      "stateMutability": "nonpayable",
      "type": "function"
    },
    {
      "inputs": [],
      "name": "renounceOwnership",
      "outputs": [],
      "stateMutability": "nonpayable",
      "type": "function"
    },
    {
      "inputs": [],
      "name": "rescueETH",
      "outputs": [],
      "stateMutability": "nonpayable",
      "type": "function"
    },
    {
      "inputs": [
        {
          "internalType": "address",
          "name": "tokenAddress",
          "type": "address"
        }
      ],
      "name": "rescueTokens",
      "outputs": [],
      "stateMutability": "nonpayable",
      "type": "function"
    },
    {
      "inputs": [
        {
          "internalType": "address",
          "name": "from",
          "type": "address"
        },
        {
          "internalType": "address",
          "name": "to",
          "type": "address"
        },
        {
          "internalType": "uint256",
          "name": "tokenId",
          "type": "uint256"
        }
      ],
      "name": "safeTransferFrom",
      "outputs": [],
      "stateMutability": "nonpayable",
      "type": "function"
    },
    {
      "inputs": [
        {
          "internalType": "address",
          "name": "from",
          "type": "address"
        },
        {
          "internalType": "address",
          "name": "to",
          "type": "address"
        },
        {
          "internalType": "uint256",
          "name": "tokenId",
          "type": "uint256"
        },
        {
          "internalType": "bytes",
          "name": "data",
          "type": "bytes"
        }
      ],
      "name": "safeTransferFrom",
      "outputs": [],
      "stateMutability": "nonpayable",
      "type": "function"
    },
    {
      "inputs": [
        {
          "internalType": "uint256",
          "name": "value",
          "type": "uint256"
        }
      ],
      "name": "seedJackpot",
      "outputs": [],
      "stateMutability": "nonpayable",
      "type": "function"
    },
    {
      "inputs": [],
      "name": "seedJackpotDelay",
      "outputs": [
        {
          "internalType": "uint256",
          "name": "",
          "type": "uint256"
        }
      ],
      "stateMutability": "view",
      "type": "function"
    },
    {
      "inputs": [],
      "name": "seedJackpotMinValue",
      "outputs": [
        {
          "internalType": "uint256",
          "name": "",
          "type": "uint256"
        }
      ],
      "stateMutability": "view",
      "type": "function"
    },
    {
      "inputs": [
        {
          "internalType": "address",
          "name": "operator",
          "type": "address"
        },
        {
          "internalType": "bool",
          "name": "approved",
          "type": "bool"
        }
      ],
      "name": "setApprovalForAll",
      "outputs": [],
      "stateMutability": "nonpayable",
      "type": "function"
    },
    {
      "inputs": [
        {
          "internalType": "address",
          "name": "beneficiary",
          "type": "address"
        },
        {
          "internalType": "string",
          "name": "displayName",
          "type": "string"
        },
        {
          "internalType": "bool",
          "name": "isBeneficiary",
          "type": "bool"
        }
      ],
      "name": "setBeneficiary",
      "outputs": [
        {
          "internalType": "bool",
          "name": "didMutate",
          "type": "bool"
        }
      ],
      "stateMutability": "nonpayable",
      "type": "function"
    },
    {
      "inputs": [
        {
          "internalType": "uint256",
          "name": "newCallbackGasLimit",
          "type": "uint256"
        }
      ],
      "name": "setCallbackGasLimit",
      "outputs": [],
      "stateMutability": "nonpayable",
      "type": "function"
    },
    {
      "inputs": [
        {
          "internalType": "address",
          "name": "renderer",
          "type": "address"
        }
      ],
      "name": "setTicketSVGRenderer",
      "outputs": [],
      "stateMutability": "nonpayable",
      "type": "function"
    },
    {
      "inputs": [
        {
          "internalType": "bytes4",
          "name": "interfaceId",
          "type": "bytes4"
        }
      ],
      "name": "supportsInterface",
      "outputs": [
        {
          "internalType": "bool",
          "name": "",
          "type": "bool"
        }
      ],
      "stateMutability": "view",
      "type": "function"
    },
    {
      "inputs": [],
      "name": "symbol",
      "outputs": [
        {
          "internalType": "string",
          "name": "",
          "type": "string"
        }
      ],
      "stateMutability": "view",
      "type": "function"
    },
    {
      "inputs": [],
      "name": "ticketPrice",
      "outputs": [
        {
          "internalType": "uint256",
          "name": "",
          "type": "uint256"
        }
      ],
      "stateMutability": "view",
      "type": "function"
    },
    {
      "inputs": [],
      "name": "ticketSVGRenderer",
      "outputs": [
        {
          "internalType": "address",
          "name": "",
          "type": "address"
        }
      ],
      "stateMutability": "view",
      "type": "function"
    },
    {
      "inputs": [
        {
          "internalType": "uint256",
          "name": "gameId",
          "type": "uint256"
        },
        {
          "internalType": "uint256",
          "name": "id",
          "type": "uint256"
        },
        {
          "internalType": "uint256",
          "name": "",
          "type": "uint256"
        }
      ],
      "name": "tokenByPickIdentity",
      "outputs": [
        {
          "internalType": "uint256",
          "name": "",
          "type": "uint256"
        }
      ],
      "stateMutability": "view",
      "type": "function"
    },
    {
      "inputs": [
        {
          "internalType": "uint256",
          "name": "tokenId",
          "type": "uint256"
        }
      ],
      "name": "tokenURI",
      "outputs": [
        {
          "internalType": "string",
          "name": "",
          "type": "string"
        }
      ],
      "stateMutability": "view",
      "type": "function"
    },
    {
      "inputs": [],
      "name": "totalSupply",
      "outputs": [
        {
          "internalType": "uint256",
          "name": "",
          "type": "uint256"
        }
      ],
      "stateMutability": "view",
      "type": "function"
    },
    {
      "inputs": [
        {
          "internalType": "address",
          "name": "from",
          "type": "address"
        },
        {
          "internalType": "address",
          "name": "to",
          "type": "address"
        },
        {
          "internalType": "uint256",
          "name": "tokenId",
          "type": "uint256"
        }
      ],
      "name": "transferFrom",
      "outputs": [],
      "stateMutability": "nonpayable",
      "type": "function"
    },
    {
      "inputs": [
        {
          "internalType": "address",
          "name": "newOwner",
          "type": "address"
        }
      ],
      "name": "transferOwnership",
      "outputs": [],
      "stateMutability": "nonpayable",
      "type": "function"
    },
    {
      "inputs": [],
      "name": "unclaimedPayouts",
      "outputs": [
        {
          "internalType": "uint256",
          "name": "",
          "type": "uint256"
        }
      ],
      "stateMutability": "view",
      "type": "function"
    },
    {
      "inputs": [],
      "name": "withdrawAccruedFees",
      "outputs": [],
      "stateMutability": "nonpayable",
      "type": "function"
    },
    {
      "stateMutability": "payable",
      "type": "receive"
    }
  ],
  "bytecode": "0x60806040526207a120600955348015601657600080fd5b50601d6021565b60d1565b7ff0c57e16840df040f15088dc2f81fe391c3923bec73e23a9662efc9c229c6a00805468010000000000000000900460ff161560705760405163f92ee8a960e01b815260040160405180910390fd5b80546001600160401b039081161460ce5780546001600160401b0319166001600160401b0390811782556040519081527fc7f505b2f371ae2175ee4913f4499e1f2633a7b5936321eed1cdaeb6115181d29060200160405180910390a15b50565b6155ef806100e06000396000f3fe6080604052600436106103bb5760003560e01c8063649edf11116101f2578063ab69dd081161010d578063ccaf237f116100a0578063e02ae8ce1161006f578063e02ae8ce14610b65578063e985e9c514610bbc578063efe2f0eb14610c24578063f2fde38b14610c6d57600080fd5b8063ccaf237f14610a9e578063ccb46bd714610b0f578063d0ef024a14610b2f578063d20831af14610b4f57600080fd5b8063b88d4fde116100dc578063b88d4fde14610a28578063be37822814610a48578063c45a015514610a5e578063c87b56dd14610a7e57600080fd5b8063ab69dd08146109bd578063acef672b146109dd578063ada82c7d146109fd578063ae46631314610a1257600080fd5b80638bba0174116101855780639ab6e297116101545780639ab6e29714610951578063a0c4615c14610967578063a14916d914610987578063a22cb4651461099d57600080fd5b80638bba0174146108c95780638da5cb5b146108df5780638e84f4b61461091c57806395d89b411461093c57600080fd5b8063715018a6116101c1578063715018a61461085357806382250a431461086857806384bc6a24146108885780638a54942f146108a957600080fd5b8063649edf11146107f5578063677bd9ff146107fd5780636b31ee011461081d57806370a082311461083357600080fd5b806324f74697116102e2578063463d7b1a1161027557806360b663bb1161024457806360b663bb146107635780636160c00c1461079b57806362ff220f146107b55780636352211e146107d557600080fd5b8063463d7b1a146106eb5780634ea217c41461071857806354dd386c1461072d578063586a19d91461074357600080fd5b80633af37a55116102b15780633af37a551461065e5780633b47492d1461069657806341c0e1b5146106b657806342842e0e146106cb57600080fd5b806324f74697146105e85780632efb2d41146105fe578063336f528a1461061e57806338aeb8361461063e57600080fd5b80630c0ef2b01161035a57806318575c0c1161032957806318575c0c1461055d5780631d29bd5a1461059057806320800a00146105b357806323b872dd146105c857600080fd5b80630c0ef2b0146105145780630eecae21146105295780631209b1f61461053157806318160ddd1461054757600080fd5b806302950fb91161039657806302950fb91461047a57806306fdde031461049a578063081812fc146104bc578063095ea7b3146104f457600080fd5b8062ae3bf8146103ff5780630171984b1461042157806301ffc9a71461044a57600080fd5b366103fa57604080513381523460208201527f88a5966d370b9919b20f3e2c13ff65706f196a4e32cc2c12bf57088f88525874910160405180910390a1005b600080fd5b34801561040b57600080fd5b5061041f61041a3660046147b4565b610c8d565b005b34801561042d57600080fd5b5061043760055481565b6040519081526020015b60405180910390f35b34801561045657600080fd5b5061046a6104653660046147e7565b610e2b565b6040519015158152602001610441565b34801561048657600080fd5b5061041f610495366004614804565b610eaf565b3480156104a657600080fd5b506104af61100c565b604051610441919061486d565b3480156104c857600080fd5b506104dc6104d7366004614804565b6110c2565b6040516001600160a01b039091168152602001610441565b34801561050057600080fd5b5061041f61050f366004614880565b61110a565b34801561052057600080fd5b5061046a611119565b61041f61113b565b34801561053d57600080fd5b5061043760045481565b34801561055357600080fd5b50610437600a5481565b34801561056957600080fd5b5060005461057e90600160a81b900460ff1681565b60405160ff9091168152602001610441565b34801561059c57600080fd5b506105a5611263565b6040516104419291906148ac565b3480156105bf57600080fd5b5061041f6113bf565b3480156105d457600080fd5b5061041f6105e3366004614957565b611475565b3480156105f457600080fd5b5061043760095481565b34801561060a57600080fd5b506008546104dc906001600160a01b031681565b34801561062a57600080fd5b506002546104dc906001600160a01b031681565b34801561064a57600080fd5b50610437610659366004614998565b611519565b34801561066a57600080fd5b506104376106793660046149c4565b600091825260116020908152604080842092845291905290205490565b3480156106a257600080fd5b506104376106b13660046149c4565b611557565b3480156106c257600080fd5b5061041f611588565b3480156106d757600080fd5b5061041f6106e6366004614957565b61161c565b3480156106f757600080fd5b5061070b610706366004614804565b611637565b6040516104419190614a25565b34801561072457600080fd5b5061043761165b565b34801561073957600080fd5b5061043760075481565b34801561074f57600080fd5b5061070b61075e366004614804565b6116eb565b34801561076f57600080fd5b50600b5461078d9060ff81169061010090046001600160f81b031682565b604051610441929190614a70565b3480156107a757600080fd5b5060145461046a9060ff1681565b3480156107c157600080fd5b5061041f6107d0366004614ae0565b611705565b3480156107e157600080fd5b506104dc6107f0366004614804565b6119f4565b61041f6119ff565b34801561080957600080fd5b50610437610818366004614804565b611b02565b34801561082957600080fd5b50610437600c5481565b34801561083f57600080fd5b5061043761084e3660046147b4565b611eb3565b34801561085f57600080fd5b5061041f611f3a565b34801561087457600080fd5b5061041f6108833660046147b4565b611f4e565b34801561089457600080fd5b5060005461057e90600160a01b900460ff1681565b3480156108b557600080fd5b5061041f6108c4366004614804565b611f62565b3480156108d557600080fd5b5061043760065481565b3480156108eb57600080fd5b507f9016d09d72d40fdae2fd8ceac6b6234c7706214fd39c1cd1e609a0528c199300546001600160a01b03166104dc565b34801561092857600080fd5b506104af6109373660046147b4565b611fa5565b34801561094857600080fd5b506104af61203f565b34801561095d57600080fd5b50610437600d5481565b34801561097357600080fd5b5061041f610982366004614b37565b612090565b34801561099357600080fd5b5061043760135481565b3480156109a957600080fd5b5061041f6109b8366004614b91565b612270565b3480156109c957600080fd5b5061041f6109d8366004614bca565b61227b565b3480156109e957600080fd5b5061041f6109f8366004614d14565b61228d565b348015610a0957600080fd5b5061041f6127db565b348015610a1e57600080fd5b5061043760015481565b348015610a3457600080fd5b5061041f610a43366004614e52565b61283b565b348015610a5457600080fd5b506104376101f481565b348015610a6a57600080fd5b506000546104dc906001600160a01b031681565b348015610a8a57600080fd5b506104af610a99366004614804565b612852565b348015610aaa57600080fd5b50610ae8610ab9366004614804565b6010602052600090815260409020805460019091015467ffffffffffffffff80831692600160401b9004169083565b6040805167ffffffffffffffff948516815293909216602084015290820152606001610441565b348015610b1b57600080fd5b5061046a610b2a366004614ed2565b612912565b348015610b3b57600080fd5b506003546104dc906001600160a01b031681565b348015610b5b57600080fd5b5061043760155481565b348015610b7157600080fd5b50600e54610b96906001600160d01b03811690600160d01b900465ffffffffffff1682565b604080516001600160d01b03909316835265ffffffffffff909116602083015201610441565b348015610bc857600080fd5b5061046a610bd7366004614f6c565b6001600160a01b0391821660009081527f80bb2b638cc20bc4d0a60d66940f3ab4a00c1d7b313497ca82fb0b4ab00793056020908152604080832093909416825291909152205460ff1690565b348015610c3057600080fd5b50610c58610c3f366004614804565b600f602052600090815260409020805460019091015482565b60408051928352602083019190915201610441565b348015610c7957600080fd5b5061041f610c883660046147b4565b612a4e565b610c95612aa2565b6040517f70a082310000000000000000000000000000000000000000000000000000000081523060048201526000906001600160a01b038316906370a0823190602401602060405180830381865afa158015610cf5573d6000803e3d6000fd5b505050506040513d601f19601f82011682018060405250810190610d199190614f9a565b600b5460035491925061010090046001600160f81b0316906001600160a01b0390811690841603610e1257600081118015610d985750600b54601090600090610d729060019061010090046001600160f81b0316614fc9565b6001600160f81b0316815260208101919091526040016000205467ffffffffffffffff16155b8015610dba57506003600b5460ff166003811115610db857610db8614a38565b145b15610dd35760006013819055600d819055600c55610e12565b6000600c54600d54601354610de89190614fe8565b610df29190614fe8565b905080831015610e0457610e04614ffb565b610e0e8184615011565b9250505b610e266001600160a01b0384163384612b16565b505050565b60006001600160e01b031982167f80ac58cd000000000000000000000000000000000000000000000000000000001480610e8e57506001600160e01b031982167f5b5e139f00000000000000000000000000000000000000000000000000000000145b80610ea957506301ffc9a760e01b6001600160e01b03198316145b92915050565b600180600b5460ff166003811115610ec957610ec9614a38565b14610ef757600b54604051632812aa8760e01b8152610eee9160ff1690600401615024565b60405180910390fd5b600754821015610f36576040517f7b47632100000000000000000000000000000000000000000000000000000000815260048101839052602401610eee565b600654601554610f469190614fe8565b421015610f9d5742600654601554610f5e9190614fe8565b610f689190615011565b6040517ff015865e000000000000000000000000000000000000000000000000000000008152600401610eee91815260200190565b4260158190555081600c6000828254610fb69190614fe8565b9091555050600354610fd3906001600160a01b0316333085612b8a565b60405182815233907f0a45ec0e27527fa1519b691bab30b4fedbc1da4b3d04ba9d3663f1696be541049060200160405180910390a25050565b7f80bb2b638cc20bc4d0a60d66940f3ab4a00c1d7b313497ca82fb0b4ab0079300805460609190819061103e90615032565b80601f016020809104026020016040519081016040528092919081815260200182805461106a90615032565b80156110b75780601f1061108c576101008083540402835291602001916110b7565b820191906000526020600020905b81548152906001019060200180831161109a57829003601f168201915b505050505091505090565b60006110cd82612bc3565b5060008281527f80bb2b638cc20bc4d0a60d66940f3ab4a00c1d7b313497ca82fb0b4ab007930460205260409020546001600160a01b0316610ea9565b611115828233612c1b565b5050565b60006003600b5460ff16600381111561113457611134614a38565b1415905090565b600180600b5460ff16600381111561115557611155614a38565b1461117a57600b54604051632812aa8760e01b8152610eee9160ff1690600401615024565b600b5461010090046001600160f81b031660009081526010602090815260408083208151606081018352815467ffffffffffffffff8082168352600160401b9091041693810184905260019182015492810192909252549092916111de9190614fe8565b90508042101561120457604051633fa5f83f60e01b815260048101829052602401610eee565b815167ffffffffffffffff1660000361125b57600b546040516101009091046001600160f81b0316907ff6ca837b06142a107fde1fb0f9c3379c6d079aa7fa4de4437961f3eb6182221490600090a2610e26612c28565b610e26612f35565b606080611270601661319a565b9150815167ffffffffffffffff81111561128c5761128c614c0c565b6040519080825280602002602001820160405280156112bf57816020015b60608152602001906001900390816112aa5790505b50905060005b82518110156113ba57601860008483815181106112e4576112e4615066565b60200260200101516001600160a01b03166001600160a01b03168152602001908152602001600020805461131790615032565b80601f016020809104026020016040519081016040528092919081815260200182805461134390615032565b80156113905780601f1061136557610100808354040283529160200191611390565b820191906000526020600020905b81548152906001019060200180831161137357829003601f168201915b50505050508282815181106113a7576113a7615066565b60209081029190910101526001016112c5565b509091565b6113c7612aa2565b60405147906000908190339084908381818185875af1925050503d806000811461140d576040519150601f19603f3d011682016040523d82523d6000602084013e611412565b606091505b50915091508161143b573383826040516359ed55cf60e01b8152600401610eee9392919061507c565b60405183815233907f9c3cc23d5256459e240b53f903b58777839d0f7784189d876864a2fecd9415a29060200160405180910390a2505050565b6001600160a01b03821661149f57604051633250574960e11b815260006004820152602401610eee565b60006114ac8383336131ae565b9050836001600160a01b0316816001600160a01b031614611513576040517f64283d7b0000000000000000000000000000000000000000000000000000000081526001600160a01b0380861660048301526024820184905282166044820152606401610eee565b50505050565b6011602052826000526040600020602052816000526040600020818154811061154157600080fd5b9060005260206000200160009250925050505481565b6012602052816000526040600020818154811061157357600080fd5b90600052602060002001600091509150505481565b611590612aa2565b600180600b5460ff1660038111156115aa576115aa614a38565b146115cf57600b54604051632812aa8760e01b8152610eee9160ff1690600401615024565b60145460ff161561160c576040517fe76abfdd00000000000000000000000000000000000000000000000000000000815260040160405180910390fd5b506014805460ff19166001179055565b610e268383836040518060200160405280600081525061283b565b600054606090610ea99060ff600160a01b8204811691600160a81b900416846132ef565b6002546009546040517f10b0d1d200000000000000000000000000000000000000000000000000000000815260048101919091526000916001600160a01b0316906310b0d1d290602401602060405180830381865afa1580156116c2573d6000803e3d6000fd5b505050506040513d601f19601f820116820180604052508101906116e69190614f9a565b905090565b600054606090610ea990600160a01b900460ff1683613398565b6000829003611740576040517fc01b5d3b00000000000000000000000000000000000000000000000000000000815260040160405180910390fd5b60045482906000906117539083906150ad565b60035490915061176e906001600160a01b0316333084612b8a565b60006127106005548361178191906150ad565b61178b91906150c4565b905060008060009054906101000a90046001600160a01b03166001600160a01b0316634ccb20c06040518163ffffffff1660e01b8152600401602060405180830381865afa1580156117e1573d6000803e3d6000fd5b505050506040513d601f19601f8201168201806040525081019061180591906150e6565b905060006001600160a01b03821615611836576127106118276101f4866150ad565b61183191906150c4565b611839565b60005b90506000816118488587615011565b6118529190615011565b600b5490915061010090046001600160f81b03166001600160a01b0388166118915784601360008282546118869190614fe8565b909155506118f49050565b61189c601689613452565b6118dd576040517ffce398aa0000000000000000000000000000000000000000000000000000000081526001600160a01b0389166004820152602401610eee565b6003546118f4906001600160a01b03168987612b16565b6001600160a01b03881615611909578761190b565b305b6001600160a01b0316817f1efc214ec14d081e74ac22debc8d48a010f4f1f30ad4733c94e7c38ff90038e28760405161194691815260200190565b60405180910390a36001600160a01b038416158015906119665750600083115b156119c657600354611982906001600160a01b03168585612b16565b836001600160a01b03167fb87e607f6030a23ed9b7dac1a717610f3a3b07325269f18808ba763bdcefe7ae846040516119bd91815260200190565b60405180910390a25b81600c60008282546119d89190614fe8565b909155506119e890508a8a613474565b50505050505050505050565b6000610ea982612bc3565b600280600b5460ff166003811115611a1957611a19614a38565b14611a3e57600b54604051632812aa8760e01b8152610eee9160ff1690600401615024565b60408051808201909152600e546001600160d01b038116808352600160d01b90910465ffffffffffff166020830152600003611aa6576040517f9313240d00000000000000000000000000000000000000000000000000000000815260040160405180910390fd5b6020810151611ab790610e10615103565b65ffffffffffff164210611acd57611115612f35565b6020810151611ade90610e10615103565b604051633fa5f83f60e01b815265ffffffffffff9091166004820152602401610eee565b60006001600b5460ff166003811115611b1d57611b1d614a38565b14158015611b4257506003600b5460ff166003811115611b3f57611b3f614a38565b14155b15611b6757600b54604051632812aa8760e01b8152610eee9160ff1690600401615024565b60008281527f80bb2b638cc20bc4d0a60d66940f3ab4a00c1d7b313497ca82fb0b4ab007930260205260409020546001600160a01b031680611bbf57604051637e27328960e01b815260048101849052602401610eee565b611bc8836138e0565b6000838152600f602090815260409182902082518084019093528054835260019081015491830191909152600b5461010090046001600160f81b031690611c0f9082615011565b825114611c4b576040517f2506adb500000000000000000000000000000000000000000000000000000000815260048101869052602401610eee565b815160009081526010602090815260408083208151606081018352815467ffffffffffffffff8082168352600160401b90910416818501526001909101548183018190528651855260118452828520818652845282852054875186526012909452919093205490919081158015611cd857506003600b5460ff166003811115611cd657611cd6614a38565b145b15611da0578351611cf490829067ffffffffffffffff16615011565b600d54611d0191906150c4565b975087600d6000828254611d159190615011565b90915550508551600090815260126020908152604082208054600181018255908352912001899055600354611d54906001600160a01b0316888a612b16565b8551604080516001600160a01b038a168152602081018b90528b917f1526f29dc67f9d8967789be9aa23179c7826c4a1c063c5834b5c4c495aaa07cb91015b60405180910390a3611ea7565b85602001518303611e685760008211611dbb57611dbb614ffb565b611dc58183615011565b600d54611dd291906150c4565b975087600d6000828254611de69190615011565b90915550508551600090815260126020908152604082208054600181018255908352912001899055600354611e25906001600160a01b0316888a612b16565b8551604080516001600160a01b038a168152602081018b90528b917f38eb4599d8dccd3edd335a3f80fea5dbaae4b6cb0db2866060f333f6796db3239101611d93565b602080870151604080519182529181018590527f6ddaa595bb3e06c0ff457cddbaa35f1efddea1202d86286c56b6af33f6a8cc22910160405180910390a15b50505050505050919050565b60007f80bb2b638cc20bc4d0a60d66940f3ab4a00c1d7b313497ca82fb0b4ab00793006001600160a01b038316611f19576040517f89c62b6400000000000000000000000000000000000000000000000000000000815260006004820152602401610eee565b6001600160a01b039092166000908152600390920160205250604090205490565b611f42612aa2565b611f4c600061391b565b565b611f56612aa2565b611f5f8161398c565b50565b611f6a612aa2565b60098190556040518181527fea0306c7b92bfad18ad155350fb250f350724d4e5c843eeb51997be9f937c3509060200160405180910390a150565b60186020526000908152604090208054611fbe90615032565b80601f0160208091040260200160405190810160405280929190818152602001828054611fea90615032565b80156120375780601f1061200c57610100808354040283529160200191612037565b820191906000526020600020905b81548152906001019060200180831161201a57829003601f168201915b505050505081565b7f80bb2b638cc20bc4d0a60d66940f3ab4a00c1d7b313497ca82fb0b4ab007930180546060917f80bb2b638cc20bc4d0a60d66940f3ab4a00c1d7b313497ca82fb0b4ab00793009161103e90615032565b600280600b5460ff1660038111156120aa576120aa614a38565b146120cf57600b54604051632812aa8760e01b8152610eee9160ff1690600401615024565b6002546001600160a01b03163314612115576040517f01c09680000000000000000000000000000000000000000000000000000000008152336004820152602401610eee565b6000829003612150576040517fbfa32be300000000000000000000000000000000000000000000000000000000815260040160405180910390fd5b600e546001600160d01b031684146121aa57600e546040517faae75cf6000000000000000000000000000000000000000000000000000000008152600481018690526001600160d01b039091166024820152604401610eee565b6040805180820190915260008082526020909101819052600e8190556121e5848483816121d9576121d9615066565b90506020020135611637565b600b5460405191925061010090046001600160f81b0316907f4a2c5dc61d8caf543cef0b699bd08678003186170a4fff91cb694c4d9c1bdcad9061222c9083908590615121565b60405180910390a1600061223f83613a90565b6001600160f81b03831660009081526010602052604090206001018190559050612267612c28565b50505050505050565b611115338383613ad6565b612283612aa2565b6111158282613474565b7ff0c57e16840df040f15088dc2f81fe391c3923bec73e23a9662efc9c229c6a008054600160401b810460ff16159067ffffffffffffffff166000811580156122d35750825b905060008267ffffffffffffffff1660011480156122f05750303b155b9050811580156122fe575080155b15612335576040517ff92ee8a900000000000000000000000000000000000000000000000000000000815260040160405180910390fd5b845467ffffffffffffffff19166001178555831561236457845468ff00000000000000001916600160401b1785555b855161236f90613bb2565b61238186602001518760400151613bc3565b600080546001600160a01b03191633179055606086015160ff1615806123ae57506020866060015160ff16115b156123d757606086015160405163114e92d560e01b815260ff9091166004820152602401610eee565b6060860151600080547fffffffffffffffffffffff00ffffffffffffffffffffffffffffffffffffffff16600160a01b60ff93841690810291909117909155608088015190911610156124615760808601516040517f6973f43c00000000000000000000000000000000000000000000000000000000815260ff9091166004820152602401610eee565b8560800151600060156101000a81548160ff021916908360ff1602179055506102588660a0015110156124c8578560a001516040517faf0b9fe1000000000000000000000000000000000000000000000000000000008152600401610eee91815260200190565b60a086015160015560c0860151600003612516578560c001516040517fb05276a5000000000000000000000000000000000000000000000000000000008152600401610eee91815260200190565b60c086015160045560e086015161271090612534906101f490614fe8565b111561256c576040517f64e1115400000000000000000000000000000000000000000000000000000000815260040160405180910390fd5b60e08601516005556101008601516001600160a01b03166125cb576101008601516040517f5e280fa50000000000000000000000000000000000000000000000000000000081526001600160a01b039091166004820152602401610eee565b610100860151600280546001600160a01b0319166001600160a01b039283161790556101208701511661263c576101208601516040517f4d05c0480000000000000000000000000000000000000000000000000000000081526001600160a01b039091166004820152602401610eee565b610120860151600380546001600160a01b0319166001600160a01b03909216919091179055610140860151600681905561016087015160075515806126815750600754155b156126c7576006546007546040517f0758bd7700000000000000000000000000000000000000000000000000000000815260048101929092526024820152604401610eee565b6126d586610180015161398c565b600b8054600160ff199091161790556040805160608101825260008082524267ffffffffffffffff9081166020808501918252948401838152928052601090945291517f6e0956cda88cad152e89927e53611735b61a5c762d1428573c6931b0a5efcb01805494518416600160401b026fffffffffffffffffffffffffffffffff199095169190931617929092179055517f6e0956cda88cad152e89927e53611735b61a5c762d1428573c6931b0a5efcb025583156127d357845468ff000000000000000019168555604051600181527fc7f505b2f371ae2175ee4913f4499e1f2633a7b5936321eed1cdaeb6115181d29060200160405180910390a15b505050505050565b6127e3612aa2565b601380546000909155600354612803906001600160a01b03163383612b16565b60405181815233907f3f9a693150e48179f93c02c3ec37f52f8280a293b6096e6f5496c22f315b77c29060200160405180910390a250565b612846848484611475565b61151384848484613bd5565b606061285d82612bc3565b506008546001600160a01b0316636de3197461287761100c565b60008054868252600f602052604090912060010154869160ff600160a81b82048116926128ae92600160a01b900490911690613398565b6040518563ffffffff1660e01b81526004016128cd9493929190615143565b600060405180830381865afa1580156128ea573d6000803e3d6000fd5b505050506040513d6000823e601f3d908101601f19168201604052610ea99190810190615182565b600061291c612aa2565b81156129dd57600083900361295d576040517f7f643eca00000000000000000000000000000000000000000000000000000000815260040160405180910390fd5b6001600160a01b0385166000908152601860205260409020612980848683615237565b5061298c601686613cfe565b905080156129d857846001600160a01b03167fbd793e14f2ef74a7a875db560b865f09db4c686288570de877a4c9c33e6dae4785856040516129cf9291906152f7565b60405180910390a25b612a46565b6129e8601686613d13565b90508015612a46576001600160a01b0385166000908152601860205260408120612a1191614741565b6040516001600160a01b038616907f72977dad29432f655f11c2f0e72ef5124bb9ade7a512fb7a43a9f504df22342890600090a25b949350505050565b612a56612aa2565b6001600160a01b038116612a99576040517f1e4fbdf700000000000000000000000000000000000000000000000000000000815260006004820152602401610eee565b611f5f8161391b565b33612ad47f9016d09d72d40fdae2fd8ceac6b6234c7706214fd39c1cd1e609a0528c199300546001600160a01b031690565b6001600160a01b031614611f4c576040517f118cdaa7000000000000000000000000000000000000000000000000000000008152336004820152602401610eee565b6040516001600160a01b03838116602483015260448201839052610e2691859182169063a9059cbb906064015b604051602081830303815290604052915060e01b6020820180517bffffffffffffffffffffffffffffffffffffffffffffffffffffffff8381831617835250505050613d28565b6040516001600160a01b0384811660248301528381166044830152606482018390526115139186918216906323b872dd90608401612b43565b60008181527f80bb2b638cc20bc4d0a60d66940f3ab4a00c1d7b313497ca82fb0b4ab007930260205260408120546001600160a01b031680610ea957604051637e27328960e01b815260048101849052602401610eee565b610e268383836001613da4565b6003600b5460ff166003811115612c4157612c41614a38565b03612c4e57612c4e614ffb565b600b546014546101009091046001600160f81b03169060009060ff1615612c7757506003612c7b565b5060015b6040518060400160405280826003811115612c9857612c98614a38565b8152602001612ca8846001615326565b6001600160f81b031690528051600b8054909190829060ff19166001836003811115612cd657612cd6614a38565b021790555060209182015181546001600160f81b039091166101000260ff9091161790556040805160608101825260008082524267ffffffffffffffff169382019390935290810182905290601090612d30856001615326565b6001600160f81b03908116825260208083019390935260409182016000908120855181548787015167ffffffffffffffff908116600160401b026fffffffffffffffffffffffffffffffff19909216921691909117178155948301516001958601559086168152601083528181209093015460118352818420818552909252822054600d54600c54929391929091839003612ebf576003856003811115612dd957612dd9614a38565b03612e5357600080612deb8385614fe8565b6000600c55600d8190556040805186815260208101869052908101829052606081018490529091506001600160f81b038916907f59a23cf10d003eab0c59d7c706e3b4b20aeddabe02c2ae924bd12cfb8c3e4b64906080015b60405180910390a250506127d3565b6000612e5f8284614fe8565b600c8190556000600d819055604080518681526020810186905290810182905260608101839052919250906001600160f81b038916907f59a23cf10d003eab0c59d7c706e3b4b20aeddabe02c2ae924bd12cfb8c3e4b6490608001612e44565b6000612ecb8383614fe8565b600d8190556000600c81905560408051868152602081018690528082018490526060810192909252519192506001600160f81b038916917f59a23cf10d003eab0c59d7c706e3b4b20aeddabe02c2ae924bd12cfb8c3e4b649181900360800190a250505050505050565b600b805460ff191660021790556000612f4c61165b565b905080341115613019576000612f628234615011565b9050600080336001600160a01b03168360405160006040518083038185875af1925050503d8060008114612fb2576040519150601f19603f3d011682016040523d82523d6000602084013e612fb7565b606091505b509150915081612fe0573383826040516359ed55cf60e01b8152600401610eee9392919061507c565b60405183815233907f2c003babc9bab745cd44b6d4ba45ddf77bdbda4a59d52e1fc805dfb0d8895c7e9060200160405180910390a25050505b8047101561305c576040517f96fbe4dd00000000000000000000000000000000000000000000000000000000815247600482015260248101829052604401610eee565b6002546000906001600160a01b0316631f53cf048361307c42601e614fe8565b6009546040516001600160e01b031960e086901b1681526004810192909252602482015260440160206040518083038185885af11580156130c1573d6000803e3d6000fd5b50505050506040513d601f19601f820116820180604052508101906130e69190614f9a565b90506001600160d01b0381111561312c576040517fa6110e8400000000000000000000000000000000000000000000000000000000815260048101829052602401610eee565b6040805180820182526001600160d01b0383168082524265ffffffffffff166020928301819052600160d01b81028217600e558351918252918101919091527f71c56b2f279c00b585c2a62bd64c9206bd1c7f032649b2e863edd255d9ab621f910160405180910390a15050565b606060006131a783613f23565b9392505050565b60008281527f80bb2b638cc20bc4d0a60d66940f3ab4a00c1d7b313497ca82fb0b4ab007930260205260408120547f80bb2b638cc20bc4d0a60d66940f3ab4a00c1d7b313497ca82fb0b4ab0079300906001600160a01b039081169084161561321c5761321c818587613f7f565b6001600160a01b0381161561325c57613239600086600080613da4565b6001600160a01b0381166000908152600383016020526040902080546000190190555b6001600160a01b0386161561328d576001600160a01b03861660009081526003830160205260409020805460010190555b600085815260028301602052604080822080546001600160a01b0319166001600160a01b038a811691821790925591518893918516917fddf252ad1be2c89b69c2b068fc378daa952ba7f163c4a11628f55a4df523b3ef91a495945050505050565b60608360ff1667ffffffffffffffff81111561330d5761330d614c0c565b604051908082528060200260200182016040528015613336578160200160208202803683370190505b50905060005b8460ff1681101561338e57613357818560ff1685600c613ffc565b613362906001614fe8565b82828151811061337457613374615066565b60ff9092166020928302919091019091015260010161333c565b50612a4681614158565b60608260ff1667ffffffffffffffff8111156133b6576133b6614c0c565b6040519080825280602002602001820160405280156133df578160200160208202803683370190505b5090506000805b61010081101561344a57600184821c81161480156134315781848461340a81615345565b95508151811061341c5761341c615066565b602002602001019060ff16908160ff16815250505b8560ff168303613441575061344a565b506001016133e6565b505092915050565b6001600160a01b038116600090815260018301602052604081205415156131a7565b600180600b5460ff16600381111561348e5761348e614a38565b146134b357600b54604051632812aa8760e01b8152610eee9160ff1690600401615024565b60408051808201909152600b80546000929190829060ff1660038111156134dc576134dc614a38565b60038111156134ed576134ed614a38565b8152905461010090046001600160f81b039081166020928301528282015116600081815260108352604090819020815160608082018452825467ffffffffffffffff8082168452600160401b909104169582019590955260019091015481830152815193840190915280519394509092869290819061356d90859061535e565b67ffffffffffffffff90811682526020848101518216818401526040808601519381019390935260008781526010825283812085518154938701518516600160401b026fffffffffffffffffffffffffffffffff1990941694169390931791909117825592909101516001918201558154600a5460ff600160a01b8304811694600160a81b90930416926136019190614fe8565b905084600a60008282546136159190614fe8565b90915550600090505b858110156138755760008b8b8381811061363a5761363a615066565b905060200281019061364c919061537e565b61365a9060208101906147b4565b905060008c8c8481811061367057613670615066565b9050602002810190613682919061537e565b61369090602081019061539e565b80806020026020016040519081016040528093929190818152602001838360200280828437600092019190915250508251929350505086148015906136d55750805115155b156136f857805160405163114e92d560e01b8152600401610eee91815260200190565b8051156137b9576000805b878110156137b657600083828151811061371f5761371f615066565b602002602001015190508260ff168160ff161161376a57836040517f5f863765000000000000000000000000000000000000000000000000000000008152600401610eee9190614a25565b878160ff1611156137ac576040517f9fb72f1700000000000000000000000000000000000000000000000000000000815260ff82166004820152602401610eee565b9150600101613703565b50505b60006137c58486614fe8565b905060006137d283613a90565b6040805180820182528d815260208082018481526000878152600f83528481209351845590516001938401558f815260118252838120858252825283812080549384018155815220018490555190915082906001600160a01b038616908d907f38f7010e1714c2785562f89e75c8d417cb1908bd47a9e84cf5db470ad60c44cf9061385e908890614a25565b60405180910390a45050505080600101905061361e565b5060005b858110156138d35760008b8b8381811061389557613895615066565b90506020028101906138a7919061537e565b6138b59060208101906147b4565b90506138ca816138c58486614fe8565b614267565b50600101613879565b5050505050505050505050565b60006138ef60008360006131ae565b90506001600160a01b03811661111557604051637e27328960e01b815260048101839052602401610eee565b7f9016d09d72d40fdae2fd8ceac6b6234c7706214fd39c1cd1e609a0528c19930080546001600160a01b031981166001600160a01b03848116918217845560405192169182907f8be0079c531659141344cd1fd0a4f28419497f9722a3daafe3b4186f6b6457e090600090a3505050565b60006001600160a01b03821615801590613a2957506040516301ffc9a760e01b81527f86ff10540000000000000000000000000000000000000000000000000000000060048201526001600160a01b038316906301ffc9a790602401602060405180830381865afa158015613a05573d6000803e3d6000fd5b505050506040513d601f19601f82011682018060405250810190613a2991906153e8565b905080613a6d576040517f64fd73040000000000000000000000000000000000000000000000000000000081526001600160a01b0383166004820152602401610eee565b50600880546001600160a01b0319166001600160a01b0392909216919091179055565b60008060005b8351811015613acf57838181518110613ab157613ab1615066565b602002602001015160ff166001901b82179150806001019050613a96565b5092915050565b7f80bb2b638cc20bc4d0a60d66940f3ab4a00c1d7b313497ca82fb0b4ab00793006001600160a01b038316613b42576040517f5b08ba180000000000000000000000000000000000000000000000000000000081526001600160a01b0384166004820152602401610eee565b6001600160a01b038481166000818152600584016020908152604080832094881680845294825291829020805460ff191687151590811790915591519182527f17307eab39ab6107e8899845ad3d59bd9653f200f220920489ca2b5937696c31910160405180910390a350505050565b613bba614281565b611f5f816142e3565b613bcb614281565b61111582826142eb565b6001600160a01b0383163b1561151357604051630a85bd0160e11b81526001600160a01b0384169063150b7a0290613c17903390889087908790600401615405565b6020604051808303816000875af1925050508015613c52575060408051601f3d908101601f19168201909252613c4f9181019061543c565b60015b613cbb573d808015613c80576040519150601f19603f3d011682016040523d82523d6000602084013e613c85565b606091505b508051600003613cb357604051633250574960e11b81526001600160a01b0385166004820152602401610eee565b805181602001fd5b6001600160e01b03198116630a85bd0160e11b14613cf757604051633250574960e11b81526001600160a01b0385166004820152602401610eee565b5050505050565b60006131a7836001600160a01b03841661432e565b60006131a7836001600160a01b03841661437d565b6000613d3d6001600160a01b03841683614470565b90508051600014158015613d62575080806020019051810190613d6091906153e8565b155b15610e26576040517f5274afe70000000000000000000000000000000000000000000000000000000081526001600160a01b0384166004820152602401610eee565b7f80bb2b638cc20bc4d0a60d66940f3ab4a00c1d7b313497ca82fb0b4ab00793008180613dd957506001600160a01b03831615155b15613ef2576000613de985612bc3565b90506001600160a01b03841615801590613e155750836001600160a01b0316816001600160a01b031614155b8015613e6657506001600160a01b0380821660009081527f80bb2b638cc20bc4d0a60d66940f3ab4a00c1d7b313497ca82fb0b4ab0079305602090815260408083209388168352929052205460ff16155b15613ea8576040517fa9fbf51f0000000000000000000000000000000000000000000000000000000081526001600160a01b0385166004820152602401610eee565b8215613ef05784866001600160a01b0316826001600160a01b03167f8c5be1e5ebec7d5bd14f71427d1e84f3dd0314c0f7b2291e5b200ac8c7c3b92560405160405180910390a45b505b600093845260040160205250506040902080546001600160a01b0319166001600160a01b0392909216919091179055565b606081600001805480602002602001604051908101604052809291908181526020018280548015613f7357602002820191906000526020600020905b815481526020019060010190808311613f5f575b50505050509050919050565b613f8a83838361447e565b610e26576001600160a01b038316613fb857604051637e27328960e01b815260048101829052602401610eee565b6040517f177e802f0000000000000000000000000000000000000000000000000000000081526001600160a01b038316600482015260248101829052604401610eee565b600083158061400b5750838510155b806140195750816001166001145b15614050576040517ff34cfab600000000000000000000000000000000000000000000000000000000815260040160405180910390fd5b6140a2565b60006003821160018114614078576001831519161561407357600191505b61409c565b829150600160028404015b8281101561409a5791506002828404830104614083565b505b50919050565b6140ab84614055565b6000856002830a14600181146140e757600183016fffffffffffffffffffffffffffffffff8111156140dc57600080fd5b6002900a91506140eb565b8691505b506140f581614055565b915050604051608081016040528460408201528560608201525b81870682880460005b8681101561413f578184526020840181905260808420919290910184900690600101614118565b5083020196508587101561410f57509495945050505050565b805160609060015b8181101561425f57600084828151811061417c5761417c615066565b6020026020010151905060006001836141959190615459565b90505b600081121580156141c757508581815181106141b6576141b6615066565b602002602001015160ff168260ff16105b15614226578581815181106141de576141de615066565b6020026020010151868260016141f49190615479565b8151811061420457614204615066565b60ff9092166020928302919091019091015261421f81615499565b9050614198565b8186614233836001615479565b8151811061424357614243615066565b60ff909216602092830291909101909101525050600101614160565b509192915050565b61111582826040518060200160405280600081525061453f565b7ff0c57e16840df040f15088dc2f81fe391c3923bec73e23a9662efc9c229c6a0054600160401b900460ff16611f4c576040517fd7e6bcf800000000000000000000000000000000000000000000000000000000815260040160405180910390fd5b612a56614281565b6142f3614281565b7f80bb2b638cc20bc4d0a60d66940f3ab4a00c1d7b313497ca82fb0b4ab00793008061431f84826154d2565b506001810161151383826154d2565b600081815260018301602052604081205461437557508154600181810184556000848152602080822090930184905584548482528286019093526040902091909155610ea9565b506000610ea9565b600081815260018301602052604081205480156144665760006143a1600183615011565b85549091506000906143b590600190615011565b905080821461441a5760008660000182815481106143d5576143d5615066565b90600052602060002001549050808760000184815481106143f8576143f8615066565b6000918252602080832090910192909255918252600188019052604090208390555b855486908061442b5761442b615591565b600190038181906000526020600020016000905590558560010160008681526020019081526020016000206000905560019350505050610ea9565b6000915050610ea9565b60606131a783836000614556565b60006001600160a01b03831615801590612a465750826001600160a01b0316846001600160a01b031614806144f757506001600160a01b0380851660009081527f80bb2b638cc20bc4d0a60d66940f3ab4a00c1d7b313497ca82fb0b4ab0079305602090815260408083209387168352929052205460ff165b80612a4657505060009081527f80bb2b638cc20bc4d0a60d66940f3ab4a00c1d7b313497ca82fb0b4ab007930460205260409020546001600160a01b03908116911614919050565b614549838361460c565b610e266000848484613bd5565b606081471015614594576040517fcd786059000000000000000000000000000000000000000000000000000000008152306004820152602401610eee565b600080856001600160a01b031684866040516145b091906155a7565b60006040518083038185875af1925050503d80600081146145ed576040519150601f19603f3d011682016040523d82523d6000602084013e6145f2565b606091505b509150915061460286838361468a565b9695505050505050565b6001600160a01b03821661463657604051633250574960e11b815260006004820152602401610eee565b6000614644838360006131ae565b90506001600160a01b03811615610e26576040517f73c6ac6e00000000000000000000000000000000000000000000000000000000815260006004820152602401610eee565b60608261469f5761469a826146ff565b6131a7565b81511580156146b657506001600160a01b0384163b155b156146f8576040517f9996b3150000000000000000000000000000000000000000000000000000000081526001600160a01b0385166004820152602401610eee565b50806131a7565b80511561470f5780518082602001fd5b6040517f1425ea4200000000000000000000000000000000000000000000000000000000815260040160405180910390fd5b50805461474d90615032565b6000825580601f1061475d575050565b601f016020900490600052602060002090810190611f5f91905b8082111561478b5760008155600101614777565b5090565b6001600160a01b0381168114611f5f57600080fd5b80356147af8161478f565b919050565b6000602082840312156147c657600080fd5b81356131a78161478f565b6001600160e01b031981168114611f5f57600080fd5b6000602082840312156147f957600080fd5b81356131a7816147d1565b60006020828403121561481657600080fd5b5035919050565b60005b83811015614838578181015183820152602001614820565b50506000910152565b6000815180845261485981602086016020860161481d565b601f01601f19169290920160200192915050565b6020815260006131a76020830184614841565b6000806040838503121561489357600080fd5b823561489e8161478f565b946020939093013593505050565b6040808252835190820181905260009060208501906060840190835b818110156148ef5783516001600160a01b03168352602093840193909201916001016148c8565b50508381036020850152809150845180825260208201925060208160051b8301016020870160005b8381101561494957601f19858403018652614933838351614841565b6020968701969093509190910190600101614917565b509098975050505050505050565b60008060006060848603121561496c57600080fd5b83356149778161478f565b925060208401356149878161478f565b929592945050506040919091013590565b6000806000606084860312156149ad57600080fd5b505081359360208301359350604090920135919050565b600080604083850312156149d757600080fd5b50508035926020909101359150565b600081518084526020840193506020830160005b82811015614a1b57815160ff168652602095860195909101906001016149fa565b5093949350505050565b6020815260006131a760208301846149e6565b634e487b7160e01b600052602160045260246000fd5b60048110614a6c57634e487b7160e01b600052602160045260246000fd5b9052565b60408101614a7e8285614a4e565b6001600160f81b03831660208301529392505050565b60008083601f840112614aa657600080fd5b50813567ffffffffffffffff811115614abe57600080fd5b6020830191508360208260051b8501011115614ad957600080fd5b9250929050565b600080600060408486031215614af557600080fd5b833567ffffffffffffffff811115614b0c57600080fd5b614b1886828701614a94565b9094509250506020840135614b2c8161478f565b809150509250925092565b600080600060408486031215614b4c57600080fd5b83359250602084013567ffffffffffffffff811115614b6a57600080fd5b614b7686828701614a94565b9497909650939450505050565b8015158114611f5f57600080fd5b60008060408385031215614ba457600080fd5b8235614baf8161478f565b91506020830135614bbf81614b83565b809150509250929050565b60008060208385031215614bdd57600080fd5b823567ffffffffffffffff811115614bf457600080fd5b614c0085828601614a94565b90969095509350505050565b634e487b7160e01b600052604160045260246000fd5b6040516101a0810167ffffffffffffffff81118282101715614c4657614c46614c0c565b60405290565b604051601f8201601f1916810167ffffffffffffffff81118282101715614c7557614c75614c0c565b604052919050565b600067ffffffffffffffff821115614c9757614c97614c0c565b50601f01601f191660200190565b6000614cb8614cb384614c7d565b614c4c565b9050828152838383011115614ccc57600080fd5b828260208301376000602084830101529392505050565b600082601f830112614cf457600080fd5b6131a783833560208501614ca5565b803560ff811681146147af57600080fd5b600060208284031215614d2657600080fd5b813567ffffffffffffffff811115614d3d57600080fd5b82016101a08185031215614d5057600080fd5b614d58614c22565b614d61826147a4565b8152602082013567ffffffffffffffff811115614d7d57600080fd5b614d8986828501614ce3565b602083015250604082013567ffffffffffffffff811115614da957600080fd5b614db586828501614ce3565b604083015250614dc760608301614d03565b6060820152614dd860808301614d03565b608082015260a0828101359082015260c0808301359082015260e08083013590820152614e0861010083016147a4565b610100820152614e1b61012083016147a4565b61012082015261014082810135908201526101608083013590820152614e4461018083016147a4565b610180820152949350505050565b60008060008060808587031215614e6857600080fd5b8435614e738161478f565b93506020850135614e838161478f565b925060408501359150606085013567ffffffffffffffff811115614ea657600080fd5b8501601f81018713614eb757600080fd5b614ec687823560208401614ca5565b91505092959194509250565b60008060008060608587031215614ee857600080fd5b8435614ef38161478f565b9350602085013567ffffffffffffffff811115614f0f57600080fd5b8501601f81018713614f2057600080fd5b803567ffffffffffffffff811115614f3757600080fd5b876020828401011115614f4957600080fd5b602091909101935091506040850135614f6181614b83565b939692955090935050565b60008060408385031215614f7f57600080fd5b8235614f8a8161478f565b91506020830135614bbf8161478f565b600060208284031215614fac57600080fd5b5051919050565b634e487b7160e01b600052601160045260246000fd5b6001600160f81b038281168282160390811115610ea957610ea9614fb3565b80820180821115610ea957610ea9614fb3565b634e487b7160e01b600052600160045260246000fd5b81810381811115610ea957610ea9614fb3565b60208101610ea98284614a4e565b600181811c9082168061504657607f821691505b60208210810361409c57634e487b7160e01b600052602260045260246000fd5b634e487b7160e01b600052603260045260246000fd5b6001600160a01b03841681528260208201526060604082015260006150a46060830184614841565b95945050505050565b8082028115828204841417610ea957610ea9614fb3565b6000826150e157634e487b7160e01b600052601260045260246000fd5b500490565b6000602082840312156150f857600080fd5b81516131a78161478f565b65ffffffffffff8181168382160190811115610ea957610ea9614fb3565b6001600160f81b0383168152604060208201526000612a4660408301846149e6565b6080815260006151566080830187614841565b85602084015260ff85166040840152828103606084015261517781856149e6565b979650505050505050565b60006020828403121561519457600080fd5b815167ffffffffffffffff8111156151ab57600080fd5b8201601f810184136151bc57600080fd5b80516151ca614cb382614c7d565b8181528560208385010111156151df57600080fd5b6150a482602083016020860161481d565b601f821115610e2657806000526020600020601f840160051c810160208510156152175750805b601f840160051c820191505b81811015613cf75760008155600101615223565b67ffffffffffffffff83111561524f5761524f614c0c565b6152638361525d8354615032565b836151f0565b6000601f841160018114615297576000851561527f5750838201355b600019600387901b1c1916600186901b178355613cf7565b600083815260209020601f19861690835b828110156152c857868501358255602094850194600190920191016152a8565b50868210156152e55760001960f88860031b161c19848701351681555b505060018560011b0183555050505050565b60208152816020820152818360408301376000818301604090810191909152601f909201601f19160101919050565b6001600160f81b038181168382160190811115610ea957610ea9614fb3565b60006001820161535757615357614fb3565b5060010190565b67ffffffffffffffff8181168382160190811115610ea957610ea9614fb3565b60008235603e1983360301811261539457600080fd5b9190910192915050565b6000808335601e198436030181126153b557600080fd5b83018035915067ffffffffffffffff8211156153d057600080fd5b6020019150600581901b3603821315614ad957600080fd5b6000602082840312156153fa57600080fd5b81516131a781614b83565b6001600160a01b03851681526001600160a01b03841660208201528260408201526080606082015260006146026080830184614841565b60006020828403121561544e57600080fd5b81516131a7816147d1565b8181036000831280158383131683831282161715613acf57613acf614fb3565b808201828112600083128015821682158216171561344a5761344a614fb3565b60007f800000000000000000000000000000000000000000000000000000000000000082036154ca576154ca614fb3565b506000190190565b815167ffffffffffffffff8111156154ec576154ec614c0c565b615500816154fa8454615032565b846151f0565b6020601f821160018114615534576000831561551c5750848201515b600019600385901b1c1916600184901b178455613cf7565b600084815260208120601f198516915b828110156155645787850151825560209485019460019092019101615544565b50848210156155825786840151600019600387901b60f8161c191681555b50505050600190811b01905550565b634e487b7160e01b600052603160045260246000fd5b6000825161539481846020870161481d56fea2646970667358221220adf6a02ae2509060d5ee8ebad41fd65aa1abb72b7a8560bc532e43993079097664736f6c634300081b0033",
  "linkReferences": {},
  "deployedLinkReferences": {}
}