{
  "_format": "hh-sol-artifact-1",
  "contractName": "Lootery",
  "sourceName": "contracts/Lootery.sol",
  "abi": [
    {
      "inputs": [],
      "stateMutability": "nonpayable",
      "type": "constructor"
    },
    {
      "inputs": [
        {
          "internalType": "address",
          "name": "target",
          "type": "address"
        }
      ],
      "name": "AddressEmptyCode",
      "type": "error"
    },
    {
      "inputs": [
        {
          "internalType": "address",
          "name": "account",
          "type": "address"
        }
      ],
      "name": "AddressInsufficientBalance",
      "type": "error"
    },
    {
      "inputs": [
        {
          "internalType": "address",
          "name": "caller",
          "type": "address"
        }
      ],
      "name": "CallerNotRandomiser",
      "type": "error"
    },
    {
      "inputs": [
        {
          "internalType": "uint256",
          "name": "tokenId",
          "type": "uint256"
        }
      ],
      "name": "ClaimWindowMissed",
      "type": "error"
    },
    {
      "inputs": [
        {
          "internalType": "address",
          "name": "sender",
          "type": "address"
        },
        {
          "internalType": "uint256",
          "name": "tokenId",
          "type": "uint256"
        },
        {
          "internalType": "address",
          "name": "owner",
          "type": "address"
        }
      ],
      "name": "ERC721IncorrectOwner",
      "type": "error"
    },
    {
      "inputs": [
        {
          "internalType": "address",
          "name": "operator",
          "type": "address"
        },
        {
          "internalType": "uint256",
          "name": "tokenId",
          "type": "uint256"
        }
      ],
      "name": "ERC721InsufficientApproval",
      "type": "error"
    },
    {
      "inputs": [
        {
          "internalType": "address",
          "name": "approver",
          "type": "address"
        }
      ],
      "name": "ERC721InvalidApprover",
      "type": "error"
    },
    {
      "inputs": [
        {
          "internalType": "address",
          "name": "operator",
          "type": "address"
        }
      ],
      "name": "ERC721InvalidOperator",
      "type": "error"
    },
    {
      "inputs": [
        {
          "internalType": "address",
          "name": "owner",
          "type": "address"
        }
      ],
      "name": "ERC721InvalidOwner",
      "type": "error"
    },
    {
      "inputs": [
        {
          "internalType": "address",
          "name": "receiver",
          "type": "address"
        }
      ],
      "name": "ERC721InvalidReceiver",
      "type": "error"
    },
    {
      "inputs": [
        {
          "internalType": "address",
          "name": "sender",
          "type": "address"
        }
      ],
      "name": "ERC721InvalidSender",
      "type": "error"
    },
    {
      "inputs": [
        {
          "internalType": "uint256",
          "name": "tokenId",
          "type": "uint256"
        }
      ],
      "name": "ERC721NonexistentToken",
      "type": "error"
    },
    {
      "inputs": [],
      "name": "EmptyDisplayName",
      "type": "error"
    },
    {
      "inputs": [],
      "name": "FailedInnerCall",
      "type": "error"
    },
    {
      "inputs": [],
      "name": "GameAlreadyDrawn",
      "type": "error"
    },
    {
      "inputs": [],
      "name": "GameInactive",
      "type": "error"
    },
    {
      "inputs": [
        {
          "internalType": "uint256",
          "name": "paid",
          "type": "uint256"
        },
        {
          "internalType": "uint256",
          "name": "expected",
          "type": "uint256"
        }
      ],
      "name": "IncorrectPaymentAmount",
      "type": "error"
    },
    {
      "inputs": [
        {
          "internalType": "uint256",
          "name": "value",
          "type": "uint256"
        }
      ],
      "name": "InsufficientJackpotSeed",
      "type": "error"
    },
    {
      "inputs": [
        {
          "internalType": "uint256",
          "name": "have",
          "type": "uint256"
        },
        {
          "internalType": "uint256",
          "name": "want",
          "type": "uint256"
        }
      ],
      "name": "InsufficientOperationalFunds",
      "type": "error"
    },
    {
      "inputs": [],
      "name": "InsufficientRandomWords",
      "type": "error"
    },
    {
      "inputs": [
        {
          "internalType": "uint256",
          "name": "ballValue",
          "type": "uint256"
        }
      ],
      "name": "InvalidBallValue",
      "type": "error"
    },
    {
      "inputs": [],
      "name": "InvalidFeeShares",
      "type": "error"
    },
    {
      "inputs": [
        {
          "internalType": "uint256",
          "name": "gamePeriod",
          "type": "uint256"
        }
      ],
      "name": "InvalidGamePeriod",
      "type": "error"
    },
    {
      "inputs": [],
      "name": "InvalidInitialization",
      "type": "error"
    },
    {
      "inputs": [],
      "name": "InvalidInputs",
      "type": "error"
    },
    {
      "inputs": [
        {
          "internalType": "uint256",
          "name": "maxBallValue",
          "type": "uint256"
        }
      ],
      "name": "InvalidMaxBallValue",
      "type": "error"
    },
    {
      "inputs": [
        {
          "internalType": "uint256",
          "name": "pickLength",
          "type": "uint256"
        }
      ],
      "name": "InvalidPickLength",
      "type": "error"
    },
    {
      "inputs": [
        {
          "internalType": "address",
          "name": "prizeToken",
          "type": "address"
        }
      ],
      "name": "InvalidPrizeToken",
      "type": "error"
    },
    {
      "inputs": [
        {
          "internalType": "address",
          "name": "randomiser",
          "type": "address"
        }
      ],
      "name": "InvalidRandomiser",
      "type": "error"
    },
    {
      "inputs": [
        {
          "internalType": "uint256",
          "name": "delay",
          "type": "uint256"
        },
        {
          "internalType": "uint256",
          "name": "minValue",
          "type": "uint256"
        }
      ],
      "name": "InvalidSeedJackpotConfig",
      "type": "error"
    },
    {
      "inputs": [
        {
          "internalType": "uint256",
          "name": "ticketPrice",
          "type": "uint256"
        }
      ],
      "name": "InvalidTicketPrice",
      "type": "error"
    },
    {
      "inputs": [
        {
          "internalType": "address",
          "name": "renderer",
          "type": "address"
        }
      ],
      "name": "InvalidTicketSVGRenderer",
      "type": "error"
    },
    {
      "inputs": [],
      "name": "NoTicketsSpecified",
      "type": "error"
    },
    {
      "inputs": [],
      "name": "NotInitializing",
      "type": "error"
    },
    {
      "inputs": [
        {
          "internalType": "address",
          "name": "owner",
          "type": "address"
        }
      ],
      "name": "OwnableInvalidOwner",
      "type": "error"
    },
    {
      "inputs": [
        {
          "internalType": "address",
          "name": "account",
          "type": "address"
        }
      ],
      "name": "OwnableUnauthorizedAccount",
      "type": "error"
    },
    {
      "inputs": [
        {
          "internalType": "uint256",
          "name": "secondsToWait",
          "type": "uint256"
        }
      ],
      "name": "RateLimited",
      "type": "error"
    },
    {
      "inputs": [
        {
          "internalType": "uint256",
          "name": "actual",
          "type": "uint256"
        },
        {
          "internalType": "uint208",
          "name": "expected",
          "type": "uint208"
        }
      ],
      "name": "RequestIdMismatch",
      "type": "error"
    },
    {
      "inputs": [
        {
          "internalType": "uint256",
          "name": "requestId",
          "type": "uint256"
        }
      ],
      "name": "RequestIdOverflow",
      "type": "error"
    },
    {
      "inputs": [
        {
          "internalType": "address",
          "name": "token",
          "type": "address"
        }
      ],
      "name": "SafeERC20FailedOperation",
      "type": "error"
    },
    {
      "inputs": [
        {
          "internalType": "address",
          "name": "to",
          "type": "address"
        },
        {
          "internalType": "uint256",
          "name": "value",
          "type": "uint256"
        },
        {
          "internalType": "bytes",
          "name": "reason",
          "type": "bytes"
        }
      ],
      "name": "TransferFailure",
      "type": "error"
    },
    {
      "inputs": [
        {
          "internalType": "enum ILootery.GameState",
          "name": "actual",
          "type": "uint8"
        }
      ],
      "name": "UnexpectedState",
      "type": "error"
    },
    {
      "inputs": [
        {
          "internalType": "address",
          "name": "beneficiary",
          "type": "address"
        }
      ],
      "name": "UnknownBeneficiary",
      "type": "error"
    },
    {
      "inputs": [
        {
          "internalType": "uint8[]",
          "name": "pick",
          "type": "uint8[]"
        }
      ],
      "name": "UnsortedPick",
      "type": "error"
    },
    {
      "inputs": [
        {
          "internalType": "uint256",
          "name": "deadline",
          "type": "uint256"
        }
      ],
      "name": "WaitLonger",
      "type": "error"
    },
    {
      "anonymous": false,
      "inputs": [
        {
          "indexed": true,
          "internalType": "address",
          "name": "to",
          "type": "address"
        },
        {
          "indexed": false,
          "internalType": "uint256",
          "name": "amount",
          "type": "uint256"
        }
      ],
      "name": "AccruedCommunityFeesWithdrawn",
      "type": "event"
    },
    {
      "anonymous": false,
      "inputs": [
        {
          "indexed": true,
          "internalType": "address",
          "name": "owner",
          "type": "address"
        },
        {
          "indexed": true,
          "internalType": "address",
          "name": "approved",
          "type": "address"
        },
        {
          "indexed": true,
          "internalType": "uint256",
          "name": "tokenId",
          "type": "uint256"
        }
      ],
      "name": "Approval",
      "type": "event"
    },
    {
      "anonymous": false,
      "inputs": [
        {
          "indexed": true,
          "internalType": "address",
          "name": "owner",
          "type": "address"
        },
        {
          "indexed": true,
          "internalType": "address",
          "name": "operator",
          "type": "address"
        },
        {
          "indexed": false,
          "internalType": "bool",
          "name": "approved",
          "type": "bool"
        }
      ],
      "name": "ApprovalForAll",
      "type": "event"
    },
    {
      "anonymous": false,
      "inputs": [
        {
          "indexed": true,
          "internalType": "address",
          "name": "beneficiary",
          "type": "address"
        },
        {
          "indexed": false,
          "internalType": "string",
          "name": "displayName",
          "type": "string"
        }
      ],
      "name": "BeneficiaryAdded",
      "type": "event"
    },
    {
      "anonymous": false,
      "inputs": [
        {
          "indexed": true,
          "internalType": "uint256",
          "name": "gameId",
          "type": "uint256"
        },
        {
          "indexed": true,
          "internalType": "address",
          "name": "beneficiary",
          "type": "address"
        },
        {
          "indexed": false,
          "internalType": "uint256",
          "name": "value",
          "type": "uint256"
        }
      ],
      "name": "BeneficiaryPaid",
      "type": "event"
    },
    {
      "anonymous": false,
      "inputs": [
        {
          "indexed": true,
          "internalType": "address",
          "name": "beneficiary",
          "type": "address"
        }
      ],
      "name": "BeneficiaryRemoved",
      "type": "event"
    },
    {
      "anonymous": false,
      "inputs": [
        {
          "indexed": false,
          "internalType": "uint256",
          "name": "newCallbackGasLimit",
          "type": "uint256"
        }
      ],
      "name": "CallbackGasLimitSet",
      "type": "event"
    },
    {
      "anonymous": false,
      "inputs": [
        {
          "indexed": true,
          "internalType": "uint256",
          "name": "tokenId",
          "type": "uint256"
        },
        {
          "indexed": true,
          "internalType": "uint256",
          "name": "gameId",
          "type": "uint256"
        },
        {
          "indexed": false,
          "internalType": "address",
          "name": "whomst",
          "type": "address"
        },
        {
          "indexed": false,
          "internalType": "uint256",
          "name": "value",
          "type": "uint256"
        }
      ],
      "name": "ConsolationClaimed",
      "type": "event"
    },
    {
      "anonymous": false,
      "inputs": [
        {
          "indexed": true,
          "internalType": "uint256",
          "name": "gameId",
          "type": "uint256"
        }
      ],
      "name": "DrawSkipped",
      "type": "event"
    },
    {
      "anonymous": false,
      "inputs": [
        {
          "indexed": true,
          "internalType": "address",
          "name": "to",
          "type": "address"
        },
        {
          "indexed": false,
          "internalType": "uint256",
          "name": "value",
          "type": "uint256"
        }
      ],
      "name": "ExcessRefunded",
      "type": "event"
    },
    {
      "anonymous": false,
      "inputs": [
        {
          "indexed": false,
          "internalType": "uint256",
          "name": "gameId",
          "type": "uint256"
        },
        {
          "indexed": false,
          "internalType": "uint8[]",
          "name": "winningPick",
          "type": "uint8[]"
        }
      ],
      "name": "GameFinalised",
      "type": "event"
    },
    {
      "anonymous": false,
      "inputs": [
        {
          "indexed": false,
          "internalType": "uint64",
          "name": "version",
          "type": "uint64"
        }
      ],
      "name": "Initialized",
      "type": "event"
    },
    {
      "anonymous": false,
      "inputs": [
        {
          "indexed": true,
          "internalType": "uint256",
          "name": "gameId",
          "type": "uint256"
        },
        {
          "indexed": false,
          "internalType": "uint256",
          "name": "unclaimedPayouts",
          "type": "uint256"
        },
        {
          "indexed": false,
          "internalType": "uint256",
          "name": "currentJackpot",
          "type": "uint256"
        },
        {
          "indexed": false,
          "internalType": "uint256",
          "name": "nextUnclaimedPayouts",
          "type": "uint256"
        },
        {
          "indexed": false,
          "internalType": "uint256",
          "name": "nextJackpot",
          "type": "uint256"
        }
      ],
      "name": "JackpotRollover",
      "type": "event"
    },
    {
      "anonymous": false,
      "inputs": [
        {
          "indexed": true,
          "internalType": "address",
          "name": "whomst",
          "type": "address"
        },
        {
          "indexed": false,
          "internalType": "uint256",
          "name": "amount",
          "type": "uint256"
        }
      ],
      "name": "JackpotSeeded",
      "type": "event"
    },
    {
      "anonymous": false,
      "inputs": [
        {
          "indexed": false,
          "internalType": "uint256",
          "name": "pickId",
          "type": "uint256"
        },
        {
          "indexed": false,
          "internalType": "uint256",
          "name": "winningPickId",
          "type": "uint256"
        }
      ],
      "name": "NoWin",
      "type": "event"
    },
    {
      "anonymous": false,
      "inputs": [
        {
          "indexed": true,
          "internalType": "address",
          "name": "to",
          "type": "address"
        },
        {
          "indexed": false,
          "internalType": "uint256",
          "name": "amount",
          "type": "uint256"
        }
      ],
      "name": "OperationalFundsWithdrawn",
      "type": "event"
    },
    {
      "anonymous": false,
      "inputs": [
        {
          "indexed": true,
          "internalType": "address",
          "name": "previousOwner",
          "type": "address"
        },
        {
          "indexed": true,
          "internalType": "address",
          "name": "newOwner",
          "type": "address"
        }
      ],
      "name": "OwnershipTransferred",
      "type": "event"
    },
    {
      "anonymous": false,
      "inputs": [
        {
          "indexed": true,
          "internalType": "address",
          "name": "to",
          "type": "address"
        },
        {
          "indexed": false,
          "internalType": "uint256",
          "name": "value",
          "type": "uint256"
        }
      ],
      "name": "ProtocolFeePaid",
      "type": "event"
    },
    {
      "anonymous": false,
      "inputs": [
        {
          "indexed": false,
          "internalType": "uint208",
          "name": "requestId",
          "type": "uint208"
        },
        {
          "indexed": false,
          "internalType": "uint48",
          "name": "timestamp",
          "type": "uint48"
        }
      ],
      "name": "RandomnessRequested",
      "type": "event"
    },
    {
      "anonymous": false,
      "inputs": [
        {
          "indexed": false,
          "internalType": "address",
          "name": "sender",
          "type": "address"
        },
        {
          "indexed": false,
          "internalType": "uint256",
          "name": "amount",
          "type": "uint256"
        }
      ],
      "name": "Received",
      "type": "event"
    },
    {
      "anonymous": false,
      "inputs": [
        {
          "indexed": true,
          "internalType": "uint256",
          "name": "gameId",
          "type": "uint256"
        },
        {
          "indexed": true,
          "internalType": "address",
          "name": "whomst",
          "type": "address"
        },
        {
          "indexed": true,
          "internalType": "uint256",
          "name": "tokenId",
          "type": "uint256"
        },
        {
          "indexed": false,
          "internalType": "uint8[]",
          "name": "pick",
          "type": "uint8[]"
        }
      ],
      "name": "TicketPurchased",
      "type": "event"
    },
    {
      "anonymous": false,
      "inputs": [
        {
          "indexed": true,
          "internalType": "address",
          "name": "from",
          "type": "address"
        },
        {
          "indexed": true,
          "internalType": "address",
          "name": "to",
          "type": "address"
        },
        {
          "indexed": true,
          "internalType": "uint256",
          "name": "tokenId",
          "type": "uint256"
        }
      ],
      "name": "Transfer",
      "type": "event"
    },
    {
      "anonymous": false,
      "inputs": [
        {
          "indexed": false,
          "internalType": "address",
          "name": "to",
          "type": "address"
        },
        {
          "indexed": false,
          "internalType": "uint256",
          "name": "value",
          "type": "uint256"
        }
      ],
      "name": "Transferred",
      "type": "event"
    },
    {
      "anonymous": false,
      "inputs": [
        {
          "indexed": true,
          "internalType": "uint256",
          "name": "tokenId",
          "type": "uint256"
        },
        {
          "indexed": true,
          "internalType": "uint256",
          "name": "gameId",
          "type": "uint256"
        },
        {
          "indexed": false,
          "internalType": "address",
          "name": "whomst",
          "type": "address"
        },
        {
          "indexed": false,
          "internalType": "uint256",
          "name": "value",
          "type": "uint256"
        }
      ],
      "name": "WinningsClaimed",
      "type": "event"
    },
    {
      "inputs": [],
      "name": "PROTOCOL_FEE_BPS",
      "outputs": [
        {
          "internalType": "uint256",
          "name": "",
          "type": "uint256"
        }
      ],
      "stateMutability": "view",
      "type": "function"
    },
    {
      "inputs": [],
      "name": "accruedCommunityFees",
      "outputs": [
        {
          "internalType": "uint256",
          "name": "",
          "type": "uint256"
        }
      ],
      "stateMutability": "view",
      "type": "function"
    },
    {
      "inputs": [
        {
          "internalType": "address",
          "name": "to",
          "type": "address"
        },
        {
          "internalType": "uint256",
          "name": "tokenId",
          "type": "uint256"
        }
      ],
      "name": "approve",
      "outputs": [],
      "stateMutability": "nonpayable",
      "type": "function"
    },
    {
      "inputs": [
        {
          "internalType": "address",
          "name": "owner",
          "type": "address"
        }
      ],
      "name": "balanceOf",
      "outputs": [
        {
          "internalType": "uint256",
          "name": "",
          "type": "uint256"
        }
      ],
      "stateMutability": "view",
      "type": "function"
    },
    {
      "inputs": [],
      "name": "beneficiaries",
      "outputs": [
        {
          "internalType": "address[]",
          "name": "addresses",
          "type": "address[]"
        },
        {
          "internalType": "string[]",
          "name": "names",
          "type": "string[]"
        }
      ],
      "stateMutability": "view",
      "type": "function"
    },
    {
      "inputs": [
        {
          "internalType": "address",
          "name": "beneficiary",
          "type": "address"
        }
      ],
      "name": "beneficiaryDisplayNames",
      "outputs": [
        {
          "internalType": "string",
          "name": "name",
          "type": "string"
        }
      ],
      "stateMutability": "view",
      "type": "function"
    },
    {
      "inputs": [],
      "name": "callbackGasLimit",
      "outputs": [
        {
          "internalType": "uint256",
          "name": "",
          "type": "uint256"
        }
      ],
      "stateMutability": "view",
      "type": "function"
    },
    {
      "inputs": [
        {
          "internalType": "uint256",
          "name": "tokenId",
          "type": "uint256"
        }
      ],
      "name": "claimWinnings",
      "outputs": [
        {
          "internalType": "uint256",
          "name": "prizeShare",
          "type": "uint256"
        }
      ],
      "stateMutability": "nonpayable",
      "type": "function"
    },
    {
      "inputs": [
        {
          "internalType": "uint256",
          "name": "gameId",
          "type": "uint256"
        },
        {
          "internalType": "uint256",
          "name": "",
          "type": "uint256"
        }
      ],
      "name": "claimedWinningTickets",
      "outputs": [
        {
          "internalType": "uint256",
          "name": "",
          "type": "uint256"
        }
      ],
      "stateMutability": "view",
      "type": "function"
    },
    {
      "inputs": [],
      "name": "communityFeeBps",
      "outputs": [
        {
          "internalType": "uint256",
          "name": "",
          "type": "uint256"
        }
      ],
      "stateMutability": "view",
      "type": "function"
    },
    {
      "inputs": [
        {
          "internalType": "uint256",
          "name": "pickId",
          "type": "uint256"
        }
      ],
      "name": "computePick",
      "outputs": [
        {
          "internalType": "uint8[]",
          "name": "pick",
          "type": "uint8[]"
        }
      ],
      "stateMutability": "view",
      "type": "function"
    },
    {
      "inputs": [
        {
          "internalType": "uint256",
          "name": "randomSeed",
          "type": "uint256"
        }
      ],
      "name": "computeWinningPick",
      "outputs": [
        {
          "internalType": "uint8[]",
          "name": "balls",
          "type": "uint8[]"
        }
      ],
      "stateMutability": "view",
      "type": "function"
    },
    {
      "inputs": [],
      "name": "currentGame",
      "outputs": [
        {
          "internalType": "enum ILootery.GameState",
          "name": "state",
          "type": "uint8"
        },
        {
          "internalType": "uint248",
          "name": "id",
          "type": "uint248"
        }
      ],
      "stateMutability": "view",
      "type": "function"
    },
    {
      "inputs": [],
      "name": "draw",
      "outputs": [],
      "stateMutability": "payable",
      "type": "function"
    },
    {
      "inputs": [],
      "name": "factory",
      "outputs": [
        {
          "internalType": "address",
          "name": "",
          "type": "address"
        }
      ],
      "stateMutability": "view",
      "type": "function"
    },
    {
      "inputs": [
        {
          "internalType": "uint256",
          "name": "gameId",
          "type": "uint256"
        }
      ],
      "name": "gameData",
      "outputs": [
        {
          "internalType": "uint64",
          "name": "ticketsSold",
          "type": "uint64"
        },
        {
          "internalType": "uint64",
          "name": "startedAt",
          "type": "uint64"
        },
        {
          "internalType": "uint256",
          "name": "winningPickId",
          "type": "uint256"
        }
      ],
      "stateMutability": "view",
      "type": "function"
    },
    {
      "inputs": [],
      "name": "gamePeriod",
      "outputs": [
        {
          "internalType": "uint256",
          "name": "",
          "type": "uint256"
        }
      ],
      "stateMutability": "view",
      "type": "function"
    },
    {
      "inputs": [
        {
          "internalType": "uint256",
          "name": "tokenId",
          "type": "uint256"
        }
      ],
      "name": "getApproved",
      "outputs": [
        {
          "internalType": "address",
          "name": "",
          "type": "address"
        }
      ],
      "stateMutability": "view",
      "type": "function"
    },
    {
      "inputs": [],
      "name": "getRequestPrice",
      "outputs": [
        {
          "internalType": "uint256",
          "name": "",
          "type": "uint256"
        }
      ],
      "stateMutability": "view",
      "type": "function"
    },
    {
      "inputs": [
        {
          "components": [
            {
              "internalType": "address",
              "name": "owner",
              "type": "address"
            },
            {
              "internalType": "string",
              "name": "name",
              "type": "string"
            },
            {
              "internalType": "string",
              "name": "symbol",
              "type": "string"
            },
            {
              "internalType": "uint8",
              "name": "pickLength",
              "type": "uint8"
            },
            {
              "internalType": "uint8",
              "name": "maxBallValue",
              "type": "uint8"
            },
            {
              "internalType": "uint256",
              "name": "gamePeriod",
              "type": "uint256"
            },
            {
              "internalType": "uint256",
              "name": "ticketPrice",
              "type": "uint256"
            },
            {
              "internalType": "uint256",
              "name": "communityFeeBps",
              "type": "uint256"
            },
            {
              "internalType": "address",
              "name": "randomiser",
              "type": "address"
            },
            {
              "internalType": "address",
              "name": "prizeToken",
              "type": "address"
            },
            {
              "internalType": "uint256",
              "name": "seedJackpotDelay",
              "type": "uint256"
            },
            {
              "internalType": "uint256",
              "name": "seedJackpotMinValue",
              "type": "uint256"
            },
            {
              "internalType": "address",
              "name": "ticketSVGRenderer",
              "type": "address"
            }
          ],
          "internalType": "struct ILootery.InitConfig",
          "name": "initConfig",
          "type": "tuple"
        }
      ],
      "name": "init",
      "outputs": [],
      "stateMutability": "nonpayable",
      "type": "function"
    },
    {
      "inputs": [],
      "name": "isApocalypseMode",
      "outputs": [
        {
          "internalType": "bool",
          "name": "",
          "type": "bool"
        }
      ],
      "stateMutability": "view",
      "type": "function"
    },
    {
      "inputs": [
        {
          "internalType": "address",
          "name": "owner",
          "type": "address"
        },
        {
          "internalType": "address",
          "name": "operator",
          "type": "address"
        }
      ],
      "name": "isApprovedForAll",
      "outputs": [
        {
          "internalType": "bool",
          "name": "",
          "type": "bool"
        }
      ],
      "stateMutability": "view",
      "type": "function"
    },
    {
      "inputs": [],
      "name": "isGameActive",
      "outputs": [
        {
          "internalType": "bool",
          "name": "",
          "type": "bool"
        }
      ],
      "stateMutability": "view",
      "type": "function"
    },
    {
      "inputs": [],
      "name": "jackpot",
      "outputs": [
        {
          "internalType": "uint256",
          "name": "",
          "type": "uint256"
        }
      ],
      "stateMutability": "view",
      "type": "function"
    },
    {
      "inputs": [],
      "name": "jackpotLastSeededAt",
      "outputs": [
        {
          "internalType": "uint256",
          "name": "",
          "type": "uint256"
        }
      ],
      "stateMutability": "view",
      "type": "function"
    },
    {
      "inputs": [],
      "name": "kill",
      "outputs": [],
      "stateMutability": "nonpayable",
      "type": "function"
    },
    {
      "inputs": [],
      "name": "maxBallValue",
      "outputs": [
        {
          "internalType": "uint8",
          "name": "",
          "type": "uint8"
        }
      ],
      "stateMutability": "view",
      "type": "function"
    },
    {
      "inputs": [],
      "name": "name",
      "outputs": [
        {
          "internalType": "string",
          "name": "",
          "type": "string"
        }
      ],
      "stateMutability": "view",
      "type": "function"
    },
    {
      "inputs": [
        {
          "internalType": "uint256",
          "name": "gameId",
          "type": "uint256"
        },
        {
          "internalType": "uint256",
          "name": "pickId",
          "type": "uint256"
        }
      ],
      "name": "numWinnersInGame",
      "outputs": [
        {
          "internalType": "uint256",
          "name": "",
          "type": "uint256"
        }
      ],
      "stateMutability": "view",
      "type": "function"
    },
    {
      "inputs": [],
      "name": "owner",
      "outputs": [
        {
          "internalType": "address",
          "name": "",
          "type": "address"
        }
      ],
      "stateMutability": "view",
      "type": "function"
    },
    {
      "inputs": [
        {
          "internalType": "uint256",
          "name": "tokenId",
          "type": "uint256"
        }
      ],
      "name": "ownerOf",
      "outputs": [
        {
          "internalType": "address",
          "name": "",
          "type": "address"
        }
      ],
      "stateMutability": "view",
      "type": "function"
    },
    {
      "inputs": [
        {
          "components": [
            {
              "internalType": "address",
              "name": "whomst",
              "type": "address"
            },
            {
              "internalType": "uint8[]",
              "name": "pick",
              "type": "uint8[]"
            }
          ],
          "internalType": "struct ILootery.Ticket[]",
          "name": "tickets",
          "type": "tuple[]"
        }
      ],
      "name": "ownerPick",
      "outputs": [],
      "stateMutability": "nonpayable",
      "type": "function"
    },
    {
      "inputs": [],
      "name": "pickLength",
      "outputs": [
        {
          "internalType": "uint8",
          "name": "",
          "type": "uint8"
        }
      ],
      "stateMutability": "view",
      "type": "function"
    },
    {
      "inputs": [],
      "name": "prizeToken",
      "outputs": [
        {
          "internalType": "address",
          "name": "",
          "type": "address"
        }
      ],
      "stateMutability": "view",
      "type": "function"
    },
    {
      "inputs": [
        {
          "components": [
            {
              "internalType": "address",
              "name": "whomst",
              "type": "address"
            },
            {
              "internalType": "uint8[]",
              "name": "pick",
              "type": "uint8[]"
            }
          ],
          "internalType": "struct ILootery.Ticket[]",
          "name": "tickets",
          "type": "tuple[]"
        },
        {
          "internalType": "address",
          "name": "beneficiary",
          "type": "address"
        }
      ],
      "name": "purchase",
      "outputs": [],
      "stateMutability": "nonpayable",
      "type": "function"
    },
    {
      "inputs": [
        {
          "internalType": "uint256",
          "name": "tokenId",
          "type": "uint256"
        }
      ],
      "name": "purchasedTickets",
      "outputs": [
        {
          "internalType": "uint256",
          "name": "gameId",
          "type": "uint256"
        },
        {
          "internalType": "uint256",
          "name": "pickId",
          "type": "uint256"
        }
      ],
      "stateMutability": "view",
      "type": "function"
    },
    {
      "inputs": [],
      "name": "randomiser",
      "outputs": [
        {
          "internalType": "address",
          "name": "",
          "type": "address"
        }
      ],
      "stateMutability": "view",
      "type": "function"
    },
    {
      "inputs": [],
      "name": "randomnessRequest",
      "outputs": [
        {
          "internalType": "uint208",
          "name": "requestId",
          "type": "uint208"
        },
        {
          "internalType": "uint48",
          "name": "timestamp",
          "type": "uint48"
        }
      ],
      "stateMutability": "view",
      "type": "function"
    },
    {
      "inputs": [
        {
          "internalType": "uint256",
          "name": "requestId",
          "type": "uint256"
        },
        {
          "internalType": "uint256[]",
          "name": "randomWords",
          "type": "uint256[]"
        }
      ],
      "name": "receiveRandomWords",
      "outputs": [],
      "stateMutability": "nonpayable",
      "type": "function"
    },
    {
      "inputs": [],
      "name": "renounceOwnership",
      "outputs": [],
      "stateMutability": "nonpayable",
      "type": "function"
    },
    {
      "inputs": [],
      "name": "rescueETH",
      "outputs": [],
      "stateMutability": "nonpayable",
      "type": "function"
    },
    {
      "inputs": [
        {
          "internalType": "address",
          "name": "tokenAddress",
          "type": "address"
        }
      ],
      "name": "rescueTokens",
      "outputs": [],
      "stateMutability": "nonpayable",
      "type": "function"
    },
    {
      "inputs": [
        {
          "internalType": "address",
          "name": "from",
          "type": "address"
        },
        {
          "internalType": "address",
          "name": "to",
          "type": "address"
        },
        {
          "internalType": "uint256",
          "name": "tokenId",
          "type": "uint256"
        }
      ],
      "name": "safeTransferFrom",
      "outputs": [],
      "stateMutability": "nonpayable",
      "type": "function"
    },
    {
      "inputs": [
        {
          "internalType": "address",
          "name": "from",
          "type": "address"
        },
        {
          "internalType": "address",
          "name": "to",
          "type": "address"
        },
        {
          "internalType": "uint256",
          "name": "tokenId",
          "type": "uint256"
        },
        {
          "internalType": "bytes",
          "name": "data",
          "type": "bytes"
        }
      ],
      "name": "safeTransferFrom",
      "outputs": [],
      "stateMutability": "nonpayable",
      "type": "function"
    },
    {
      "inputs": [
        {
          "internalType": "uint256",
          "name": "value",
          "type": "uint256"
        }
      ],
      "name": "seedJackpot",
      "outputs": [],
      "stateMutability": "nonpayable",
      "type": "function"
    },
    {
      "inputs": [],
      "name": "seedJackpotDelay",
      "outputs": [
        {
          "internalType": "uint256",
          "name": "",
          "type": "uint256"
        }
      ],
      "stateMutability": "view",
      "type": "function"
    },
    {
      "inputs": [],
      "name": "seedJackpotMinValue",
      "outputs": [
        {
          "internalType": "uint256",
          "name": "",
          "type": "uint256"
        }
      ],
      "stateMutability": "view",
      "type": "function"
    },
    {
      "inputs": [
        {
          "internalType": "address",
          "name": "operator",
          "type": "address"
        },
        {
          "internalType": "bool",
          "name": "approved",
          "type": "bool"
        }
      ],
      "name": "setApprovalForAll",
      "outputs": [],
      "stateMutability": "nonpayable",
      "type": "function"
    },
    {
      "inputs": [
        {
          "internalType": "address",
          "name": "beneficiary",
          "type": "address"
        },
        {
          "internalType": "string",
          "name": "displayName",
          "type": "string"
        },
        {
          "internalType": "bool",
          "name": "isBeneficiary",
          "type": "bool"
        }
      ],
      "name": "setBeneficiary",
      "outputs": [
        {
          "internalType": "bool",
          "name": "didMutate",
          "type": "bool"
        }
      ],
      "stateMutability": "nonpayable",
      "type": "function"
    },
    {
      "inputs": [
        {
          "internalType": "uint256",
          "name": "newCallbackGasLimit",
          "type": "uint256"
        }
      ],
      "name": "setCallbackGasLimit",
      "outputs": [],
      "stateMutability": "nonpayable",
      "type": "function"
    },
    {
      "inputs": [
        {
          "internalType": "address",
          "name": "renderer",
          "type": "address"
        }
      ],
      "name": "setTicketSVGRenderer",
      "outputs": [],
      "stateMutability": "nonpayable",
      "type": "function"
    },
    {
      "inputs": [
        {
          "internalType": "bytes4",
          "name": "interfaceId",
          "type": "bytes4"
        }
      ],
      "name": "supportsInterface",
      "outputs": [
        {
          "internalType": "bool",
          "name": "",
          "type": "bool"
        }
      ],
      "stateMutability": "view",
      "type": "function"
    },
    {
      "inputs": [],
      "name": "symbol",
      "outputs": [
        {
          "internalType": "string",
          "name": "",
          "type": "string"
        }
      ],
      "stateMutability": "view",
      "type": "function"
    },
    {
      "inputs": [],
      "name": "ticketPrice",
      "outputs": [
        {
          "internalType": "uint256",
          "name": "",
          "type": "uint256"
        }
      ],
      "stateMutability": "view",
      "type": "function"
    },
    {
      "inputs": [],
      "name": "ticketSVGRenderer",
      "outputs": [
        {
          "internalType": "address",
          "name": "",
          "type": "address"
        }
      ],
      "stateMutability": "view",
      "type": "function"
    },
    {
      "inputs": [
        {
          "internalType": "uint256",
          "name": "gameId",
          "type": "uint256"
        },
        {
          "internalType": "uint256",
          "name": "id",
          "type": "uint256"
        },
        {
          "internalType": "uint256",
          "name": "",
          "type": "uint256"
        }
      ],
      "name": "tokenByPickIdentity",
      "outputs": [
        {
          "internalType": "uint256",
          "name": "",
          "type": "uint256"
        }
      ],
      "stateMutability": "view",
      "type": "function"
    },
    {
      "inputs": [
        {
          "internalType": "uint256",
          "name": "tokenId",
          "type": "uint256"
        }
      ],
      "name": "tokenURI",
      "outputs": [
        {
          "internalType": "string",
          "name": "",
          "type": "string"
        }
      ],
      "stateMutability": "view",
      "type": "function"
    },
    {
      "inputs": [],
      "name": "totalSupply",
      "outputs": [
        {
          "internalType": "uint256",
          "name": "",
          "type": "uint256"
        }
      ],
      "stateMutability": "view",
      "type": "function"
    },
    {
      "inputs": [
        {
          "internalType": "address",
          "name": "from",
          "type": "address"
        },
        {
          "internalType": "address",
          "name": "to",
          "type": "address"
        },
        {
          "internalType": "uint256",
          "name": "tokenId",
          "type": "uint256"
        }
      ],
      "name": "transferFrom",
      "outputs": [],
      "stateMutability": "nonpayable",
      "type": "function"
    },
    {
      "inputs": [
        {
          "internalType": "address",
          "name": "newOwner",
          "type": "address"
        }
      ],
      "name": "transferOwnership",
      "outputs": [],
      "stateMutability": "nonpayable",
      "type": "function"
    },
    {
      "inputs": [],
      "name": "unclaimedPayouts",
      "outputs": [
        {
          "internalType": "uint256",
          "name": "",
          "type": "uint256"
        }
      ],
      "stateMutability": "view",
      "type": "function"
    },
    {
      "inputs": [],
      "name": "withdrawAccruedFees",
      "outputs": [],
      "stateMutability": "nonpayable",
      "type": "function"
    },
    {
      "stateMutability": "payable",
      "type": "receive"
    }
  ],
  "bytecode": "0x60806040526207a120600955348015601657600080fd5b50601d6021565b60d1565b7ff0c57e16840df040f15088dc2f81fe391c3923bec73e23a9662efc9c229c6a00805468010000000000000000900460ff161560705760405163f92ee8a960e01b815260040160405180910390fd5b80546001600160401b039081161460ce5780546001600160401b0319166001600160401b0390811782556040519081527fc7f505b2f371ae2175ee4913f4499e1f2633a7b5936321eed1cdaeb6115181d29060200160405180910390a15b50565b6154cf806100e06000396000f3fe6080604052600436106103b05760003560e01c8063677bd9ff116101e7578063ab69dd081161010d578063ccaf237f116100a0578063e02ae8ce1161006f578063e02ae8ce14610b52578063e985e9c514610ba9578063efe2f0eb14610c11578063f2fde38b14610c5a57600080fd5b8063ccaf237f14610a8b578063ccb46bd714610afc578063d0ef024a14610b1c578063d20831af14610b3c57600080fd5b8063b88d4fde116100dc578063b88d4fde14610a15578063be37822814610a35578063c45a015514610a4b578063c87b56dd14610a6b57600080fd5b8063ab69dd08146109aa578063acef672b146109ca578063ada82c7d146109ea578063ae466313146109ff57600080fd5b80638bba0174116101855780639ab6e297116101545780639ab6e2971461093e578063a0c4615c14610954578063a14916d914610974578063a22cb4651461098a57600080fd5b80638bba0174146108b65780638da5cb5b146108cc5780638e84f4b61461090957806395d89b411461092957600080fd5b8063715018a6116101c1578063715018a61461084057806382250a431461085557806384bc6a24146108755780638a54942f1461089657600080fd5b8063677bd9ff146107ea5780636b31ee011461080a57806370a082311461082057600080fd5b806324f74697116102d7578063463d7b1a1161026a57806360b663bb1161023957806360b663bb146107585780636160c00c1461079057806362ff220f146107aa5780636352211e146107ca57600080fd5b8063463d7b1a146106e05780634ea217c41461070d57806354dd386c14610722578063586a19d91461073857600080fd5b80633af37a55116102a65780633af37a55146106535780633b47492d1461068b57806341c0e1b5146106ab57806342842e0e146106c057600080fd5b806324f74697146105dd5780632efb2d41146105f3578063336f528a1461061357806338aeb8361461063357600080fd5b80630c0ef2b01161034f57806318575c0c1161031e57806318575c0c146105525780631d29bd5a1461058557806320800a00146105a857806323b872dd146105bd57600080fd5b80630c0ef2b0146105095780630eecae211461051e5780631209b1f61461052657806318160ddd1461053c57600080fd5b806302950fb91161038b57806302950fb91461046f57806306fdde031461048f578063081812fc146104b1578063095ea7b3146104e957600080fd5b8062ae3bf8146103f45780630171984b1461041657806301ffc9a71461043f57600080fd5b366103ef57604080513381523460208201527f88a5966d370b9919b20f3e2c13ff65706f196a4e32cc2c12bf57088f88525874910160405180910390a1005b600080fd5b34801561040057600080fd5b5061041461040f3660046146b2565b610c7a565b005b34801561042257600080fd5b5061042c60055481565b6040519081526020015b60405180910390f35b34801561044b57600080fd5b5061045f61045a3660046146e5565b610e18565b6040519015158152602001610436565b34801561047b57600080fd5b5061041461048a366004614702565b610e9c565b34801561049b57600080fd5b506104a4610ff9565b604051610436919061476b565b3480156104bd57600080fd5b506104d16104cc366004614702565b6110af565b6040516001600160a01b039091168152602001610436565b3480156104f557600080fd5b5061041461050436600461477e565b6110f7565b34801561051557600080fd5b5061045f611106565b610414611128565b34801561053257600080fd5b5061042c60045481565b34801561054857600080fd5b5061042c600a5481565b34801561055e57600080fd5b5060005461057390600160a81b900460ff1681565b60405160ff9091168152602001610436565b34801561059157600080fd5b5061059a6114c9565b6040516104369291906147aa565b3480156105b457600080fd5b50610414611625565b3480156105c957600080fd5b506104146105d8366004614855565b6116db565b3480156105e957600080fd5b5061042c60095481565b3480156105ff57600080fd5b506008546104d1906001600160a01b031681565b34801561061f57600080fd5b506002546104d1906001600160a01b031681565b34801561063f57600080fd5b5061042c61064e366004614896565b61177f565b34801561065f57600080fd5b5061042c61066e3660046148c2565b600091825260116020908152604080842092845291905290205490565b34801561069757600080fd5b5061042c6106a63660046148c2565b6117bd565b3480156106b757600080fd5b506104146117ee565b3480156106cc57600080fd5b506104146106db366004614855565b611882565b3480156106ec57600080fd5b506107006106fb366004614702565b61189d565b6040516104369190614923565b34801561071957600080fd5b5061042c6118c1565b34801561072e57600080fd5b5061042c60075481565b34801561074457600080fd5b50610700610753366004614702565b611951565b34801561076457600080fd5b50600b546107829060ff81169061010090046001600160f81b031682565b60405161043692919061496e565b34801561079c57600080fd5b5060145461045f9060ff1681565b3480156107b657600080fd5b506104146107c53660046149de565b61196b565b3480156107d657600080fd5b506104d16107e5366004614702565b611c5a565b3480156107f657600080fd5b5061042c610805366004614702565b611c65565b34801561081657600080fd5b5061042c600c5481565b34801561082c57600080fd5b5061042c61083b3660046146b2565b612016565b34801561084c57600080fd5b5061041461209d565b34801561086157600080fd5b506104146108703660046146b2565b6120b1565b34801561088157600080fd5b5060005461057390600160a01b900460ff1681565b3480156108a257600080fd5b506104146108b1366004614702565b6120c5565b3480156108c257600080fd5b5061042c60065481565b3480156108d857600080fd5b507f9016d09d72d40fdae2fd8ceac6b6234c7706214fd39c1cd1e609a0528c199300546001600160a01b03166104d1565b34801561091557600080fd5b506104a46109243660046146b2565b612108565b34801561093557600080fd5b506104a46121a2565b34801561094a57600080fd5b5061042c600d5481565b34801561096057600080fd5b5061041461096f366004614a35565b6121f3565b34801561098057600080fd5b5061042c60135481565b34801561099657600080fd5b506104146109a5366004614a8f565b6123d3565b3480156109b657600080fd5b506104146109c5366004614ac8565b6123de565b3480156109d657600080fd5b506104146109e5366004614c12565b6123f0565b3480156109f657600080fd5b5061041461293e565b348015610a0b57600080fd5b5061042c60015481565b348015610a2157600080fd5b50610414610a30366004614d50565b61299e565b348015610a4157600080fd5b5061042c6101f481565b348015610a5757600080fd5b506000546104d1906001600160a01b031681565b348015610a7757600080fd5b506104a4610a86366004614702565b6129b5565b348015610a9757600080fd5b50610ad5610aa6366004614702565b6010602052600090815260409020805460019091015467ffffffffffffffff80831692600160401b9004169083565b6040805167ffffffffffffffff948516815293909216602084015290820152606001610436565b348015610b0857600080fd5b5061045f610b17366004614dd0565b612a75565b348015610b2857600080fd5b506003546104d1906001600160a01b031681565b348015610b4857600080fd5b5061042c60155481565b348015610b5e57600080fd5b50600e54610b83906001600160d01b03811690600160d01b900465ffffffffffff1682565b604080516001600160d01b03909316835265ffffffffffff909116602083015201610436565b348015610bb557600080fd5b5061045f610bc4366004614e6a565b6001600160a01b0391821660009081527f80bb2b638cc20bc4d0a60d66940f3ab4a00c1d7b313497ca82fb0b4ab00793056020908152604080832093909416825291909152205460ff1690565b348015610c1d57600080fd5b50610c45610c2c366004614702565b600f602052600090815260409020805460019091015482565b60408051928352602083019190915201610436565b348015610c6657600080fd5b50610414610c753660046146b2565b612bb1565b610c82612c05565b6040517f70a082310000000000000000000000000000000000000000000000000000000081523060048201526000906001600160a01b038316906370a0823190602401602060405180830381865afa158015610ce2573d6000803e3d6000fd5b505050506040513d601f19601f82011682018060405250810190610d069190614e98565b600b5460035491925061010090046001600160f81b0316906001600160a01b0390811690841603610dff57600081118015610d855750600b54601090600090610d5f9060019061010090046001600160f81b0316614ec7565b6001600160f81b0316815260208101919091526040016000205467ffffffffffffffff16155b8015610da757506003600b5460ff166003811115610da557610da5614936565b145b15610dc05760006013819055600d819055600c55610dff565b6000600c54600d54601354610dd59190614ee6565b610ddf9190614ee6565b905080831015610df157610df1614ef9565b610dfb8184614f0f565b9250505b610e136001600160a01b0384163384612c79565b505050565b60006001600160e01b031982167f80ac58cd000000000000000000000000000000000000000000000000000000001480610e7b57506001600160e01b031982167f5b5e139f00000000000000000000000000000000000000000000000000000000145b80610e9657506301ffc9a760e01b6001600160e01b03198316145b92915050565b600180600b5460ff166003811115610eb657610eb6614936565b14610ee457600b54604051632812aa8760e01b8152610edb9160ff1690600401614f22565b60405180910390fd5b600754821015610f23576040517f7b47632100000000000000000000000000000000000000000000000000000000815260048101839052602401610edb565b600654601554610f339190614ee6565b421015610f8a5742600654601554610f4b9190614ee6565b610f559190614f0f565b6040517ff015865e000000000000000000000000000000000000000000000000000000008152600401610edb91815260200190565b4260158190555081600c6000828254610fa39190614ee6565b9091555050600354610fc0906001600160a01b0316333085612ced565b60405182815233907f0a45ec0e27527fa1519b691bab30b4fedbc1da4b3d04ba9d3663f1696be541049060200160405180910390a25050565b7f80bb2b638cc20bc4d0a60d66940f3ab4a00c1d7b313497ca82fb0b4ab0079300805460609190819061102b90614f30565b80601f016020809104026020016040519081016040528092919081815260200182805461105790614f30565b80156110a45780601f10611079576101008083540402835291602001916110a4565b820191906000526020600020905b81548152906001019060200180831161108757829003601f168201915b505050505091505090565b60006110ba82612d26565b5060008281527f80bb2b638cc20bc4d0a60d66940f3ab4a00c1d7b313497ca82fb0b4ab007930460205260409020546001600160a01b0316610e96565b611102828233612d7e565b5050565b60006003600b5460ff16600381111561112157611121614936565b1415905090565b600180600b5460ff16600381111561114257611142614936565b1461116757600b54604051632812aa8760e01b8152610edb9160ff1690600401614f22565b600b5461010090046001600160f81b031660009081526010602090815260408083208151606081018352815467ffffffffffffffff8082168352600160401b9091041693810184905260019182015492810192909252549092916111cb9190614ee6565b90508042101561120a576040517f3fa5f83f00000000000000000000000000000000000000000000000000000000815260048101829052602401610edb565b815167ffffffffffffffff1660000361126157600b546040516101009091046001600160f81b0316907ff6ca837b06142a107fde1fb0f9c3379c6d079aa7fa4de4437961f3eb6182221490600090a2610e13612d8b565b600b805460ff1916600217905560006112786118c1565b90508034111561134557600061128e8234614f0f565b9050600080336001600160a01b03168360405160006040518083038185875af1925050503d80600081146112de576040519150601f19603f3d011682016040523d82523d6000602084013e6112e3565b606091505b50915091508161130c573383826040516359ed55cf60e01b8152600401610edb93929190614f64565b60405183815233907f2c003babc9bab745cd44b6d4ba45ddf77bdbda4a59d52e1fc805dfb0d8895c7e9060200160405180910390a25050505b80471015611388576040517f96fbe4dd00000000000000000000000000000000000000000000000000000000815247600482015260248101829052604401610edb565b6002546000906001600160a01b0316631f53cf04836113a842601e614ee6565b6009546040516001600160e01b031960e086901b1681526004810192909252602482015260440160206040518083038185885af11580156113ed573d6000803e3d6000fd5b50505050506040513d601f19601f820116820180604052508101906114129190614e98565b90506001600160d01b03811115611458576040517fa6110e8400000000000000000000000000000000000000000000000000000000815260048101829052602401610edb565b6040805180820182526001600160d01b0383168082524265ffffffffffff166020928301819052600160d01b81028217600e558351918252918101919091527f71c56b2f279c00b585c2a62bd64c9206bd1c7f032649b2e863edd255d9ab621f910160405180910390a15050505050565b6060806114d66016613098565b9150815167ffffffffffffffff8111156114f2576114f2614b0a565b60405190808252806020026020018201604052801561152557816020015b60608152602001906001900390816115105790505b50905060005b8251811015611620576018600084838151811061154a5761154a614f95565b60200260200101516001600160a01b03166001600160a01b03168152602001908152602001600020805461157d90614f30565b80601f01602080910402602001604051908101604052809291908181526020018280546115a990614f30565b80156115f65780601f106115cb576101008083540402835291602001916115f6565b820191906000526020600020905b8154815290600101906020018083116115d957829003601f168201915b505050505082828151811061160d5761160d614f95565b602090810291909101015260010161152b565b509091565b61162d612c05565b60405147906000908190339084908381818185875af1925050503d8060008114611673576040519150601f19603f3d011682016040523d82523d6000602084013e611678565b606091505b5091509150816116a1573383826040516359ed55cf60e01b8152600401610edb93929190614f64565b60405183815233907f9c3cc23d5256459e240b53f903b58777839d0f7784189d876864a2fecd9415a29060200160405180910390a2505050565b6001600160a01b03821661170557604051633250574960e11b815260006004820152602401610edb565b60006117128383336130ac565b9050836001600160a01b0316816001600160a01b031614611779576040517f64283d7b0000000000000000000000000000000000000000000000000000000081526001600160a01b0380861660048301526024820184905282166044820152606401610edb565b50505050565b601160205282600052604060002060205281600052604060002081815481106117a757600080fd5b9060005260206000200160009250925050505481565b601260205281600052604060002081815481106117d957600080fd5b90600052602060002001600091509150505481565b6117f6612c05565b600180600b5460ff16600381111561181057611810614936565b1461183557600b54604051632812aa8760e01b8152610edb9160ff1690600401614f22565b60145460ff1615611872576040517fe76abfdd00000000000000000000000000000000000000000000000000000000815260040160405180910390fd5b506014805460ff19166001179055565b610e138383836040518060200160405280600081525061299e565b600054606090610e969060ff600160a01b8204811691600160a81b900416846131ed565b6002546009546040517f10b0d1d200000000000000000000000000000000000000000000000000000000815260048101919091526000916001600160a01b0316906310b0d1d290602401602060405180830381865afa158015611928573d6000803e3d6000fd5b505050506040513d601f19601f8201168201806040525081019061194c9190614e98565b905090565b600054606090610e9690600160a01b900460ff1683613296565b60008290036119a6576040517fc01b5d3b00000000000000000000000000000000000000000000000000000000815260040160405180910390fd5b60045482906000906119b9908390614fab565b6003549091506119d4906001600160a01b0316333084612ced565b6000612710600554836119e79190614fab565b6119f19190614fc2565b905060008060009054906101000a90046001600160a01b03166001600160a01b0316634ccb20c06040518163ffffffff1660e01b8152600401602060405180830381865afa158015611a47573d6000803e3d6000fd5b505050506040513d601f19601f82011682018060405250810190611a6b9190614fe4565b905060006001600160a01b03821615611a9c57612710611a8d6101f486614fab565b611a979190614fc2565b611a9f565b60005b9050600081611aae8587614f0f565b611ab89190614f0f565b600b5490915061010090046001600160f81b03166001600160a01b038816611af7578460136000828254611aec9190614ee6565b90915550611b5a9050565b611b02601689613350565b611b43576040517ffce398aa0000000000000000000000000000000000000000000000000000000081526001600160a01b0389166004820152602401610edb565b600354611b5a906001600160a01b03168987612c79565b6001600160a01b03881615611b6f5787611b71565b305b6001600160a01b0316817f1efc214ec14d081e74ac22debc8d48a010f4f1f30ad4733c94e7c38ff90038e287604051611bac91815260200190565b60405180910390a36001600160a01b03841615801590611bcc5750600083115b15611c2c57600354611be8906001600160a01b03168585612c79565b836001600160a01b03167fb87e607f6030a23ed9b7dac1a717610f3a3b07325269f18808ba763bdcefe7ae84604051611c2391815260200190565b60405180910390a25b81600c6000828254611c3e9190614ee6565b90915550611c4e90508a8a613372565b50505050505050505050565b6000610e9682612d26565b60006001600b5460ff166003811115611c8057611c80614936565b14158015611ca557506003600b5460ff166003811115611ca257611ca2614936565b14155b15611cca57600b54604051632812aa8760e01b8152610edb9160ff1690600401614f22565b60008281527f80bb2b638cc20bc4d0a60d66940f3ab4a00c1d7b313497ca82fb0b4ab007930260205260409020546001600160a01b031680611d2257604051637e27328960e01b815260048101849052602401610edb565b611d2b836137de565b6000838152600f602090815260409182902082518084019093528054835260019081015491830191909152600b5461010090046001600160f81b031690611d729082614f0f565b825114611dae576040517f2506adb500000000000000000000000000000000000000000000000000000000815260048101869052602401610edb565b815160009081526010602090815260408083208151606081018352815467ffffffffffffffff8082168352600160401b90910416818501526001909101548183018190528651855260118452828520818652845282852054875186526012909452919093205490919081158015611e3b57506003600b5460ff166003811115611e3957611e39614936565b145b15611f03578351611e5790829067ffffffffffffffff16614f0f565b600d54611e649190614fc2565b975087600d6000828254611e789190614f0f565b90915550508551600090815260126020908152604082208054600181018255908352912001899055600354611eb7906001600160a01b0316888a612c79565b8551604080516001600160a01b038a168152602081018b90528b917f1526f29dc67f9d8967789be9aa23179c7826c4a1c063c5834b5c4c495aaa07cb91015b60405180910390a361200a565b85602001518303611fcb5760008211611f1e57611f1e614ef9565b611f288183614f0f565b600d54611f359190614fc2565b975087600d6000828254611f499190614f0f565b90915550508551600090815260126020908152604082208054600181018255908352912001899055600354611f88906001600160a01b0316888a612c79565b8551604080516001600160a01b038a168152602081018b90528b917f38eb4599d8dccd3edd335a3f80fea5dbaae4b6cb0db2866060f333f6796db3239101611ef6565b602080870151604080519182529181018590527f6ddaa595bb3e06c0ff457cddbaa35f1efddea1202d86286c56b6af33f6a8cc22910160405180910390a15b50505050505050919050565b60007f80bb2b638cc20bc4d0a60d66940f3ab4a00c1d7b313497ca82fb0b4ab00793006001600160a01b03831661207c576040517f89c62b6400000000000000000000000000000000000000000000000000000000815260006004820152602401610edb565b6001600160a01b039092166000908152600390920160205250604090205490565b6120a5612c05565b6120af6000613819565b565b6120b9612c05565b6120c28161388a565b50565b6120cd612c05565b60098190556040518181527fea0306c7b92bfad18ad155350fb250f350724d4e5c843eeb51997be9f937c3509060200160405180910390a150565b6018602052600090815260409020805461212190614f30565b80601f016020809104026020016040519081016040528092919081815260200182805461214d90614f30565b801561219a5780601f1061216f5761010080835404028352916020019161219a565b820191906000526020600020905b81548152906001019060200180831161217d57829003601f168201915b505050505081565b7f80bb2b638cc20bc4d0a60d66940f3ab4a00c1d7b313497ca82fb0b4ab007930180546060917f80bb2b638cc20bc4d0a60d66940f3ab4a00c1d7b313497ca82fb0b4ab00793009161102b90614f30565b600280600b5460ff16600381111561220d5761220d614936565b1461223257600b54604051632812aa8760e01b8152610edb9160ff1690600401614f22565b6002546001600160a01b03163314612278576040517f01c09680000000000000000000000000000000000000000000000000000000008152336004820152602401610edb565b60008290036122b3576040517fbfa32be300000000000000000000000000000000000000000000000000000000815260040160405180910390fd5b600e546001600160d01b0316841461230d57600e546040517faae75cf6000000000000000000000000000000000000000000000000000000008152600481018690526001600160d01b039091166024820152604401610edb565b6040805180820190915260008082526020909101819052600e8190556123488484838161233c5761233c614f95565b9050602002013561189d565b600b5460405191925061010090046001600160f81b0316907f4a2c5dc61d8caf543cef0b699bd08678003186170a4fff91cb694c4d9c1bdcad9061238f9083908590615001565b60405180910390a160006123a28361398e565b6001600160f81b038316600090815260106020526040902060010181905590506123ca612d8b565b50505050505050565b6111023383836139d4565b6123e6612c05565b6111028282613372565b7ff0c57e16840df040f15088dc2f81fe391c3923bec73e23a9662efc9c229c6a008054600160401b810460ff16159067ffffffffffffffff166000811580156124365750825b905060008267ffffffffffffffff1660011480156124535750303b155b905081158015612461575080155b15612498576040517ff92ee8a900000000000000000000000000000000000000000000000000000000815260040160405180910390fd5b845467ffffffffffffffff1916600117855583156124c757845468ff00000000000000001916600160401b1785555b85516124d290613ab0565b6124e486602001518760400151613ac1565b600080546001600160a01b03191633179055606086015160ff16158061251157506020866060015160ff16115b1561253a57606086015160405163114e92d560e01b815260ff9091166004820152602401610edb565b6060860151600080547fffffffffffffffffffffff00ffffffffffffffffffffffffffffffffffffffff16600160a01b60ff93841690810291909117909155608088015190911610156125c45760808601516040517f6973f43c00000000000000000000000000000000000000000000000000000000815260ff9091166004820152602401610edb565b8560800151600060156101000a81548160ff021916908360ff1602179055506102588660a00151101561262b578560a001516040517faf0b9fe1000000000000000000000000000000000000000000000000000000008152600401610edb91815260200190565b60a086015160015560c0860151600003612679578560c001516040517fb05276a5000000000000000000000000000000000000000000000000000000008152600401610edb91815260200190565b60c086015160045560e086015161271090612697906101f490614ee6565b11156126cf576040517f64e1115400000000000000000000000000000000000000000000000000000000815260040160405180910390fd5b60e08601516005556101008601516001600160a01b031661272e576101008601516040517f5e280fa50000000000000000000000000000000000000000000000000000000081526001600160a01b039091166004820152602401610edb565b610100860151600280546001600160a01b0319166001600160a01b039283161790556101208701511661279f576101208601516040517f4d05c0480000000000000000000000000000000000000000000000000000000081526001600160a01b039091166004820152602401610edb565b610120860151600380546001600160a01b0319166001600160a01b03909216919091179055610140860151600681905561016087015160075515806127e45750600754155b1561282a576006546007546040517f0758bd7700000000000000000000000000000000000000000000000000000000815260048101929092526024820152604401610edb565b61283886610180015161388a565b600b8054600160ff199091161790556040805160608101825260008082524267ffffffffffffffff9081166020808501918252948401838152928052601090945291517f6e0956cda88cad152e89927e53611735b61a5c762d1428573c6931b0a5efcb01805494518416600160401b026fffffffffffffffffffffffffffffffff199095169190931617929092179055517f6e0956cda88cad152e89927e53611735b61a5c762d1428573c6931b0a5efcb0255831561293657845468ff000000000000000019168555604051600181527fc7f505b2f371ae2175ee4913f4499e1f2633a7b5936321eed1cdaeb6115181d29060200160405180910390a15b505050505050565b612946612c05565b601380546000909155600354612966906001600160a01b03163383612c79565b60405181815233907f3f9a693150e48179f93c02c3ec37f52f8280a293b6096e6f5496c22f315b77c29060200160405180910390a250565b6129a98484846116db565b61177984848484613ad3565b60606129c082612d26565b506008546001600160a01b0316636de319746129da610ff9565b60008054868252600f602052604090912060010154869160ff600160a81b8204811692612a1192600160a01b900490911690613296565b6040518563ffffffff1660e01b8152600401612a309493929190615023565b600060405180830381865afa158015612a4d573d6000803e3d6000fd5b505050506040513d6000823e601f3d908101601f19168201604052610e969190810190615062565b6000612a7f612c05565b8115612b40576000839003612ac0576040517f7f643eca00000000000000000000000000000000000000000000000000000000815260040160405180910390fd5b6001600160a01b0385166000908152601860205260409020612ae3848683615117565b50612aef601686613bfc565b90508015612b3b57846001600160a01b03167fbd793e14f2ef74a7a875db560b865f09db4c686288570de877a4c9c33e6dae478585604051612b329291906151d7565b60405180910390a25b612ba9565b612b4b601686613c11565b90508015612ba9576001600160a01b0385166000908152601860205260408120612b749161463f565b6040516001600160a01b038616907f72977dad29432f655f11c2f0e72ef5124bb9ade7a512fb7a43a9f504df22342890600090a25b949350505050565b612bb9612c05565b6001600160a01b038116612bfc576040517f1e4fbdf700000000000000000000000000000000000000000000000000000000815260006004820152602401610edb565b6120c281613819565b33612c377f9016d09d72d40fdae2fd8ceac6b6234c7706214fd39c1cd1e609a0528c199300546001600160a01b031690565b6001600160a01b0316146120af576040517f118cdaa7000000000000000000000000000000000000000000000000000000008152336004820152602401610edb565b6040516001600160a01b03838116602483015260448201839052610e1391859182169063a9059cbb906064015b604051602081830303815290604052915060e01b6020820180517bffffffffffffffffffffffffffffffffffffffffffffffffffffffff8381831617835250505050613c26565b6040516001600160a01b0384811660248301528381166044830152606482018390526117799186918216906323b872dd90608401612ca6565b60008181527f80bb2b638cc20bc4d0a60d66940f3ab4a00c1d7b313497ca82fb0b4ab007930260205260408120546001600160a01b031680610e9657604051637e27328960e01b815260048101849052602401610edb565b610e138383836001613ca2565b6003600b5460ff166003811115612da457612da4614936565b03612db157612db1614ef9565b600b546014546101009091046001600160f81b03169060009060ff1615612dda57506003612dde565b5060015b6040518060400160405280826003811115612dfb57612dfb614936565b8152602001612e0b846001615206565b6001600160f81b031690528051600b8054909190829060ff19166001836003811115612e3957612e39614936565b021790555060209182015181546001600160f81b039091166101000260ff9091161790556040805160608101825260008082524267ffffffffffffffff169382019390935290810182905290601090612e93856001615206565b6001600160f81b03908116825260208083019390935260409182016000908120855181548787015167ffffffffffffffff908116600160401b026fffffffffffffffffffffffffffffffff19909216921691909117178155948301516001958601559086168152601083528181209093015460118352818420818552909252822054600d54600c54929391929091839003613022576003856003811115612f3c57612f3c614936565b03612fb657600080612f4e8385614ee6565b6000600c55600d8190556040805186815260208101869052908101829052606081018490529091506001600160f81b038916907f59a23cf10d003eab0c59d7c706e3b4b20aeddabe02c2ae924bd12cfb8c3e4b64906080015b60405180910390a25050612936565b6000612fc28284614ee6565b600c8190556000600d819055604080518681526020810186905290810182905260608101839052919250906001600160f81b038916907f59a23cf10d003eab0c59d7c706e3b4b20aeddabe02c2ae924bd12cfb8c3e4b6490608001612fa7565b600061302e8383614ee6565b600d8190556000600c81905560408051868152602081018690528082018490526060810192909252519192506001600160f81b038916917f59a23cf10d003eab0c59d7c706e3b4b20aeddabe02c2ae924bd12cfb8c3e4b649181900360800190a250505050505050565b606060006130a583613e21565b9392505050565b60008281527f80bb2b638cc20bc4d0a60d66940f3ab4a00c1d7b313497ca82fb0b4ab007930260205260408120547f80bb2b638cc20bc4d0a60d66940f3ab4a00c1d7b313497ca82fb0b4ab0079300906001600160a01b039081169084161561311a5761311a818587613e7d565b6001600160a01b0381161561315a57613137600086600080613ca2565b6001600160a01b0381166000908152600383016020526040902080546000190190555b6001600160a01b0386161561318b576001600160a01b03861660009081526003830160205260409020805460010190555b600085815260028301602052604080822080546001600160a01b0319166001600160a01b038a811691821790925591518893918516917fddf252ad1be2c89b69c2b068fc378daa952ba7f163c4a11628f55a4df523b3ef91a495945050505050565b60608360ff1667ffffffffffffffff81111561320b5761320b614b0a565b604051908082528060200260200182016040528015613234578160200160208202803683370190505b50905060005b8460ff1681101561328c57613255818560ff1685600c613efa565b613260906001614ee6565b82828151811061327257613272614f95565b60ff9092166020928302919091019091015260010161323a565b50612ba981614056565b60608260ff1667ffffffffffffffff8111156132b4576132b4614b0a565b6040519080825280602002602001820160405280156132dd578160200160208202803683370190505b5090506000805b61010081101561334857600184821c811614801561332f5781848461330881615225565b95508151811061331a5761331a614f95565b602002602001019060ff16908160ff16815250505b8560ff16830361333f5750613348565b506001016132e4565b505092915050565b6001600160a01b038116600090815260018301602052604081205415156130a5565b600180600b5460ff16600381111561338c5761338c614936565b146133b157600b54604051632812aa8760e01b8152610edb9160ff1690600401614f22565b60408051808201909152600b80546000929190829060ff1660038111156133da576133da614936565b60038111156133eb576133eb614936565b8152905461010090046001600160f81b039081166020928301528282015116600081815260108352604090819020815160608082018452825467ffffffffffffffff8082168452600160401b909104169582019590955260019091015481830152815193840190915280519394509092869290819061346b90859061523e565b67ffffffffffffffff90811682526020848101518216818401526040808601519381019390935260008781526010825283812085518154938701518516600160401b026fffffffffffffffffffffffffffffffff1990941694169390931791909117825592909101516001918201558154600a5460ff600160a01b8304811694600160a81b90930416926134ff9190614ee6565b905084600a60008282546135139190614ee6565b90915550600090505b858110156137735760008b8b8381811061353857613538614f95565b905060200281019061354a919061525e565b6135589060208101906146b2565b905060008c8c8481811061356e5761356e614f95565b9050602002810190613580919061525e565b61358e90602081019061527e565b80806020026020016040519081016040528093929190818152602001838360200280828437600092019190915250508251929350505086148015906135d35750805115155b156135f657805160405163114e92d560e01b8152600401610edb91815260200190565b8051156136b7576000805b878110156136b457600083828151811061361d5761361d614f95565b602002602001015190508260ff168160ff161161366857836040517f5f863765000000000000000000000000000000000000000000000000000000008152600401610edb9190614923565b878160ff1611156136aa576040517f9fb72f1700000000000000000000000000000000000000000000000000000000815260ff82166004820152602401610edb565b9150600101613601565b50505b60006136c38486614ee6565b905060006136d08361398e565b6040805180820182528d815260208082018481526000878152600f83528481209351845590516001938401558f815260118252838120858252825283812080549384018155815220018490555190915082906001600160a01b038616908d907f38f7010e1714c2785562f89e75c8d417cb1908bd47a9e84cf5db470ad60c44cf9061375c908890614923565b60405180910390a45050505080600101905061351c565b5060005b858110156137d15760008b8b8381811061379357613793614f95565b90506020028101906137a5919061525e565b6137b39060208101906146b2565b90506137c8816137c38486614ee6565b614165565b50600101613777565b5050505050505050505050565b60006137ed60008360006130ac565b90506001600160a01b03811661110257604051637e27328960e01b815260048101839052602401610edb565b7f9016d09d72d40fdae2fd8ceac6b6234c7706214fd39c1cd1e609a0528c19930080546001600160a01b031981166001600160a01b03848116918217845560405192169182907f8be0079c531659141344cd1fd0a4f28419497f9722a3daafe3b4186f6b6457e090600090a3505050565b60006001600160a01b0382161580159061392757506040516301ffc9a760e01b81527f86ff10540000000000000000000000000000000000000000000000000000000060048201526001600160a01b038316906301ffc9a790602401602060405180830381865afa158015613903573d6000803e3d6000fd5b505050506040513d601f19601f8201168201806040525081019061392791906152c8565b90508061396b576040517f64fd73040000000000000000000000000000000000000000000000000000000081526001600160a01b0383166004820152602401610edb565b50600880546001600160a01b0319166001600160a01b0392909216919091179055565b60008060005b83518110156139cd578381815181106139af576139af614f95565b602002602001015160ff166001901b82179150806001019050613994565b5092915050565b7f80bb2b638cc20bc4d0a60d66940f3ab4a00c1d7b313497ca82fb0b4ab00793006001600160a01b038316613a40576040517f5b08ba180000000000000000000000000000000000000000000000000000000081526001600160a01b0384166004820152602401610edb565b6001600160a01b038481166000818152600584016020908152604080832094881680845294825291829020805460ff191687151590811790915591519182527f17307eab39ab6107e8899845ad3d59bd9653f200f220920489ca2b5937696c31910160405180910390a350505050565b613ab861417f565b6120c2816141e1565b613ac961417f565b61110282826141e9565b6001600160a01b0383163b1561177957604051630a85bd0160e11b81526001600160a01b0384169063150b7a0290613b159033908890879087906004016152e5565b6020604051808303816000875af1925050508015613b50575060408051601f3d908101601f19168201909252613b4d9181019061531c565b60015b613bb9573d808015613b7e576040519150601f19603f3d011682016040523d82523d6000602084013e613b83565b606091505b508051600003613bb157604051633250574960e11b81526001600160a01b0385166004820152602401610edb565b805181602001fd5b6001600160e01b03198116630a85bd0160e11b14613bf557604051633250574960e11b81526001600160a01b0385166004820152602401610edb565b5050505050565b60006130a5836001600160a01b03841661422c565b60006130a5836001600160a01b03841661427b565b6000613c3b6001600160a01b0384168361436e565b90508051600014158015613c60575080806020019051810190613c5e91906152c8565b155b15610e13576040517f5274afe70000000000000000000000000000000000000000000000000000000081526001600160a01b0384166004820152602401610edb565b7f80bb2b638cc20bc4d0a60d66940f3ab4a00c1d7b313497ca82fb0b4ab00793008180613cd757506001600160a01b03831615155b15613df0576000613ce785612d26565b90506001600160a01b03841615801590613d135750836001600160a01b0316816001600160a01b031614155b8015613d6457506001600160a01b0380821660009081527f80bb2b638cc20bc4d0a60d66940f3ab4a00c1d7b313497ca82fb0b4ab0079305602090815260408083209388168352929052205460ff16155b15613da6576040517fa9fbf51f0000000000000000000000000000000000000000000000000000000081526001600160a01b0385166004820152602401610edb565b8215613dee5784866001600160a01b0316826001600160a01b03167f8c5be1e5ebec7d5bd14f71427d1e84f3dd0314c0f7b2291e5b200ac8c7c3b92560405160405180910390a45b505b600093845260040160205250506040902080546001600160a01b0319166001600160a01b0392909216919091179055565b606081600001805480602002602001604051908101604052809291908181526020018280548015613e7157602002820191906000526020600020905b815481526020019060010190808311613e5d575b50505050509050919050565b613e8883838361437c565b610e13576001600160a01b038316613eb657604051637e27328960e01b815260048101829052602401610edb565b6040517f177e802f0000000000000000000000000000000000000000000000000000000081526001600160a01b038316600482015260248101829052604401610edb565b6000831580613f095750838510155b80613f175750816001166001145b15613f4e576040517ff34cfab600000000000000000000000000000000000000000000000000000000815260040160405180910390fd5b613fa0565b60006003821160018114613f765760018315191615613f7157600191505b613f9a565b829150600160028404015b82811015613f985791506002828404830104613f81565b505b50919050565b613fa984613f53565b6000856002830a1460018114613fe557600183016fffffffffffffffffffffffffffffffff811115613fda57600080fd5b6002900a9150613fe9565b8691505b50613ff381613f53565b915050604051608081016040528460408201528560608201525b81870682880460005b8681101561403d578184526020840181905260808420919290910184900690600101614016565b5083020196508587101561400d57509495945050505050565b805160609060015b8181101561415d57600084828151811061407a5761407a614f95565b6020026020010151905060006001836140939190615339565b90505b600081121580156140c557508581815181106140b4576140b4614f95565b602002602001015160ff168260ff16105b15614124578581815181106140dc576140dc614f95565b6020026020010151868260016140f29190615359565b8151811061410257614102614f95565b60ff9092166020928302919091019091015261411d81615379565b9050614096565b8186614131836001615359565b8151811061414157614141614f95565b60ff90921660209283029190910190910152505060010161405e565b509192915050565b61110282826040518060200160405280600081525061443d565b7ff0c57e16840df040f15088dc2f81fe391c3923bec73e23a9662efc9c229c6a0054600160401b900460ff166120af576040517fd7e6bcf800000000000000000000000000000000000000000000000000000000815260040160405180910390fd5b612bb961417f565b6141f161417f565b7f80bb2b638cc20bc4d0a60d66940f3ab4a00c1d7b313497ca82fb0b4ab00793008061421d84826153b2565b506001810161177983826153b2565b600081815260018301602052604081205461427357508154600181810184556000848152602080822090930184905584548482528286019093526040902091909155610e96565b506000610e96565b6000818152600183016020526040812054801561436457600061429f600183614f0f565b85549091506000906142b390600190614f0f565b90508082146143185760008660000182815481106142d3576142d3614f95565b90600052602060002001549050808760000184815481106142f6576142f6614f95565b6000918252602080832090910192909255918252600188019052604090208390555b855486908061432957614329615471565b600190038181906000526020600020016000905590558560010160008681526020019081526020016000206000905560019350505050610e96565b6000915050610e96565b60606130a583836000614454565b60006001600160a01b03831615801590612ba95750826001600160a01b0316846001600160a01b031614806143f557506001600160a01b0380851660009081527f80bb2b638cc20bc4d0a60d66940f3ab4a00c1d7b313497ca82fb0b4ab0079305602090815260408083209387168352929052205460ff165b80612ba957505060009081527f80bb2b638cc20bc4d0a60d66940f3ab4a00c1d7b313497ca82fb0b4ab007930460205260409020546001600160a01b03908116911614919050565b614447838361450a565b610e136000848484613ad3565b606081471015614492576040517fcd786059000000000000000000000000000000000000000000000000000000008152306004820152602401610edb565b600080856001600160a01b031684866040516144ae9190615487565b60006040518083038185875af1925050503d80600081146144eb576040519150601f19603f3d011682016040523d82523d6000602084013e6144f0565b606091505b5091509150614500868383614588565b9695505050505050565b6001600160a01b03821661453457604051633250574960e11b815260006004820152602401610edb565b6000614542838360006130ac565b90506001600160a01b03811615610e13576040517f73c6ac6e00000000000000000000000000000000000000000000000000000000815260006004820152602401610edb565b60608261459d57614598826145fd565b6130a5565b81511580156145b457506001600160a01b0384163b155b156145f6576040517f9996b3150000000000000000000000000000000000000000000000000000000081526001600160a01b0385166004820152602401610edb565b50806130a5565b80511561460d5780518082602001fd5b6040517f1425ea4200000000000000000000000000000000000000000000000000000000815260040160405180910390fd5b50805461464b90614f30565b6000825580601f1061465b575050565b601f0160209004906000526020600020908101906120c291905b808211156146895760008155600101614675565b5090565b6001600160a01b03811681146120c257600080fd5b80356146ad8161468d565b919050565b6000602082840312156146c457600080fd5b81356130a58161468d565b6001600160e01b0319811681146120c257600080fd5b6000602082840312156146f757600080fd5b81356130a5816146cf565b60006020828403121561471457600080fd5b5035919050565b60005b8381101561473657818101518382015260200161471e565b50506000910152565b6000815180845261475781602086016020860161471b565b601f01601f19169290920160200192915050565b6020815260006130a5602083018461473f565b6000806040838503121561479157600080fd5b823561479c8161468d565b946020939093013593505050565b6040808252835190820181905260009060208501906060840190835b818110156147ed5783516001600160a01b03168352602093840193909201916001016147c6565b50508381036020850152809150845180825260208201925060208160051b8301016020870160005b8381101561484757601f1985840301865261483183835161473f565b6020968701969093509190910190600101614815565b509098975050505050505050565b60008060006060848603121561486a57600080fd5b83356148758161468d565b925060208401356148858161468d565b929592945050506040919091013590565b6000806000606084860312156148ab57600080fd5b505081359360208301359350604090920135919050565b600080604083850312156148d557600080fd5b50508035926020909101359150565b600081518084526020840193506020830160005b8281101561491957815160ff168652602095860195909101906001016148f8565b5093949350505050565b6020815260006130a560208301846148e4565b634e487b7160e01b600052602160045260246000fd5b6004811061496a57634e487b7160e01b600052602160045260246000fd5b9052565b6040810161497c828561494c565b6001600160f81b03831660208301529392505050565b60008083601f8401126149a457600080fd5b50813567ffffffffffffffff8111156149bc57600080fd5b6020830191508360208260051b85010111156149d757600080fd5b9250929050565b6000806000604084860312156149f357600080fd5b833567ffffffffffffffff811115614a0a57600080fd5b614a1686828701614992565b9094509250506020840135614a2a8161468d565b809150509250925092565b600080600060408486031215614a4a57600080fd5b83359250602084013567ffffffffffffffff811115614a6857600080fd5b614a7486828701614992565b9497909650939450505050565b80151581146120c257600080fd5b60008060408385031215614aa257600080fd5b8235614aad8161468d565b91506020830135614abd81614a81565b809150509250929050565b60008060208385031215614adb57600080fd5b823567ffffffffffffffff811115614af257600080fd5b614afe85828601614992565b90969095509350505050565b634e487b7160e01b600052604160045260246000fd5b6040516101a0810167ffffffffffffffff81118282101715614b4457614b44614b0a565b60405290565b604051601f8201601f1916810167ffffffffffffffff81118282101715614b7357614b73614b0a565b604052919050565b600067ffffffffffffffff821115614b9557614b95614b0a565b50601f01601f191660200190565b6000614bb6614bb184614b7b565b614b4a565b9050828152838383011115614bca57600080fd5b828260208301376000602084830101529392505050565b600082601f830112614bf257600080fd5b6130a583833560208501614ba3565b803560ff811681146146ad57600080fd5b600060208284031215614c2457600080fd5b813567ffffffffffffffff811115614c3b57600080fd5b82016101a08185031215614c4e57600080fd5b614c56614b20565b614c5f826146a2565b8152602082013567ffffffffffffffff811115614c7b57600080fd5b614c8786828501614be1565b602083015250604082013567ffffffffffffffff811115614ca757600080fd5b614cb386828501614be1565b604083015250614cc560608301614c01565b6060820152614cd660808301614c01565b608082015260a0828101359082015260c0808301359082015260e08083013590820152614d0661010083016146a2565b610100820152614d1961012083016146a2565b61012082015261014082810135908201526101608083013590820152614d4261018083016146a2565b610180820152949350505050565b60008060008060808587031215614d6657600080fd5b8435614d718161468d565b93506020850135614d818161468d565b925060408501359150606085013567ffffffffffffffff811115614da457600080fd5b8501601f81018713614db557600080fd5b614dc487823560208401614ba3565b91505092959194509250565b60008060008060608587031215614de657600080fd5b8435614df18161468d565b9350602085013567ffffffffffffffff811115614e0d57600080fd5b8501601f81018713614e1e57600080fd5b803567ffffffffffffffff811115614e3557600080fd5b876020828401011115614e4757600080fd5b602091909101935091506040850135614e5f81614a81565b939692955090935050565b60008060408385031215614e7d57600080fd5b8235614e888161468d565b91506020830135614abd8161468d565b600060208284031215614eaa57600080fd5b5051919050565b634e487b7160e01b600052601160045260246000fd5b6001600160f81b038281168282160390811115610e9657610e96614eb1565b80820180821115610e9657610e96614eb1565b634e487b7160e01b600052600160045260246000fd5b81810381811115610e9657610e96614eb1565b60208101610e96828461494c565b600181811c90821680614f4457607f821691505b602082108103613f9a57634e487b7160e01b600052602260045260246000fd5b6001600160a01b0384168152826020820152606060408201526000614f8c606083018461473f565b95945050505050565b634e487b7160e01b600052603260045260246000fd5b8082028115828204841417610e9657610e96614eb1565b600082614fdf57634e487b7160e01b600052601260045260246000fd5b500490565b600060208284031215614ff657600080fd5b81516130a58161468d565b6001600160f81b0383168152604060208201526000612ba960408301846148e4565b608081526000615036608083018761473f565b85602084015260ff85166040840152828103606084015261505781856148e4565b979650505050505050565b60006020828403121561507457600080fd5b815167ffffffffffffffff81111561508b57600080fd5b8201601f8101841361509c57600080fd5b80516150aa614bb182614b7b565b8181528560208385010111156150bf57600080fd5b614f8c82602083016020860161471b565b601f821115610e1357806000526020600020601f840160051c810160208510156150f75750805b601f840160051c820191505b81811015613bf55760008155600101615103565b67ffffffffffffffff83111561512f5761512f614b0a565b6151438361513d8354614f30565b836150d0565b6000601f841160018114615177576000851561515f5750838201355b600019600387901b1c1916600186901b178355613bf5565b600083815260209020601f19861690835b828110156151a85786850135825560209485019460019092019101615188565b50868210156151c55760001960f88860031b161c19848701351681555b505060018560011b0183555050505050565b60208152816020820152818360408301376000818301604090810191909152601f909201601f19160101919050565b6001600160f81b038181168382160190811115610e9657610e96614eb1565b60006001820161523757615237614eb1565b5060010190565b67ffffffffffffffff8181168382160190811115610e9657610e96614eb1565b60008235603e1983360301811261527457600080fd5b9190910192915050565b6000808335601e1984360301811261529557600080fd5b83018035915067ffffffffffffffff8211156152b057600080fd5b6020019150600581901b36038213156149d757600080fd5b6000602082840312156152da57600080fd5b81516130a581614a81565b6001600160a01b03851681526001600160a01b0384166020820152826040820152608060608201526000614500608083018461473f565b60006020828403121561532e57600080fd5b81516130a5816146cf565b81810360008312801583831316838312821617156139cd576139cd614eb1565b808201828112600083128015821682158216171561334857613348614eb1565b60007f800000000000000000000000000000000000000000000000000000000000000082036153aa576153aa614eb1565b506000190190565b815167ffffffffffffffff8111156153cc576153cc614b0a565b6153e0816153da8454614f30565b846150d0565b6020601f82116001811461541457600083156153fc5750848201515b600019600385901b1c1916600184901b178455613bf5565b600084815260208120601f198516915b828110156154445787850151825560209485019460019092019101615424565b50848210156154625786840151600019600387901b60f8161c191681555b50505050600190811b01905550565b634e487b7160e01b600052603160045260246000fd5b6000825161527481846020870161471b56fea26469706673582212207258172fea0f592934d880ea30fbe8d98f04a80c5355b60dd9ad91c66a6e474f64736f6c634300081b0033",
  "linkReferences": {},
  "deployedLinkReferences": {}
}