{
  "_format": "hh-sol-artifact-1",
  "contractName": "LooteryETHAdapter",
  "sourceName": "contracts/periphery/LooteryETHAdapter.sol",
  "abi": [
    {
      "inputs": [
        {
          "internalType": "address payable",
          "name": "_wrappedTokenAddress",
          "type": "address"
        }
      ],
      "stateMutability": "nonpayable",
      "type": "constructor"
    },
    {
      "anonymous": false,
      "inputs": [
        {
          "indexed": true,
          "internalType": "address",
          "name": "whomst",
          "type": "address"
        },
        {
          "indexed": false,
          "internalType": "uint256",
          "name": "amount",
          "type": "uint256"
        }
      ],
      "name": "JackpotSeeded",
      "type": "event"
    },
    {
      "inputs": [
        {
          "internalType": "address payable",
          "name": "looteryAddress",
          "type": "address"
        },
        {
          "components": [
            {
              "internalType": "address",
              "name": "whomst",
              "type": "address"
            },
            {
              "internalType": "uint8[]",
              "name": "picks",
              "type": "uint8[]"
            }
          ],
          "internalType": "struct Lootery.Ticket[]",
          "name": "tickets",
          "type": "tuple[]"
        },
        {
          "internalType": "address",
          "name": "beneficiary",
          "type": "address"
        }
      ],
      "name": "purchase",
      "outputs": [],
      "stateMutability": "payable",
      "type": "function"
    },
    {
      "inputs": [
        {
          "internalType": "address payable",
          "name": "looteryAddress",
          "type": "address"
        }
      ],
      "name": "seedJackpot",
      "outputs": [],
      "stateMutability": "payable",
      "type": "function"
    },
    {
      "inputs": [],
      "name": "wrappedToken",
      "outputs": [
        {
          "internalType": "contract IWETH9",
          "name": "",
          "type": "address"
        }
      ],
      "stateMutability": "view",
      "type": "function"
    }
  ],
  "bytecode": "0x60a03461008757601f6107e338819003918201601f19168301916001600160401b0383118484101761008c5780849260209460405283398101031261008757516001600160a01b038116908190036100875760805260405161074090816100a3823960805181818160610152818161016f015281816101b90152818161023701526105390152f35b600080fd5b634e487b7160e01b600052604160045260246000fdfe608080604052600436101561001357600080fd5b600090813560e01c908163417478d514610515575080637aac823e146100885763996c6cc31461004257600080fd5b3461008557806003193601126100855760206040516001600160a01b037f0000000000000000000000000000000000000000000000000000000000000000168152f35b80fd5b5060603660031901126100855761009d610690565b9067ffffffffffffffff60243511610085573660236024350112156100855767ffffffffffffffff60243560040135116100855736602480356004013560051b8135010111610085576044356001600160a01b0381168103610407576040517f1209b1f60000000000000000000000000000000000000000000000000000000081526020816004816001600160a01b0388165afa9081156104435783916104e3575b508015600460243501358083028390041417156104cf576024356004013581023403610471576001600160a01b037f0000000000000000000000000000000000000000000000000000000000000000163b1561046257604051630d0e30db60e41b8152838160048160243582013586026001600160a01b037f0000000000000000000000000000000000000000000000000000000000000000165af180156104665790849161044e575b5050602061022a916040518093819263095ea7b360e01b835260243560040135028860048401602090939291936001600160a01b0360408201951681520152565b0381866001600160a01b037f0000000000000000000000000000000000000000000000000000000000000000165af1801561044357610414575b506001600160a01b0383163b1561041057604051907f62ff220f0000000000000000000000000000000000000000000000000000000082526044820160406004840152602435600401359052606482019060646024356004013560051b8401019160248035019085905b60243560040135821061032357505050839483856001600160a01b038282968282971660248301520393165af18015610318576103085750f35b610311906106a6565b6100855780f35b6040513d84823e3d90fd5b9091936063198682030182526062196024353603018535121561040c5760243585350160248101356001600160a01b03811680910361040757825260448101356042198236030181121561040357019067ffffffffffffffff6024830135116103ff57602482013560051b360360448301136103ff5780604060206060930152602483013560408201520190604481019088905b602481013582106103d85750505060208060019296019201920190916102ce565b909192833560ff81168091036103fb5781526020908101930191600101906103b7565b8a80fd5b8780fd5b8880fd5b600080fd5b8680fd5b5080fd5b6104359060203d60201161043c575b61042d81836106d0565b8101906106f2565b5038610264565b503d610423565b6040513d85823e3d90fd5b610457906106a6565b6104625782386101e9565b8280fd5b6040513d86823e3d90fd5b60646040517f08c379a000000000000000000000000000000000000000000000000000000000815260206004820152601b60248201527f4e65656420746f2070726f766964652065786163742066756e647300000000006044820152fd5b602483634e487b7160e01b81526011600452fd5b90506020813d60201161050d575b816104fe602093836106d0565b8101031261046257513861013f565b3d91506104f1565b8260203660031901126100855761052a610690565b6001600160a01b0390818116917f00000000000000000000000000000000000000000000000000000000000000001693843b1561068c57630d0e30db60e41b8152838160048134895af1801561046657610674575b5060405163095ea7b360e01b81526001600160a01b03909116600482015234602482015291928392906020908290818681604481015b03925af1801561044357610655575b50803b15610652578180916024604051809481937f02950fb90000000000000000000000000000000000000000000000000000000083523460048401525af180156103185761063e575b506040513481527f0a45ec0e27527fa1519b691bab30b4fedbc1da4b3d04ba9d3663f1696be5410460203392a280f35b610647906106a6565b61008557808261060e565b50fd5b61066d9060203d60201161043c5761042d81836106d0565b50836105c4565b6105b594936106846020926106a6565b93945061057f565b8380fd5b600435906001600160a01b038216820361040757565b67ffffffffffffffff81116106ba57604052565b634e487b7160e01b600052604160045260246000fd5b90601f8019910116810190811067ffffffffffffffff8211176106ba57604052565b9081602091031261040757518015158103610407579056fea26469706673582212202e39a18b9ba5fbcce8f0e3ad863227adccac415b581ee325f1d0300b6ba988c164736f6c63430008170033",
  "linkReferences": {},
  "deployedLinkReferences": {}
}