{
  "_format": "hh-sol-artifact-1",
  "contractName": "Lootery",
  "sourceName": "contracts/Lootery.sol",
  "abi": [
    {
      "inputs": [],
      "stateMutability": "nonpayable",
      "type": "constructor"
    },
    {
      "inputs": [
        {
          "internalType": "address",
          "name": "target",
          "type": "address"
        }
      ],
      "name": "AddressEmptyCode",
      "type": "error"
    },
    {
      "inputs": [
        {
          "internalType": "address",
          "name": "account",
          "type": "address"
        }
      ],
      "name": "AddressInsufficientBalance",
      "type": "error"
    },
    {
      "inputs": [
        {
          "internalType": "address",
          "name": "caller",
          "type": "address"
        }
      ],
      "name": "CallerNotRandomiser",
      "type": "error"
    },
    {
      "inputs": [
        {
          "internalType": "uint256",
          "name": "tokenId",
          "type": "uint256"
        }
      ],
      "name": "ClaimWindowMissed",
      "type": "error"
    },
    {
      "inputs": [
        {
          "internalType": "address",
          "name": "sender",
          "type": "address"
        },
        {
          "internalType": "uint256",
          "name": "tokenId",
          "type": "uint256"
        },
        {
          "internalType": "address",
          "name": "owner",
          "type": "address"
        }
      ],
      "name": "ERC721IncorrectOwner",
      "type": "error"
    },
    {
      "inputs": [
        {
          "internalType": "address",
          "name": "operator",
          "type": "address"
        },
        {
          "internalType": "uint256",
          "name": "tokenId",
          "type": "uint256"
        }
      ],
      "name": "ERC721InsufficientApproval",
      "type": "error"
    },
    {
      "inputs": [
        {
          "internalType": "address",
          "name": "approver",
          "type": "address"
        }
      ],
      "name": "ERC721InvalidApprover",
      "type": "error"
    },
    {
      "inputs": [
        {
          "internalType": "address",
          "name": "operator",
          "type": "address"
        }
      ],
      "name": "ERC721InvalidOperator",
      "type": "error"
    },
    {
      "inputs": [
        {
          "internalType": "address",
          "name": "owner",
          "type": "address"
        }
      ],
      "name": "ERC721InvalidOwner",
      "type": "error"
    },
    {
      "inputs": [
        {
          "internalType": "address",
          "name": "receiver",
          "type": "address"
        }
      ],
      "name": "ERC721InvalidReceiver",
      "type": "error"
    },
    {
      "inputs": [
        {
          "internalType": "address",
          "name": "sender",
          "type": "address"
        }
      ],
      "name": "ERC721InvalidSender",
      "type": "error"
    },
    {
      "inputs": [
        {
          "internalType": "uint256",
          "name": "tokenId",
          "type": "uint256"
        }
      ],
      "name": "ERC721NonexistentToken",
      "type": "error"
    },
    {
      "inputs": [],
      "name": "FailedInnerCall",
      "type": "error"
    },
    {
      "inputs": [],
      "name": "GameAlreadyDrawn",
      "type": "error"
    },
    {
      "inputs": [],
      "name": "GameInactive",
      "type": "error"
    },
    {
      "inputs": [
        {
          "internalType": "uint256",
          "name": "paid",
          "type": "uint256"
        },
        {
          "internalType": "uint256",
          "name": "expected",
          "type": "uint256"
        }
      ],
      "name": "IncorrectPaymentAmount",
      "type": "error"
    },
    {
      "inputs": [
        {
          "internalType": "uint256",
          "name": "value",
          "type": "uint256"
        }
      ],
      "name": "InsufficientJackpotSeed",
      "type": "error"
    },
    {
      "inputs": [
        {
          "internalType": "uint256",
          "name": "have",
          "type": "uint256"
        },
        {
          "internalType": "uint256",
          "name": "want",
          "type": "uint256"
        }
      ],
      "name": "InsufficientOperationalFunds",
      "type": "error"
    },
    {
      "inputs": [],
      "name": "InsufficientRandomWords",
      "type": "error"
    },
    {
      "inputs": [
        {
          "internalType": "uint256",
          "name": "ballValue",
          "type": "uint256"
        }
      ],
      "name": "InvalidBallValue",
      "type": "error"
    },
    {
      "inputs": [
        {
          "internalType": "uint256",
          "name": "gamePeriod",
          "type": "uint256"
        }
      ],
      "name": "InvalidGamePeriod",
      "type": "error"
    },
    {
      "inputs": [],
      "name": "InvalidInitialization",
      "type": "error"
    },
    {
      "inputs": [],
      "name": "InvalidInputs",
      "type": "error"
    },
    {
      "inputs": [
        {
          "internalType": "uint256",
          "name": "numPicks",
          "type": "uint256"
        }
      ],
      "name": "InvalidNumPicks",
      "type": "error"
    },
    {
      "inputs": [
        {
          "internalType": "address",
          "name": "prizeToken",
          "type": "address"
        }
      ],
      "name": "InvalidPrizeToken",
      "type": "error"
    },
    {
      "inputs": [
        {
          "internalType": "address",
          "name": "randomiser",
          "type": "address"
        }
      ],
      "name": "InvalidRandomiser",
      "type": "error"
    },
    {
      "inputs": [
        {
          "internalType": "uint256",
          "name": "delay",
          "type": "uint256"
        },
        {
          "internalType": "uint256",
          "name": "minValue",
          "type": "uint256"
        }
      ],
      "name": "InvalidSeedJackpotConfig",
      "type": "error"
    },
    {
      "inputs": [
        {
          "internalType": "uint256",
          "name": "ticketPrice",
          "type": "uint256"
        }
      ],
      "name": "InvalidTicketPrice",
      "type": "error"
    },
    {
      "inputs": [
        {
          "internalType": "address",
          "name": "renderer",
          "type": "address"
        }
      ],
      "name": "InvalidTicketSVGRenderer",
      "type": "error"
    },
    {
      "inputs": [
        {
          "internalType": "uint256",
          "name": "pickId",
          "type": "uint256"
        },
        {
          "internalType": "uint256",
          "name": "winningPickId",
          "type": "uint256"
        }
      ],
      "name": "NoWin",
      "type": "error"
    },
    {
      "inputs": [],
      "name": "NotInitializing",
      "type": "error"
    },
    {
      "inputs": [
        {
          "internalType": "address",
          "name": "owner",
          "type": "address"
        }
      ],
      "name": "OwnableInvalidOwner",
      "type": "error"
    },
    {
      "inputs": [
        {
          "internalType": "address",
          "name": "account",
          "type": "address"
        }
      ],
      "name": "OwnableUnauthorizedAccount",
      "type": "error"
    },
    {
      "inputs": [
        {
          "internalType": "uint256",
          "name": "secondsToWait",
          "type": "uint256"
        }
      ],
      "name": "RateLimited",
      "type": "error"
    },
    {
      "inputs": [
        {
          "internalType": "uint256",
          "name": "requestId",
          "type": "uint256"
        },
        {
          "internalType": "uint256",
          "name": "timestamp",
          "type": "uint256"
        }
      ],
      "name": "RequestAlreadyInFlight",
      "type": "error"
    },
    {
      "inputs": [
        {
          "internalType": "uint256",
          "name": "actual",
          "type": "uint256"
        },
        {
          "internalType": "uint208",
          "name": "expected",
          "type": "uint208"
        }
      ],
      "name": "RequestIdMismatch",
      "type": "error"
    },
    {
      "inputs": [
        {
          "internalType": "uint256",
          "name": "requestId",
          "type": "uint256"
        }
      ],
      "name": "RequestIdOverflow",
      "type": "error"
    },
    {
      "inputs": [
        {
          "internalType": "address",
          "name": "token",
          "type": "address"
        }
      ],
      "name": "SafeERC20FailedOperation",
      "type": "error"
    },
    {
      "inputs": [
        {
          "internalType": "uint256",
          "name": "value",
          "type": "uint256"
        }
      ],
      "name": "TicketsSoldOverflow",
      "type": "error"
    },
    {
      "inputs": [
        {
          "internalType": "address",
          "name": "to",
          "type": "address"
        },
        {
          "internalType": "uint256",
          "name": "value",
          "type": "uint256"
        },
        {
          "internalType": "bytes",
          "name": "reason",
          "type": "bytes"
        }
      ],
      "name": "TransferFailure",
      "type": "error"
    },
    {
      "inputs": [
        {
          "internalType": "enum Lootery.GameState",
          "name": "actual",
          "type": "uint8"
        },
        {
          "internalType": "enum Lootery.GameState",
          "name": "expected",
          "type": "uint8"
        }
      ],
      "name": "UnexpectedState",
      "type": "error"
    },
    {
      "inputs": [
        {
          "internalType": "uint8[]",
          "name": "picks",
          "type": "uint8[]"
        }
      ],
      "name": "UnsortedPicks",
      "type": "error"
    },
    {
      "inputs": [
        {
          "internalType": "uint256",
          "name": "deadline",
          "type": "uint256"
        }
      ],
      "name": "WaitLonger",
      "type": "error"
    },
    {
      "anonymous": false,
      "inputs": [
        {
          "indexed": true,
          "internalType": "address",
          "name": "owner",
          "type": "address"
        },
        {
          "indexed": true,
          "internalType": "address",
          "name": "approved",
          "type": "address"
        },
        {
          "indexed": true,
          "internalType": "uint256",
          "name": "tokenId",
          "type": "uint256"
        }
      ],
      "name": "Approval",
      "type": "event"
    },
    {
      "anonymous": false,
      "inputs": [
        {
          "indexed": true,
          "internalType": "address",
          "name": "owner",
          "type": "address"
        },
        {
          "indexed": true,
          "internalType": "address",
          "name": "operator",
          "type": "address"
        },
        {
          "indexed": false,
          "internalType": "bool",
          "name": "approved",
          "type": "bool"
        }
      ],
      "name": "ApprovalForAll",
      "type": "event"
    },
    {
      "anonymous": false,
      "inputs": [
        {
          "indexed": true,
          "internalType": "uint256",
          "name": "gameId",
          "type": "uint256"
        },
        {
          "indexed": true,
          "internalType": "address",
          "name": "beneficiary",
          "type": "address"
        },
        {
          "indexed": false,
          "internalType": "uint256",
          "name": "value",
          "type": "uint256"
        }
      ],
      "name": "BeneficiaryPaid",
      "type": "event"
    },
    {
      "anonymous": false,
      "inputs": [
        {
          "indexed": true,
          "internalType": "uint256",
          "name": "tokenId",
          "type": "uint256"
        },
        {
          "indexed": true,
          "internalType": "uint256",
          "name": "gameId",
          "type": "uint256"
        },
        {
          "indexed": false,
          "internalType": "address",
          "name": "whomst",
          "type": "address"
        },
        {
          "indexed": false,
          "internalType": "uint256",
          "name": "value",
          "type": "uint256"
        }
      ],
      "name": "ConsolationClaimed",
      "type": "event"
    },
    {
      "anonymous": false,
      "inputs": [
        {
          "indexed": true,
          "internalType": "uint256",
          "name": "gameId",
          "type": "uint256"
        }
      ],
      "name": "DrawSkipped",
      "type": "event"
    },
    {
      "anonymous": false,
      "inputs": [
        {
          "indexed": false,
          "internalType": "uint256",
          "name": "gameId",
          "type": "uint256"
        },
        {
          "indexed": false,
          "internalType": "uint8[]",
          "name": "winningPicks",
          "type": "uint8[]"
        }
      ],
      "name": "GameFinalised",
      "type": "event"
    },
    {
      "anonymous": false,
      "inputs": [
        {
          "indexed": true,
          "internalType": "address",
          "name": "to",
          "type": "address"
        },
        {
          "indexed": false,
          "internalType": "uint256",
          "name": "value",
          "type": "uint256"
        },
        {
          "indexed": false,
          "internalType": "uint256",
          "name": "gasUsed",
          "type": "uint256"
        },
        {
          "indexed": false,
          "internalType": "uint256",
          "name": "gasPrice",
          "type": "uint256"
        },
        {
          "indexed": false,
          "internalType": "bool",
          "name": "success",
          "type": "bool"
        }
      ],
      "name": "GasRefundAttempted",
      "type": "event"
    },
    {
      "anonymous": false,
      "inputs": [
        {
          "indexed": false,
          "internalType": "uint64",
          "name": "version",
          "type": "uint64"
        }
      ],
      "name": "Initialized",
      "type": "event"
    },
    {
      "anonymous": false,
      "inputs": [
        {
          "indexed": true,
          "internalType": "uint256",
          "name": "gameId",
          "type": "uint256"
        },
        {
          "indexed": false,
          "internalType": "uint256",
          "name": "unclaimedPayouts",
          "type": "uint256"
        },
        {
          "indexed": false,
          "internalType": "uint256",
          "name": "currentJackpot",
          "type": "uint256"
        },
        {
          "indexed": false,
          "internalType": "uint256",
          "name": "nextUnclaimedPayouts",
          "type": "uint256"
        },
        {
          "indexed": false,
          "internalType": "uint256",
          "name": "nextJackpot",
          "type": "uint256"
        }
      ],
      "name": "JackpotRollover",
      "type": "event"
    },
    {
      "anonymous": false,
      "inputs": [
        {
          "indexed": true,
          "internalType": "address",
          "name": "whomst",
          "type": "address"
        },
        {
          "indexed": false,
          "internalType": "uint256",
          "name": "amount",
          "type": "uint256"
        }
      ],
      "name": "JackpotSeeded",
      "type": "event"
    },
    {
      "anonymous": false,
      "inputs": [
        {
          "indexed": true,
          "internalType": "address",
          "name": "previousOwner",
          "type": "address"
        },
        {
          "indexed": true,
          "internalType": "address",
          "name": "newOwner",
          "type": "address"
        }
      ],
      "name": "OwnershipTransferred",
      "type": "event"
    },
    {
      "anonymous": false,
      "inputs": [
        {
          "indexed": false,
          "internalType": "address",
          "name": "sender",
          "type": "address"
        },
        {
          "indexed": false,
          "internalType": "uint256",
          "name": "amount",
          "type": "uint256"
        }
      ],
      "name": "Received",
      "type": "event"
    },
    {
      "anonymous": false,
      "inputs": [
        {
          "indexed": true,
          "internalType": "uint256",
          "name": "gameId",
          "type": "uint256"
        },
        {
          "indexed": true,
          "internalType": "address",
          "name": "whomst",
          "type": "address"
        },
        {
          "indexed": true,
          "internalType": "uint256",
          "name": "tokenId",
          "type": "uint256"
        },
        {
          "indexed": false,
          "internalType": "uint8[]",
          "name": "picks",
          "type": "uint8[]"
        }
      ],
      "name": "TicketPurchased",
      "type": "event"
    },
    {
      "anonymous": false,
      "inputs": [
        {
          "indexed": true,
          "internalType": "address",
          "name": "from",
          "type": "address"
        },
        {
          "indexed": true,
          "internalType": "address",
          "name": "to",
          "type": "address"
        },
        {
          "indexed": true,
          "internalType": "uint256",
          "name": "tokenId",
          "type": "uint256"
        }
      ],
      "name": "Transfer",
      "type": "event"
    },
    {
      "anonymous": false,
      "inputs": [
        {
          "indexed": false,
          "internalType": "address",
          "name": "to",
          "type": "address"
        },
        {
          "indexed": false,
          "internalType": "uint256",
          "name": "value",
          "type": "uint256"
        }
      ],
      "name": "Transferred",
      "type": "event"
    },
    {
      "anonymous": false,
      "inputs": [
        {
          "indexed": true,
          "internalType": "uint256",
          "name": "tokenId",
          "type": "uint256"
        },
        {
          "indexed": true,
          "internalType": "uint256",
          "name": "gameId",
          "type": "uint256"
        },
        {
          "indexed": false,
          "internalType": "address",
          "name": "whomst",
          "type": "address"
        },
        {
          "indexed": false,
          "internalType": "uint256",
          "name": "value",
          "type": "uint256"
        }
      ],
      "name": "WinningsClaimed",
      "type": "event"
    },
    {
      "inputs": [],
      "name": "accruedCommunityFees",
      "outputs": [
        {
          "internalType": "uint256",
          "name": "",
          "type": "uint256"
        }
      ],
      "stateMutability": "view",
      "type": "function"
    },
    {
      "inputs": [],
      "name": "apocalypseGameId",
      "outputs": [
        {
          "internalType": "uint256",
          "name": "",
          "type": "uint256"
        }
      ],
      "stateMutability": "view",
      "type": "function"
    },
    {
      "inputs": [
        {
          "internalType": "address",
          "name": "to",
          "type": "address"
        },
        {
          "internalType": "uint256",
          "name": "tokenId",
          "type": "uint256"
        }
      ],
      "name": "approve",
      "outputs": [],
      "stateMutability": "nonpayable",
      "type": "function"
    },
    {
      "inputs": [
        {
          "internalType": "address",
          "name": "owner",
          "type": "address"
        }
      ],
      "name": "balanceOf",
      "outputs": [
        {
          "internalType": "uint256",
          "name": "",
          "type": "uint256"
        }
      ],
      "stateMutability": "view",
      "type": "function"
    },
    {
      "inputs": [
        {
          "internalType": "uint256",
          "name": "tokenId",
          "type": "uint256"
        }
      ],
      "name": "claimWinnings",
      "outputs": [],
      "stateMutability": "nonpayable",
      "type": "function"
    },
    {
      "inputs": [
        {
          "internalType": "uint256",
          "name": "gameId",
          "type": "uint256"
        },
        {
          "internalType": "uint256",
          "name": "",
          "type": "uint256"
        }
      ],
      "name": "claimedWinningTickets",
      "outputs": [
        {
          "internalType": "uint256",
          "name": "",
          "type": "uint256"
        }
      ],
      "stateMutability": "view",
      "type": "function"
    },
    {
      "inputs": [],
      "name": "communityFeeBps",
      "outputs": [
        {
          "internalType": "uint256",
          "name": "",
          "type": "uint256"
        }
      ],
      "stateMutability": "view",
      "type": "function"
    },
    {
      "inputs": [
        {
          "internalType": "uint256",
          "name": "pickId",
          "type": "uint256"
        }
      ],
      "name": "computePicks",
      "outputs": [
        {
          "internalType": "uint8[]",
          "name": "picks",
          "type": "uint8[]"
        }
      ],
      "stateMutability": "view",
      "type": "function"
    },
    {
      "inputs": [
        {
          "internalType": "uint256",
          "name": "randomSeed",
          "type": "uint256"
        }
      ],
      "name": "computeWinningBalls",
      "outputs": [
        {
          "internalType": "uint8[]",
          "name": "balls",
          "type": "uint8[]"
        }
      ],
      "stateMutability": "view",
      "type": "function"
    },
    {
      "inputs": [],
      "name": "currentGame",
      "outputs": [
        {
          "internalType": "enum Lootery.GameState",
          "name": "state",
          "type": "uint8"
        },
        {
          "internalType": "uint248",
          "name": "id",
          "type": "uint248"
        }
      ],
      "stateMutability": "view",
      "type": "function"
    },
    {
      "inputs": [],
      "name": "draw",
      "outputs": [],
      "stateMutability": "nonpayable",
      "type": "function"
    },
    {
      "inputs": [
        {
          "internalType": "uint256",
          "name": "gameId",
          "type": "uint256"
        }
      ],
      "name": "gameData",
      "outputs": [
        {
          "internalType": "uint64",
          "name": "ticketsSold",
          "type": "uint64"
        },
        {
          "internalType": "uint64",
          "name": "startedAt",
          "type": "uint64"
        },
        {
          "internalType": "uint256",
          "name": "winningPickId",
          "type": "uint256"
        }
      ],
      "stateMutability": "view",
      "type": "function"
    },
    {
      "inputs": [],
      "name": "gamePeriod",
      "outputs": [
        {
          "internalType": "uint256",
          "name": "",
          "type": "uint256"
        }
      ],
      "stateMutability": "view",
      "type": "function"
    },
    {
      "inputs": [
        {
          "internalType": "uint256",
          "name": "tokenId",
          "type": "uint256"
        }
      ],
      "name": "getApproved",
      "outputs": [
        {
          "internalType": "address",
          "name": "",
          "type": "address"
        }
      ],
      "stateMutability": "view",
      "type": "function"
    },
    {
      "inputs": [
        {
          "components": [
            {
              "internalType": "address",
              "name": "owner",
              "type": "address"
            },
            {
              "internalType": "string",
              "name": "name",
              "type": "string"
            },
            {
              "internalType": "string",
              "name": "symbol",
              "type": "string"
            },
            {
              "internalType": "uint8",
              "name": "numPicks",
              "type": "uint8"
            },
            {
              "internalType": "uint8",
              "name": "maxBallValue",
              "type": "uint8"
            },
            {
              "internalType": "uint256",
              "name": "gamePeriod",
              "type": "uint256"
            },
            {
              "internalType": "uint256",
              "name": "ticketPrice",
              "type": "uint256"
            },
            {
              "internalType": "uint256",
              "name": "communityFeeBps",
              "type": "uint256"
            },
            {
              "internalType": "address",
              "name": "randomiser",
              "type": "address"
            },
            {
              "internalType": "address",
              "name": "prizeToken",
              "type": "address"
            },
            {
              "internalType": "uint256",
              "name": "seedJackpotDelay",
              "type": "uint256"
            },
            {
              "internalType": "uint256",
              "name": "seedJackpotMinValue",
              "type": "uint256"
            },
            {
              "internalType": "address",
              "name": "ticketSVGRenderer",
              "type": "address"
            }
          ],
          "internalType": "struct Lootery.InitConfig",
          "name": "initConfig",
          "type": "tuple"
        }
      ],
      "name": "init",
      "outputs": [],
      "stateMutability": "nonpayable",
      "type": "function"
    },
    {
      "inputs": [
        {
          "internalType": "address",
          "name": "owner",
          "type": "address"
        },
        {
          "internalType": "address",
          "name": "operator",
          "type": "address"
        }
      ],
      "name": "isApprovedForAll",
      "outputs": [
        {
          "internalType": "bool",
          "name": "",
          "type": "bool"
        }
      ],
      "stateMutability": "view",
      "type": "function"
    },
    {
      "inputs": [],
      "name": "isGameActive",
      "outputs": [
        {
          "internalType": "bool",
          "name": "",
          "type": "bool"
        }
      ],
      "stateMutability": "view",
      "type": "function"
    },
    {
      "inputs": [],
      "name": "jackpot",
      "outputs": [
        {
          "internalType": "uint256",
          "name": "",
          "type": "uint256"
        }
      ],
      "stateMutability": "view",
      "type": "function"
    },
    {
      "inputs": [],
      "name": "jackpotLastSeededAt",
      "outputs": [
        {
          "internalType": "uint256",
          "name": "",
          "type": "uint256"
        }
      ],
      "stateMutability": "view",
      "type": "function"
    },
    {
      "inputs": [],
      "name": "kill",
      "outputs": [],
      "stateMutability": "nonpayable",
      "type": "function"
    },
    {
      "inputs": [],
      "name": "maxBallValue",
      "outputs": [
        {
          "internalType": "uint8",
          "name": "",
          "type": "uint8"
        }
      ],
      "stateMutability": "view",
      "type": "function"
    },
    {
      "inputs": [],
      "name": "name",
      "outputs": [
        {
          "internalType": "string",
          "name": "",
          "type": "string"
        }
      ],
      "stateMutability": "view",
      "type": "function"
    },
    {
      "inputs": [],
      "name": "numPicks",
      "outputs": [
        {
          "internalType": "uint8",
          "name": "",
          "type": "uint8"
        }
      ],
      "stateMutability": "view",
      "type": "function"
    },
    {
      "inputs": [],
      "name": "owner",
      "outputs": [
        {
          "internalType": "address",
          "name": "",
          "type": "address"
        }
      ],
      "stateMutability": "view",
      "type": "function"
    },
    {
      "inputs": [
        {
          "internalType": "uint256",
          "name": "tokenId",
          "type": "uint256"
        }
      ],
      "name": "ownerOf",
      "outputs": [
        {
          "internalType": "address",
          "name": "",
          "type": "address"
        }
      ],
      "stateMutability": "view",
      "type": "function"
    },
    {
      "inputs": [
        {
          "components": [
            {
              "internalType": "address",
              "name": "whomst",
              "type": "address"
            },
            {
              "internalType": "uint8[]",
              "name": "picks",
              "type": "uint8[]"
            }
          ],
          "internalType": "struct Lootery.Ticket[]",
          "name": "tickets",
          "type": "tuple[]"
        }
      ],
      "name": "ownerPick",
      "outputs": [],
      "stateMutability": "nonpayable",
      "type": "function"
    },
    {
      "inputs": [],
      "name": "prizeToken",
      "outputs": [
        {
          "internalType": "address",
          "name": "",
          "type": "address"
        }
      ],
      "stateMutability": "view",
      "type": "function"
    },
    {
      "inputs": [
        {
          "components": [
            {
              "internalType": "address",
              "name": "whomst",
              "type": "address"
            },
            {
              "internalType": "uint8[]",
              "name": "picks",
              "type": "uint8[]"
            }
          ],
          "internalType": "struct Lootery.Ticket[]",
          "name": "tickets",
          "type": "tuple[]"
        },
        {
          "internalType": "address",
          "name": "beneficiary",
          "type": "address"
        }
      ],
      "name": "purchase",
      "outputs": [],
      "stateMutability": "nonpayable",
      "type": "function"
    },
    {
      "inputs": [
        {
          "internalType": "uint256",
          "name": "tokenId",
          "type": "uint256"
        }
      ],
      "name": "purchasedTickets",
      "outputs": [
        {
          "internalType": "uint256",
          "name": "gameId",
          "type": "uint256"
        },
        {
          "internalType": "uint256",
          "name": "pickId",
          "type": "uint256"
        }
      ],
      "stateMutability": "view",
      "type": "function"
    },
    {
      "inputs": [],
      "name": "randomiser",
      "outputs": [
        {
          "internalType": "address",
          "name": "",
          "type": "address"
        }
      ],
      "stateMutability": "view",
      "type": "function"
    },
    {
      "inputs": [],
      "name": "randomnessRequest",
      "outputs": [
        {
          "internalType": "uint208",
          "name": "requestId",
          "type": "uint208"
        },
        {
          "internalType": "uint48",
          "name": "timestamp",
          "type": "uint48"
        }
      ],
      "stateMutability": "view",
      "type": "function"
    },
    {
      "inputs": [
        {
          "internalType": "uint256",
          "name": "requestId",
          "type": "uint256"
        },
        {
          "internalType": "uint256[]",
          "name": "randomWords",
          "type": "uint256[]"
        }
      ],
      "name": "receiveRandomWords",
      "outputs": [],
      "stateMutability": "nonpayable",
      "type": "function"
    },
    {
      "inputs": [],
      "name": "renounceOwnership",
      "outputs": [],
      "stateMutability": "nonpayable",
      "type": "function"
    },
    {
      "inputs": [],
      "name": "rescueETH",
      "outputs": [],
      "stateMutability": "nonpayable",
      "type": "function"
    },
    {
      "inputs": [
        {
          "internalType": "address",
          "name": "tokenAddress",
          "type": "address"
        }
      ],
      "name": "rescueTokens",
      "outputs": [],
      "stateMutability": "nonpayable",
      "type": "function"
    },
    {
      "inputs": [
        {
          "internalType": "address",
          "name": "from",
          "type": "address"
        },
        {
          "internalType": "address",
          "name": "to",
          "type": "address"
        },
        {
          "internalType": "uint256",
          "name": "tokenId",
          "type": "uint256"
        }
      ],
      "name": "safeTransferFrom",
      "outputs": [],
      "stateMutability": "nonpayable",
      "type": "function"
    },
    {
      "inputs": [
        {
          "internalType": "address",
          "name": "from",
          "type": "address"
        },
        {
          "internalType": "address",
          "name": "to",
          "type": "address"
        },
        {
          "internalType": "uint256",
          "name": "tokenId",
          "type": "uint256"
        },
        {
          "internalType": "bytes",
          "name": "data",
          "type": "bytes"
        }
      ],
      "name": "safeTransferFrom",
      "outputs": [],
      "stateMutability": "nonpayable",
      "type": "function"
    },
    {
      "inputs": [
        {
          "internalType": "uint256",
          "name": "value",
          "type": "uint256"
        }
      ],
      "name": "seedJackpot",
      "outputs": [],
      "stateMutability": "nonpayable",
      "type": "function"
    },
    {
      "inputs": [],
      "name": "seedJackpotDelay",
      "outputs": [
        {
          "internalType": "uint256",
          "name": "",
          "type": "uint256"
        }
      ],
      "stateMutability": "view",
      "type": "function"
    },
    {
      "inputs": [],
      "name": "seedJackpotMinValue",
      "outputs": [
        {
          "internalType": "uint256",
          "name": "",
          "type": "uint256"
        }
      ],
      "stateMutability": "view",
      "type": "function"
    },
    {
      "inputs": [
        {
          "internalType": "address",
          "name": "operator",
          "type": "address"
        },
        {
          "internalType": "bool",
          "name": "approved",
          "type": "bool"
        }
      ],
      "name": "setApprovalForAll",
      "outputs": [],
      "stateMutability": "nonpayable",
      "type": "function"
    },
    {
      "inputs": [
        {
          "internalType": "address",
          "name": "renderer",
          "type": "address"
        }
      ],
      "name": "setTicketSVGRenderer",
      "outputs": [],
      "stateMutability": "nonpayable",
      "type": "function"
    },
    {
      "inputs": [
        {
          "internalType": "bytes4",
          "name": "interfaceId",
          "type": "bytes4"
        }
      ],
      "name": "supportsInterface",
      "outputs": [
        {
          "internalType": "bool",
          "name": "",
          "type": "bool"
        }
      ],
      "stateMutability": "view",
      "type": "function"
    },
    {
      "inputs": [],
      "name": "symbol",
      "outputs": [
        {
          "internalType": "string",
          "name": "",
          "type": "string"
        }
      ],
      "stateMutability": "view",
      "type": "function"
    },
    {
      "inputs": [],
      "name": "ticketPrice",
      "outputs": [
        {
          "internalType": "uint256",
          "name": "",
          "type": "uint256"
        }
      ],
      "stateMutability": "view",
      "type": "function"
    },
    {
      "inputs": [],
      "name": "ticketSVGRenderer",
      "outputs": [
        {
          "internalType": "address",
          "name": "",
          "type": "address"
        }
      ],
      "stateMutability": "view",
      "type": "function"
    },
    {
      "inputs": [
        {
          "internalType": "uint256",
          "name": "gameId",
          "type": "uint256"
        },
        {
          "internalType": "uint256",
          "name": "id",
          "type": "uint256"
        },
        {
          "internalType": "uint256",
          "name": "",
          "type": "uint256"
        }
      ],
      "name": "tokenByPickIdentity",
      "outputs": [
        {
          "internalType": "uint256",
          "name": "",
          "type": "uint256"
        }
      ],
      "stateMutability": "view",
      "type": "function"
    },
    {
      "inputs": [
        {
          "internalType": "uint256",
          "name": "tokenId",
          "type": "uint256"
        }
      ],
      "name": "tokenURI",
      "outputs": [
        {
          "internalType": "string",
          "name": "",
          "type": "string"
        }
      ],
      "stateMutability": "view",
      "type": "function"
    },
    {
      "inputs": [
        {
          "internalType": "address",
          "name": "from",
          "type": "address"
        },
        {
          "internalType": "address",
          "name": "to",
          "type": "address"
        },
        {
          "internalType": "uint256",
          "name": "tokenId",
          "type": "uint256"
        }
      ],
      "name": "transferFrom",
      "outputs": [],
      "stateMutability": "nonpayable",
      "type": "function"
    },
    {
      "inputs": [
        {
          "internalType": "address",
          "name": "newOwner",
          "type": "address"
        }
      ],
      "name": "transferOwnership",
      "outputs": [],
      "stateMutability": "nonpayable",
      "type": "function"
    },
    {
      "inputs": [],
      "name": "unclaimedPayouts",
      "outputs": [
        {
          "internalType": "uint256",
          "name": "",
          "type": "uint256"
        }
      ],
      "stateMutability": "view",
      "type": "function"
    },
    {
      "inputs": [],
      "name": "withdrawAccruedFees",
      "outputs": [],
      "stateMutability": "nonpayable",
      "type": "function"
    },
    {
      "stateMutability": "payable",
      "type": "receive"
    }
  ],
  "bytecode": "0x60808060405234620000bd577ff0c57e16840df040f15088dc2f81fe391c3923bec73e23a9662efc9c229c6a009081549060ff8260401c16620000ae57506001600160401b036002600160401b03198282160162000068575b6040516148279081620000c38239f35b6001600160401b031990911681179091556040519081527fc7f505b2f371ae2175ee4913f4499e1f2633a7b5936321eed1cdaeb6115181d290602090a138808062000058565b63f92ee8a960e01b8152600490fd5b600080fdfe60806040526004361015610023575b361561001957600080fd5b610021613485565b005b60003560e01c8062ae3bf8146103625780630171984b1461035d57806301ffc9a71461035857806302950fb91461035357806306fdde031461034e578063081812fc14610349578063095ea7b3146103445780630c0ef2b01461033f5780630eecae211461033a5780631209b1f61461033557806318575c0c1461033057806320800a001461032b57806323b872dd146103265780632efb2d4114610321578063336f528a1461031c57806338aeb836146103175780633b47492d1461031257806341c0e1b51461030d57806342842e0e1461030857806354dd386c146103035780635f2bdd25146102fe57806360b663bb146102f957806362ff220f146102f45780636352211e146102ef578063677bd9ff146102ea5780636b31ee01146102e557806370a08231146102e0578063715018a6146102db57806382250a43146102d65780638bba0174146102d15780638da5cb5b146102cc57806395d89b41146102c75780639ab6e297146102c2578063a0c4615c146102bd578063a14916d9146102b8578063a22cb465146102b3578063ab69dd08146102ae578063acef672b146102a9578063ada82c7d146102a4578063ae4663131461029f578063b13042511461029a578063b88d4fde14610295578063c097f54e14610290578063c87b56dd1461028b578063ccaf237f14610286578063d0ef024a14610281578063d20831af1461027c578063e02ae8ce14610277578063e0a4ddc914610272578063e985e9c51461026d578063efe2f0eb146102685763f2fde38b0361000e57612356565b612311565b612299565b61227a565b61224b565b61222d565b612206565b6121b8565b6120d2565b61209f565b611fe9565b611fc8565b611faa565b611f74565b611e4f565b61192a565b611840565b611818565b611637565b611619565b611517565b6114d1565b6114b3565b611486565b61140a565b611366565b611348565b61132c565b6112fd565b6111e3565b611182565b611137565b611119565b6110e6565b61103d565b611004565b610fb0565b610f56565b610f2f565b610f18565b610e6f565b610e4b565b610e2d565b610946565b610921565b6107b9565b61075b565b610727565b610569565b6104c8565b610498565b61038a565b6001600160a01b0381160361037857565b600080fd5b359061038882610367565b565b34610378576020366003190112610378576001600160a01b036004356103af81610367565b6103b76134bd565b6040517f70a082310000000000000000000000000000000000000000000000000000000081523060048201529116602082602481845afa9081156104935761002192600092610462575b50816104246104186003546001600160a01b031690565b6001600160a01b031690565b8214610433575b503390613520565b61045b91925061044961045291601254906123c8565b600c54906123c8565b600b54906123c8565b903861042b565b61048591925060203d60201161048c575b61047d8183611d63565b810190612383565b9038610401565b503d610473565b612392565b34610378576000366003190112610378576020600554604051908152f35b6001600160e01b031981160361037857565b346103785760203660031901126103785760206001600160e01b03196004356104f0816104b6565b167f80ac58cd00000000000000000000000000000000000000000000000000000000811490811561053f575b811561052e575b506040519015158152f35b6301ffc9a760e01b91501438610523565b7f5b5e139f000000000000000000000000000000000000000000000000000000008114915061051c565b346103785760203660031901126103785760043561058561357a565b600a5460ff1661059481611155565b806106ae5750600754811061067b576014546006546105b3818361243e565b421061062957826105c342601455565b6105d76105d282600b5461243e565b600b55565b6105f9816105f06104186003546001600160a01b031690565b30903390613589565b60405190815233907f0a45ec0e27527fa1519b691bab30b4fedbc1da4b3d04ba9d3663f1696be5410490602090a2005b6106779161063b61064092429261243e565b6123c8565b6040519182917ff015865e000000000000000000000000000000000000000000000000000000008352600483019190602083019252565b0390fd5b6040517f7b4763210000000000000000000000000000000000000000000000000000000081526004810191909152602490fd5b6106779060405191829163cbdafbe760e01b8352600483016123d5565b60005b8381106106de5750506000910152565b81810151838201526020016106ce565b90602091610707815180928185528580860191016106cb565b601f01601f1916010190565b9060206107249281815201906106ee565b90565b3461037857600036600319011261037857610757610743612485565b6040519182916020835260208301906106ee565b0390f35b3461037857602036600319011261037857600435610778816135f8565b506000527f80bb2b638cc20bc4d0a60d66940f3ab4a00c1d7b313497ca82fb0b4ab007930460205260206001600160a01b0360406000205416604051908152f35b34610378576040366003190112610378576004356107d681610367565b602435906107e3826135f8565b3315158061090e575b806108ab575b61087b578261002193610860926001600160a01b0380861691167f8c5be1e5ebec7d5bd14f71427d1e84f3dd0314c0f7b2291e5b200ac8c7c3b925600080a46000527f80bb2b638cc20bc4d0a60d66940f3ab4a00c1d7b313497ca82fb0b4ab0079304602052604060002090565b906001600160a01b03166001600160a01b0319825416179055565b60246040517fa9fbf51f000000000000000000000000000000000000000000000000000000008152336004820152fd5b5060ff610906336108ee846001600160a01b03166000527f80bb2b638cc20bc4d0a60d66940f3ab4a00c1d7b313497ca82fb0b4ab0079305602052604060002090565b906001600160a01b0316600052602052604060002090565b5416156107f2565b50336001600160a01b03821614156107ec565b3461037857600036600319011261037857602061093c61256d565b6040519015158152f35b3461037857600080600319360112610e2a575a61096161357a565b61096961258a565b805161097481611155565b61097d81611155565b610e03576020809101906109bc6109b761099e84516001600160f81b031690565b6001600160f81b0316600052600f602052604060002090565b6125b6565b8082015167ffffffffffffffff16906109e260015467ffffffffffffffff80941661243e565b804210610dd057505167ffffffffffffffff1616610b0f5750610a5a91610a22610a16610a5593516001600160f81b031690565b6001600160f81b031690565b7ff6ca837b06142a107fde1fb0f9c3379c6d079aa7fa4de4437961f3eb618222148580a2610a4e613674565b5a906123c8565b612413565b620249f09081811115610b0857505b610a86610a7e610a793a84612648565b612631565b612710900490565b804710610ae85780838080807fe3eefb52e4bcc62ccd48dee30da27e3e0e5e7b9396fe60e8adc034def8cc000995335af190610ac061267b565b506040805191825260208201949094523a93810193909352151560608301523391608090a280f35b6040516396fbe4dd60e01b81524760048201526024810191909152604490fd5b9050610a69565b9050610b23600160ff19600a541617600a55565b610b2b6125f3565b906001600160d01b039182610b4782516001600160d01b031690565b16151580610d9f575b610d335750610b6d6104186104186002546001600160a01b031690565b6040517f10b0d1d20000000000000000000000000000000000000000000000000000000081526207a120600482015292908284602481845afa938415610493578694610d14575b50834710610cf557610c0f8391610bca42612405565b6040519687809481937f1f53cf040000000000000000000000000000000000000000000000000000000083526004830160206207a12091939293604081019481520152565b03925af1928315610493578593610cd6575b50808311610ca457610a5592610c64610a5a9593610c55610c9f94610c44611d85565b941684906001600160d01b03169052565b4265ffffffffffff1690830152565b7fffffffffffff000000000000000000000000000000000000000000000000000060206001600160d01b0383511692015160d01b1617600d55565b610a4e565b6040517fa6110e8400000000000000000000000000000000000000000000000000000000815260048101849052602490fd5b610cee919350823d841161048c5761047d8183611d63565b9138610c21565b6040516396fbe4dd60e01b815247600482015260248101859052604490fd5b610d2c919450833d851161048c5761047d8183611d63565b9238610bb4565b610d5682610d4883516001600160d01b031690565b92015165ffffffffffff1690565b6040517f56753a960000000000000000000000000000000000000000000000000000000081526001600160d01b0392909216600483015265ffffffffffff166024820152604490fd5b50610dc8610dbd610db88484015165ffffffffffff1690565b612619565b65ffffffffffff1690565b421115610b50565b6040517f3fa5f83f0000000000000000000000000000000000000000000000000000000081526004810191909152602490fd5b6106779051610e1181611155565b60405191829163cbdafbe760e01b8352600483016123d5565b80fd5b34610378576000366003190112610378576020600454604051908152f35b3461037857600036600319011261037857602060ff60005460081c16604051908152f35b3461037857600080600319360112610e2a57610e896134bd565b8080808047335af1610e9961267b565b9015610ea3575080f35b476106776040519283927f59ed55cf00000000000000000000000000000000000000000000000000000000845233600485015260248401526060604484015260648301906106ee565b606090600319011261037857600435610f0481610367565b90602435610f1181610367565b9060443590565b3461037857610021610f2936610eec565b916126ab565b346103785760003660031901126103785760206001600160a01b0360085416604051908152f35b346103785760003660031901126103785760206001600160a01b0360025416604051908152f35b634e487b7160e01b600052603260045260246000fd5b8054821015610fab5760005260206000200190600090565b610f7d565b346103785760603660031901126103785760443560006004358152601060205260408120602435825260205260408120908154831015610e2a576020610ff68484610f93565b90546040519160031b1c8152f35b346103785760403660031901126103785760243560043560005260116020526040600020805482101561037857602091610ff691610f93565b3461037857600080600319360112610e2a576110576134bd565b6013546110bc5761106661258a565b805160028110156110a85761107a81611155565b610e03576110a0610a1661109b60206110a59401516001600160f81b031690565b61295d565b601355565b80f35b602483634e487b7160e01b81526021600452fd5b60046040517fe76abfdd000000000000000000000000000000000000000000000000000000008152fd5b34610378576100216110f736610eec565b906040519261110584611d47565b600084526111148383836126ab565b614081565b34610378576000366003190112610378576020600754604051908152f35b34610378576000366003190112610378576020601354604051908152f35b6002111561115f57565b634e487b7160e01b600052602160045260246000fd5b90600282101561115f5752565b34610378576000366003190112610378576040600a548151906111a88260ff8316611175565b60081c6020820152f35b9181601f840112156103785782359167ffffffffffffffff8311610378576020808501948460051b01011161037857565b346103785760403660031901126103785760043567ffffffffffffffff8111610378576112176100219136906004016111b2565b6024359161122483610367565b61123082600454612648565b611249816105f06104186003546001600160a01b031690565b61126261125b610a7e60055484612648565b80926123c8565b937f1efc214ec14d081e74ac22debc8d48a010f4f1f30ad4733c94e7c38ff90038e2611293610a16600a5460081c90565b916001600160a01b03908181161580156112d9576112bb6112b68760125461243e565b601255565b156112d45750305b6040519485521692602090a36138bf565b6112c3565b6112f886836112f36104186003546001600160a01b031690565b613520565b6112bb565b3461037857602036600319011261037857602061131b6004356135f8565b6001600160a01b0360405191168152f35b34610378576020366003190112610378576100216004356129cd565b34610378576000366003190112610378576020600b54604051908152f35b346103785760203660031901126103785760043561138381610367565b6001600160a01b038116156113d9576113d06020916001600160a01b03166000527f80bb2b638cc20bc4d0a60d66940f3ab4a00c1d7b313497ca82fb0b4ab0079303602052604060002090565b54604051908152f35b60246040517f89c62b6400000000000000000000000000000000000000000000000000000000815260006004820152fd5b3461037857600080600319360112610e2a576114246134bd565b806001600160a01b037f9016d09d72d40fdae2fd8ceac6b6234c7706214fd39c1cd1e609a0528c1993008054906001600160a01b031982169055167f8be0079c531659141344cd1fd0a4f28419497f9722a3daafe3b4186f6b6457e08280a380f35b34610378576020366003190112610378576100216004356114a681610367565b6114ae6134bd565b613cb4565b34610378576000366003190112610378576020600654604051908152f35b346103785760003660031901126103785760206001600160a01b037f9016d09d72d40fdae2fd8ceac6b6234c7706214fd39c1cd1e609a0528c1993005416604051908152f35b3461037857600080600319360112610e2a5760405190807f80bb2b638cc20bc4d0a60d66940f3ab4a00c1d7b313497ca82fb0b4ab0079301805461155a8161244b565b808652926020926001928084169081156115ea5750600114611593575b6107578761158781890382611d63565b60405191829182610713565b815293507ff4bad0a69248f59680a4f2b3000328cec71a413447c96781cfe5996daa8c456e5b8385106115d757505050508101602001611587826107573880611577565b80548686018401529382019381016115b9565b9150508695506107579693506020925061158794915060ff191682840152151560051b82010192933880611577565b34610378576000366003190112610378576020600c54604051908152f35b3461037857604080600319360112610378576004803560243567ffffffffffffffff81116103785761166c90369084016111b2565b9290916116846104186002546001600160a01b031690565b33036117e357600a5460ff1661169981611155565b600181036117c95750600d546001600160d01b03168181036117845750506116d46116c2611d85565b60008082526020909101819052600d55565b821561175d57506117396116f66116f060019461175394612c6c565b35613271565b7f4a2c5dc61d8caf543cef0b699bd08678003186170a4fff91cb694c4d9c1bdcad611723600a5460081c90565b955180611731848983612c75565b0390a1613d90565b926001600160f81b0316600052600f602052604060002090565b0155610021613674565b83517fbfa32be3000000000000000000000000000000000000000000000000000000008152fd5b85517faae75cf60000000000000000000000000000000000000000000000000000000081528084019283526001600160d01b0390911660208301529081906040010390fd5b82610677875192839263cbdafbe760e01b845283016123ef565b84517f01c096800000000000000000000000000000000000000000000000000000000081523381840190815281906020010390fd5b34610378576000366003190112610378576020601254604051908152f35b8015150361037857565b346103785760403660031901126103785760043561185d81610367565b60243561186981611836565b6001600160a01b0382169182156118f9576118ba906108ee336001600160a01b03166000527f80bb2b638cc20bc4d0a60d66940f3ab4a00c1d7b313497ca82fb0b4ab0079305602052604060002090565b9015159060ff1981541660ff83161790556040519081527f17307eab39ab6107e8899845ad3d59bd9653f200f220920489ca2b5937696c3160203392a3005b602483604051907f5b08ba180000000000000000000000000000000000000000000000000000000082526004820152fd5b34610378576020806003193601126103785767ffffffffffffffff90600480358381116103785761195e90369083016111b2565b90926119686134bd565b611985610a168261197761258a565b01516001600160f81b031690565b61198d61357a565b6119a46109b782600052600f602052604060002090565b95806119d1856119cc6119bf8b5167ffffffffffffffff1690565b67ffffffffffffffff1690565b61243e565b11611cda57611abb906119f490885167ffffffffffffffff165b908616906137eb565b8784015167ffffffffffffffff16611a376040809a015191611a27611a17611db3565b67ffffffffffffffff9095168552565b67ffffffffffffffff1683870152565b88820152611a4f83600052600f602052604060002090565b90604060019167ffffffffffffffff8151168454908067ffffffffffffffff1983161786557fffffffffffffffffffffffffffffffff000000000000000000000000000000006fffffffffffffffff00000000000000006020850151861b169216171784550151910155565b60009586549260ff808086169560081c169460095497611aec611ae789611ae18c612430565b9b61243e565b600955565b8a5b888110611b35578b8b8b8b835b818110611b06578480f35b80611b2f611b1f611b1a6001948689613807565b613829565b611b29838761243e565b90614329565b01611afb565b8a611b65611b5e611b55848d611b4f611b1a838389613807565b95613807565b88810190613833565b3691613869565b908151858103611cbe57508890878f808f915b898210611c475750506001600160a01b03869593611c2e611c299694611bc160019a7f38f7010e1714c2785562f89e75c8d417cb1908bd47a9e84cf5db470ad60c44cf9661243e565b978891611c06611bd08a613d90565b9182611bda611d85565b918b8352820152611bf585600052600e602052604060002090565b906020600191805184550151910155565b611c1a886000526010602052604060002090565b90600052602052604060002090565b612993565b611c3e8d5192839216958261208e565b0390a401611aee565b925092935050611c61611c5a838661315d565b5160ff1690565b90888083169116811115611ca5578c10611c855760019091018d89918c9493611b78565b8951639fb72f1760e01b815260ff90911681870190815281906020010390fd5b8a51634663ee2b60e01b81528061067787828b0161208e565b88516367982af760e01b81528086019182529081906020010390fd5b84611cf4856119cc6119bf8b5167ffffffffffffffff1690565b60405163300a29bf60e01b815291820190815281906020010390fd5b634e487b7160e01b600052604160045260246000fd5b6040810190811067ffffffffffffffff821117611d4257604052565b611d10565b6020810190811067ffffffffffffffff821117611d4257604052565b90601f8019910116810190811067ffffffffffffffff821117611d4257604052565b6040519061038882611d26565b604051906101a0820182811067ffffffffffffffff821117611d4257604052565b604051906060820182811067ffffffffffffffff821117611d4257604052565b67ffffffffffffffff8111611d4257601f01601f191660200190565b929192611dfb82611dd3565b91611e096040519384611d63565b829481845281830111610378578281602093846000960137010152565b9080601f830112156103785781602061072493359101611def565b359060ff8216820361037857565b34610378576003196020368201126103785760043567ffffffffffffffff91828211610378576101a090823603011261037857611e8a611d92565b90611e978160040161037d565b8252602481013583811161037857611eb59060043691840101611e26565b6020830152604481013592831161037857610184611f6991611ee06100219560043691840101611e26565b6040850152611ef160648201611e41565b6060850152611f0260848201611e41565b608085015260a481013560a085015260c481013560c085015260e481013560e0850152611f32610104820161037d565b610100850152611f45610124820161037d565b6101208501526101448101356101408501526101648101356101608501520161037d565b610180820152612c95565b3461037857600080600319360112610e2a57611f8e6134bd565b6110a560125482601255336001600160a01b0360035416613520565b34610378576000366003190112610378576020600154604051908152f35b3461037857600036600319011261037857602060ff60005416604051908152f35b346103785760803660031901126103785760043561200681610367565b6024359061201382610367565b6044356064359267ffffffffffffffff841161037857366023850112156103785761204b610021943690602481600401359101611def565b926111148383836126ab565b90815180825260208080930193019160005b828110612077575050505090565b835160ff1685529381019392810192600101612069565b906020610724928181520190612057565b34610378576020366003190112610378576107576120be600435613171565b604051918291602083526020830190612057565b34610378576020366003190112610378576004356120ef816135f8565b5060006001600160a01b036008541691612107612485565b92612117835460ff9060081c1690565b91612138600161213183600052600e602052604060002090565b0154613171565b94612172604051968795869485947f6de319740000000000000000000000000000000000000000000000000000000086526004860161323d565b03915afa80156104935761075791600091612195575b5060405191829182610713565b6121b291503d806000833e6121aa8183611d63565b8101906131de565b38612188565b3461037857602036600319011261037857600435600052600f60205260606040600020805490600167ffffffffffffffff9101549060405192818116845260401c1660208301526040820152f35b346103785760003660031901126103785760206001600160a01b0360035416604051908152f35b34610378576000366003190112610378576020601454604051908152f35b34610378576000366003190112610378576040600d548151906001600160d01b038116825260d01c6020820152f35b34610378576020366003190112610378576107576120be600435613271565b3461037857604036600319011261037857602060ff6123056004356122bd81610367565b6108ee602435916122cd83610367565b6001600160a01b03166000527f80bb2b638cc20bc4d0a60d66940f3ab4a00c1d7b313497ca82fb0b4ab0079305602052604060002090565b54166040519015158152f35b3461037857602036600319011261037857600435600052600e602052604060002060018154910154906107576040519283928360209093929193604081019481520152565b346103785760203660031901126103785761002160043561237681610367565b61237e6134bd565b6133e7565b90816020910312610378575190565b6040513d6000823e3d90fd5b634e487b7160e01b600052601160045260246000fd5b6000198101919082116123c357565b61239e565b919082039182116123c357565b60206000919392936123eb816040810196611175565b0152565b60206001919392936123eb816040810196611175565b90601e82018092116123c357565b9061753082018092116123c357565b60010190816001116123c357565b90600182018092116123c357565b919082018092116123c357565b90600182811c9216801561247b575b602083101461246557565b634e487b7160e01b600052602260045260246000fd5b91607f169161245a565b604051906000827f80bb2b638cc20bc4d0a60d66940f3ab4a00c1d7b313497ca82fb0b4ab0079300918254926124ba8461244b565b8084529360209160019182811690811561254757506001146124e6575b50505061038892500383611d63565b60009081527f37c58c799b6609234b945e882912ee9ad34948a1dfaa20a97485e1a7752bbf819590935091905b82841061252f57506103889450505081016020013880806124d7565b85548885018301529485019487945092810192612513565b925050506020925061038894915060ff191682840152151560051b8201013880806124d7565b601354801515908161257e57501590565b600a5460081c10919050565b6040519061259782611d26565b81600a5460ff811690600282101561115f57602091835260081c910152565b60405167ffffffffffffffff92916060820184811183821017611d42576040916001918352839581548181168652841c1660208501520154910152565b6040519061260082611d26565b600d546001600160d01b038116835260d01c6020830152565b90610e1065ffffffffffff809316019182116123c357565b90612af8918281029281840414901517156123c357565b818102929181159184041417156123c357565b8115612665570490565b634e487b7160e01b600052601260045260246000fd5b3d156126a6573d9061268c82611dd3565b9161269a6040519384611d63565b82523d6000602084013e565b606090565b6001600160a01b03908183168015612945578490836126f3836000527f80bb2b638cc20bc4d0a60d66940f3ab4a00c1d7b313497ca82fb0b4ab0079302602052604060002090565b54169433151580612842575b5061278090866127f0575b612746816001600160a01b03166000527f80bb2b638cc20bc4d0a60d66940f3ab4a00c1d7b313497ca82fb0b4ab0079303602052604060002090565b60018154019055610860846000527f80bb2b638cc20bc4d0a60d66940f3ab4a00c1d7b313497ca82fb0b4ab0079302602052604060002090565b847fddf252ad1be2c89b69c2b068fc378daa952ba7f163c4a11628f55a4df523b3ef600080a416918282036127b457505050565b60649350604051927f64283d7b000000000000000000000000000000000000000000000000000000008452600484015260248301526044820152fd5b6127f9846142e6565b612835876001600160a01b03166000527f80bb2b638cc20bc4d0a60d66940f3ab4a00c1d7b313497ca82fb0b4ab0079303602052604060002090565b805460001901905561270a565b91925090806128b3575b1561285a57908591386126ff565b858561287a57604051637e27328960e01b81526004810191909152602490fd5b6040517f177e802f0000000000000000000000000000000000000000000000000000000081523360048201526024810191909152604490fd5b5033851480156128fb575b8061284c5750856000527f80bb2b638cc20bc4d0a60d66940f3ab4a00c1d7b313497ca82fb0b4ab00793046020523384604060002054161461284c565b5060ff61293e336108ee886001600160a01b03166000527f80bb2b638cc20bc4d0a60d66940f3ab4a00c1d7b313497ca82fb0b4ab0079305602052604060002090565b54166128be565b6024604051633250574960e11b815260006004820152fd5b9060016001600160f81b03809316019182116123c357565b9060405161298281611d26565b602060018294805484520154910152565b805468010000000000000000811015611d42576129b591600182018155610f93565b819291549060031b91821b91600019901b1916179055565b600a5460ff166129dc81611155565b806106ae5750612a25612a18826000527f80bb2b638cc20bc4d0a60d66940f3ab4a00c1d7b313497ca82fb0b4ab0079302602052604060002090565b546001600160a01b031690565b916001600160a01b03831615612c5357612a3e82613b4a565b612a5a612a5583600052600e602052604060002090565b612975565b92612a6a610a16600a5460081c90565b612a758551916123b4565b03612c2157612a926109b78551600052600f602052604060002090565b92604084015194612ab286611c1a83516000526010602052604060002090565b5490612ac981516000526011602052604060002090565b5495821580612c0c575b612bb55750602081019586518814612b215786516040517f6ddaa595000000000000000000000000000000000000000000000000000000008152600481019190915260248101899052604490fd5b612b739192939597507f38eb4599d8dccd3edd335a3f80fea5dbaae4b6cb0db2866060f333f6796db323949650612b67612b61612b6e92600c54966123c8565b8561265b565b80946123c8565b600c55565b612b8c84611c2983516000526011602052604060002090565b612b968286613c89565b51604080516001600160a01b03969096168652602086019290925293a3565b90929496507f1526f29dc67f9d8967789be9aa23179c7826c4a1c063c5834b5c4c495aaa07cb939550612c019150612bfb6119bf600c54925167ffffffffffffffff1690565b9061265b565b90612b968286613c89565b50612c1c612c1861256d565b1590565b612ad3565b6040517f2506adb500000000000000000000000000000000000000000000000000000000815260048101849052602490fd5b604051637e27328960e01b815260048101839052602490fd5b9015610fab5790565b6040906001600160f81b0361072494931681528160208201520190612057565b7ff0c57e16840df040f15088dc2f81fe391c3923bec73e23a9662efc9c229c6a0080549160ff8360401c16159267ffffffffffffffff811680159081612df5575b6001149081612deb575b159081612de2575b50612db85767ffffffffffffffff1916600117909155612d0c9082612d7757612dfd565b612d1257565b7ff0c57e16840df040f15088dc2f81fe391c3923bec73e23a9662efc9c229c6a00805468ff000000000000000019169055604051600181527fc7f505b2f371ae2175ee4913f4499e1f2633a7b5936321eed1cdaeb6115181d29080602081015b0390a1565b7ff0c57e16840df040f15088dc2f81fe391c3923bec73e23a9662efc9c229c6a00805468ff0000000000000000191668010000000000000000179055612dfd565b60046040517ff92ee8a9000000000000000000000000000000000000000000000000000000008152fd5b90501538612ce8565b303b159150612ce0565b859150612cd6565b612e16612e1182516001600160a01b031690565b613dbf565b602081015190612e2c6040928383015190613dd3565b60608101805160ff1680156130f7575051612e549060ff1660ff1660ff196000541617600055565b612e7c612e65608083015160ff1690565b61ff006000549160081b169061ff00191617600055565b60a08101805161025881106130c557505160015560c0810180518015613093575051600455612eae60e0820151600555565b610100810180516001600160a01b03919082168015613058575051612ef2906001600160a01b03166001600160a01b03166001600160a01b03196002541617600255565b610120820190612f0982516001600160a01b031690565b9081161561301d575051612f3c906001600160a01b03166001600160a01b03166001600160a01b03196003541617600355565b612f4a610140820151600655565b612f58610160820151600755565b60065480158015613013575b612fd5575090612f856114ae6101806103889401516001600160a01b031690565b6000612f8f611db3565b8181524267ffffffffffffffff1660208201529182015260008052600f6020527ff4803e074bd026baaf6ed2e288c9515f68c72fb7216eebdd7cae1718a53ec375611a4f565b60075492517f0758bd770000000000000000000000000000000000000000000000000000000081526004810191909152602481019290925250604490fd5b5060075415612f64565b83517f4d05c0480000000000000000000000000000000000000000000000000000000081526001600160a01b03919091166004820152602490fd5b84517f5e280fa50000000000000000000000000000000000000000000000000000000081526001600160a01b03919091166004820152602490fd5b83517fb05276a50000000000000000000000000000000000000000000000000000000081526004810191909152602490fd5b83517faf0b9fe10000000000000000000000000000000000000000000000000000000081526004810191909152602490fd5b83516367982af760e01b815260ff919091166004820152602490fd5b67ffffffffffffffff8111611d425760051b60200190565b9061313582613113565b6131426040519182611d63565b8281528092613153601f1991613113565b0190602036910137565b8051821015610fab5760209160051b010190565b60ff9160ff600054166131838161312b565b93600090815b610100811061319b575b505050509050565b6001808088841c16146131be575b508383146131b957600101613189565b613193565b8360001981146123c35701926131d7838316918961315d565b52386131a9565b6020818303126103785780519067ffffffffffffffff8211610378570181601f8201121561037857805161321181611dd3565b9261321f6040519485611d63565b818452602082840101116103785761072491602080850191016106cb565b9061072494929361325860ff926080855260808501906106ee565b9460208401521660408201526060818403910152612057565b60009081549060ff8216906132858261312b565b9360ff819460081c169283158015935b8287106132ac5750505050505050610724906141ab565b8697989293949596928683906133dd575b80156133d6575b6133ac576132d188614118565b6002908982820a146001146133a1576001016fffffffffffffffffffffffffffffffff811161339d5790613305910a614118565b946040938451938060809687870181528601528a606086015260208501965b8880820691048a5b8a6004821061338657905002018b811015613324576133699299985061336391975061337b939b9a9650600195509c9b939c612422565b60ff1690565b613373838c61315d565b9060ff169052565b019591939093613295565b8293600192938a52838c528a8a200106910161332c565b8780fd5b505061330588614118565b60046040517ff34cfab6000000000000000000000000000000000000000000000000000000008152fd5b50856132c4565b50878910156132bd565b6001600160a01b03809116908115613454577f9016d09d72d40fdae2fd8ceac6b6234c7706214fd39c1cd1e609a0528c199300805490836001600160a01b03198316179055167f8be0079c531659141344cd1fd0a4f28419497f9722a3daafe3b4186f6b6457e0600080a3565b60246040517f1e4fbdf700000000000000000000000000000000000000000000000000000000815260006004820152fd5b604080513381523460208201527f88a5966d370b9919b20f3e2c13ff65706f196a4e32cc2c12bf57088f885258749181908101612d72565b6001600160a01b037f9016d09d72d40fdae2fd8ceac6b6234c7706214fd39c1cd1e609a0528c199300541633036134f057565b60246040517f118cdaa7000000000000000000000000000000000000000000000000000000008152336004820152fd5b6040517fa9059cbb0000000000000000000000000000000000000000000000000000000060208201526001600160a01b0392909216602483015260448083019390935291815261038891613575606483611d63565b61425a565b61358261256d565b156110bc57565b9290604051927f23b872dd0000000000000000000000000000000000000000000000000000000060208501526001600160a01b03809216602485015216604483015260648201526064815260a081019181831067ffffffffffffffff841117611d42576103889260405261425a565b806000527f80bb2b638cc20bc4d0a60d66940f3ab4a00c1d7b313497ca82fb0b4ab00793026020526001600160a01b036040600020541690811561363a575090565b60249060405190637e27328960e01b82526004820152fd5b805190600282101561115f5760ff906020821991015160081b16911617600a55565b610388613683600a5460081c90565b6136c460016136a5836001600160f81b0316600052600f602052604060002090565b0154611c1a836001600160f81b03166000526010602052604060002090565b547f59a23cf10d003eab0c59d7c706e3b4b20aeddabe02c2ae924bd12cfb8c3e4b64600c5491600b54901560001461379f57613700818461243e565b9061370a82600b55565b6137146000600c55565b60408051948552602085019190915260009084015260608301526001600160f81b03831691608090a25b61377061374a8261295d565b61376b613755611d85565b600081526001600160f81b039092166020830152565b613652565b611a4f61099e61377e611db3565b600081524267ffffffffffffffff166020820152926000604085015261295d565b806137ac6137e392600c55565b6137b66000600b55565b6040805194855260208501829052840152600060608401526001600160f81b038416929081906080820190565b0390a261373e565b91909167ffffffffffffffff808094169116019182116123c357565b9190811015610fab5760051b81013590603e1981360301821215610378570190565b3561072481610367565b903590601e1981360301821215610378570180359067ffffffffffffffff821161037857602001918160051b3603831361037857565b929161387482613113565b916138826040519384611d63565b829481845260208094019160051b810192831161037857905b8282106138a85750505050565b8380916138b484611e41565b81520191019061389b565b919060206138d3610a16602061197761258a565b6138db61357a565b6138f26109b782600052600f602052604060002090565b9367ffffffffffffffff9081613917866119cc6119bf8a5167ffffffffffffffff1690565b11613b1057613990916139326105d261394393600b5461243e565b865167ffffffffffffffff166119eb565b602086015167ffffffffffffffff1661397860408098015191613967611a17611db3565b67ffffffffffffffff166020840152565b86820152611a4f83600052600f602052604060002090565b600080549160ff9560ff8085169460081c1693600954976139b7611ae789611ae18c612430565b60005b8881106139f357505050505050505060005b8181106139d95750505050565b806139ed611b1f611b1a6001948689613807565b016139cc565b8a613a16611b5e613a0d848d611b4f611b1a838389613807565b8b810190613833565b908151858103613af7575086908a8d8a805b898210613a8a5750506001600160a01b03869593613a71611c299694611bc160019a7f38f7010e1714c2785562f89e75c8d417cb1908bd47a9e84cf5db470ad60c44cf9661243e565b613a818b5192839216958261208e565b0390a4016139ba565b925092935050613a9d611c5a838661315d565b90868083169116811115613add578b10613ac15760019091018d8c918a9493613a28565b8751639fb72f1760e01b815260ff919091166004820152602490fd5b8851634663ee2b60e01b815280610677876004830161208e565b86516367982af760e01b81526004810191909152602490fd5b610677613b2c866119cc6119bf8a5167ffffffffffffffff1690565b60405191829163300a29bf60e01b8352600483019190602083019252565b6001600160a01b03613b85826000527f80bb2b638cc20bc4d0a60d66940f3ab4a00c1d7b313497ca82fb0b4ab0079302602052604060002090565b54168160008215928315613c00575b613bc7836000527f80bb2b638cc20bc4d0a60d66940f3ab4a00c1d7b313497ca82fb0b4ab0079302602052604060002090565b6001600160a01b031981541690557fddf252ad1be2c89b69c2b068fc378daa952ba7f163c4a11628f55a4df523b3ef8280a461363a5750565b613c33836000527f80bb2b638cc20bc4d0a60d66940f3ab4a00c1d7b313497ca82fb0b4ab0079304602052604060002090565b6001600160a01b03198154169055613c7d816001600160a01b03166000527f80bb2b638cc20bc4d0a60d66940f3ab4a00c1d7b313497ca82fb0b4ab0079303602052604060002090565b82198154019055613b94565b90610388916001600160a01b0360035416613520565b90816020910312610378575161072481611836565b6001600160a01b031680158015613d0e575b613cdd576001600160a01b03196008541617600855565b602490604051907f64fd73040000000000000000000000000000000000000000000000000000000082526004820152fd5b506040516301ffc9a760e01b81527f86ff1054000000000000000000000000000000000000000000000000000000006004820152602081602481855afa90811561049357600091613d61575b5015613cc6565b613d83915060203d602011613d89575b613d7b8183611d63565b810190613c9f565b38613d5a565b503d613d71565b906000805b8351821015613dba576001908160ff613dae858861315d565b51161b17910190613d95565b925050565b61038890613dcb6144be565b61237e6144be565b9190613ddd6144be565b613de56144be565b825167ffffffffffffffff8111611d42577f80bb2b638cc20bc4d0a60d66940f3ab4a00c1d7b313497ca82fb0b4ab007930090613e2b81613e26845461244b565b614517565b602080601f8311600114613e7457509080613e62926103889697600092613e69575b50508160011b916000199060031b1c19161790565b9055614639565b015190503880613e4d565b90601f19831696613ec67f80bb2b638cc20bc4d0a60d66940f3ab4a00c1d7b313497ca82fb0b4ab00793006000527f37c58c799b6609234b945e882912ee9ad34948a1dfaa20a97485e1a7752bbf8190565b926000905b898210613f0c57505090839291600194610388989910613ef3575b505050811b019055614639565b015160001960f88460031b161c19169055388080613ee6565b80600185968294968601518155019501930190613ecb565b908160209103126103785751610724816104b6565b61072493926001600160a01b0360809316825260006020830152604082015281606082015201906106ee565b909261072494936080936001600160a01b038092168452166020830152604082015281606082015201906106ee565b91823b613fa057505050565b6020613fc39160405180938192630a85bd0160e11b968784523360048501613f39565b038160006001600160a01b0388165af160009181614050575b5061401b5782613fea61267b565b805191908261401457604051633250574960e11b81526001600160a01b0383166004820152602490fd5b9050602001fd5b6001600160e01b0319160361402d5750565b604051633250574960e11b81526001600160a01b03919091166004820152602490fd5b61407391925060203d60201161407a575b61406b8183611d63565b810190613f24565b9038613fdc565b503d614061565b91929092833b614092575b50505050565b6140b7916020916040519384928392630a85bd0160e11b978885523360048601613f65565b038160006001600160a01b0388165af1600091816140f7575b506140de5782613fea61267b565b6001600160e01b0319160361402d57503880808061408c565b61411191925060203d60201161407a5761406b8183611d63565b90386140d0565b906000916003811160011461413857151960011661413257565b60019150565b9150600182811c810190835b84831061415057505050565b9193508382048401811c91614144565b7f800000000000000000000000000000000000000000000000000000000000000081146123c3576000190190565b90600182019160006001841291129080158216911516176123c357565b9081516001905b8082106141bd575050565b60ff6141c9838661315d565b51169260001983016001848213166123c3575b600081121580614242575b1561421c5780614212614200611c5a614217948a61315d565b61337361420c8461418e565b8a61315d565b614160565b6141dc565b600192939195946133736142326142389361418e565b8761315d565b01909291926141b2565b50614253613363611c5a838961315d565b85106141e7565b6000806001600160a01b0361428493169360208151910182865af161427d61267b565b908361475e565b80519081151591826142cb575b505061429a5750565b602490604051907f5274afe70000000000000000000000000000000000000000000000000000000082526004820152fd5b6142de9250602080918301019101613c9f565b153880614291565b614319906000527f80bb2b638cc20bc4d0a60d66940f3ab4a00c1d7b313497ca82fb0b4ab0079304602052604060002090565b6001600160a01b03198154169055565b906040519061433782611d47565b600082526001600160a01b03808416908115612945578290614382826000527f80bb2b638cc20bc4d0a60d66940f3ab4a00c1d7b313497ca82fb0b4ab0079302602052604060002090565b541691821515928361446c575b6143cb876001600160a01b03166000527f80bb2b638cc20bc4d0a60d66940f3ab4a00c1d7b313497ca82fb0b4ab0079303602052604060002090565b6001815401905561440987610860856000527f80bb2b638cc20bc4d0a60d66940f3ab4a00c1d7b313497ca82fb0b4ab0079302602052604060002090565b7fddf252ad1be2c89b69c2b068fc378daa952ba7f163c4a11628f55a4df523b3ef600080a461443b5761038892613f94565b60246040517f73c6ac6e00000000000000000000000000000000000000000000000000000000815260006004820152fd5b614475836142e6565b6144b1816001600160a01b03166000527f80bb2b638cc20bc4d0a60d66940f3ab4a00c1d7b313497ca82fb0b4ab0079303602052604060002090565b805460001901905561438f565b60ff7ff0c57e16840df040f15088dc2f81fe391c3923bec73e23a9662efc9c229c6a005460401c16156144ed57565b60046040517fd7e6bcf8000000000000000000000000000000000000000000000000000000008152fd5b601f8111614523575050565b6000907f80bb2b638cc20bc4d0a60d66940f3ab4a00c1d7b313497ca82fb0b4ab00793006000527f37c58c799b6609234b945e882912ee9ad34948a1dfaa20a97485e1a7752bbf81906020601f850160051c8301941061459e575b601f0160051c01915b82811061459357505050565b818155600101614587565b909250829061457e565b601f81116145b4575050565b6000907f80bb2b638cc20bc4d0a60d66940f3ab4a00c1d7b313497ca82fb0b4ab00793016000527ff4bad0a69248f59680a4f2b3000328cec71a413447c96781cfe5996daa8c456e906020601f850160051c8301941061462f575b601f0160051c01915b82811061462457505050565b818155600101614618565b909250829061460f565b90815167ffffffffffffffff8111611d42577f80bb2b638cc20bc4d0a60d66940f3ab4a00c1d7b313497ca82fb0b4ab0079301906146808161467b845461244b565b6145a8565b602080601f83116001146146b7575081906146b3939495600092613e695750508160011b916000199060031b1c19161790565b9055565b90601f198316956147097f80bb2b638cc20bc4d0a60d66940f3ab4a00c1d7b313497ca82fb0b4ab00793016000527ff4bad0a69248f59680a4f2b3000328cec71a413447c96781cfe5996daa8c456e90565b926000905b8882106147465750508360019596971061472d575b505050811b019055565b015160001960f88460031b161c19169055388080614723565b8060018596829496860151815501950193019061470e565b9061479d575080511561477357805190602001fd5b60046040517f1425ea42000000000000000000000000000000000000000000000000000000008152fd5b815115806147e8575b6147ae575090565b6024906001600160a01b03604051917f9996b315000000000000000000000000000000000000000000000000000000008352166004820152fd5b50803b156147a656fea26469706673582212208267a1b785dbee945ef5932adad8623db87a5b76139e6294a134795a4e86501b64736f6c63430008170033",
  "linkReferences": {},
  "deployedLinkReferences": {}
}