{
  "_format": "hh-sol-artifact-1",
  "contractName": "Lootery",
  "sourceName": "contracts/Lootery.sol",
  "abi": [
    {
      "inputs": [],
      "stateMutability": "nonpayable",
      "type": "constructor"
    },
    {
      "inputs": [
        {
          "internalType": "address",
          "name": "target",
          "type": "address"
        }
      ],
      "name": "AddressEmptyCode",
      "type": "error"
    },
    {
      "inputs": [
        {
          "internalType": "address",
          "name": "account",
          "type": "address"
        }
      ],
      "name": "AddressInsufficientBalance",
      "type": "error"
    },
    {
      "inputs": [
        {
          "internalType": "address",
          "name": "caller",
          "type": "address"
        }
      ],
      "name": "CallerNotRandomiser",
      "type": "error"
    },
    {
      "inputs": [
        {
          "internalType": "uint256",
          "name": "tokenId",
          "type": "uint256"
        }
      ],
      "name": "ClaimWindowMissed",
      "type": "error"
    },
    {
      "inputs": [
        {
          "internalType": "address",
          "name": "sender",
          "type": "address"
        },
        {
          "internalType": "uint256",
          "name": "tokenId",
          "type": "uint256"
        },
        {
          "internalType": "address",
          "name": "owner",
          "type": "address"
        }
      ],
      "name": "ERC721IncorrectOwner",
      "type": "error"
    },
    {
      "inputs": [
        {
          "internalType": "address",
          "name": "operator",
          "type": "address"
        },
        {
          "internalType": "uint256",
          "name": "tokenId",
          "type": "uint256"
        }
      ],
      "name": "ERC721InsufficientApproval",
      "type": "error"
    },
    {
      "inputs": [
        {
          "internalType": "address",
          "name": "approver",
          "type": "address"
        }
      ],
      "name": "ERC721InvalidApprover",
      "type": "error"
    },
    {
      "inputs": [
        {
          "internalType": "address",
          "name": "operator",
          "type": "address"
        }
      ],
      "name": "ERC721InvalidOperator",
      "type": "error"
    },
    {
      "inputs": [
        {
          "internalType": "address",
          "name": "owner",
          "type": "address"
        }
      ],
      "name": "ERC721InvalidOwner",
      "type": "error"
    },
    {
      "inputs": [
        {
          "internalType": "address",
          "name": "receiver",
          "type": "address"
        }
      ],
      "name": "ERC721InvalidReceiver",
      "type": "error"
    },
    {
      "inputs": [
        {
          "internalType": "address",
          "name": "sender",
          "type": "address"
        }
      ],
      "name": "ERC721InvalidSender",
      "type": "error"
    },
    {
      "inputs": [
        {
          "internalType": "uint256",
          "name": "tokenId",
          "type": "uint256"
        }
      ],
      "name": "ERC721NonexistentToken",
      "type": "error"
    },
    {
      "inputs": [],
      "name": "EmptyDisplayName",
      "type": "error"
    },
    {
      "inputs": [],
      "name": "FailedInnerCall",
      "type": "error"
    },
    {
      "inputs": [],
      "name": "GameAlreadyDrawn",
      "type": "error"
    },
    {
      "inputs": [],
      "name": "GameInactive",
      "type": "error"
    },
    {
      "inputs": [
        {
          "internalType": "uint256",
          "name": "paid",
          "type": "uint256"
        },
        {
          "internalType": "uint256",
          "name": "expected",
          "type": "uint256"
        }
      ],
      "name": "IncorrectPaymentAmount",
      "type": "error"
    },
    {
      "inputs": [
        {
          "internalType": "uint256",
          "name": "value",
          "type": "uint256"
        }
      ],
      "name": "InsufficientJackpotSeed",
      "type": "error"
    },
    {
      "inputs": [
        {
          "internalType": "uint256",
          "name": "have",
          "type": "uint256"
        },
        {
          "internalType": "uint256",
          "name": "want",
          "type": "uint256"
        }
      ],
      "name": "InsufficientOperationalFunds",
      "type": "error"
    },
    {
      "inputs": [],
      "name": "InsufficientRandomWords",
      "type": "error"
    },
    {
      "inputs": [
        {
          "internalType": "uint256",
          "name": "ballValue",
          "type": "uint256"
        }
      ],
      "name": "InvalidBallValue",
      "type": "error"
    },
    {
      "inputs": [],
      "name": "InvalidFeeShares",
      "type": "error"
    },
    {
      "inputs": [
        {
          "internalType": "uint256",
          "name": "gamePeriod",
          "type": "uint256"
        }
      ],
      "name": "InvalidGamePeriod",
      "type": "error"
    },
    {
      "inputs": [],
      "name": "InvalidInitialization",
      "type": "error"
    },
    {
      "inputs": [],
      "name": "InvalidInputs",
      "type": "error"
    },
    {
      "inputs": [
        {
          "internalType": "uint256",
          "name": "maxBallValue",
          "type": "uint256"
        }
      ],
      "name": "InvalidMaxBallValue",
      "type": "error"
    },
    {
      "inputs": [
        {
          "internalType": "uint256",
          "name": "pickLength",
          "type": "uint256"
        }
      ],
      "name": "InvalidPickLength",
      "type": "error"
    },
    {
      "inputs": [
        {
          "internalType": "address",
          "name": "prizeToken",
          "type": "address"
        }
      ],
      "name": "InvalidPrizeToken",
      "type": "error"
    },
    {
      "inputs": [
        {
          "internalType": "address",
          "name": "randomiser",
          "type": "address"
        }
      ],
      "name": "InvalidRandomiser",
      "type": "error"
    },
    {
      "inputs": [
        {
          "internalType": "uint256",
          "name": "delay",
          "type": "uint256"
        },
        {
          "internalType": "uint256",
          "name": "minValue",
          "type": "uint256"
        }
      ],
      "name": "InvalidSeedJackpotConfig",
      "type": "error"
    },
    {
      "inputs": [
        {
          "internalType": "uint256",
          "name": "ticketPrice",
          "type": "uint256"
        }
      ],
      "name": "InvalidTicketPrice",
      "type": "error"
    },
    {
      "inputs": [
        {
          "internalType": "address",
          "name": "renderer",
          "type": "address"
        }
      ],
      "name": "InvalidTicketSVGRenderer",
      "type": "error"
    },
    {
      "inputs": [],
      "name": "NoRandomnessRequestInFlight",
      "type": "error"
    },
    {
      "inputs": [],
      "name": "NoTicketsSpecified",
      "type": "error"
    },
    {
      "inputs": [],
      "name": "NotInitializing",
      "type": "error"
    },
    {
      "inputs": [
        {
          "internalType": "address",
          "name": "owner",
          "type": "address"
        }
      ],
      "name": "OwnableInvalidOwner",
      "type": "error"
    },
    {
      "inputs": [
        {
          "internalType": "address",
          "name": "account",
          "type": "address"
        }
      ],
      "name": "OwnableUnauthorizedAccount",
      "type": "error"
    },
    {
      "inputs": [
        {
          "internalType": "uint256",
          "name": "secondsToWait",
          "type": "uint256"
        }
      ],
      "name": "RateLimited",
      "type": "error"
    },
    {
      "inputs": [
        {
          "internalType": "uint256",
          "name": "actual",
          "type": "uint256"
        },
        {
          "internalType": "uint208",
          "name": "expected",
          "type": "uint208"
        }
      ],
      "name": "RequestIdMismatch",
      "type": "error"
    },
    {
      "inputs": [
        {
          "internalType": "uint256",
          "name": "requestId",
          "type": "uint256"
        }
      ],
      "name": "RequestIdOverflow",
      "type": "error"
    },
    {
      "inputs": [
        {
          "internalType": "address",
          "name": "token",
          "type": "address"
        }
      ],
      "name": "SafeERC20FailedOperation",
      "type": "error"
    },
    {
      "inputs": [
        {
          "internalType": "address",
          "name": "to",
          "type": "address"
        },
        {
          "internalType": "uint256",
          "name": "value",
          "type": "uint256"
        },
        {
          "internalType": "bytes",
          "name": "reason",
          "type": "bytes"
        }
      ],
      "name": "TransferFailure",
      "type": "error"
    },
    {
      "inputs": [
        {
          "internalType": "enum ILootery.GameState",
          "name": "actual",
          "type": "uint8"
        }
      ],
      "name": "UnexpectedState",
      "type": "error"
    },
    {
      "inputs": [
        {
          "internalType": "address",
          "name": "beneficiary",
          "type": "address"
        }
      ],
      "name": "UnknownBeneficiary",
      "type": "error"
    },
    {
      "inputs": [
        {
          "internalType": "uint8[]",
          "name": "pick",
          "type": "uint8[]"
        }
      ],
      "name": "UnsortedPick",
      "type": "error"
    },
    {
      "inputs": [
        {
          "internalType": "uint256",
          "name": "deadline",
          "type": "uint256"
        }
      ],
      "name": "WaitLonger",
      "type": "error"
    },
    {
      "anonymous": false,
      "inputs": [
        {
          "indexed": true,
          "internalType": "address",
          "name": "to",
          "type": "address"
        },
        {
          "indexed": false,
          "internalType": "uint256",
          "name": "amount",
          "type": "uint256"
        }
      ],
      "name": "AccruedCommunityFeesWithdrawn",
      "type": "event"
    },
    {
      "anonymous": false,
      "inputs": [
        {
          "indexed": true,
          "internalType": "address",
          "name": "owner",
          "type": "address"
        },
        {
          "indexed": true,
          "internalType": "address",
          "name": "approved",
          "type": "address"
        },
        {
          "indexed": true,
          "internalType": "uint256",
          "name": "tokenId",
          "type": "uint256"
        }
      ],
      "name": "Approval",
      "type": "event"
    },
    {
      "anonymous": false,
      "inputs": [
        {
          "indexed": true,
          "internalType": "address",
          "name": "owner",
          "type": "address"
        },
        {
          "indexed": true,
          "internalType": "address",
          "name": "operator",
          "type": "address"
        },
        {
          "indexed": false,
          "internalType": "bool",
          "name": "approved",
          "type": "bool"
        }
      ],
      "name": "ApprovalForAll",
      "type": "event"
    },
    {
      "anonymous": false,
      "inputs": [
        {
          "indexed": true,
          "internalType": "address",
          "name": "beneficiary",
          "type": "address"
        },
        {
          "indexed": false,
          "internalType": "string",
          "name": "displayName",
          "type": "string"
        }
      ],
      "name": "BeneficiaryAdded",
      "type": "event"
    },
    {
      "anonymous": false,
      "inputs": [
        {
          "indexed": true,
          "internalType": "uint256",
          "name": "gameId",
          "type": "uint256"
        },
        {
          "indexed": true,
          "internalType": "address",
          "name": "beneficiary",
          "type": "address"
        },
        {
          "indexed": false,
          "internalType": "uint256",
          "name": "value",
          "type": "uint256"
        }
      ],
      "name": "BeneficiaryPaid",
      "type": "event"
    },
    {
      "anonymous": false,
      "inputs": [
        {
          "indexed": true,
          "internalType": "address",
          "name": "beneficiary",
          "type": "address"
        }
      ],
      "name": "BeneficiaryRemoved",
      "type": "event"
    },
    {
      "anonymous": false,
      "inputs": [
        {
          "indexed": false,
          "internalType": "uint256",
          "name": "newCallbackGasLimit",
          "type": "uint256"
        }
      ],
      "name": "CallbackGasLimitSet",
      "type": "event"
    },
    {
      "anonymous": false,
      "inputs": [
        {
          "indexed": true,
          "internalType": "uint256",
          "name": "tokenId",
          "type": "uint256"
        },
        {
          "indexed": true,
          "internalType": "uint256",
          "name": "gameId",
          "type": "uint256"
        },
        {
          "indexed": false,
          "internalType": "address",
          "name": "whomst",
          "type": "address"
        },
        {
          "indexed": false,
          "internalType": "uint256",
          "name": "value",
          "type": "uint256"
        }
      ],
      "name": "ConsolationClaimed",
      "type": "event"
    },
    {
      "anonymous": false,
      "inputs": [
        {
          "indexed": true,
          "internalType": "uint256",
          "name": "gameId",
          "type": "uint256"
        }
      ],
      "name": "DrawSkipped",
      "type": "event"
    },
    {
      "anonymous": false,
      "inputs": [
        {
          "indexed": true,
          "internalType": "address",
          "name": "to",
          "type": "address"
        },
        {
          "indexed": false,
          "internalType": "uint256",
          "name": "value",
          "type": "uint256"
        }
      ],
      "name": "ExcessRefunded",
      "type": "event"
    },
    {
      "anonymous": false,
      "inputs": [
        {
          "indexed": false,
          "internalType": "uint256",
          "name": "gameId",
          "type": "uint256"
        },
        {
          "indexed": false,
          "internalType": "uint8[]",
          "name": "winningPick",
          "type": "uint8[]"
        }
      ],
      "name": "GameFinalised",
      "type": "event"
    },
    {
      "anonymous": false,
      "inputs": [
        {
          "indexed": false,
          "internalType": "uint64",
          "name": "version",
          "type": "uint64"
        }
      ],
      "name": "Initialized",
      "type": "event"
    },
    {
      "anonymous": false,
      "inputs": [
        {
          "indexed": true,
          "internalType": "uint256",
          "name": "gameId",
          "type": "uint256"
        },
        {
          "indexed": false,
          "internalType": "uint256",
          "name": "unclaimedPayouts",
          "type": "uint256"
        },
        {
          "indexed": false,
          "internalType": "uint256",
          "name": "currentJackpot",
          "type": "uint256"
        },
        {
          "indexed": false,
          "internalType": "uint256",
          "name": "nextUnclaimedPayouts",
          "type": "uint256"
        },
        {
          "indexed": false,
          "internalType": "uint256",
          "name": "nextJackpot",
          "type": "uint256"
        }
      ],
      "name": "JackpotRollover",
      "type": "event"
    },
    {
      "anonymous": false,
      "inputs": [
        {
          "indexed": true,
          "internalType": "address",
          "name": "whomst",
          "type": "address"
        },
        {
          "indexed": false,
          "internalType": "uint256",
          "name": "amount",
          "type": "uint256"
        }
      ],
      "name": "JackpotSeeded",
      "type": "event"
    },
    {
      "anonymous": false,
      "inputs": [
        {
          "indexed": false,
          "internalType": "uint256",
          "name": "pickId",
          "type": "uint256"
        },
        {
          "indexed": false,
          "internalType": "uint256",
          "name": "winningPickId",
          "type": "uint256"
        }
      ],
      "name": "NoWin",
      "type": "event"
    },
    {
      "anonymous": false,
      "inputs": [
        {
          "indexed": true,
          "internalType": "address",
          "name": "to",
          "type": "address"
        },
        {
          "indexed": false,
          "internalType": "uint256",
          "name": "amount",
          "type": "uint256"
        }
      ],
      "name": "OperationalFundsWithdrawn",
      "type": "event"
    },
    {
      "anonymous": false,
      "inputs": [
        {
          "indexed": true,
          "internalType": "address",
          "name": "previousOwner",
          "type": "address"
        },
        {
          "indexed": true,
          "internalType": "address",
          "name": "newOwner",
          "type": "address"
        }
      ],
      "name": "OwnershipTransferred",
      "type": "event"
    },
    {
      "anonymous": false,
      "inputs": [
        {
          "indexed": true,
          "internalType": "address",
          "name": "to",
          "type": "address"
        },
        {
          "indexed": false,
          "internalType": "uint256",
          "name": "value",
          "type": "uint256"
        }
      ],
      "name": "ProtocolFeePaid",
      "type": "event"
    },
    {
      "anonymous": false,
      "inputs": [
        {
          "indexed": false,
          "internalType": "uint208",
          "name": "requestId",
          "type": "uint208"
        },
        {
          "indexed": false,
          "internalType": "uint48",
          "name": "timestamp",
          "type": "uint48"
        }
      ],
      "name": "RandomnessRequested",
      "type": "event"
    },
    {
      "anonymous": false,
      "inputs": [
        {
          "indexed": false,
          "internalType": "address",
          "name": "sender",
          "type": "address"
        },
        {
          "indexed": false,
          "internalType": "uint256",
          "name": "amount",
          "type": "uint256"
        }
      ],
      "name": "Received",
      "type": "event"
    },
    {
      "anonymous": false,
      "inputs": [
        {
          "indexed": true,
          "internalType": "uint256",
          "name": "gameId",
          "type": "uint256"
        },
        {
          "indexed": true,
          "internalType": "address",
          "name": "whomst",
          "type": "address"
        },
        {
          "indexed": true,
          "internalType": "uint256",
          "name": "tokenId",
          "type": "uint256"
        },
        {
          "indexed": false,
          "internalType": "uint8[]",
          "name": "pick",
          "type": "uint8[]"
        }
      ],
      "name": "TicketPurchased",
      "type": "event"
    },
    {
      "anonymous": false,
      "inputs": [
        {
          "indexed": true,
          "internalType": "address",
          "name": "from",
          "type": "address"
        },
        {
          "indexed": true,
          "internalType": "address",
          "name": "to",
          "type": "address"
        },
        {
          "indexed": true,
          "internalType": "uint256",
          "name": "tokenId",
          "type": "uint256"
        }
      ],
      "name": "Transfer",
      "type": "event"
    },
    {
      "anonymous": false,
      "inputs": [
        {
          "indexed": false,
          "internalType": "address",
          "name": "to",
          "type": "address"
        },
        {
          "indexed": false,
          "internalType": "uint256",
          "name": "value",
          "type": "uint256"
        }
      ],
      "name": "Transferred",
      "type": "event"
    },
    {
      "anonymous": false,
      "inputs": [
        {
          "indexed": true,
          "internalType": "uint256",
          "name": "tokenId",
          "type": "uint256"
        },
        {
          "indexed": true,
          "internalType": "uint256",
          "name": "gameId",
          "type": "uint256"
        },
        {
          "indexed": false,
          "internalType": "address",
          "name": "whomst",
          "type": "address"
        },
        {
          "indexed": false,
          "internalType": "uint256",
          "name": "value",
          "type": "uint256"
        }
      ],
      "name": "WinningsClaimed",
      "type": "event"
    },
    {
      "inputs": [],
      "name": "PROTOCOL_FEE_BPS",
      "outputs": [
        {
          "internalType": "uint256",
          "name": "",
          "type": "uint256"
        }
      ],
      "stateMutability": "view",
      "type": "function"
    },
    {
      "inputs": [],
      "name": "accruedCommunityFees",
      "outputs": [
        {
          "internalType": "uint256",
          "name": "",
          "type": "uint256"
        }
      ],
      "stateMutability": "view",
      "type": "function"
    },
    {
      "inputs": [
        {
          "internalType": "address",
          "name": "to",
          "type": "address"
        },
        {
          "internalType": "uint256",
          "name": "tokenId",
          "type": "uint256"
        }
      ],
      "name": "approve",
      "outputs": [],
      "stateMutability": "nonpayable",
      "type": "function"
    },
    {
      "inputs": [
        {
          "internalType": "address",
          "name": "owner",
          "type": "address"
        }
      ],
      "name": "balanceOf",
      "outputs": [
        {
          "internalType": "uint256",
          "name": "",
          "type": "uint256"
        }
      ],
      "stateMutability": "view",
      "type": "function"
    },
    {
      "inputs": [],
      "name": "beneficiaries",
      "outputs": [
        {
          "internalType": "address[]",
          "name": "addresses",
          "type": "address[]"
        },
        {
          "internalType": "string[]",
          "name": "names",
          "type": "string[]"
        }
      ],
      "stateMutability": "view",
      "type": "function"
    },
    {
      "inputs": [
        {
          "internalType": "address",
          "name": "beneficiary",
          "type": "address"
        }
      ],
      "name": "beneficiaryDisplayNames",
      "outputs": [
        {
          "internalType": "string",
          "name": "name",
          "type": "string"
        }
      ],
      "stateMutability": "view",
      "type": "function"
    },
    {
      "inputs": [],
      "name": "callbackGasLimit",
      "outputs": [
        {
          "internalType": "uint256",
          "name": "",
          "type": "uint256"
        }
      ],
      "stateMutability": "view",
      "type": "function"
    },
    {
      "inputs": [
        {
          "internalType": "uint256",
          "name": "tokenId",
          "type": "uint256"
        }
      ],
      "name": "claimWinnings",
      "outputs": [
        {
          "internalType": "uint256",
          "name": "prizeShare",
          "type": "uint256"
        }
      ],
      "stateMutability": "nonpayable",
      "type": "function"
    },
    {
      "inputs": [
        {
          "internalType": "uint256",
          "name": "gameId",
          "type": "uint256"
        },
        {
          "internalType": "uint256",
          "name": "",
          "type": "uint256"
        }
      ],
      "name": "claimedWinningTickets",
      "outputs": [
        {
          "internalType": "uint256",
          "name": "",
          "type": "uint256"
        }
      ],
      "stateMutability": "view",
      "type": "function"
    },
    {
      "inputs": [],
      "name": "communityFeeBps",
      "outputs": [
        {
          "internalType": "uint256",
          "name": "",
          "type": "uint256"
        }
      ],
      "stateMutability": "view",
      "type": "function"
    },
    {
      "inputs": [
        {
          "internalType": "uint256",
          "name": "pickId",
          "type": "uint256"
        }
      ],
      "name": "computePick",
      "outputs": [
        {
          "internalType": "uint8[]",
          "name": "pick",
          "type": "uint8[]"
        }
      ],
      "stateMutability": "view",
      "type": "function"
    },
    {
      "inputs": [
        {
          "internalType": "uint256",
          "name": "randomSeed",
          "type": "uint256"
        }
      ],
      "name": "computeWinningPick",
      "outputs": [
        {
          "internalType": "uint8[]",
          "name": "balls",
          "type": "uint8[]"
        }
      ],
      "stateMutability": "view",
      "type": "function"
    },
    {
      "inputs": [],
      "name": "currentGame",
      "outputs": [
        {
          "internalType": "enum ILootery.GameState",
          "name": "state",
          "type": "uint8"
        },
        {
          "internalType": "uint248",
          "name": "id",
          "type": "uint248"
        }
      ],
      "stateMutability": "view",
      "type": "function"
    },
    {
      "inputs": [],
      "name": "draw",
      "outputs": [],
      "stateMutability": "payable",
      "type": "function"
    },
    {
      "inputs": [],
      "name": "factory",
      "outputs": [
        {
          "internalType": "address",
          "name": "",
          "type": "address"
        }
      ],
      "stateMutability": "view",
      "type": "function"
    },
    {
      "inputs": [],
      "name": "forceRedraw",
      "outputs": [],
      "stateMutability": "payable",
      "type": "function"
    },
    {
      "inputs": [
        {
          "internalType": "uint256",
          "name": "gameId",
          "type": "uint256"
        }
      ],
      "name": "gameData",
      "outputs": [
        {
          "internalType": "uint64",
          "name": "ticketsSold",
          "type": "uint64"
        },
        {
          "internalType": "uint64",
          "name": "startedAt",
          "type": "uint64"
        },
        {
          "internalType": "uint256",
          "name": "winningPickId",
          "type": "uint256"
        }
      ],
      "stateMutability": "view",
      "type": "function"
    },
    {
      "inputs": [],
      "name": "gamePeriod",
      "outputs": [
        {
          "internalType": "uint256",
          "name": "",
          "type": "uint256"
        }
      ],
      "stateMutability": "view",
      "type": "function"
    },
    {
      "inputs": [
        {
          "internalType": "uint256",
          "name": "tokenId",
          "type": "uint256"
        }
      ],
      "name": "getApproved",
      "outputs": [
        {
          "internalType": "address",
          "name": "",
          "type": "address"
        }
      ],
      "stateMutability": "view",
      "type": "function"
    },
    {
      "inputs": [],
      "name": "getRequestPrice",
      "outputs": [
        {
          "internalType": "uint256",
          "name": "",
          "type": "uint256"
        }
      ],
      "stateMutability": "view",
      "type": "function"
    },
    {
      "inputs": [
        {
          "components": [
            {
              "internalType": "address",
              "name": "owner",
              "type": "address"
            },
            {
              "internalType": "string",
              "name": "name",
              "type": "string"
            },
            {
              "internalType": "string",
              "name": "symbol",
              "type": "string"
            },
            {
              "internalType": "uint8",
              "name": "pickLength",
              "type": "uint8"
            },
            {
              "internalType": "uint8",
              "name": "maxBallValue",
              "type": "uint8"
            },
            {
              "internalType": "uint256",
              "name": "gamePeriod",
              "type": "uint256"
            },
            {
              "internalType": "uint256",
              "name": "ticketPrice",
              "type": "uint256"
            },
            {
              "internalType": "uint256",
              "name": "communityFeeBps",
              "type": "uint256"
            },
            {
              "internalType": "address",
              "name": "randomiser",
              "type": "address"
            },
            {
              "internalType": "address",
              "name": "prizeToken",
              "type": "address"
            },
            {
              "internalType": "uint256",
              "name": "seedJackpotDelay",
              "type": "uint256"
            },
            {
              "internalType": "uint256",
              "name": "seedJackpotMinValue",
              "type": "uint256"
            },
            {
              "internalType": "address",
              "name": "ticketSVGRenderer",
              "type": "address"
            }
          ],
          "internalType": "struct ILootery.InitConfig",
          "name": "initConfig",
          "type": "tuple"
        }
      ],
      "name": "init",
      "outputs": [],
      "stateMutability": "nonpayable",
      "type": "function"
    },
    {
      "inputs": [],
      "name": "isApocalypseMode",
      "outputs": [
        {
          "internalType": "bool",
          "name": "",
          "type": "bool"
        }
      ],
      "stateMutability": "view",
      "type": "function"
    },
    {
      "inputs": [
        {
          "internalType": "address",
          "name": "owner",
          "type": "address"
        },
        {
          "internalType": "address",
          "name": "operator",
          "type": "address"
        }
      ],
      "name": "isApprovedForAll",
      "outputs": [
        {
          "internalType": "bool",
          "name": "",
          "type": "bool"
        }
      ],
      "stateMutability": "view",
      "type": "function"
    },
    {
      "inputs": [],
      "name": "isGameActive",
      "outputs": [
        {
          "internalType": "bool",
          "name": "",
          "type": "bool"
        }
      ],
      "stateMutability": "view",
      "type": "function"
    },
    {
      "inputs": [],
      "name": "jackpot",
      "outputs": [
        {
          "internalType": "uint256",
          "name": "",
          "type": "uint256"
        }
      ],
      "stateMutability": "view",
      "type": "function"
    },
    {
      "inputs": [],
      "name": "jackpotLastSeededAt",
      "outputs": [
        {
          "internalType": "uint256",
          "name": "",
          "type": "uint256"
        }
      ],
      "stateMutability": "view",
      "type": "function"
    },
    {
      "inputs": [],
      "name": "kill",
      "outputs": [],
      "stateMutability": "nonpayable",
      "type": "function"
    },
    {
      "inputs": [],
      "name": "maxBallValue",
      "outputs": [
        {
          "internalType": "uint8",
          "name": "",
          "type": "uint8"
        }
      ],
      "stateMutability": "view",
      "type": "function"
    },
    {
      "inputs": [],
      "name": "name",
      "outputs": [
        {
          "internalType": "string",
          "name": "",
          "type": "string"
        }
      ],
      "stateMutability": "view",
      "type": "function"
    },
    {
      "inputs": [
        {
          "internalType": "uint256",
          "name": "gameId",
          "type": "uint256"
        },
        {
          "internalType": "uint256",
          "name": "pickId",
          "type": "uint256"
        }
      ],
      "name": "numWinnersInGame",
      "outputs": [
        {
          "internalType": "uint256",
          "name": "",
          "type": "uint256"
        }
      ],
      "stateMutability": "view",
      "type": "function"
    },
    {
      "inputs": [],
      "name": "owner",
      "outputs": [
        {
          "internalType": "address",
          "name": "",
          "type": "address"
        }
      ],
      "stateMutability": "view",
      "type": "function"
    },
    {
      "inputs": [
        {
          "internalType": "uint256",
          "name": "tokenId",
          "type": "uint256"
        }
      ],
      "name": "ownerOf",
      "outputs": [
        {
          "internalType": "address",
          "name": "",
          "type": "address"
        }
      ],
      "stateMutability": "view",
      "type": "function"
    },
    {
      "inputs": [
        {
          "components": [
            {
              "internalType": "address",
              "name": "whomst",
              "type": "address"
            },
            {
              "internalType": "uint8[]",
              "name": "pick",
              "type": "uint8[]"
            }
          ],
          "internalType": "struct ILootery.Ticket[]",
          "name": "tickets",
          "type": "tuple[]"
        }
      ],
      "name": "ownerPick",
      "outputs": [],
      "stateMutability": "nonpayable",
      "type": "function"
    },
    {
      "inputs": [],
      "name": "pickLength",
      "outputs": [
        {
          "internalType": "uint8",
          "name": "",
          "type": "uint8"
        }
      ],
      "stateMutability": "view",
      "type": "function"
    },
    {
      "inputs": [],
      "name": "prizeToken",
      "outputs": [
        {
          "internalType": "address",
          "name": "",
          "type": "address"
        }
      ],
      "stateMutability": "view",
      "type": "function"
    },
    {
      "inputs": [
        {
          "components": [
            {
              "internalType": "address",
              "name": "whomst",
              "type": "address"
            },
            {
              "internalType": "uint8[]",
              "name": "pick",
              "type": "uint8[]"
            }
          ],
          "internalType": "struct ILootery.Ticket[]",
          "name": "tickets",
          "type": "tuple[]"
        },
        {
          "internalType": "address",
          "name": "beneficiary",
          "type": "address"
        }
      ],
      "name": "purchase",
      "outputs": [],
      "stateMutability": "nonpayable",
      "type": "function"
    },
    {
      "inputs": [
        {
          "internalType": "uint256",
          "name": "tokenId",
          "type": "uint256"
        }
      ],
      "name": "purchasedTickets",
      "outputs": [
        {
          "internalType": "uint256",
          "name": "gameId",
          "type": "uint256"
        },
        {
          "internalType": "uint256",
          "name": "pickId",
          "type": "uint256"
        }
      ],
      "stateMutability": "view",
      "type": "function"
    },
    {
      "inputs": [],
      "name": "randomiser",
      "outputs": [
        {
          "internalType": "address",
          "name": "",
          "type": "address"
        }
      ],
      "stateMutability": "view",
      "type": "function"
    },
    {
      "inputs": [],
      "name": "randomnessRequest",
      "outputs": [
        {
          "internalType": "uint208",
          "name": "requestId",
          "type": "uint208"
        },
        {
          "internalType": "uint48",
          "name": "timestamp",
          "type": "uint48"
        }
      ],
      "stateMutability": "view",
      "type": "function"
    },
    {
      "inputs": [
        {
          "internalType": "uint256",
          "name": "requestId",
          "type": "uint256"
        },
        {
          "internalType": "uint256[]",
          "name": "randomWords",
          "type": "uint256[]"
        }
      ],
      "name": "receiveRandomWords",
      "outputs": [],
      "stateMutability": "nonpayable",
      "type": "function"
    },
    {
      "inputs": [],
      "name": "renounceOwnership",
      "outputs": [],
      "stateMutability": "nonpayable",
      "type": "function"
    },
    {
      "inputs": [],
      "name": "rescueETH",
      "outputs": [],
      "stateMutability": "nonpayable",
      "type": "function"
    },
    {
      "inputs": [
        {
          "internalType": "address",
          "name": "tokenAddress",
          "type": "address"
        }
      ],
      "name": "rescueTokens",
      "outputs": [],
      "stateMutability": "nonpayable",
      "type": "function"
    },
    {
      "inputs": [
        {
          "internalType": "address",
          "name": "from",
          "type": "address"
        },
        {
          "internalType": "address",
          "name": "to",
          "type": "address"
        },
        {
          "internalType": "uint256",
          "name": "tokenId",
          "type": "uint256"
        }
      ],
      "name": "safeTransferFrom",
      "outputs": [],
      "stateMutability": "nonpayable",
      "type": "function"
    },
    {
      "inputs": [
        {
          "internalType": "address",
          "name": "from",
          "type": "address"
        },
        {
          "internalType": "address",
          "name": "to",
          "type": "address"
        },
        {
          "internalType": "uint256",
          "name": "tokenId",
          "type": "uint256"
        },
        {
          "internalType": "bytes",
          "name": "data",
          "type": "bytes"
        }
      ],
      "name": "safeTransferFrom",
      "outputs": [],
      "stateMutability": "nonpayable",
      "type": "function"
    },
    {
      "inputs": [
        {
          "internalType": "uint256",
          "name": "value",
          "type": "uint256"
        }
      ],
      "name": "seedJackpot",
      "outputs": [],
      "stateMutability": "nonpayable",
      "type": "function"
    },
    {
      "inputs": [],
      "name": "seedJackpotDelay",
      "outputs": [
        {
          "internalType": "uint256",
          "name": "",
          "type": "uint256"
        }
      ],
      "stateMutability": "view",
      "type": "function"
    },
    {
      "inputs": [],
      "name": "seedJackpotMinValue",
      "outputs": [
        {
          "internalType": "uint256",
          "name": "",
          "type": "uint256"
        }
      ],
      "stateMutability": "view",
      "type": "function"
    },
    {
      "inputs": [
        {
          "internalType": "address",
          "name": "operator",
          "type": "address"
        },
        {
          "internalType": "bool",
          "name": "approved",
          "type": "bool"
        }
      ],
      "name": "setApprovalForAll",
      "outputs": [],
      "stateMutability": "nonpayable",
      "type": "function"
    },
    {
      "inputs": [
        {
          "internalType": "address",
          "name": "beneficiary",
          "type": "address"
        },
        {
          "internalType": "string",
          "name": "displayName",
          "type": "string"
        },
        {
          "internalType": "bool",
          "name": "isBeneficiary",
          "type": "bool"
        }
      ],
      "name": "setBeneficiary",
      "outputs": [
        {
          "internalType": "bool",
          "name": "didMutate",
          "type": "bool"
        }
      ],
      "stateMutability": "nonpayable",
      "type": "function"
    },
    {
      "inputs": [
        {
          "internalType": "uint256",
          "name": "newCallbackGasLimit",
          "type": "uint256"
        }
      ],
      "name": "setCallbackGasLimit",
      "outputs": [],
      "stateMutability": "nonpayable",
      "type": "function"
    },
    {
      "inputs": [
        {
          "internalType": "address",
          "name": "renderer",
          "type": "address"
        }
      ],
      "name": "setTicketSVGRenderer",
      "outputs": [],
      "stateMutability": "nonpayable",
      "type": "function"
    },
    {
      "inputs": [
        {
          "internalType": "bytes4",
          "name": "interfaceId",
          "type": "bytes4"
        }
      ],
      "name": "supportsInterface",
      "outputs": [
        {
          "internalType": "bool",
          "name": "",
          "type": "bool"
        }
      ],
      "stateMutability": "view",
      "type": "function"
    },
    {
      "inputs": [],
      "name": "symbol",
      "outputs": [
        {
          "internalType": "string",
          "name": "",
          "type": "string"
        }
      ],
      "stateMutability": "view",
      "type": "function"
    },
    {
      "inputs": [],
      "name": "ticketPrice",
      "outputs": [
        {
          "internalType": "uint256",
          "name": "",
          "type": "uint256"
        }
      ],
      "stateMutability": "view",
      "type": "function"
    },
    {
      "inputs": [],
      "name": "ticketSVGRenderer",
      "outputs": [
        {
          "internalType": "address",
          "name": "",
          "type": "address"
        }
      ],
      "stateMutability": "view",
      "type": "function"
    },
    {
      "inputs": [
        {
          "internalType": "uint256",
          "name": "gameId",
          "type": "uint256"
        },
        {
          "internalType": "uint256",
          "name": "id",
          "type": "uint256"
        },
        {
          "internalType": "uint256",
          "name": "",
          "type": "uint256"
        }
      ],
      "name": "tokenByPickIdentity",
      "outputs": [
        {
          "internalType": "uint256",
          "name": "",
          "type": "uint256"
        }
      ],
      "stateMutability": "view",
      "type": "function"
    },
    {
      "inputs": [
        {
          "internalType": "uint256",
          "name": "tokenId",
          "type": "uint256"
        }
      ],
      "name": "tokenURI",
      "outputs": [
        {
          "internalType": "string",
          "name": "",
          "type": "string"
        }
      ],
      "stateMutability": "view",
      "type": "function"
    },
    {
      "inputs": [],
      "name": "totalSupply",
      "outputs": [
        {
          "internalType": "uint256",
          "name": "",
          "type": "uint256"
        }
      ],
      "stateMutability": "view",
      "type": "function"
    },
    {
      "inputs": [
        {
          "internalType": "address",
          "name": "from",
          "type": "address"
        },
        {
          "internalType": "address",
          "name": "to",
          "type": "address"
        },
        {
          "internalType": "uint256",
          "name": "tokenId",
          "type": "uint256"
        }
      ],
      "name": "transferFrom",
      "outputs": [],
      "stateMutability": "nonpayable",
      "type": "function"
    },
    {
      "inputs": [
        {
          "internalType": "address",
          "name": "newOwner",
          "type": "address"
        }
      ],
      "name": "transferOwnership",
      "outputs": [],
      "stateMutability": "nonpayable",
      "type": "function"
    },
    {
      "inputs": [],
      "name": "typeAndVersion",
      "outputs": [
        {
          "internalType": "string",
          "name": "",
          "type": "string"
        }
      ],
      "stateMutability": "pure",
      "type": "function"
    },
    {
      "inputs": [],
      "name": "unclaimedPayouts",
      "outputs": [
        {
          "internalType": "uint256",
          "name": "",
          "type": "uint256"
        }
      ],
      "stateMutability": "view",
      "type": "function"
    },
    {
      "inputs": [],
      "name": "withdrawAccruedFees",
      "outputs": [],
      "stateMutability": "nonpayable",
      "type": "function"
    },
    {
      "stateMutability": "payable",
      "type": "receive"
    }
  ],
  "bytecode": "0x6080604052348015600f57600080fd5b506016601a565b60ca565b7ff0c57e16840df040f15088dc2f81fe391c3923bec73e23a9662efc9c229c6a00805468010000000000000000900460ff161560695760405163f92ee8a960e01b815260040160405180910390fd5b80546001600160401b039081161460c75780546001600160401b0319166001600160401b0390811782556040519081527fc7f505b2f371ae2175ee4913f4499e1f2633a7b5936321eed1cdaeb6115181d29060200160405180910390a15b50565b615647806100d96000396000f3fe6080604052600436106103c65760003560e01c8063649edf11116101f2578063ab69dd081161010d578063ccaf237f116100a0578063e02ae8ce1161006f578063e02ae8ce14610bb6578063e985e9c514610c0d578063efe2f0eb14610c75578063f2fde38b14610cbe57600080fd5b8063ccaf237f14610aef578063ccb46bd714610b60578063d0ef024a14610b80578063d20831af14610ba057600080fd5b8063b88d4fde116100dc578063b88d4fde14610a79578063be37822814610a99578063c45a015514610aaf578063c87b56dd14610acf57600080fd5b8063ab69dd0814610a0e578063acef672b14610a2e578063ada82c7d14610a4e578063ae46631314610a6357600080fd5b80638bba0174116101855780639ab6e297116101545780639ab6e297146109a2578063a0c4615c146109b8578063a14916d9146109d8578063a22cb465146109ee57600080fd5b80638bba01741461091a5780638da5cb5b146109305780638e84f4b61461096d57806395d89b411461098d57600080fd5b8063715018a6116101c1578063715018a6146108a457806382250a43146108b957806384bc6a24146108d95780638a54942f146108fa57600080fd5b8063649edf1114610846578063677bd9ff1461084e5780636b31ee011461086e57806370a082311461088457600080fd5b806324f74697116102e2578063463d7b1a1161027557806360b663bb1161024457806360b663bb146107b45780636160c00c146107ec57806362ff220f146108065780636352211e1461082657600080fd5b8063463d7b1a1461073c5780634ea217c41461076957806354dd386c1461077e578063586a19d91461079457600080fd5b80633af37a55116102b15780633af37a55146106af5780633b47492d146106e757806341c0e1b51461070757806342842e0e1461071c57600080fd5b806324f74697146106395780632efb2d411461064f578063336f528a1461066f57806338aeb8361461068f57600080fd5b80630eecae211161035a57806318575c0c1161032957806318575c0c146105ae5780631d29bd5a146105e157806320800a001461060457806323b872dd1461061957600080fd5b80630eecae21146105345780631209b1f61461053c57806318160ddd14610552578063181f5a771461056857600080fd5b806306fdde031161039657806306fdde03146104a5578063081812fc146104c7578063095ea7b3146104ff5780630c0ef2b01461051f57600080fd5b8062ae3bf81461040a5780630171984b1461042c57806301ffc9a71461045557806302950fb91461048557600080fd5b3661040557604080513381523460208201527f88a5966d370b9919b20f3e2c13ff65706f196a4e32cc2c12bf57088f88525874910160405180910390a1005b600080fd5b34801561041657600080fd5b5061042a61042536600461480c565b610cde565b005b34801561043857600080fd5b5061044260055481565b6040519081526020015b60405180910390f35b34801561046157600080fd5b5061047561047036600461483f565b610e7c565b604051901515815260200161044c565b34801561049157600080fd5b5061042a6104a036600461485c565b610f00565b3480156104b157600080fd5b506104ba61105d565b60405161044c91906148c5565b3480156104d357600080fd5b506104e76104e236600461485c565b611113565b6040516001600160a01b03909116815260200161044c565b34801561050b57600080fd5b5061042a61051a3660046148d8565b61115b565b34801561052b57600080fd5b5061047561116a565b61042a61118c565b34801561054857600080fd5b5061044260045481565b34801561055e57600080fd5b50610442600a5481565b34801561057457600080fd5b5060408051808201909152600d81527f4c6f6f7465727920312e382e300000000000000000000000000000000000000060208201526104ba565b3480156105ba57600080fd5b506000546105cf90600160a81b900460ff1681565b60405160ff909116815260200161044c565b3480156105ed57600080fd5b506105f66112b4565b60405161044c929190614904565b34801561061057600080fd5b5061042a611410565b34801561062557600080fd5b5061042a6106343660046149af565b6114c6565b34801561064557600080fd5b5061044260095481565b34801561065b57600080fd5b506008546104e7906001600160a01b031681565b34801561067b57600080fd5b506002546104e7906001600160a01b031681565b34801561069b57600080fd5b506104426106aa3660046149f0565b61156a565b3480156106bb57600080fd5b506104426106ca366004614a1c565b600091825260116020908152604080842092845291905290205490565b3480156106f357600080fd5b50610442610702366004614a1c565b6115a8565b34801561071357600080fd5b5061042a6115d9565b34801561072857600080fd5b5061042a6107373660046149af565b61166d565b34801561074857600080fd5b5061075c61075736600461485c565b611688565b60405161044c9190614a7d565b34801561077557600080fd5b506104426116ac565b34801561078a57600080fd5b5061044260075481565b3480156107a057600080fd5b5061075c6107af36600461485c565b61173c565b3480156107c057600080fd5b50600b546107de9060ff81169061010090046001600160f81b031682565b60405161044c929190614ac8565b3480156107f857600080fd5b506014546104759060ff1681565b34801561081257600080fd5b5061042a610821366004614b38565b611756565b34801561083257600080fd5b506104e761084136600461485c565b611a45565b61042a611a50565b34801561085a57600080fd5b5061044261086936600461485c565b611b53565b34801561087a57600080fd5b50610442600c5481565b34801561089057600080fd5b5061044261089f36600461480c565b611f04565b3480156108b057600080fd5b5061042a611f8b565b3480156108c557600080fd5b5061042a6108d436600461480c565b611f9f565b3480156108e557600080fd5b506000546105cf90600160a01b900460ff1681565b34801561090657600080fd5b5061042a61091536600461485c565b611fb3565b34801561092657600080fd5b5061044260065481565b34801561093c57600080fd5b507f9016d09d72d40fdae2fd8ceac6b6234c7706214fd39c1cd1e609a0528c199300546001600160a01b03166104e7565b34801561097957600080fd5b506104ba61098836600461480c565b611ff6565b34801561099957600080fd5b506104ba612090565b3480156109ae57600080fd5b50610442600d5481565b3480156109c457600080fd5b5061042a6109d3366004614b8f565b6120e1565b3480156109e457600080fd5b5061044260135481565b3480156109fa57600080fd5b5061042a610a09366004614be9565b6122c1565b348015610a1a57600080fd5b5061042a610a29366004614c22565b6122cc565b348015610a3a57600080fd5b5061042a610a49366004614d6c565b6122de565b348015610a5a57600080fd5b5061042a612833565b348015610a6f57600080fd5b5061044260015481565b348015610a8557600080fd5b5061042a610a94366004614eaa565b612893565b348015610aa557600080fd5b506104426101f481565b348015610abb57600080fd5b506000546104e7906001600160a01b031681565b348015610adb57600080fd5b506104ba610aea36600461485c565b6128aa565b348015610afb57600080fd5b50610b39610b0a36600461485c565b6010602052600090815260409020805460019091015467ffffffffffffffff80831692600160401b9004169083565b6040805167ffffffffffffffff94851681529390921660208401529082015260600161044c565b348015610b6c57600080fd5b50610475610b7b366004614f2a565b61296a565b348015610b8c57600080fd5b506003546104e7906001600160a01b031681565b348015610bac57600080fd5b5061044260155481565b348015610bc257600080fd5b50600e54610be7906001600160d01b03811690600160d01b900465ffffffffffff1682565b604080516001600160d01b03909316835265ffffffffffff90911660208301520161044c565b348015610c1957600080fd5b50610475610c28366004614fc4565b6001600160a01b0391821660009081527f80bb2b638cc20bc4d0a60d66940f3ab4a00c1d7b313497ca82fb0b4ab00793056020908152604080832093909416825291909152205460ff1690565b348015610c8157600080fd5b50610ca9610c9036600461485c565b600f602052600090815260409020805460019091015482565b6040805192835260208301919091520161044c565b348015610cca57600080fd5b5061042a610cd936600461480c565b612aa6565b610ce6612afa565b6040517f70a082310000000000000000000000000000000000000000000000000000000081523060048201526000906001600160a01b038316906370a0823190602401602060405180830381865afa158015610d46573d6000803e3d6000fd5b505050506040513d601f19601f82011682018060405250810190610d6a9190614ff2565b600b5460035491925061010090046001600160f81b0316906001600160a01b0390811690841603610e6357600081118015610de95750600b54601090600090610dc39060019061010090046001600160f81b0316615021565b6001600160f81b0316815260208101919091526040016000205467ffffffffffffffff16155b8015610e0b57506003600b5460ff166003811115610e0957610e09614a90565b145b15610e245760006013819055600d819055600c55610e63565b6000600c54600d54601354610e399190615040565b610e439190615040565b905080831015610e5557610e55615053565b610e5f8184615069565b9250505b610e776001600160a01b0384163384612b6e565b505050565b60006001600160e01b031982167f80ac58cd000000000000000000000000000000000000000000000000000000001480610edf57506001600160e01b031982167f5b5e139f00000000000000000000000000000000000000000000000000000000145b80610efa57506301ffc9a760e01b6001600160e01b03198316145b92915050565b600180600b5460ff166003811115610f1a57610f1a614a90565b14610f4857600b54604051632812aa8760e01b8152610f3f9160ff169060040161507c565b60405180910390fd5b600754821015610f87576040517f7b47632100000000000000000000000000000000000000000000000000000000815260048101839052602401610f3f565b600654601554610f979190615040565b421015610fee5742600654601554610faf9190615040565b610fb99190615069565b6040517ff015865e000000000000000000000000000000000000000000000000000000008152600401610f3f91815260200190565b4260158190555081600c60008282546110079190615040565b9091555050600354611024906001600160a01b0316333085612be2565b60405182815233907f0a45ec0e27527fa1519b691bab30b4fedbc1da4b3d04ba9d3663f1696be541049060200160405180910390a25050565b7f80bb2b638cc20bc4d0a60d66940f3ab4a00c1d7b313497ca82fb0b4ab0079300805460609190819061108f9061508a565b80601f01602080910402602001604051908101604052809291908181526020018280546110bb9061508a565b80156111085780601f106110dd57610100808354040283529160200191611108565b820191906000526020600020905b8154815290600101906020018083116110eb57829003601f168201915b505050505091505090565b600061111e82612c1b565b5060008281527f80bb2b638cc20bc4d0a60d66940f3ab4a00c1d7b313497ca82fb0b4ab007930460205260409020546001600160a01b0316610efa565b611166828233612c73565b5050565b60006003600b5460ff16600381111561118557611185614a90565b1415905090565b600180600b5460ff1660038111156111a6576111a6614a90565b146111cb57600b54604051632812aa8760e01b8152610f3f9160ff169060040161507c565b600b5461010090046001600160f81b031660009081526010602090815260408083208151606081018352815467ffffffffffffffff8082168352600160401b90910416938101849052600191820154928101929092525490929161122f9190615040565b90508042101561125557604051633fa5f83f60e01b815260048101829052602401610f3f565b815167ffffffffffffffff166000036112ac57600b546040516101009091046001600160f81b0316907ff6ca837b06142a107fde1fb0f9c3379c6d079aa7fa4de4437961f3eb6182221490600090a2610e77612c80565b610e77612f8d565b6060806112c160166131f2565b9150815167ffffffffffffffff8111156112dd576112dd614c64565b60405190808252806020026020018201604052801561131057816020015b60608152602001906001900390816112fb5790505b50905060005b825181101561140b5760186000848381518110611335576113356150be565b60200260200101516001600160a01b03166001600160a01b0316815260200190815260200160002080546113689061508a565b80601f01602080910402602001604051908101604052809291908181526020018280546113949061508a565b80156113e15780601f106113b6576101008083540402835291602001916113e1565b820191906000526020600020905b8154815290600101906020018083116113c457829003601f168201915b50505050508282815181106113f8576113f86150be565b6020908102919091010152600101611316565b509091565b611418612afa565b60405147906000908190339084908381818185875af1925050503d806000811461145e576040519150601f19603f3d011682016040523d82523d6000602084013e611463565b606091505b50915091508161148c573383826040516359ed55cf60e01b8152600401610f3f939291906150d4565b60405183815233907f9c3cc23d5256459e240b53f903b58777839d0f7784189d876864a2fecd9415a29060200160405180910390a2505050565b6001600160a01b0382166114f057604051633250574960e11b815260006004820152602401610f3f565b60006114fd838333613206565b9050836001600160a01b0316816001600160a01b031614611564576040517f64283d7b0000000000000000000000000000000000000000000000000000000081526001600160a01b0380861660048301526024820184905282166044820152606401610f3f565b50505050565b6011602052826000526040600020602052816000526040600020818154811061159257600080fd5b9060005260206000200160009250925050505481565b601260205281600052604060002081815481106115c457600080fd5b90600052602060002001600091509150505481565b6115e1612afa565b600180600b5460ff1660038111156115fb576115fb614a90565b1461162057600b54604051632812aa8760e01b8152610f3f9160ff169060040161507c565b60145460ff161561165d576040517fe76abfdd00000000000000000000000000000000000000000000000000000000815260040160405180910390fd5b506014805460ff19166001179055565b610e7783838360405180602001604052806000815250612893565b600054606090610efa9060ff600160a01b8204811691600160a81b90041684613347565b6002546009546040517f10b0d1d200000000000000000000000000000000000000000000000000000000815260048101919091526000916001600160a01b0316906310b0d1d290602401602060405180830381865afa158015611713573d6000803e3d6000fd5b505050506040513d601f19601f820116820180604052508101906117379190614ff2565b905090565b600054606090610efa90600160a01b900460ff16836133f0565b6000829003611791576040517fc01b5d3b00000000000000000000000000000000000000000000000000000000815260040160405180910390fd5b60045482906000906117a4908390615105565b6003549091506117bf906001600160a01b0316333084612be2565b6000612710600554836117d29190615105565b6117dc919061511c565b905060008060009054906101000a90046001600160a01b03166001600160a01b0316634ccb20c06040518163ffffffff1660e01b8152600401602060405180830381865afa158015611832573d6000803e3d6000fd5b505050506040513d601f19601f82011682018060405250810190611856919061513e565b905060006001600160a01b03821615611887576127106118786101f486615105565b611882919061511c565b61188a565b60005b90506000816118998587615069565b6118a39190615069565b600b5490915061010090046001600160f81b03166001600160a01b0388166118e25784601360008282546118d79190615040565b909155506119459050565b6118ed6016896134aa565b61192e576040517ffce398aa0000000000000000000000000000000000000000000000000000000081526001600160a01b0389166004820152602401610f3f565b600354611945906001600160a01b03168987612b6e565b6001600160a01b0388161561195a578761195c565b305b6001600160a01b0316817f1efc214ec14d081e74ac22debc8d48a010f4f1f30ad4733c94e7c38ff90038e28760405161199791815260200190565b60405180910390a36001600160a01b038416158015906119b75750600083115b15611a17576003546119d3906001600160a01b03168585612b6e565b836001600160a01b03167fb87e607f6030a23ed9b7dac1a717610f3a3b07325269f18808ba763bdcefe7ae84604051611a0e91815260200190565b60405180910390a25b81600c6000828254611a299190615040565b90915550611a3990508a8a6134cc565b50505050505050505050565b6000610efa82612c1b565b600280600b5460ff166003811115611a6a57611a6a614a90565b14611a8f57600b54604051632812aa8760e01b8152610f3f9160ff169060040161507c565b60408051808201909152600e546001600160d01b038116808352600160d01b90910465ffffffffffff166020830152600003611af7576040517f9313240d00000000000000000000000000000000000000000000000000000000815260040160405180910390fd5b6020810151611b0890610e1061515b565b65ffffffffffff164210611b1e57611166612f8d565b6020810151611b2f90610e1061515b565b604051633fa5f83f60e01b815265ffffffffffff9091166004820152602401610f3f565b60006001600b5460ff166003811115611b6e57611b6e614a90565b14158015611b9357506003600b5460ff166003811115611b9057611b90614a90565b14155b15611bb857600b54604051632812aa8760e01b8152610f3f9160ff169060040161507c565b60008281527f80bb2b638cc20bc4d0a60d66940f3ab4a00c1d7b313497ca82fb0b4ab007930260205260409020546001600160a01b031680611c1057604051637e27328960e01b815260048101849052602401610f3f565b611c1983613938565b6000838152600f602090815260409182902082518084019093528054835260019081015491830191909152600b5461010090046001600160f81b031690611c609082615069565b825114611c9c576040517f2506adb500000000000000000000000000000000000000000000000000000000815260048101869052602401610f3f565b815160009081526010602090815260408083208151606081018352815467ffffffffffffffff8082168352600160401b90910416818501526001909101548183018190528651855260118452828520818652845282852054875186526012909452919093205490919081158015611d2957506003600b5460ff166003811115611d2757611d27614a90565b145b15611df1578351611d4590829067ffffffffffffffff16615069565b600d54611d52919061511c565b975087600d6000828254611d669190615069565b90915550508551600090815260126020908152604082208054600181018255908352912001899055600354611da5906001600160a01b0316888a612b6e565b8551604080516001600160a01b038a168152602081018b90528b917f1526f29dc67f9d8967789be9aa23179c7826c4a1c063c5834b5c4c495aaa07cb91015b60405180910390a3611ef8565b85602001518303611eb95760008211611e0c57611e0c615053565b611e168183615069565b600d54611e23919061511c565b975087600d6000828254611e379190615069565b90915550508551600090815260126020908152604082208054600181018255908352912001899055600354611e76906001600160a01b0316888a612b6e565b8551604080516001600160a01b038a168152602081018b90528b917f38eb4599d8dccd3edd335a3f80fea5dbaae4b6cb0db2866060f333f6796db3239101611de4565b602080870151604080519182529181018590527f6ddaa595bb3e06c0ff457cddbaa35f1efddea1202d86286c56b6af33f6a8cc22910160405180910390a15b50505050505050919050565b60007f80bb2b638cc20bc4d0a60d66940f3ab4a00c1d7b313497ca82fb0b4ab00793006001600160a01b038316611f6a576040517f89c62b6400000000000000000000000000000000000000000000000000000000815260006004820152602401610f3f565b6001600160a01b039092166000908152600390920160205250604090205490565b611f93612afa565b611f9d6000613973565b565b611fa7612afa565b611fb0816139e4565b50565b611fbb612afa565b60098190556040518181527fea0306c7b92bfad18ad155350fb250f350724d4e5c843eeb51997be9f937c3509060200160405180910390a150565b6018602052600090815260409020805461200f9061508a565b80601f016020809104026020016040519081016040528092919081815260200182805461203b9061508a565b80156120885780601f1061205d57610100808354040283529160200191612088565b820191906000526020600020905b81548152906001019060200180831161206b57829003601f168201915b505050505081565b7f80bb2b638cc20bc4d0a60d66940f3ab4a00c1d7b313497ca82fb0b4ab007930180546060917f80bb2b638cc20bc4d0a60d66940f3ab4a00c1d7b313497ca82fb0b4ab00793009161108f9061508a565b600280600b5460ff1660038111156120fb576120fb614a90565b1461212057600b54604051632812aa8760e01b8152610f3f9160ff169060040161507c565b6002546001600160a01b03163314612166576040517f01c09680000000000000000000000000000000000000000000000000000000008152336004820152602401610f3f565b60008290036121a1576040517fbfa32be300000000000000000000000000000000000000000000000000000000815260040160405180910390fd5b600e546001600160d01b031684146121fb57600e546040517faae75cf6000000000000000000000000000000000000000000000000000000008152600481018690526001600160d01b039091166024820152604401610f3f565b6040805180820190915260008082526020909101819052600e8190556122368484838161222a5761222a6150be565b90506020020135611688565b600b5460405191925061010090046001600160f81b0316907f4a2c5dc61d8caf543cef0b699bd08678003186170a4fff91cb694c4d9c1bdcad9061227d9083908590615179565b60405180910390a1600061229083613ae8565b6001600160f81b038316600090815260106020526040902060010181905590506122b8612c80565b50505050505050565b611166338383613b2e565b6122d4612afa565b61116682826134cc565b7ff0c57e16840df040f15088dc2f81fe391c3923bec73e23a9662efc9c229c6a008054600160401b810460ff16159067ffffffffffffffff166000811580156123245750825b905060008267ffffffffffffffff1660011480156123415750303b155b90508115801561234f575080155b15612386576040517ff92ee8a900000000000000000000000000000000000000000000000000000000815260040160405180910390fd5b845467ffffffffffffffff1916600117855583156123b557845468ff00000000000000001916600160401b1785555b85516123c090613c0a565b6123d286602001518760400151613c1b565b600080546001600160a01b03191633179055606086015160ff1615806123ff57506020866060015160ff16115b1561242857606086015160405163114e92d560e01b815260ff9091166004820152602401610f3f565b6060860151600080547fffffffffffffffffffffff00ffffffffffffffffffffffffffffffffffffffff16600160a01b60ff93841690810291909117909155608088015190911610156124b25760808601516040517f6973f43c00000000000000000000000000000000000000000000000000000000815260ff9091166004820152602401610f3f565b8560800151600060156101000a81548160ff021916908360ff1602179055506102588660a001511015612519578560a001516040517faf0b9fe1000000000000000000000000000000000000000000000000000000008152600401610f3f91815260200190565b60a086015160015560c0860151600003612567578560c001516040517fb05276a5000000000000000000000000000000000000000000000000000000008152600401610f3f91815260200190565b60c086015160045560e086015161271090612585906101f490615040565b11156125bd576040517f64e1115400000000000000000000000000000000000000000000000000000000815260040160405180910390fd5b60e08601516005556101008601516001600160a01b031661261c576101008601516040517f5e280fa50000000000000000000000000000000000000000000000000000000081526001600160a01b039091166004820152602401610f3f565b610100860151600280546001600160a01b0319166001600160a01b039283161790556101208701511661268d576101208601516040517f4d05c0480000000000000000000000000000000000000000000000000000000081526001600160a01b039091166004820152602401610f3f565b610120860151600380546001600160a01b0319166001600160a01b03909216919091179055610140860151600681905561016087015160075515806126d25750600754155b15612718576006546007546040517f0758bd7700000000000000000000000000000000000000000000000000000000815260048101929092526024820152604401610f3f565b6127268661018001516139e4565b6207a120600955600b8054600160ff199091161790556040805160608101825260008082524267ffffffffffffffff9081166020808501918252948401838152928052601090945291517f6e0956cda88cad152e89927e53611735b61a5c762d1428573c6931b0a5efcb01805494518416600160401b026fffffffffffffffffffffffffffffffff199095169190931617929092179055517f6e0956cda88cad152e89927e53611735b61a5c762d1428573c6931b0a5efcb0255831561282b57845468ff000000000000000019168555604051600181527fc7f505b2f371ae2175ee4913f4499e1f2633a7b5936321eed1cdaeb6115181d29060200160405180910390a15b505050505050565b61283b612afa565b60138054600090915560035461285b906001600160a01b03163383612b6e565b60405181815233907f3f9a693150e48179f93c02c3ec37f52f8280a293b6096e6f5496c22f315b77c29060200160405180910390a250565b61289e8484846114c6565b61156484848484613c2d565b60606128b582612c1b565b506008546001600160a01b0316636de319746128cf61105d565b60008054868252600f602052604090912060010154869160ff600160a81b820481169261290692600160a01b9004909116906133f0565b6040518563ffffffff1660e01b8152600401612925949392919061519b565b600060405180830381865afa158015612942573d6000803e3d6000fd5b505050506040513d6000823e601f3d908101601f19168201604052610efa91908101906151da565b6000612974612afa565b8115612a355760008390036129b5576040517f7f643eca00000000000000000000000000000000000000000000000000000000815260040160405180910390fd5b6001600160a01b03851660009081526018602052604090206129d884868361528f565b506129e4601686613d56565b90508015612a3057846001600160a01b03167fbd793e14f2ef74a7a875db560b865f09db4c686288570de877a4c9c33e6dae478585604051612a2792919061534f565b60405180910390a25b612a9e565b612a40601686613d6b565b90508015612a9e576001600160a01b0385166000908152601860205260408120612a6991614799565b6040516001600160a01b038616907f72977dad29432f655f11c2f0e72ef5124bb9ade7a512fb7a43a9f504df22342890600090a25b949350505050565b612aae612afa565b6001600160a01b038116612af1576040517f1e4fbdf700000000000000000000000000000000000000000000000000000000815260006004820152602401610f3f565b611fb081613973565b33612b2c7f9016d09d72d40fdae2fd8ceac6b6234c7706214fd39c1cd1e609a0528c199300546001600160a01b031690565b6001600160a01b031614611f9d576040517f118cdaa7000000000000000000000000000000000000000000000000000000008152336004820152602401610f3f565b6040516001600160a01b03838116602483015260448201839052610e7791859182169063a9059cbb906064015b604051602081830303815290604052915060e01b6020820180517bffffffffffffffffffffffffffffffffffffffffffffffffffffffff8381831617835250505050613d80565b6040516001600160a01b0384811660248301528381166044830152606482018390526115649186918216906323b872dd90608401612b9b565b60008181527f80bb2b638cc20bc4d0a60d66940f3ab4a00c1d7b313497ca82fb0b4ab007930260205260408120546001600160a01b031680610efa57604051637e27328960e01b815260048101849052602401610f3f565b610e778383836001613dfc565b6003600b5460ff166003811115612c9957612c99614a90565b03612ca657612ca6615053565b600b546014546101009091046001600160f81b03169060009060ff1615612ccf57506003612cd3565b5060015b6040518060400160405280826003811115612cf057612cf0614a90565b8152602001612d0084600161537e565b6001600160f81b031690528051600b8054909190829060ff19166001836003811115612d2e57612d2e614a90565b021790555060209182015181546001600160f81b039091166101000260ff9091161790556040805160608101825260008082524267ffffffffffffffff169382019390935290810182905290601090612d8885600161537e565b6001600160f81b03908116825260208083019390935260409182016000908120855181548787015167ffffffffffffffff908116600160401b026fffffffffffffffffffffffffffffffff19909216921691909117178155948301516001958601559086168152601083528181209093015460118352818420818552909252822054600d54600c54929391929091839003612f17576003856003811115612e3157612e31614a90565b03612eab57600080612e438385615040565b6000600c55600d8190556040805186815260208101869052908101829052606081018490529091506001600160f81b038916907f59a23cf10d003eab0c59d7c706e3b4b20aeddabe02c2ae924bd12cfb8c3e4b64906080015b60405180910390a2505061282b565b6000612eb78284615040565b600c8190556000600d819055604080518681526020810186905290810182905260608101839052919250906001600160f81b038916907f59a23cf10d003eab0c59d7c706e3b4b20aeddabe02c2ae924bd12cfb8c3e4b6490608001612e9c565b6000612f238383615040565b600d8190556000600c81905560408051868152602081018690528082018490526060810192909252519192506001600160f81b038916917f59a23cf10d003eab0c59d7c706e3b4b20aeddabe02c2ae924bd12cfb8c3e4b649181900360800190a250505050505050565b600b805460ff191660021790556000612fa46116ac565b905080341115613071576000612fba8234615069565b9050600080336001600160a01b03168360405160006040518083038185875af1925050503d806000811461300a576040519150601f19603f3d011682016040523d82523d6000602084013e61300f565b606091505b509150915081613038573383826040516359ed55cf60e01b8152600401610f3f939291906150d4565b60405183815233907f2c003babc9bab745cd44b6d4ba45ddf77bdbda4a59d52e1fc805dfb0d8895c7e9060200160405180910390a25050505b804710156130b4576040517f96fbe4dd00000000000000000000000000000000000000000000000000000000815247600482015260248101829052604401610f3f565b6002546000906001600160a01b0316631f53cf04836130d442601e615040565b6009546040516001600160e01b031960e086901b1681526004810192909252602482015260440160206040518083038185885af1158015613119573d6000803e3d6000fd5b50505050506040513d601f19601f8201168201806040525081019061313e9190614ff2565b90506001600160d01b03811115613184576040517fa6110e8400000000000000000000000000000000000000000000000000000000815260048101829052602401610f3f565b6040805180820182526001600160d01b0383168082524265ffffffffffff166020928301819052600160d01b81028217600e558351918252918101919091527f71c56b2f279c00b585c2a62bd64c9206bd1c7f032649b2e863edd255d9ab621f910160405180910390a15050565b606060006131ff83613f7b565b9392505050565b60008281527f80bb2b638cc20bc4d0a60d66940f3ab4a00c1d7b313497ca82fb0b4ab007930260205260408120547f80bb2b638cc20bc4d0a60d66940f3ab4a00c1d7b313497ca82fb0b4ab0079300906001600160a01b039081169084161561327457613274818587613fd7565b6001600160a01b038116156132b457613291600086600080613dfc565b6001600160a01b0381166000908152600383016020526040902080546000190190555b6001600160a01b038616156132e5576001600160a01b03861660009081526003830160205260409020805460010190555b600085815260028301602052604080822080546001600160a01b0319166001600160a01b038a811691821790925591518893918516917fddf252ad1be2c89b69c2b068fc378daa952ba7f163c4a11628f55a4df523b3ef91a495945050505050565b60608360ff1667ffffffffffffffff81111561336557613365614c64565b60405190808252806020026020018201604052801561338e578160200160208202803683370190505b50905060005b8460ff168110156133e6576133af818560ff1685600c614054565b6133ba906001615040565b8282815181106133cc576133cc6150be565b60ff90921660209283029190910190910152600101613394565b50612a9e816141b0565b60608260ff1667ffffffffffffffff81111561340e5761340e614c64565b604051908082528060200260200182016040528015613437578160200160208202803683370190505b5090506000805b6101008110156134a257600184821c8116148015613489578184846134628161539d565b955081518110613474576134746150be565b602002602001019060ff16908160ff16815250505b8560ff16830361349957506134a2565b5060010161343e565b505092915050565b6001600160a01b038116600090815260018301602052604081205415156131ff565b600180600b5460ff1660038111156134e6576134e6614a90565b1461350b57600b54604051632812aa8760e01b8152610f3f9160ff169060040161507c565b60408051808201909152600b80546000929190829060ff16600381111561353457613534614a90565b600381111561354557613545614a90565b8152905461010090046001600160f81b039081166020928301528282015116600081815260108352604090819020815160608082018452825467ffffffffffffffff8082168452600160401b90910416958201959095526001909101548183015281519384019091528051939450909286929081906135c59085906153b6565b67ffffffffffffffff90811682526020848101518216818401526040808601519381019390935260008781526010825283812085518154938701518516600160401b026fffffffffffffffffffffffffffffffff1990941694169390931791909117825592909101516001918201558154600a5460ff600160a01b8304811694600160a81b90930416926136599190615040565b905084600a600082825461366d9190615040565b90915550600090505b858110156138cd5760008b8b83818110613692576136926150be565b90506020028101906136a491906153d6565b6136b290602081019061480c565b905060008c8c848181106136c8576136c86150be565b90506020028101906136da91906153d6565b6136e89060208101906153f6565b808060200260200160405190810160405280939291908181526020018383602002808284376000920191909152505082519293505050861480159061372d5750805115155b1561375057805160405163114e92d560e01b8152600401610f3f91815260200190565b805115613811576000805b8781101561380e576000838281518110613777576137776150be565b602002602001015190508260ff168160ff16116137c257836040517f5f863765000000000000000000000000000000000000000000000000000000008152600401610f3f9190614a7d565b878160ff161115613804576040517f9fb72f1700000000000000000000000000000000000000000000000000000000815260ff82166004820152602401610f3f565b915060010161375b565b50505b600061381d8486615040565b9050600061382a83613ae8565b6040805180820182528d815260208082018481526000878152600f83528481209351845590516001938401558f815260118252838120858252825283812080549384018155815220018490555190915082906001600160a01b038616908d907f38f7010e1714c2785562f89e75c8d417cb1908bd47a9e84cf5db470ad60c44cf906138b6908890614a7d565b60405180910390a450505050806001019050613676565b5060005b8581101561392b5760008b8b838181106138ed576138ed6150be565b90506020028101906138ff91906153d6565b61390d90602081019061480c565b90506139228161391d8486615040565b6142bf565b506001016138d1565b5050505050505050505050565b60006139476000836000613206565b90506001600160a01b03811661116657604051637e27328960e01b815260048101839052602401610f3f565b7f9016d09d72d40fdae2fd8ceac6b6234c7706214fd39c1cd1e609a0528c19930080546001600160a01b031981166001600160a01b03848116918217845560405192169182907f8be0079c531659141344cd1fd0a4f28419497f9722a3daafe3b4186f6b6457e090600090a3505050565b60006001600160a01b03821615801590613a8157506040516301ffc9a760e01b81527f86ff10540000000000000000000000000000000000000000000000000000000060048201526001600160a01b038316906301ffc9a790602401602060405180830381865afa158015613a5d573d6000803e3d6000fd5b505050506040513d601f19601f82011682018060405250810190613a819190615440565b905080613ac5576040517f64fd73040000000000000000000000000000000000000000000000000000000081526001600160a01b0383166004820152602401610f3f565b50600880546001600160a01b0319166001600160a01b0392909216919091179055565b60008060005b8351811015613b2757838181518110613b0957613b096150be565b602002602001015160ff166001901b82179150806001019050613aee565b5092915050565b7f80bb2b638cc20bc4d0a60d66940f3ab4a00c1d7b313497ca82fb0b4ab00793006001600160a01b038316613b9a576040517f5b08ba180000000000000000000000000000000000000000000000000000000081526001600160a01b0384166004820152602401610f3f565b6001600160a01b038481166000818152600584016020908152604080832094881680845294825291829020805460ff191687151590811790915591519182527f17307eab39ab6107e8899845ad3d59bd9653f200f220920489ca2b5937696c31910160405180910390a350505050565b613c126142d9565b611fb08161433b565b613c236142d9565b6111668282614343565b6001600160a01b0383163b1561156457604051630a85bd0160e11b81526001600160a01b0384169063150b7a0290613c6f90339088908790879060040161545d565b6020604051808303816000875af1925050508015613caa575060408051601f3d908101601f19168201909252613ca791810190615494565b60015b613d13573d808015613cd8576040519150601f19603f3d011682016040523d82523d6000602084013e613cdd565b606091505b508051600003613d0b57604051633250574960e11b81526001600160a01b0385166004820152602401610f3f565b805181602001fd5b6001600160e01b03198116630a85bd0160e11b14613d4f57604051633250574960e11b81526001600160a01b0385166004820152602401610f3f565b5050505050565b60006131ff836001600160a01b038416614386565b60006131ff836001600160a01b0384166143d5565b6000613d956001600160a01b038416836144c8565b90508051600014158015613dba575080806020019051810190613db89190615440565b155b15610e77576040517f5274afe70000000000000000000000000000000000000000000000000000000081526001600160a01b0384166004820152602401610f3f565b7f80bb2b638cc20bc4d0a60d66940f3ab4a00c1d7b313497ca82fb0b4ab00793008180613e3157506001600160a01b03831615155b15613f4a576000613e4185612c1b565b90506001600160a01b03841615801590613e6d5750836001600160a01b0316816001600160a01b031614155b8015613ebe57506001600160a01b0380821660009081527f80bb2b638cc20bc4d0a60d66940f3ab4a00c1d7b313497ca82fb0b4ab0079305602090815260408083209388168352929052205460ff16155b15613f00576040517fa9fbf51f0000000000000000000000000000000000000000000000000000000081526001600160a01b0385166004820152602401610f3f565b8215613f485784866001600160a01b0316826001600160a01b03167f8c5be1e5ebec7d5bd14f71427d1e84f3dd0314c0f7b2291e5b200ac8c7c3b92560405160405180910390a45b505b600093845260040160205250506040902080546001600160a01b0319166001600160a01b0392909216919091179055565b606081600001805480602002602001604051908101604052809291908181526020018280548015613fcb57602002820191906000526020600020905b815481526020019060010190808311613fb7575b50505050509050919050565b613fe28383836144d6565b610e77576001600160a01b03831661401057604051637e27328960e01b815260048101829052602401610f3f565b6040517f177e802f0000000000000000000000000000000000000000000000000000000081526001600160a01b038316600482015260248101829052604401610f3f565b60008315806140635750838510155b806140715750816001166001145b156140a8576040517ff34cfab600000000000000000000000000000000000000000000000000000000815260040160405180910390fd5b6140fa565b600060038211600181146140d057600183151916156140cb57600191505b6140f4565b829150600160028404015b828110156140f257915060028284048301046140db565b505b50919050565b614103846140ad565b6000856002830a146001811461413f57600183016fffffffffffffffffffffffffffffffff81111561413457600080fd5b6002900a9150614143565b8691505b5061414d816140ad565b915050604051608081016040528460408201528560608201525b81870682880460005b86811015614197578184526020840181905260808420919290910184900690600101614170565b5083020196508587101561416757509495945050505050565b805160609060015b818110156142b75760008482815181106141d4576141d46150be565b6020026020010151905060006001836141ed91906154b1565b90505b6000811215801561421f575085818151811061420e5761420e6150be565b602002602001015160ff168260ff16105b1561427e57858181518110614236576142366150be565b60200260200101518682600161424c91906154d1565b8151811061425c5761425c6150be565b60ff90921660209283029190910190910152614277816154f1565b90506141f0565b818661428b8360016154d1565b8151811061429b5761429b6150be565b60ff9092166020928302919091019091015250506001016141b8565b509192915050565b611166828260405180602001604052806000815250614597565b7ff0c57e16840df040f15088dc2f81fe391c3923bec73e23a9662efc9c229c6a0054600160401b900460ff16611f9d576040517fd7e6bcf800000000000000000000000000000000000000000000000000000000815260040160405180910390fd5b612aae6142d9565b61434b6142d9565b7f80bb2b638cc20bc4d0a60d66940f3ab4a00c1d7b313497ca82fb0b4ab007930080614377848261552a565b5060018101611564838261552a565b60008181526001830160205260408120546143cd57508154600181810184556000848152602080822090930184905584548482528286019093526040902091909155610efa565b506000610efa565b600081815260018301602052604081205480156144be5760006143f9600183615069565b855490915060009061440d90600190615069565b905080821461447257600086600001828154811061442d5761442d6150be565b9060005260206000200154905080876000018481548110614450576144506150be565b6000918252602080832090910192909255918252600188019052604090208390555b8554869080614483576144836155e9565b600190038181906000526020600020016000905590558560010160008681526020019081526020016000206000905560019350505050610efa565b6000915050610efa565b60606131ff838360006145ae565b60006001600160a01b03831615801590612a9e5750826001600160a01b0316846001600160a01b0316148061454f57506001600160a01b0380851660009081527f80bb2b638cc20bc4d0a60d66940f3ab4a00c1d7b313497ca82fb0b4ab0079305602090815260408083209387168352929052205460ff165b80612a9e57505060009081527f80bb2b638cc20bc4d0a60d66940f3ab4a00c1d7b313497ca82fb0b4ab007930460205260409020546001600160a01b03908116911614919050565b6145a18383614664565b610e776000848484613c2d565b6060814710156145ec576040517fcd786059000000000000000000000000000000000000000000000000000000008152306004820152602401610f3f565b600080856001600160a01b0316848660405161460891906155ff565b60006040518083038185875af1925050503d8060008114614645576040519150601f19603f3d011682016040523d82523d6000602084013e61464a565b606091505b509150915061465a8683836146e2565b9695505050505050565b6001600160a01b03821661468e57604051633250574960e11b815260006004820152602401610f3f565b600061469c83836000613206565b90506001600160a01b03811615610e77576040517f73c6ac6e00000000000000000000000000000000000000000000000000000000815260006004820152602401610f3f565b6060826146f7576146f282614757565b6131ff565b815115801561470e57506001600160a01b0384163b155b15614750576040517f9996b3150000000000000000000000000000000000000000000000000000000081526001600160a01b0385166004820152602401610f3f565b50806131ff565b8051156147675780518082602001fd5b6040517f1425ea4200000000000000000000000000000000000000000000000000000000815260040160405180910390fd5b5080546147a59061508a565b6000825580601f106147b5575050565b601f016020900490600052602060002090810190611fb091905b808211156147e357600081556001016147cf565b5090565b6001600160a01b0381168114611fb057600080fd5b8035614807816147e7565b919050565b60006020828403121561481e57600080fd5b81356131ff816147e7565b6001600160e01b031981168114611fb057600080fd5b60006020828403121561485157600080fd5b81356131ff81614829565b60006020828403121561486e57600080fd5b5035919050565b60005b83811015614890578181015183820152602001614878565b50506000910152565b600081518084526148b1816020860160208601614875565b601f01601f19169290920160200192915050565b6020815260006131ff6020830184614899565b600080604083850312156148eb57600080fd5b82356148f6816147e7565b946020939093013593505050565b6040808252835190820181905260009060208501906060840190835b818110156149475783516001600160a01b0316835260209384019390920191600101614920565b50508381036020850152809150845180825260208201925060208160051b8301016020870160005b838110156149a157601f1985840301865261498b838351614899565b602096870196909350919091019060010161496f565b509098975050505050505050565b6000806000606084860312156149c457600080fd5b83356149cf816147e7565b925060208401356149df816147e7565b929592945050506040919091013590565b600080600060608486031215614a0557600080fd5b505081359360208301359350604090920135919050565b60008060408385031215614a2f57600080fd5b50508035926020909101359150565b600081518084526020840193506020830160005b82811015614a7357815160ff16865260209586019590910190600101614a52565b5093949350505050565b6020815260006131ff6020830184614a3e565b634e487b7160e01b600052602160045260246000fd5b60048110614ac457634e487b7160e01b600052602160045260246000fd5b9052565b60408101614ad68285614aa6565b6001600160f81b03831660208301529392505050565b60008083601f840112614afe57600080fd5b50813567ffffffffffffffff811115614b1657600080fd5b6020830191508360208260051b8501011115614b3157600080fd5b9250929050565b600080600060408486031215614b4d57600080fd5b833567ffffffffffffffff811115614b6457600080fd5b614b7086828701614aec565b9094509250506020840135614b84816147e7565b809150509250925092565b600080600060408486031215614ba457600080fd5b83359250602084013567ffffffffffffffff811115614bc257600080fd5b614bce86828701614aec565b9497909650939450505050565b8015158114611fb057600080fd5b60008060408385031215614bfc57600080fd5b8235614c07816147e7565b91506020830135614c1781614bdb565b809150509250929050565b60008060208385031215614c3557600080fd5b823567ffffffffffffffff811115614c4c57600080fd5b614c5885828601614aec565b90969095509350505050565b634e487b7160e01b600052604160045260246000fd5b6040516101a0810167ffffffffffffffff81118282101715614c9e57614c9e614c64565b60405290565b604051601f8201601f1916810167ffffffffffffffff81118282101715614ccd57614ccd614c64565b604052919050565b600067ffffffffffffffff821115614cef57614cef614c64565b50601f01601f191660200190565b6000614d10614d0b84614cd5565b614ca4565b9050828152838383011115614d2457600080fd5b828260208301376000602084830101529392505050565b600082601f830112614d4c57600080fd5b6131ff83833560208501614cfd565b803560ff8116811461480757600080fd5b600060208284031215614d7e57600080fd5b813567ffffffffffffffff811115614d9557600080fd5b82016101a08185031215614da857600080fd5b614db0614c7a565b614db9826147fc565b8152602082013567ffffffffffffffff811115614dd557600080fd5b614de186828501614d3b565b602083015250604082013567ffffffffffffffff811115614e0157600080fd5b614e0d86828501614d3b565b604083015250614e1f60608301614d5b565b6060820152614e3060808301614d5b565b608082015260a0828101359082015260c0808301359082015260e08083013590820152614e6061010083016147fc565b610100820152614e7361012083016147fc565b61012082015261014082810135908201526101608083013590820152614e9c61018083016147fc565b610180820152949350505050565b60008060008060808587031215614ec057600080fd5b8435614ecb816147e7565b93506020850135614edb816147e7565b925060408501359150606085013567ffffffffffffffff811115614efe57600080fd5b8501601f81018713614f0f57600080fd5b614f1e87823560208401614cfd565b91505092959194509250565b60008060008060608587031215614f4057600080fd5b8435614f4b816147e7565b9350602085013567ffffffffffffffff811115614f6757600080fd5b8501601f81018713614f7857600080fd5b803567ffffffffffffffff811115614f8f57600080fd5b876020828401011115614fa157600080fd5b602091909101935091506040850135614fb981614bdb565b939692955090935050565b60008060408385031215614fd757600080fd5b8235614fe2816147e7565b91506020830135614c17816147e7565b60006020828403121561500457600080fd5b5051919050565b634e487b7160e01b600052601160045260246000fd5b6001600160f81b038281168282160390811115610efa57610efa61500b565b80820180821115610efa57610efa61500b565b634e487b7160e01b600052600160045260246000fd5b81810381811115610efa57610efa61500b565b60208101610efa8284614aa6565b600181811c9082168061509e57607f821691505b6020821081036140f457634e487b7160e01b600052602260045260246000fd5b634e487b7160e01b600052603260045260246000fd5b6001600160a01b03841681528260208201526060604082015260006150fc6060830184614899565b95945050505050565b8082028115828204841417610efa57610efa61500b565b60008261513957634e487b7160e01b600052601260045260246000fd5b500490565b60006020828403121561515057600080fd5b81516131ff816147e7565b65ffffffffffff8181168382160190811115610efa57610efa61500b565b6001600160f81b0383168152604060208201526000612a9e6040830184614a3e565b6080815260006151ae6080830187614899565b85602084015260ff8516604084015282810360608401526151cf8185614a3e565b979650505050505050565b6000602082840312156151ec57600080fd5b815167ffffffffffffffff81111561520357600080fd5b8201601f8101841361521457600080fd5b8051615222614d0b82614cd5565b81815285602083850101111561523757600080fd5b6150fc826020830160208601614875565b601f821115610e7757806000526020600020601f840160051c8101602085101561526f5750805b601f840160051c820191505b81811015613d4f576000815560010161527b565b67ffffffffffffffff8311156152a7576152a7614c64565b6152bb836152b5835461508a565b83615248565b6000601f8411600181146152ef57600085156152d75750838201355b600019600387901b1c1916600186901b178355613d4f565b600083815260209020601f19861690835b828110156153205786850135825560209485019460019092019101615300565b508682101561533d5760001960f88860031b161c19848701351681555b505060018560011b0183555050505050565b60208152816020820152818360408301376000818301604090810191909152601f909201601f19160101919050565b6001600160f81b038181168382160190811115610efa57610efa61500b565b6000600182016153af576153af61500b565b5060010190565b67ffffffffffffffff8181168382160190811115610efa57610efa61500b565b60008235603e198336030181126153ec57600080fd5b9190910192915050565b6000808335601e1984360301811261540d57600080fd5b83018035915067ffffffffffffffff82111561542857600080fd5b6020019150600581901b3603821315614b3157600080fd5b60006020828403121561545257600080fd5b81516131ff81614bdb565b6001600160a01b03851681526001600160a01b038416602082015282604082015260806060820152600061465a6080830184614899565b6000602082840312156154a657600080fd5b81516131ff81614829565b8181036000831280158383131683831282161715613b2757613b2761500b565b80820182811260008312801582168215821617156134a2576134a261500b565b60007f800000000000000000000000000000000000000000000000000000000000000082036155225761552261500b565b506000190190565b815167ffffffffffffffff81111561554457615544614c64565b61555881615552845461508a565b84615248565b6020601f82116001811461558c57600083156155745750848201515b600019600385901b1c1916600184901b178455613d4f565b600084815260208120601f198516915b828110156155bc578785015182556020948501946001909201910161559c565b50848210156155da5786840151600019600387901b60f8161c191681555b50505050600190811b01905550565b634e487b7160e01b600052603160045260246000fd5b600082516153ec81846020870161487556fea264697066735822122088d918f60ddb7a99ee8b4fbc64f0f5d38d4c4249fb1f5a772fc8fc67791819cd64736f6c634300081b0033",
  "linkReferences": {},
  "deployedLinkReferences": {}
}